{
  "address": "0xf9d4F0775e2F7D8c8259C4c093d333e9af5F620c",
  "abi": [
    {
      "inputs": [
        {
          "internalType": "address",
          "name": "erc721Destination",
          "type": "address"
        },
        {
          "internalType": "address",
          "name": "storageestination",
          "type": "address"
        },
        {
          "internalType": "address",
          "name": "assetDestination",
          "type": "address"
        },
        {
          "internalType": "address",
          "name": "valuesDestination",
          "type": "address"
        },
        {
          "internalType": "address",
          "name": "royaltyDestination",
          "type": "address"
        }
      ],
      "stateMutability": "nonpayable",
      "type": "constructor"
    },
    {
      "inputs": [
        {
          "internalType": "address",
          "name": "addr",
          "type": "address"
        }
      ],
      "name": "allPreviews",
      "outputs": [
        {
          "internalType": "uint32[]",
          "name": "",
          "type": "uint32[]"
        }
      ],
      "stateMutability": "view",
      "type": "function"
    },
    {
      "inputs": [
        {
          "internalType": "address",
          "name": "owner",
          "type": "address"
        }
      ],
      "name": "allTokens",
      "outputs": [
        {
          "internalType": "uint32[]",
          "name": "tokens",
          "type": "uint32[]"
        }
      ],
      "stateMutability": "view",
      "type": "function"
    },
    {
      "inputs": [],
      "name": "assetController",
      "outputs": [
        {
          "internalType": "contract Asset",
          "name": "",
          "type": "address"
        }
      ],
      "stateMutability": "view",
      "type": "function"
    },
    {
      "inputs": [
        {
          "internalType": "address",
          "name": "sender",
          "type": "address"
        }
      ],
      "name": "balanceOf",
      "outputs": [
        {
          "internalType": "uint256",
          "name": "",
          "type": "uint256"
        }
      ],
      "stateMutability": "view",
      "type": "function"
    },
    {
      "inputs": [],
      "name": "erc721",
      "outputs": [
        {
          "internalType": "contract InfinityMint",
          "name": "",
          "type": "address"
        }
      ],
      "stateMutability": "view",
      "type": "function"
    },
    {
      "inputs": [
        {
          "internalType": "uint32",
          "name": "tokenId",
          "type": "uint32"
        }
      ],
      "name": "get",
      "outputs": [
        {
          "components": [
            {
              "internalType": "uint32",
              "name": "pathId",
              "type": "uint32"
            },
            {
              "internalType": "uint32",
              "name": "pathSize",
              "type": "uint32"
            },
            {
              "internalType": "uint32",
              "name": "currentTokenId",
              "type": "uint32"
            },
            {
              "internalType": "address",
              "name": "owner",
              "type": "address"
            },
            {
              "internalType": "uint32[]",
              "name": "colours",
              "type": "uint32[]"
            },
            {
              "internalType": "bytes",
              "name": "mintData",
              "type": "bytes"
            },
            {
              "internalType": "uint32[]",
              "name": "assets",
              "type": "uint32[]"
            },
            {
              "internalType": "string[]",
              "name": "names",
              "type": "string[]"
            },
            {
              "internalType": "address[]",
              "name": "destinations",
              "type": "address[]"
            }
          ],
          "internalType": "struct InfinityMintObject.InfinityObject",
          "name": "",
          "type": "tuple"
        }
      ],
      "stateMutability": "view",
      "type": "function"
    },
    {
      "inputs": [
        {
          "internalType": "uint32",
          "name": "tokenId",
          "type": "uint32"
        }
      ],
      "name": "getBalanceOfWallet",
      "outputs": [
        {
          "internalType": "uint256",
          "name": "",
          "type": "uint256"
        }
      ],
      "stateMutability": "view",
      "type": "function"
    },
    {
      "inputs": [
        {
          "internalType": "uint32",
          "name": "tokenId",
          "type": "uint32"
        },
        {
          "internalType": "uint256",
          "name": "index",
          "type": "uint256"
        }
      ],
      "name": "getLink",
      "outputs": [
        {
          "internalType": "address",
          "name": "",
          "type": "address"
        }
      ],
      "stateMutability": "view",
      "type": "function"
    },
    {
      "inputs": [
        {
          "internalType": "uint32",
          "name": "index",
          "type": "uint32"
        }
      ],
      "name": "getPreview",
      "outputs": [
        {
          "components": [
            {
              "internalType": "uint32",
              "name": "pathId",
              "type": "uint32"
            },
            {
              "internalType": "uint32",
              "name": "pathSize",
              "type": "uint32"
            },
            {
              "internalType": "uint32",
              "name": "currentTokenId",
              "type": "uint32"
            },
            {
              "internalType": "address",
              "name": "owner",
              "type": "address"
            },
            {
              "internalType": "uint32[]",
              "name": "colours",
              "type": "uint32[]"
            },
            {
              "internalType": "bytes",
              "name": "mintData",
              "type": "bytes"
            },
            {
              "internalType": "uint32[]",
              "name": "assets",
              "type": "uint32[]"
            },
            {
              "internalType": "string[]",
              "name": "names",
              "type": "string[]"
            },
            {
              "internalType": "address[]",
              "name": "destinations",
              "type": "address[]"
            }
          ],
          "internalType": "struct InfinityMintObject.InfinityObject",
          "name": "",
          "type": "tuple"
        }
      ],
      "stateMutability": "view",
      "type": "function"
    },
    {
      "inputs": [
        {
          "internalType": "address",
          "name": "addr",
          "type": "address"
        }
      ],
      "name": "getPreviewCount",
      "outputs": [
        {
          "internalType": "uint256",
          "name": "count",
          "type": "uint256"
        }
      ],
      "stateMutability": "view",
      "type": "function"
    },
    {
      "inputs": [
        {
          "internalType": "address",
          "name": "addr",
          "type": "address"
        }
      ],
      "name": "getPreviewTimestamp",
      "outputs": [
        {
          "internalType": "uint256",
          "name": "",
          "type": "uint256"
        }
      ],
      "stateMutability": "view",
      "type": "function"
    },
    {
      "inputs": [],
      "name": "getPrice",
      "outputs": [
        {
          "internalType": "uint256",
          "name": "",
          "type": "uint256"
        }
      ],
      "stateMutability": "view",
      "type": "function"
    },
    {
      "inputs": [
        {
          "internalType": "uint32",
          "name": "tokenId",
          "type": "uint32"
        }
      ],
      "name": "getRaw",
      "outputs": [
        {
          "internalType": "bytes",
          "name": "",
          "type": "bytes"
        }
      ],
      "stateMutability": "view",
      "type": "function"
    },
    {
      "inputs": [
        {
          "internalType": "uint32",
          "name": "tokenId",
          "type": "uint32"
        }
      ],
      "name": "getStickerContract",
      "outputs": [
        {
          "internalType": "address",
          "name": "result",
          "type": "address"
        }
      ],
      "stateMutability": "view",
      "type": "function"
    },
    {
      "inputs": [
        {
          "internalType": "uint32",
          "name": "tokenId",
          "type": "uint32"
        }
      ],
      "name": "getWalletContract",
      "outputs": [
        {
          "internalType": "address",
          "name": "result",
          "type": "address"
        }
      ],
      "stateMutability": "view",
      "type": "function"
    },
    {
      "inputs": [],
      "name": "isMintsEnabled",
      "outputs": [
        {
          "internalType": "bool",
          "name": "",
          "type": "bool"
        }
      ],
      "stateMutability": "view",
      "type": "function"
    },
    {
      "inputs": [
        {
          "internalType": "address",
          "name": "sender",
          "type": "address"
        }
      ],
      "name": "isPreviewBlocked",
      "outputs": [
        {
          "internalType": "bool",
          "name": "",
          "type": "bool"
        }
      ],
      "stateMutability": "view",
      "type": "function"
    },
    {
      "inputs": [
        {
          "internalType": "uint32",
          "name": "tokenId",
          "type": "uint32"
        }
      ],
      "name": "ownerOf",
      "outputs": [
        {
          "internalType": "address",
          "name": "result",
          "type": "address"
        }
      ],
      "stateMutability": "view",
      "type": "function"
    },
    {
      "inputs": [],
      "name": "royaltyController",
      "outputs": [
        {
          "internalType": "contract Royalty",
          "name": "",
          "type": "address"
        }
      ],
      "stateMutability": "view",
      "type": "function"
    },
    {
      "inputs": [],
      "name": "storageController",
      "outputs": [
        {
          "internalType": "contract InfinityMintStorage",
          "name": "",
          "type": "address"
        }
      ],
      "stateMutability": "view",
      "type": "function"
    },
    {
      "inputs": [],
      "name": "totalMints",
      "outputs": [
        {
          "internalType": "uint32",
          "name": "",
          "type": "uint32"
        }
      ],
      "stateMutability": "view",
      "type": "function"
    },
    {
      "inputs": [],
      "name": "totalSupply",
      "outputs": [
        {
          "internalType": "uint256",
          "name": "",
          "type": "uint256"
        }
      ],
      "stateMutability": "view",
      "type": "function"
    },
    {
      "inputs": [],
      "name": "valuesController",
      "outputs": [
        {
          "internalType": "contract InfinityMintValues",
          "name": "",
          "type": "address"
        }
      ],
      "stateMutability": "view",
      "type": "function"
    }
  ],
  "transactionHash": "0x09673791a20670c00d6859a551e33de32953fd5e4e3003623f97eb069b53dfa3",
  "args": [
    "0x31845Bebf7090E7BB0a2e9e191d463336131Dca7",
    "0x8120EF40b29100b37BBda3B20d1261CC3F355e95",
    "0x67Ccfc2Ca4270DeF7922470A0DDEd1090514DFEF",
    "0x88B11F935975441aC5b3711e2fbA9db8E5E7c775",
    "0x2683009b41b999Baf1b8F900dB23fd51c2a099d3"
  ],
  "numDeployments": 1,
  "solcInputHash": "c554005d846e5256cfd947c8d0a331d2",
  "bytecode": "0x60806040523480156200001157600080fd5b5060405162001b6638038062001b668339810160408190526200003491620000b4565b600080546001600160a01b03199081166001600160a01b0397881617909155600180548216958716959095179094556002805485169386169390931790925560038054841691851691909117905560048054909216921691909117905562000124565b80516001600160a01b0381168114620000af57600080fd5b919050565b600080600080600060a08688031215620000cd57600080fd5b620000d88662000097565b9450620000e86020870162000097565b9350620000f86040870162000097565b9250620001086060870162000097565b9150620001186080870162000097565b90509295509295909350565b611a3280620001346000396000f3fe608060405234801561001057600080fd5b506004361061011d5760003560e01c80630c380cf0146101225780630e4937351461014b578063105c48131461016c5780631703c0001461017f57806318160ddd146101975780631e3edcf91461019f5780631f21bfbf146101bf57806323b7ec3b146101d457806329fd769e146101e75780633aec3519146101fa5780633ebdfda11461020d578063573f86001461022d57806370a08231146102405780639437b1121461025357806395ded45c1461026657806398d5fdca14610279578063bca6ce6414610281578063c04a479114610294578063c71040d7146102a7578063d8a26e3a146102c7578063e5725968146102da578063ec2b46c3146102ed578063ef5bee3b14610300575b600080fd5b600354610135906001600160a01b031681565b604051610142919061108b565b60405180910390f35b61015e6101593660046110b4565b610313565b604051908152602001610142565b600454610135906001600160a01b031681565b6101876103ef565b6040519015158152602001610142565b61015e61046c565b6101b26101ad3660046110e6565b6104f3565b6040516101429190611144565b6101c7610754565b6040516101429190611157565b6101356101e23660046110b4565b6107cb565b6101356101f53660046110b4565b610888565b6101356102083660046110b4565b61089b565b61022061021b3660046110b4565b6108a8565b6040516101429190611252565b600254610135906001600160a01b031681565b61015e61024e3660046110e6565b61092d565b61015e6102613660046110e6565b61099f565b6101b26102743660046110e6565b610ae8565b61015e610c3e565b600054610135906001600160a01b031681565b6101876102a23660046110e6565b610c93565b6102ba6102b53660046110b4565b610d0d565b6040516101429190611346565b6102206102d53660046110b4565b610e18565b61015e6102e83660046110e6565b610e50565b600154610135906001600160a01b031681565b61013561030e366004611359565b610e81565b600080610321836000610e81565b90506001600160a01b03811661033a5750600092915050565b60408051600481526024810182526020810180516001600160e01b031663c6e48e2360e01b179052905160009182916001600160a01b0385169161037d91611385565b600060405180830381855afa9150503d80600081146103b8576040519150601f19603f3d011682016040523d82523d6000602084013e6103bd565b606091505b5091509150816103d257506000949350505050565b808060200190518101906103e691906113a1565b95945050505050565b60008060009054906101000a90046001600160a01b03166001600160a01b0316637817d7c06040518163ffffffff1660e01b8152600401602060405180830381865afa158015610443573d6000803e3d6000fd5b505050506040513d601f19601f8201168201806040525081019061046791906113ba565b905090565b60035460405163e7b6dac960e01b81526020600482015260096024820152686d6178537570706c7960b81b60448201526000916001600160a01b03169063e7b6dac990606401602060405180830381865afa1580156104cf573d6000803e3d6000fd5b505050506040513d601f19601f8201168201806040525081019061046791906113a1565b60606001600160a01b03821661055e5760405162461bcd60e51b815260206004820152602560248201527f63616e6e6f74207669657720707265766965777320666f72206e756c6c206164604482015264647265737360d81b60648201526084015b60405180910390fd5b60015460035460405163e7b6dac960e01b81526000926001600160a01b0390811692636407a4009287929091169063e7b6dac99061059e906004016113dc565b602060405180830381865afa1580156105bb573d6000803e3d6000fd5b505050506040513d601f19601f820116820180604052508101906105df91906113a1565b6040518363ffffffff1660e01b81526004016105fc929190611402565b600060405180830381865afa158015610619573d6000803e3d6000fd5b505050506040513d6000823e601f3d908101601f1916820160405261064191908101906117c1565b90506000805b825181101561069d57846001600160a01b031683828151811061066c5761066c611871565b6020026020010151606001516001600160a01b03161415610695578161069181611887565b9250505b600101610647565b50801561073e576000816001600160401b038111156106be576106be61141b565b6040519080825280602002602001820160405280156106e7578160200160208202803683370190505b5090506000915060005b83518110156107355780828461070681611887565b95508151811061071857610718611871565b63ffffffff909216602092830291909101909101526001016106f1565b50949350505050565b6040805160008082526020820190925290610735565b60008060009054906101000a90046001600160a01b03166001600160a01b0316629a9b7b6040518163ffffffff1660e01b8152600401602060405180830381865afa1580156107a7573d6000803e3d6000fd5b505050506040513d601f19601f8201168201806040525081019061046791906118b0565b60015460405163310d91f160e11b81526000916001600160a01b03169063621b23e2906107fc908590600401611157565b602060405180830381865afa158015610819573d6000803e3d6000fd5b505050506040513d601f19601f8201168201806040525081019061083d91906118cd565b90506001600160a01b0381166108835760405162461bcd60e51b815260206004820152600b60248201526a626164206164647265737360a81b6044820152606401610555565b919050565b6000610895826000610e81565b92915050565b6000610895826001610e81565b6108b0611024565b60015460405163fccc3cd560e01b815233600482015263ffffffff841660248201526001600160a01b039091169063fccc3cd5906044015b600060405180830381865afa158015610905573d6000803e3d6000fd5b505050506040513d6000823e601f3d908101601f1916820160405261089591908101906118ea565b600080546040516370a0823160e01b81526001600160a01b03909116906370a082319061095e90859060040161108b565b602060405180830381865afa15801561097b573d6000803e3d6000fd5b505050506040513d601f19601f8201168201806040525081019061089591906113a1565b60015460035460405163e7b6dac960e01b815260009283926001600160a01b0391821692636407a400928792169063e7b6dac9906109df906004016113dc565b602060405180830381865afa1580156109fc573d6000803e3d6000fd5b505050506040513d601f19601f82011682018060405250810190610a2091906113a1565b6040518363ffffffff1660e01b8152600401610a3d929190611402565b600060405180830381865afa158015610a5a573d6000803e3d6000fd5b505050506040513d6000823e601f3d908101601f19168201604052610a8291908101906117c1565b90506000915060005b8151811015610ae157836001600160a01b0316828281518110610ab057610ab0611871565b6020026020010151606001516001600160a01b03161415610ad95782610ad581611887565b9350505b600101610a8b565b5050919050565b6003546040516206259160e71b815260206004820152601760248201527664697361626c6552656769737465726564546f6b656e7360481b60448201526060916001600160a01b031690630312c88090606401602060405180830381865afa158015610b58573d6000803e3d6000fd5b505050506040513d601f19601f82011682018060405250810190610b7c91906113ba565b15610bc95760405162461bcd60e51b815260206004820152601d60248201527f616c6c20746f6b656e73206d6574686f642069732064697361626c65640000006044820152606401610555565b60015460405163495c94dd60e01b81526001600160a01b039091169063495c94dd90610bf990859060040161108b565b600060405180830381865afa158015610c16573d6000803e3d6000fd5b505050506040513d6000823e601f3d908101601f191682016040526108959190810190611926565b6000600460009054906101000a90046001600160a01b03166001600160a01b0316637ff9b5966040518163ffffffff1660e01b8152600401602060405180830381865afa1580156104cf573d6000803e3d6000fd5b600154604051631cae4b2d60e31b81526000916001600160a01b03169063e572596890610cc490859060040161108b565b602060405180830381865afa158015610ce1573d6000803e3d6000fd5b505050506040513d601f19601f82011682018060405250810190610d0591906113a1565b421092915050565b60005460408051629a9b7b60e01b815290516060926001600160a01b031691629a9b7b9160048083019260209291908290030181865afa158015610d55573d6000803e3d6000fd5b505050506040513d601f19601f82011682018060405250810190610d7991906118b0565b63ffffffff168263ffffffff1610610d9057600080fd5b600154604051636c51371d60e11b81526000916001600160a01b03169063d8a26e3a90610dc1908690600401611157565b600060405180830381865afa158015610dde573d6000803e3d6000fd5b505050506040513d6000823e601f3d908101601f19168201604052610e0691908101906118ea565b9050610e1181610fad565b9392505050565b610e20611024565b600154604051636c51371d60e11b81526001600160a01b039091169063d8a26e3a906108e8908590600401611157565b600154604051631cae4b2d60e31b81526000916001600160a01b03169063e57259689061095e90859060040161108b565b600154604051636c51371d60e11b81526000916001600160a01b03169063d8a26e3a90610eb2908690600401611157565b600060405180830381865afa158015610ecf573d6000803e3d6000fd5b505050506040513d6000823e601f3d908101601f19168201604052610ef791908101906118ea565b6101000151518363ffffffff161115610f1257506000610895565b600154604051636c51371d60e11b81526001600160a01b039091169063d8a26e3a90610f42908690600401611157565b600060405180830381865afa158015610f5f573d6000803e3d6000fd5b505050506040513d6000823e601f3d908101601f19168201604052610f8791908101906118ea565b61010001518281518110610f9d57610f9d611871565b6020026020010151905092915050565b606081600001518260200151836040015184606001518560800151604051602001610fd89190611144565b60408051601f198184030181529082905260a088015160c089015160e08a01516101008b015161100e999897969560200161195a565b6040516020818303038152906040529050919050565b604051806101200160405280600063ffffffff168152602001600063ffffffff168152602001600063ffffffff16815260200160006001600160a01b0316815260200160608152602001606081526020016060815260200160608152602001606081525090565b6001600160a01b0391909116815260200190565b63ffffffff811681146110b157600080fd5b50565b6000602082840312156110c657600080fd5b8135610e118161109f565b6001600160a01b03811681146110b157600080fd5b6000602082840312156110f857600080fd5b8135610e11816110d1565b600081518084526020808501945080840160005b8381101561113957815163ffffffff1687529582019590820190600101611117565b509495945050505050565b602081526000610e116020830184611103565b63ffffffff91909116815260200190565b60005b8381101561118357818101518382015260200161116b565b83811115611192576000848401525b50505050565b600081518084526111b0816020860160208601611168565b601f01601f19169290920160200192915050565b600081518084526020808501808196508360051b8101915082860160005b8581101561120c5782840389526111fa848351611198565b988501989350908401906001016111e2565b5091979650505050505050565b600081518084526020808501945080840160005b838110156111395781516001600160a01b03168752958201959082019060010161122d565b6020815261126960208201835163ffffffff169052565b60006020830151611282604084018263ffffffff169052565b50604083015163ffffffff811660608401525060608301516001600160a01b03811660808401525060808301516101208060a08501526112c6610140850183611103565b915060a0850151601f19808685030160c08701526112e48483611198565b935060c08701519150808685030160e08701526113018483611103565b935060e0870151915061010081878603018188015261132085846111c4565b90880151878203909201848801529350905061133c8382611219565b9695505050505050565b602081526000610e116020830184611198565b6000806040838503121561136c57600080fd5b82356113778161109f565b946020939093013593505050565b60008251611397818460208701611168565b9190910192915050565b6000602082840312156113b357600080fd5b5051919050565b6000602082840312156113cc57600080fd5b81518015158114610e1157600080fd5b6020808252600c908201526b1c1c995d9a595dd0dbdd5b9d60a21b604082015260600190565b6001600160a01b03929092168252602082015260400190565b634e487b7160e01b600052604160045260246000fd5b60405161012081016001600160401b03811182821017156114545761145461141b565b60405290565b604051601f8201601f191681016001600160401b03811182821017156114825761148261141b565b604052919050565b60006001600160401b038211156114a3576114a361141b565b5060051b60200190565b80516108838161109f565b8051610883816110d1565b600082601f8301126114d457600080fd5b815160206114e96114e48361148a565b61145a565b82815260059290921b8401810191818101908684111561150857600080fd5b8286015b8481101561152c57805161151f8161109f565b835291830191830161150c565b509695505050505050565b60006001600160401b038311156115505761155061141b565b611563601f8401601f191660200161145a565b905082815283838301111561157757600080fd5b610e11836020830184611168565b600082601f83011261159657600080fd5b610e1183835160208501611537565b600082601f8301126115b657600080fd5b815160206115c66114e48361148a565b82815260059290921b840181019181810190868411156115e557600080fd5b8286015b8481101561152c5780516001600160401b038111156116085760008081fd5b8701603f8101891361161a5760008081fd5b61162b898683015160408401611537565b8452509183019183016115e9565b600082601f83011261164a57600080fd5b8151602061165a6114e48361148a565b82815260059290921b8401810191818101908684111561167957600080fd5b8286015b8481101561152c578051611690816110d1565b835291830191830161167d565b600061012082840312156116b057600080fd5b6116b8611431565b90506116c3826114ad565b81526116d1602083016114ad565b60208201526116e2604083016114ad565b60408201526116f3606083016114b8565b606082015260808201516001600160401b038082111561171257600080fd5b61171e858386016114c3565b608084015260a084015191508082111561173757600080fd5b61174385838601611585565b60a084015260c084015191508082111561175c57600080fd5b611768858386016114c3565b60c084015260e084015191508082111561178157600080fd5b61178d858386016115a5565b60e0840152610100915081840151818111156117a857600080fd5b6117b486828701611639565b8385015250505092915050565b600060208083850312156117d457600080fd5b82516001600160401b03808211156117eb57600080fd5b818501915085601f8301126117ff57600080fd5b815161180d6114e48261148a565b81815260059190911b8301840190848101908883111561182c57600080fd5b8585015b83811015611864578051858111156118485760008081fd5b6118568b89838a010161169d565b845250918601918601611830565b5098975050505050505050565b634e487b7160e01b600052603260045260246000fd5b60006000198214156118a957634e487b7160e01b600052601160045260246000fd5b5060010190565b6000602082840312156118c257600080fd5b8151610e118161109f565b6000602082840312156118df57600080fd5b8151610e11816110d1565b6000602082840312156118fc57600080fd5b81516001600160401b0381111561191257600080fd5b61191e8482850161169d565b949350505050565b60006020828403121561193857600080fd5b81516001600160401b0381111561194e57600080fd5b61191e848285016114c3565b63ffffffff8a811682528981166020830152881660408201526001600160a01b03871660608201526101206080820181905260009061199b83820189611198565b905082810360a08401526119af8188611198565b905082810360c08401526119c38187611103565b905082810360e08401526119d781866111c4565b90508281036101008401526119ec8185611219565b9c9b50505050505050505050505056fea2646970667358221220c99b930722fffab2367f5bd0efcb418b5c09ebf86d7d3eb0e7985a2593d721ab64736f6c634300080c0033",
  "libraries": {
    "InfinityMintUtil": "0x3411DEa54B2FB5aB203616bB614D61794432d7B1"
  },
  "devdoc": {
    "author": "0xTinman.eth",
    "kind": "dev",
    "methods": {},
    "title": "InfinityMint API",
    "version": 1
  },
  "userdoc": {
    "kind": "user",
    "methods": {
      "allTokens(address)": {
        "notice": "only returns a maximum of 256 tokens use offchain retrival services to obtain token information on owner!"
      },
      "getBalanceOfWallet(uint32)": {
        "notice": "gets the balance of a wallet associated with a tokenId"
      }
    },
    "notice": "The purpose of this contract is to act as a service to provide data in a web3 or web2 context. You will find methods for data retrival here for previews, tokens, and stickers. and it is advised that you use get from here and not actual storage contract!",
    "version": 1
  },
  "storageLayout": {
    "storage": [
      {
        "astId": 2611,
        "contract": "contracts/InfinityMintApi.sol:InfinityMintApi",
        "label": "erc721",
        "offset": 0,
        "slot": "0",
        "type": "t_contract(InfinityMint)2599"
      },
      {
        "astId": 2614,
        "contract": "contracts/InfinityMintApi.sol:InfinityMintApi",
        "label": "storageController",
        "offset": 0,
        "slot": "1",
        "type": "t_contract(InfinityMintStorage)6696"
      },
      {
        "astId": 2617,
        "contract": "contracts/InfinityMintApi.sol:InfinityMintApi",
        "label": "assetController",
        "offset": 0,
        "slot": "2",
        "type": "t_contract(Asset)453"
      },
      {
        "astId": 2620,
        "contract": "contracts/InfinityMintApi.sol:InfinityMintApi",
        "label": "valuesController",
        "offset": 0,
        "slot": "3",
        "type": "t_contract(InfinityMintValues)7070"
      },
      {
        "astId": 2623,
        "contract": "contracts/InfinityMintApi.sol:InfinityMintApi",
        "label": "royaltyController",
        "offset": 0,
        "slot": "4",
        "type": "t_contract(Royalty)8132"
      }
    ],
    "types": {
      "t_contract(Asset)453": {
        "encoding": "inplace",
        "label": "contract Asset",
        "numberOfBytes": "20"
      },
      "t_contract(InfinityMint)2599": {
        "encoding": "inplace",
        "label": "contract InfinityMint",
        "numberOfBytes": "20"
      },
      "t_contract(InfinityMintStorage)6696": {
        "encoding": "inplace",
        "label": "contract InfinityMintStorage",
        "numberOfBytes": "20"
      },
      "t_contract(InfinityMintValues)7070": {
        "encoding": "inplace",
        "label": "contract InfinityMintValues",
        "numberOfBytes": "20"
      },
      "t_contract(Royalty)8132": {
        "encoding": "inplace",
        "label": "contract Royalty",
        "numberOfBytes": "20"
      }
    }
  }
}