{
  "address": "0x3411DEa54B2FB5aB203616bB614D61794432d7B1",
  "abi": [
    {
      "inputs": [
        {
          "internalType": "bytes",
          "name": "s1",
          "type": "bytes"
        },
        {
          "internalType": "bytes",
          "name": "s2",
          "type": "bytes"
        }
      ],
      "name": "isEqual",
      "outputs": [
        {
          "internalType": "bool",
          "name": "",
          "type": "bool"
        }
      ],
      "stateMutability": "pure",
      "type": "function"
    }
  ],
  "transactionHash": "0x85b193b0a0e310ab5c14a2850b1715be89d069989de4afc8a3690beceb289ee1",
  "args": [],
  "numDeployments": 1,
  "solcInputHash": "c554005d846e5256cfd947c8d0a331d2",
  "bytecode": "0x61026f61003a600b82828239805160001a60731461002d57634e487b7160e01b600052600060045260246000fd5b30600052607381538281f3fe73000000000000000000000000000000000000000030146080604052600436106100355760003560e01c8063343598081461003a575b600080fd5b61004d610048366004610197565b610061565b604051901515815260200160405180910390f35b60008151835114610074575060006100ef565b60005b83518110156100e957828181518110610092576100926101fa565b602001015160f81c60f81b6001600160f81b0319168482815181106100b9576100b96101fa565b01602001516001600160f81b031916146100d75760009150506100ef565b806100e181610210565b915050610077565b50600190505b92915050565b634e487b7160e01b600052604160045260246000fd5b600082601f83011261011c57600080fd5b81356001600160401b0380821115610136576101366100f5565b604051601f8301601f19908116603f0116810190828211818310171561015e5761015e6100f5565b8160405283815286602085880101111561017757600080fd5b836020870160208301376000602085830101528094505050505092915050565b600080604083850312156101aa57600080fd5b82356001600160401b03808211156101c157600080fd5b6101cd8683870161010b565b935060208501359150808211156101e357600080fd5b506101f08582860161010b565b9150509250929050565b634e487b7160e01b600052603260045260246000fd5b600060001982141561023257634e487b7160e01b600052601160045260246000fd5b506001019056fea26469706673582212202ea2356e7f5bc0f5822d256b0a457cc3c2fb867aa1e8f6ff27db28daf2a52ea164736f6c634300080c0033",
  "devdoc": {
    "kind": "dev",
    "methods": {},
    "version": 1
  },
  "userdoc": {
    "kind": "user",
    "methods": {},
    "version": 1
  },
  "storageLayout": {
    "storage": [],
    "types": null
  }
}