{
  "address": "0x76073EbAAcFD6EBE3Dd6439633A1b1d871ebf49b",
  "abi": [
    {
      "inputs": [
        {
          "internalType": "address",
          "name": "_storageDestination",
          "type": "address"
        },
        {
          "internalType": "address",
          "name": "erc721Destination",
          "type": "address"
        }
      ],
      "stateMutability": "nonpayable",
      "type": "constructor"
    },
    {
      "anonymous": false,
      "inputs": [
        {
          "indexed": true,
          "internalType": "address",
          "name": "sender",
          "type": "address"
        },
        {
          "indexed": true,
          "internalType": "address",
          "name": "changee",
          "type": "address"
        },
        {
          "indexed": false,
          "internalType": "bool",
          "name": "value",
          "type": "bool"
        }
      ],
      "name": "PermissionChange",
      "type": "event"
    },
    {
      "anonymous": false,
      "inputs": [
        {
          "indexed": true,
          "internalType": "address",
          "name": "from",
          "type": "address"
        },
        {
          "indexed": true,
          "internalType": "address",
          "name": "to",
          "type": "address"
        }
      ],
      "name": "TransferedOwnership",
      "type": "event"
    },
    {
      "inputs": [
        {
          "internalType": "uint256",
          "name": "index",
          "type": "uint256"
        },
        {
          "internalType": "string",
          "name": "key",
          "type": "string"
        },
        {
          "internalType": "bytes",
          "name": "versionType",
          "type": "bytes"
        },
        {
          "internalType": "bool",
          "name": "isErc721",
          "type": "bool"
        },
        {
          "internalType": "bool",
          "name": "verifyIntegrity",
          "type": "bool"
        },
        {
          "internalType": "bool",
          "name": "forcedOnly",
          "type": "bool"
        },
        {
          "internalType": "bool",
          "name": "permanent",
          "type": "bool"
        }
      ],
      "name": "addSupport",
      "outputs": [],
      "stateMutability": "nonpayable",
      "type": "function"
    },
    {
      "inputs": [
        {
          "internalType": "address",
          "name": "",
          "type": "address"
        }
      ],
      "name": "approved",
      "outputs": [
        {
          "internalType": "bool",
          "name": "",
          "type": "bool"
        }
      ],
      "stateMutability": "view",
      "type": "function"
    },
    {
      "inputs": [
        {
          "internalType": "string",
          "name": "keyToChange",
          "type": "string"
        },
        {
          "internalType": "string",
          "name": "key",
          "type": "string"
        }
      ],
      "name": "changeLinkKey",
      "outputs": [],
      "stateMutability": "nonpayable",
      "type": "function"
    },
    {
      "inputs": [],
      "name": "clearLinks",
      "outputs": [],
      "stateMutability": "nonpayable",
      "type": "function"
    },
    {
      "inputs": [],
      "name": "deployer",
      "outputs": [
        {
          "internalType": "address",
          "name": "",
          "type": "address"
        }
      ],
      "stateMutability": "view",
      "type": "function"
    },
    {
      "inputs": [],
      "name": "erc721Location",
      "outputs": [
        {
          "internalType": "address",
          "name": "",
          "type": "address"
        }
      ],
      "stateMutability": "view",
      "type": "function"
    },
    {
      "inputs": [
        {
          "internalType": "uint256",
          "name": "tokenId",
          "type": "uint256"
        },
        {
          "internalType": "string",
          "name": "key",
          "type": "string"
        },
        {
          "internalType": "address",
          "name": "destination",
          "type": "address"
        }
      ],
      "name": "forceLink",
      "outputs": [],
      "stateMutability": "nonpayable",
      "type": "function"
    },
    {
      "inputs": [
        {
          "internalType": "uint256",
          "name": "index",
          "type": "uint256"
        }
      ],
      "name": "getLink",
      "outputs": [
        {
          "components": [
            {
              "internalType": "uint256",
              "name": "index",
              "type": "uint256"
            },
            {
              "internalType": "bytes",
              "name": "versionType",
              "type": "bytes"
            },
            {
              "internalType": "bytes4",
              "name": "interfaceId",
              "type": "bytes4"
            },
            {
              "internalType": "string",
              "name": "key",
              "type": "string"
            },
            {
              "internalType": "bool",
              "name": "erc721",
              "type": "bool"
            },
            {
              "internalType": "bool",
              "name": "verifyIntegrity",
              "type": "bool"
            },
            {
              "internalType": "bool",
              "name": "forcedOnly",
              "type": "bool"
            },
            {
              "internalType": "bool",
              "name": "permanent",
              "type": "bool"
            },
            {
              "internalType": "bool",
              "name": "active",
              "type": "bool"
            }
          ],
          "internalType": "struct InfinityMintLinker.Link",
          "name": "",
          "type": "tuple"
        }
      ],
      "stateMutability": "view",
      "type": "function"
    },
    {
      "inputs": [
        {
          "internalType": "string",
          "name": "key",
          "type": "string"
        }
      ],
      "name": "getLinkByKey",
      "outputs": [
        {
          "components": [
            {
              "internalType": "uint256",
              "name": "index",
              "type": "uint256"
            },
            {
              "internalType": "bytes",
              "name": "versionType",
              "type": "bytes"
            },
            {
              "internalType": "bytes4",
              "name": "interfaceId",
              "type": "bytes4"
            },
            {
              "internalType": "string",
              "name": "key",
              "type": "string"
            },
            {
              "internalType": "bool",
              "name": "erc721",
              "type": "bool"
            },
            {
              "internalType": "bool",
              "name": "verifyIntegrity",
              "type": "bool"
            },
            {
              "internalType": "bool",
              "name": "forcedOnly",
              "type": "bool"
            },
            {
              "internalType": "bool",
              "name": "permanent",
              "type": "bool"
            },
            {
              "internalType": "bool",
              "name": "active",
              "type": "bool"
            }
          ],
          "internalType": "struct InfinityMintLinker.Link",
          "name": "",
          "type": "tuple"
        }
      ],
      "stateMutability": "view",
      "type": "function"
    },
    {
      "inputs": [
        {
          "internalType": "address",
          "name": "addr",
          "type": "address"
        }
      ],
      "name": "isAuthenticated",
      "outputs": [
        {
          "internalType": "bool",
          "name": "",
          "type": "bool"
        }
      ],
      "stateMutability": "view",
      "type": "function"
    },
    {
      "inputs": [
        {
          "internalType": "address[]",
          "name": "addrs",
          "type": "address[]"
        }
      ],
      "name": "multiApprove",
      "outputs": [],
      "stateMutability": "nonpayable",
      "type": "function"
    },
    {
      "inputs": [
        {
          "internalType": "address[]",
          "name": "addrs",
          "type": "address[]"
        }
      ],
      "name": "multiRevoke",
      "outputs": [],
      "stateMutability": "nonpayable",
      "type": "function"
    },
    {
      "inputs": [
        {
          "internalType": "uint256",
          "name": "tokenId",
          "type": "uint256"
        },
        {
          "internalType": "string",
          "name": "key",
          "type": "string"
        },
        {
          "internalType": "address",
          "name": "destination",
          "type": "address"
        }
      ],
      "name": "setLink",
      "outputs": [],
      "stateMutability": "nonpayable",
      "type": "function"
    },
    {
      "inputs": [
        {
          "internalType": "address",
          "name": "addr",
          "type": "address"
        },
        {
          "internalType": "bool",
          "name": "value",
          "type": "bool"
        }
      ],
      "name": "setPrivilages",
      "outputs": [],
      "stateMutability": "nonpayable",
      "type": "function"
    },
    {
      "inputs": [
        {
          "internalType": "uint256",
          "name": "index",
          "type": "uint256"
        }
      ],
      "name": "toggleSupport",
      "outputs": [],
      "stateMutability": "nonpayable",
      "type": "function"
    },
    {
      "inputs": [
        {
          "internalType": "address",
          "name": "addr",
          "type": "address"
        }
      ],
      "name": "transferOwnership",
      "outputs": [],
      "stateMutability": "nonpayable",
      "type": "function"
    },
    {
      "inputs": [
        {
          "internalType": "uint256",
          "name": "tokenId",
          "type": "uint256"
        },
        {
          "internalType": "string",
          "name": "key",
          "type": "string"
        }
      ],
      "name": "unlink",
      "outputs": [],
      "stateMutability": "nonpayable",
      "type": "function"
    }
  ],
  "transactionHash": "0xc886721792981b1defcb23189a1d2b778cde35655f2dcdca6076b737bbf2ac3f",
  "args": [
    "0x8120EF40b29100b37BBda3B20d1261CC3F355e95",
    "0x31845Bebf7090E7BB0a2e9e191d463336131Dca7"
  ],
  "numDeployments": 1,
  "solcInputHash": "c554005d846e5256cfd947c8d0a331d2",
  "bytecode": "0x608060405260006006553480156200001657600080fd5b5060405162002eb038038062002eb08339810160408190526200003991620000b0565b60008054336001600160a01b0319918216811783558252600260205260408220805460ff19166001908117909155919091556004805482166001600160a01b039485161790556003805490911691909216179055620000e8565b80516001600160a01b0381168114620000ab57600080fd5b919050565b60008060408385031215620000c457600080fd5b620000cf8362000093565b9150620000df6020840162000093565b90509250929050565b612db880620000f86000396000f3fe608060405234801561001057600080fd5b50600436106100db5760003560e01c806310a8c7a9146100e057806313e7f9e7146100f557806314e62d8b1461011e57806314ea079d146101315780632a8624ed146101445780632f9fe8cf1461016f57806331ed86d214610182578063393b6df31461019557806375ca64fe146101a85780639e952267146101b0578063bbdc2e65146101c3578063d15d4150146101d6578063d25146b0146101f9578063d5f394881461020c578063d8b964e61461021f578063f2fde38b14610242578063fe684c0e14610255575b600080fd5b6100f36100ee366004612093565b610268565b005b610108610103366004612179565b610308565b6040516101159190612212565b60405180910390f35b6100f361012c36600461236c565b610323565b6100f361013f366004612432565b61057a565b600354610157906001600160a01b031681565b6040516001600160a01b039091168152602001610115565b6100f361017d36600461244b565b610637565b6100f3610190366004612093565b610830565b6101086101a3366004612432565b6108c3565b6100f3610ae7565b6100f36101be3660046124b6565b610b6c565b6100f36101d1366004612501565b610f66565b6101e96101e436600461255f565b610f9e565b6040519015158152602001610115565b6100f3610207366004612501565b610fd5565b600054610157906001600160a01b031681565b6101e961022d36600461255f565b60026020526000908152604090205460ff1681565b6100f361025036600461255f565b61134b565b6100f3610263366004612583565b6113eb565b6000546001600160a01b0316331461029b5760405162461bcd60e51b8152600401610292906125bc565b60405180910390fd5b80516102a657600080fd5b60005b8151811015610304576001600260008484815181106102ca576102ca6125e2565b6020908102919091018101516001600160a01b03168252810191909152604001600020805460ff19169115159190911790556001016102a9565b5050565b610310611f02565b61031a83836114cd565b90505b92915050565b6000546001600160a01b031633148061034b57503360009081526002602052604090205460ff165b6103675760405162461bcd60e51b8152600401610292906125f8565b602087106103c35760405162461bcd60e51b815260206004820152602360248201527f63616e206f6e6c7920686176652061206d6178696d756d20696e646578206f6660448201526210199960e91b6064820152608401610292565b600087815260056020526040902060040154600160201b900460ff1615156001141561042c5760405162461bcd60e51b81526020600482015260186024820152771b1a5b9ac8185b1c9958591e48195cdd18589b1a5cda195960421b6044820152606401610292565b604080516101208101825288815260208082018881526335268a9f60e21b83850152606083018a9052871515608084015286151560a084015285151560c084015284151560e08401526001610100840181905260008c815260058452949094208351815590518051939491936104aa93928501929190910190611f50565b50604082015160028201805463ffffffff191660e09290921c919091179055606082015180516104e4916003840191602090910190611f50565b506080820151600491909101805460a084015160c085015160e08601516101009687015161ffff1990941695151561ff001916959095179115159095021763ffff00001916620100009415159490940263ff0000001916939093176301000000921515929092029190911760ff60201b1916600160201b9215159290920291909117905550506006805460010190555050505050565b6000546001600160a01b03163314806105a257503360009081526002602052604090205460ff165b6105be5760405162461bcd60e51b8152600401610292906125f8565b600081815260056020526040902060030180546105da9061261e565b151590506106195760405162461bcd60e51b815260206004820152600c60248201526b696e76616c6964206c696e6b60a01b6044820152606401610292565b6000908152600560205260409020600401805460ff60201b19169055565b6000546001600160a01b031633148061065f57503360009081526002602052604090205460ff165b61067b5760405162461bcd60e51b8152600401610292906125f8565b600061068785856114cd565b905061069383836117c9565b156107015760405162461bcd60e51b815260206004820152603860248201527f63616e6e6f74206368616e6765206b657920746f2074686174206b65792061736044820152772074686174206b657920616c72656164792065786973747360401b6064820152608401610292565b82828080601f016020809104026020016040519081016040528093929190818152602001838380828437600092018290525060608601949094525050825182525060056020908152604090912082518155818301518051849361076b926001850192910190611f50565b50604082015160028201805463ffffffff191660e09290921c919091179055606082015180516107a5916003840191602090910190611f50565b506080820151600491909101805460a084015160c085015160e08601516101009687015161ffff1990941695151561ff001916959095179115159095021763ffff00001916620100009415159490940263ff0000001916939093176301000000921515929092029190911760ff60201b1916600160201b921515929092029190911790555050505050565b6000546001600160a01b0316331461085a5760405162461bcd60e51b8152600401610292906125bc565b805161086557600080fd5b60005b815181101561030457600060026000848481518110610889576108896125e2565b6020908102919091018101516001600160a01b03168252810191909152604001600020805460ff1916911515919091179055600101610868565b6108cb611f02565b600082815260056020526040902060030180546108e79061261e565b151590506109295760405162461bcd60e51b815260206004820152600f60248201526e1b1a5b9ac81a5cc81a5b9d985b1a59608a1b6044820152606401610292565b6005600083815260200190815260200160002060405180610120016040529081600082015481526020016001820180546109629061261e565b80601f016020809104026020016040519081016040528092919081815260200182805461098e9061261e565b80156109db5780601f106109b0576101008083540402835291602001916109db565b820191906000526020600020905b8154815290600101906020018083116109be57829003601f168201915b5050509183525050600282015460e01b6001600160e01b0319166020820152600382018054604090920191610a0f9061261e565b80601f0160208091040260200160405190810160405280929190818152602001828054610a3b9061261e565b8015610a885780601f10610a5d57610100808354040283529160200191610a88565b820191906000526020600020905b815481529060010190602001808311610a6b57829003601f168201915b50505091835250506004919091015460ff80821615156020840152610100820481161515604084015262010000820481161515606084015263010000008204811615156080840152600160201b90910416151560a09091015292915050565b6000546001600160a01b03163314610b115760405162461bcd60e51b8152600401610292906125bc565b60005b600654811015610b6457600081815260056020526040902060040154600160201b900460ff1615610b5c576000818152600560205260409020600401805460ff60201b191690555b600101610b14565b506000600655565b610b7633846118c7565b610b925760405162461bcd60e51b815260040161029290612659565b6000610b9e83836114cd565b60048054604051636c51371d60e11b815263ffffffff8816928101929092529192506000916001600160a01b03169063d8a26e3a90602401600060405180830381865afa158015610bf3573d6000803e3d6000fd5b505050506040513d6000823e601f3d908101601f19168201604052610c1b9190810190612850565b90508160e001511515600115151415610c735760405162461bcd60e51b815260206004820152601a6024820152791b1a5b9ac818d85b881b995d995c881899481d5b9b1a5b9ad95960321b6044820152606401610292565b60c0820151151560011415610ce45760405162461bcd60e51b815260206004820152603160248201527f6c696e6b206d757374206265206d616e61676564207468726f75676820616e20604482015270195e1d195c9b985b0818dbdb9d1c9858dd607a1b6064820152608401610292565b8151151580610d7e5750600480546040805163db8b7da360e01b81529283018890526024830152600f60448301526e063616e556e6c696e6b496e6465783608c1b60648301526001600160a01b03169063db8b7da390608401602060405180830381865afa158015610d5a573d6000803e3d6000fd5b505050506040513d601f19601f82011682018060405250810190610d7e9190612995565b610dda5760405162461bcd60e51b815260206004820152602760248201527f696e64657820302063616e6e6f7420626520756e6c696e6b656420617420746860448201526669732074696d6560c81b6064820152608401610292565b81516001141580610e765750600480546040805163db8b7da360e01b81529283018890526024830152600f60448301526e63616e556e6c696e6b496e6465783160881b60648301526001600160a01b03169063db8b7da390608401602060405180830381865afa158015610e52573d6000803e3d6000fd5b505050506040513d601f19601f82011682018060405250810190610e769190612995565b610ed25760405162461bcd60e51b815260206004820152602760248201527f696e64657820312063616e6e6f7420626520756e6c696e6b656420617420746860448201526669732074696d6560c81b6064820152608401610292565b6000816101000151836000015181518110610eef57610eef6125e2565b6001600160a01b0392831660209182029290920101526004805460405163c28cf06160e01b815292169163c28cf06191610f2d918991869101612a81565b600060405180830381600087803b158015610f4757600080fd5b505af1158015610f5b573d6000803e3d6000fd5b505050505050505050565b610f7033856118c7565b610f8c5760405162461bcd60e51b815260040161029290612659565b610f98848484846119ed565b50505050565b600080546001600160a01b038381169116148061031d5750506001600160a01b031660009081526002602052604090205460ff1690565b6000546001600160a01b0316331480610ffd57503360009081526002602052604090205460ff165b6110195760405162461bcd60e51b8152600401610292906125f8565b600061102584846114cd565b60048054604051636c51371d60e11b815263ffffffff8916928101929092529192506000916001600160a01b03169063d8a26e3a90602401600060405180830381865afa15801561107a573d6000803e3d6000fd5b505050506040513d6000823e601f3d908101601f191682016040526110a29190810190612850565b905080610100015151600014156111445781516110c0906001612b84565b6001600160401b038111156110d7576110d7611fe9565b604051908082528060200260200182016040528015611100578160200160208202803683370190505b5061010082018190528251815185929190811061111f5761111f6125e2565b60200260200101906001600160a01b031690816001600160a01b0316815250506112e0565b610100810151518251106112a3578151600090611162906001612b84565b6001600160401b0381111561117957611179611fe9565b6040519080825280602002602001820160405280156111a2578160200160208202803683370190505b50905060005b81518110156112975783518114156111f257848282815181106111cd576111cd6125e2565b60200260200101906001600160a01b031690816001600160a01b03168152505061128f565b8261010001515181108015611238575060006001600160a01b03168361010001518281518110611224576112246125e2565b60200260200101516001600160a01b031614155b1561128f578261010001518181518110611254576112546125e2565b602002602001015182828151811061126e5761126e6125e2565b60200260200101906001600160a01b031690816001600160a01b0316815250505b6001016111a8565b506101008201526112e0565b828161010001518360000151815181106112bf576112bf6125e2565b60200260200101906001600160a01b031690816001600160a01b0316815250505b6004805460405163c28cf06160e01b81526001600160a01b039091169163c28cf06191611311918a91869101612a81565b600060405180830381600087803b15801561132b57600080fd5b505af115801561133f573d6000803e3d6000fd5b50505050505050505050565b6000546001600160a01b031633146113755760405162461bcd60e51b8152600401610292906125bc565b600080546001600160a01b03908116825260026020526040808320805460ff1990811690915583546001600160a01b03191692851692831784558284528184208054909116600117905551909133917f93091b3f3cd424efabc74e181f3799f3476ed758412561ed3b29515c51f567529190a350565b6000546001600160a01b031633146114155760405162461bcd60e51b8152600401610292906125bc565b6000546001600160a01b038381169116141561146c5760405162461bcd60e51b815260206004820152601660248201527531b0b73737ba1036b7b234b33c903232b83637bcb2b960511b6044820152606401610292565b6001600160a01b038216600081815260026020908152604091829020805460ff1916851515908117909155915191825233917ff38de818d000d07d091732dd783c6855722d7bc1934d92b7635133289d341695910160405180910390a35050565b6114d5611f02565b816114f25760405162461bcd60e51b815260040161029290612baa565b6114fa611f02565b6000805b60065481101561178557600081815260056020526040908190209051630686b30160e31b8152733411DEa54B2FB5aB203616bB614D61794432d7B19163343598089161155491600301908a908a90600401612bf6565b602060405180830381865af4158015611571573d6000803e3d6000fd5b505050506040513d601f19601f820116820180604052508101906115959190612995565b80156115b95750600081815260056020526040902060040154600160201b900460ff165b1561177d57600191506005600082815260200190815260200160002060405180610120016040529081600082015481526020016001820180546115fb9061261e565b80601f01602080910402602001604051908101604052809291908181526020018280546116279061261e565b80156116745780601f1061164957610100808354040283529160200191611674565b820191906000526020600020905b81548152906001019060200180831161165757829003601f168201915b5050509183525050600282015460e01b6001600160e01b03191660208201526003820180546040909201916116a89061261e565b80601f01602080910402602001604051908101604052809291908181526020018280546116d49061261e565b80156117215780601f106116f657610100808354040283529160200191611721565b820191906000526020600020905b81548152906001019060200180831161170457829003601f168201915b50505091835250506004919091015460ff80821615156020840152610100820481161515604084015262010000820481161515606084015263010000008204811615156080840152600160201b90910416151560a09091015292505b6001016114fe565b50806117c15760405162461bcd60e51b815260206004820152600b60248201526a1ad95e481a5b9d985b1a5960aa1b6044820152606401610292565b509392505050565b6000816117e85760405162461bcd60e51b815260040161029290612baa565b60005b6006548110156118bd57600081815260056020526040908190209051630686b30160e31b8152733411DEa54B2FB5aB203616bB614D61794432d7B191633435980891611841916003019088908890600401612bf6565b602060405180830381865af415801561185e573d6000803e3d6000fd5b505050506040513d601f19601f820116820180604052508101906118829190612995565b80156118a65750600081815260056020526040902060040154600160201b900460ff165b156118b557600191505061031d565b6001016117eb565b5060009392505050565b6003546040516001600160a01b03848116602483015260448201849052600092839283929091169060640160408051601f198184030181529181526020820180516001600160e01b031663430c208160e01b179052516119279190612caa565b600060405180830381855afa9150503d8060008114611962576040519150601f19603f3d011682016040523d82523d6000602084013e611967565b606091505b5091509150816119c85780516119bf5760405162461bcd60e51b815260206004820152601d60248201527f697320617070726f766564206f72206f776e65722072657665727465640000006044820152606401610292565b80518082602001fd5b6000818060200190518101906119de9190612995565b15156001149695505050505050565b60006119f984846114cd565b60048054604051636c51371d60e11b815263ffffffff8916928101929092529192506000916001600160a01b03169063d8a26e3a90602401600060405180830381865afa158015611a4e573d6000803e3d6000fd5b505050506040513d6000823e601f3d908101601f19168201604052611a769190810190612850565b90508160c001511515600115151415611acb5760405162461bcd60e51b815260206004820152601760248201527631b0b73737ba1031329039b2ba10313c903634b735b2b960491b6044820152606401610292565b6101008101515115611b5e57610100810151518251101580611b1857506101008101518251815160009291908110611b0557611b056125e2565b60200260200101516001600160a01b0316145b611b5e5760405162461bcd60e51b815260206004820152601760248201527619195cdd1a5b985d1a5bdb88185b1c9958591e481cd95d604a1b6044820152606401610292565b8160a0015115611dc9576000806000806000876001600160a01b031663d49a2a7c6040518163ffffffff1660e01b81526004016000604051808303816000875af1158015611bb0573d6000803e3d6000fd5b505050506040513d6000823e601f3d908101601f19168201604052611bd89190810190612cc6565b94509450945094509450611be93390565b6001600160a01b0316846001600160a01b031614611c365760405162461bcd60e51b815260206004820152600a60248201526906d69736d6174636820360b41b6044820152606401610292565b876001600160a01b0316856001600160a01b031614611c845760405162461bcd60e51b815260206004820152600a6024820152696d69736d61746368203160b01b6044820152606401610292565b828b14611cc05760405162461bcd60e51b815260206004820152600a60248201526936b4b9b6b0ba31b4101960b11b6044820152606401610292565b6020870151604051630686b30160e31b8152733411DEa54B2FB5aB203616bB614D61794432d7B191633435980891611cfc918691600401612d54565b602060405180830381865af4158015611d19573d6000803e3d6000fd5b505050506040513d601f19601f82011682018060405250810190611d3d9190612995565b611d765760405162461bcd60e51b815260206004820152600a6024820152696d69736d61746368203360b01b6044820152606401610292565b60408701516001600160e01b0319828116911614611dc35760405162461bcd60e51b815260206004820152600a6024820152691b5a5cdb585d18da080d60b21b6044820152606401610292565b50505050505b61010081015151611de15781516110c0906001612b84565b610100810151518251611df5906001612b84565b106112a3578151600090611e0a906001612b84565b6001600160401b03811115611e2157611e21611fe9565b604051908082528060200260200182016040528015611e4a578160200160208202803683370190505b50905060005b8151811015611297578351811415611e9a5784828281518110611e7557611e756125e2565b60200260200101906001600160a01b031690816001600160a01b031681525050611efa565b82610100015151811015611efa578261010001518181518110611ebf57611ebf6125e2565b6020026020010151828281518110611ed957611ed96125e2565b60200260200101906001600160a01b031690816001600160a01b0316815250505b600101611e50565b60408051610120810182526000808252606060208301819052928201819052828201929092526080810182905260a0810182905260c0810182905260e0810182905261010081019190915290565b828054611f5c9061261e565b90600052602060002090601f016020900481019282611f7e5760008555611fc4565b82601f10611f9757805160ff1916838001178555611fc4565b82800160010185558215611fc4579182015b82811115611fc4578251825591602001919060010190611fa9565b50611fd0929150611fd4565b5090565b5b80821115611fd05760008155600101611fd5565b634e487b7160e01b600052604160045260246000fd5b60405161012081016001600160401b038111828210171561202257612022611fe9565b60405290565b604051601f8201601f191681016001600160401b038111828210171561205057612050611fe9565b604052919050565b60006001600160401b0382111561207157612071611fe9565b5060051b60200190565b6001600160a01b038116811461209057600080fd5b50565b600060208083850312156120a657600080fd5b82356001600160401b038111156120bc57600080fd5b8301601f810185136120cd57600080fd5b80356120e06120db82612058565b612028565b81815260059190911b820183019083810190878311156120ff57600080fd5b928401925b828410156121265783356121178161207b565b82529284019290840190612104565b979650505050505050565b60008083601f84011261214357600080fd5b5081356001600160401b0381111561215a57600080fd5b60208301915083602082850101111561217257600080fd5b9250929050565b6000806020838503121561218c57600080fd5b82356001600160401b038111156121a257600080fd5b6121ae85828601612131565b90969095509350505050565b60005b838110156121d55781810151838201526020016121bd565b83811115610f985750506000910152565b600081518084526121fe8160208601602086016121ba565b601f01601f19169290920160200192915050565b60208152815160208201526000602083015161012080604085015261223b6101408501836121e6565b9150604085015161225860608601826001600160e01b0319169052565b506060850151848303601f1901608086015261227483826121e6565b925050608085015161228a60a086018215159052565b5060a085015180151560c08601525060c085015180151560e08601525060e08501516101006122bc8187018315159052565b90950151151593019290925250919050565b60006001600160401b038211156122e7576122e7611fe9565b50601f01601f191660200190565b60006123036120db846122ce565b905082815283838301111561231757600080fd5b828260208301376000602084830101529392505050565b600082601f83011261233f57600080fd5b61031a838335602085016122f5565b801515811461209057600080fd5b80356123678161234e565b919050565b600080600080600080600060e0888a03121561238757600080fd5b8735965060208801356001600160401b03808211156123a557600080fd5b818a0191508a601f8301126123b957600080fd5b6123c88b8335602085016122f5565b975060408a01359150808211156123de57600080fd5b506123eb8a828b0161232e565b9550506123fa6060890161235c565b93506124086080890161235c565b925061241660a0890161235c565b915061242460c0890161235c565b905092959891949750929550565b60006020828403121561244457600080fd5b5035919050565b6000806000806040858703121561246157600080fd5b84356001600160401b038082111561247857600080fd5b61248488838901612131565b9096509450602087013591508082111561249d57600080fd5b506124aa87828801612131565b95989497509550505050565b6000806000604084860312156124cb57600080fd5b8335925060208401356001600160401b038111156124e857600080fd5b6124f486828701612131565b9497909650939450505050565b6000806000806060858703121561251757600080fd5b8435935060208501356001600160401b0381111561253457600080fd5b61254087828801612131565b90945092505060408501356125548161207b565b939692955090935050565b60006020828403121561257157600080fd5b813561257c8161207b565b9392505050565b6000806040838503121561259657600080fd5b82356125a18161207b565b915060208301356125b18161234e565b809150509250929050565b6020808252600c908201526b3737ba103232b83637bcb2b960a11b604082015260600190565b634e487b7160e01b600052603260045260246000fd5b6020808252600c908201526b1b9bdd08185c1c1c9bdd995960a21b604082015260600190565b600181811c9082168061263257607f821691505b6020821081141561265357634e487b7160e01b600052602260045260246000fd5b50919050565b6020808252600990820152683737ba1037bbb732b960b91b604082015260600190565b805163ffffffff8116811461236757600080fd5b80516123678161207b565b600082601f8301126126ac57600080fd5b815160206126bc6120db83612058565b82815260059290921b840181019181810190868411156126db57600080fd5b8286015b848110156126fd576126f08161267c565b83529183019183016126df565b509695505050505050565b60006127166120db846122ce565b905082815283838301111561272a57600080fd5b61257c8360208301846121ba565b600082601f83011261274957600080fd5b61031a83835160208501612708565b600082601f83011261276957600080fd5b815160206127796120db83612058565b82815260059290921b8401810191818101908684111561279857600080fd5b8286015b848110156126fd5780516001600160401b038111156127bb5760008081fd5b8701603f810189136127cd5760008081fd5b6127de898683015160408401612708565b84525091830191830161279c565b600082601f8301126127fd57600080fd5b8151602061280d6120db83612058565b82815260059290921b8401810191818101908684111561282c57600080fd5b8286015b848110156126fd5780516128438161207b565b8352918301918301612830565b60006020828403121561286257600080fd5b81516001600160401b038082111561287957600080fd5b90830190610120828603121561288e57600080fd5b612896611fff565b61289f8361267c565b81526128ad6020840161267c565b60208201526128be6040840161267c565b60408201526128cf60608401612690565b60608201526080830151828111156128e657600080fd5b6128f28782860161269b565b60808301525060a08301518281111561290a57600080fd5b61291687828601612738565b60a08301525060c08301518281111561292e57600080fd5b61293a8782860161269b565b60c08301525060e08301518281111561295257600080fd5b61295e87828601612758565b60e083015250610100808401518381111561297857600080fd5b612984888287016127ec565b918301919091525095945050505050565b6000602082840312156129a757600080fd5b815161257c8161234e565b600081518084526020808501945080840160005b838110156129e857815163ffffffff16875295820195908201906001016129c6565b509495945050505050565b600081518084526020808501808196508360051b8101915082860160005b85811015612a3b578284038952612a298483516121e6565b98850198935090840190600101612a11565b5091979650505050505050565b600081518084526020808501945080840160005b838110156129e85781516001600160a01b031687529582019590820190600101612a5c565b63ffffffff8316815260406020820152612aa460408201835163ffffffff169052565b60006020830151612abd606084018263ffffffff169052565b50604083015163ffffffff811660808401525060608301516001600160a01b03811660a08401525060808301516101208060c0850152612b016101608501836129b2565b915060a0850151603f19808685030160e0870152612b1f84836121e6565b935060c08701519150610100818786030181880152612b3e85846129b2565b945060e08801519250818786030184880152612b5a85846129f3565b94508088015193505080868503016101408701525050612b7a8282612a48565b9695505050505050565b60008219821115612ba557634e487b7160e01b600052601160045260246000fd5b500190565b602080825260099082015268626c616e6b206b657960b81b604082015260600190565b81835281816020850137506000828201602090810191909152601f909101601f19169091010190565b60408152600080855481600182811c915080831680612c1657607f831692505b6020808410821415612c3657634e487b7160e01b86526022600452602486fd5b6040880184905260608801828015612c555760018114612c6657612c91565b60ff19871682528282019750612c91565b60008d81526020902060005b87811015612c8b57815484820152908601908401612c72565b83019850505b5050878603818901525050505050612b7a818587612bcd565b60008251612cbc8184602087016121ba565b9190910192915050565b600080600080600060a08688031215612cde57600080fd5b8551612ce98161207b565b6020870151909550612cfa8161207b565b6040870151606088015191955093506001600160401b03811115612d1d57600080fd5b612d2988828901612738565b925050608086015163ffffffff60e01b81168114612d4657600080fd5b809150509295509295909350565b604081526000612d6760408301856121e6565b8281036020840152612d7981856121e6565b9594505050505056fea2646970667358221220e89e63837bbb73e8d9c8f7e7b33519cfa7e896a755fcdd9b1441949ae599f61164736f6c634300080c0033",
  "deployedBytecode": "0x608060405234801561001057600080fd5b50600436106100db5760003560e01c806310a8c7a9146100e057806313e7f9e7146100f557806314e62d8b1461011e57806314ea079d146101315780632a8624ed146101445780632f9fe8cf1461016f57806331ed86d214610182578063393b6df31461019557806375ca64fe146101a85780639e952267146101b0578063bbdc2e65146101c3578063d15d4150146101d6578063d25146b0146101f9578063d5f394881461020c578063d8b964e61461021f578063f2fde38b14610242578063fe684c0e14610255575b600080fd5b6100f36100ee366004612093565b610268565b005b610108610103366004612179565b610308565b6040516101159190612212565b60405180910390f35b6100f361012c36600461236c565b610323565b6100f361013f366004612432565b61057a565b600354610157906001600160a01b031681565b6040516001600160a01b039091168152602001610115565b6100f361017d36600461244b565b610637565b6100f3610190366004612093565b610830565b6101086101a3366004612432565b6108c3565b6100f3610ae7565b6100f36101be3660046124b6565b610b6c565b6100f36101d1366004612501565b610f66565b6101e96101e436600461255f565b610f9e565b6040519015158152602001610115565b6100f3610207366004612501565b610fd5565b600054610157906001600160a01b031681565b6101e961022d36600461255f565b60026020526000908152604090205460ff1681565b6100f361025036600461255f565b61134b565b6100f3610263366004612583565b6113eb565b6000546001600160a01b0316331461029b5760405162461bcd60e51b8152600401610292906125bc565b60405180910390fd5b80516102a657600080fd5b60005b8151811015610304576001600260008484815181106102ca576102ca6125e2565b6020908102919091018101516001600160a01b03168252810191909152604001600020805460ff19169115159190911790556001016102a9565b5050565b610310611f02565b61031a83836114cd565b90505b92915050565b6000546001600160a01b031633148061034b57503360009081526002602052604090205460ff165b6103675760405162461bcd60e51b8152600401610292906125f8565b602087106103c35760405162461bcd60e51b815260206004820152602360248201527f63616e206f6e6c7920686176652061206d6178696d756d20696e646578206f6660448201526210199960e91b6064820152608401610292565b600087815260056020526040902060040154600160201b900460ff1615156001141561042c5760405162461bcd60e51b81526020600482015260186024820152771b1a5b9ac8185b1c9958591e48195cdd18589b1a5cda195960421b6044820152606401610292565b604080516101208101825288815260208082018881526335268a9f60e21b83850152606083018a9052871515608084015286151560a084015285151560c084015284151560e08401526001610100840181905260008c815260058452949094208351815590518051939491936104aa93928501929190910190611f50565b50604082015160028201805463ffffffff191660e09290921c919091179055606082015180516104e4916003840191602090910190611f50565b506080820151600491909101805460a084015160c085015160e08601516101009687015161ffff1990941695151561ff001916959095179115159095021763ffff00001916620100009415159490940263ff0000001916939093176301000000921515929092029190911760ff60201b1916600160201b9215159290920291909117905550506006805460010190555050505050565b6000546001600160a01b03163314806105a257503360009081526002602052604090205460ff165b6105be5760405162461bcd60e51b8152600401610292906125f8565b600081815260056020526040902060030180546105da9061261e565b151590506106195760405162461bcd60e51b815260206004820152600c60248201526b696e76616c6964206c696e6b60a01b6044820152606401610292565b6000908152600560205260409020600401805460ff60201b19169055565b6000546001600160a01b031633148061065f57503360009081526002602052604090205460ff165b61067b5760405162461bcd60e51b8152600401610292906125f8565b600061068785856114cd565b905061069383836117c9565b156107015760405162461bcd60e51b815260206004820152603860248201527f63616e6e6f74206368616e6765206b657920746f2074686174206b65792061736044820152772074686174206b657920616c72656164792065786973747360401b6064820152608401610292565b82828080601f016020809104026020016040519081016040528093929190818152602001838380828437600092018290525060608601949094525050825182525060056020908152604090912082518155818301518051849361076b926001850192910190611f50565b50604082015160028201805463ffffffff191660e09290921c919091179055606082015180516107a5916003840191602090910190611f50565b506080820151600491909101805460a084015160c085015160e08601516101009687015161ffff1990941695151561ff001916959095179115159095021763ffff00001916620100009415159490940263ff0000001916939093176301000000921515929092029190911760ff60201b1916600160201b921515929092029190911790555050505050565b6000546001600160a01b0316331461085a5760405162461bcd60e51b8152600401610292906125bc565b805161086557600080fd5b60005b815181101561030457600060026000848481518110610889576108896125e2565b6020908102919091018101516001600160a01b03168252810191909152604001600020805460ff1916911515919091179055600101610868565b6108cb611f02565b600082815260056020526040902060030180546108e79061261e565b151590506109295760405162461bcd60e51b815260206004820152600f60248201526e1b1a5b9ac81a5cc81a5b9d985b1a59608a1b6044820152606401610292565b6005600083815260200190815260200160002060405180610120016040529081600082015481526020016001820180546109629061261e565b80601f016020809104026020016040519081016040528092919081815260200182805461098e9061261e565b80156109db5780601f106109b0576101008083540402835291602001916109db565b820191906000526020600020905b8154815290600101906020018083116109be57829003601f168201915b5050509183525050600282015460e01b6001600160e01b0319166020820152600382018054604090920191610a0f9061261e565b80601f0160208091040260200160405190810160405280929190818152602001828054610a3b9061261e565b8015610a885780601f10610a5d57610100808354040283529160200191610a88565b820191906000526020600020905b815481529060010190602001808311610a6b57829003601f168201915b50505091835250506004919091015460ff80821615156020840152610100820481161515604084015262010000820481161515606084015263010000008204811615156080840152600160201b90910416151560a09091015292915050565b6000546001600160a01b03163314610b115760405162461bcd60e51b8152600401610292906125bc565b60005b600654811015610b6457600081815260056020526040902060040154600160201b900460ff1615610b5c576000818152600560205260409020600401805460ff60201b191690555b600101610b14565b506000600655565b610b7633846118c7565b610b925760405162461bcd60e51b815260040161029290612659565b6000610b9e83836114cd565b60048054604051636c51371d60e11b815263ffffffff8816928101929092529192506000916001600160a01b03169063d8a26e3a90602401600060405180830381865afa158015610bf3573d6000803e3d6000fd5b505050506040513d6000823e601f3d908101601f19168201604052610c1b9190810190612850565b90508160e001511515600115151415610c735760405162461bcd60e51b815260206004820152601a6024820152791b1a5b9ac818d85b881b995d995c881899481d5b9b1a5b9ad95960321b6044820152606401610292565b60c0820151151560011415610ce45760405162461bcd60e51b815260206004820152603160248201527f6c696e6b206d757374206265206d616e61676564207468726f75676820616e20604482015270195e1d195c9b985b0818dbdb9d1c9858dd607a1b6064820152608401610292565b8151151580610d7e5750600480546040805163db8b7da360e01b81529283018890526024830152600f60448301526e063616e556e6c696e6b496e6465783608c1b60648301526001600160a01b03169063db8b7da390608401602060405180830381865afa158015610d5a573d6000803e3d6000fd5b505050506040513d601f19601f82011682018060405250810190610d7e9190612995565b610dda5760405162461bcd60e51b815260206004820152602760248201527f696e64657820302063616e6e6f7420626520756e6c696e6b656420617420746860448201526669732074696d6560c81b6064820152608401610292565b81516001141580610e765750600480546040805163db8b7da360e01b81529283018890526024830152600f60448301526e63616e556e6c696e6b496e6465783160881b60648301526001600160a01b03169063db8b7da390608401602060405180830381865afa158015610e52573d6000803e3d6000fd5b505050506040513d601f19601f82011682018060405250810190610e769190612995565b610ed25760405162461bcd60e51b815260206004820152602760248201527f696e64657820312063616e6e6f7420626520756e6c696e6b656420617420746860448201526669732074696d6560c81b6064820152608401610292565b6000816101000151836000015181518110610eef57610eef6125e2565b6001600160a01b0392831660209182029290920101526004805460405163c28cf06160e01b815292169163c28cf06191610f2d918991869101612a81565b600060405180830381600087803b158015610f4757600080fd5b505af1158015610f5b573d6000803e3d6000fd5b505050505050505050565b610f7033856118c7565b610f8c5760405162461bcd60e51b815260040161029290612659565b610f98848484846119ed565b50505050565b600080546001600160a01b038381169116148061031d5750506001600160a01b031660009081526002602052604090205460ff1690565b6000546001600160a01b0316331480610ffd57503360009081526002602052604090205460ff165b6110195760405162461bcd60e51b8152600401610292906125f8565b600061102584846114cd565b60048054604051636c51371d60e11b815263ffffffff8916928101929092529192506000916001600160a01b03169063d8a26e3a90602401600060405180830381865afa15801561107a573d6000803e3d6000fd5b505050506040513d6000823e601f3d908101601f191682016040526110a29190810190612850565b905080610100015151600014156111445781516110c0906001612b84565b6001600160401b038111156110d7576110d7611fe9565b604051908082528060200260200182016040528015611100578160200160208202803683370190505b5061010082018190528251815185929190811061111f5761111f6125e2565b60200260200101906001600160a01b031690816001600160a01b0316815250506112e0565b610100810151518251106112a3578151600090611162906001612b84565b6001600160401b0381111561117957611179611fe9565b6040519080825280602002602001820160405280156111a2578160200160208202803683370190505b50905060005b81518110156112975783518114156111f257848282815181106111cd576111cd6125e2565b60200260200101906001600160a01b031690816001600160a01b03168152505061128f565b8261010001515181108015611238575060006001600160a01b03168361010001518281518110611224576112246125e2565b60200260200101516001600160a01b031614155b1561128f578261010001518181518110611254576112546125e2565b602002602001015182828151811061126e5761126e6125e2565b60200260200101906001600160a01b031690816001600160a01b0316815250505b6001016111a8565b506101008201526112e0565b828161010001518360000151815181106112bf576112bf6125e2565b60200260200101906001600160a01b031690816001600160a01b0316815250505b6004805460405163c28cf06160e01b81526001600160a01b039091169163c28cf06191611311918a91869101612a81565b600060405180830381600087803b15801561132b57600080fd5b505af115801561133f573d6000803e3d6000fd5b50505050505050505050565b6000546001600160a01b031633146113755760405162461bcd60e51b8152600401610292906125bc565b600080546001600160a01b03908116825260026020526040808320805460ff1990811690915583546001600160a01b03191692851692831784558284528184208054909116600117905551909133917f93091b3f3cd424efabc74e181f3799f3476ed758412561ed3b29515c51f567529190a350565b6000546001600160a01b031633146114155760405162461bcd60e51b8152600401610292906125bc565b6000546001600160a01b038381169116141561146c5760405162461bcd60e51b815260206004820152601660248201527531b0b73737ba1036b7b234b33c903232b83637bcb2b960511b6044820152606401610292565b6001600160a01b038216600081815260026020908152604091829020805460ff1916851515908117909155915191825233917ff38de818d000d07d091732dd783c6855722d7bc1934d92b7635133289d341695910160405180910390a35050565b6114d5611f02565b816114f25760405162461bcd60e51b815260040161029290612baa565b6114fa611f02565b6000805b60065481101561178557600081815260056020526040908190209051630686b30160e31b815273__$7f45f87f0a73bf4fcfd10e7fc7fd4aefbf$__9163343598089161155491600301908a908a90600401612bf6565b602060405180830381865af4158015611571573d6000803e3d6000fd5b505050506040513d601f19601f820116820180604052508101906115959190612995565b80156115b95750600081815260056020526040902060040154600160201b900460ff165b1561177d57600191506005600082815260200190815260200160002060405180610120016040529081600082015481526020016001820180546115fb9061261e565b80601f01602080910402602001604051908101604052809291908181526020018280546116279061261e565b80156116745780601f1061164957610100808354040283529160200191611674565b820191906000526020600020905b81548152906001019060200180831161165757829003601f168201915b5050509183525050600282015460e01b6001600160e01b03191660208201526003820180546040909201916116a89061261e565b80601f01602080910402602001604051908101604052809291908181526020018280546116d49061261e565b80156117215780601f106116f657610100808354040283529160200191611721565b820191906000526020600020905b81548152906001019060200180831161170457829003601f168201915b50505091835250506004919091015460ff80821615156020840152610100820481161515604084015262010000820481161515606084015263010000008204811615156080840152600160201b90910416151560a09091015292505b6001016114fe565b50806117c15760405162461bcd60e51b815260206004820152600b60248201526a1ad95e481a5b9d985b1a5960aa1b6044820152606401610292565b509392505050565b6000816117e85760405162461bcd60e51b815260040161029290612baa565b60005b6006548110156118bd57600081815260056020526040908190209051630686b30160e31b815273__$7f45f87f0a73bf4fcfd10e7fc7fd4aefbf$__91633435980891611841916003019088908890600401612bf6565b602060405180830381865af415801561185e573d6000803e3d6000fd5b505050506040513d601f19601f820116820180604052508101906118829190612995565b80156118a65750600081815260056020526040902060040154600160201b900460ff165b156118b557600191505061031d565b6001016117eb565b5060009392505050565b6003546040516001600160a01b03848116602483015260448201849052600092839283929091169060640160408051601f198184030181529181526020820180516001600160e01b031663430c208160e01b179052516119279190612caa565b600060405180830381855afa9150503d8060008114611962576040519150601f19603f3d011682016040523d82523d6000602084013e611967565b606091505b5091509150816119c85780516119bf5760405162461bcd60e51b815260206004820152601d60248201527f697320617070726f766564206f72206f776e65722072657665727465640000006044820152606401610292565b80518082602001fd5b6000818060200190518101906119de9190612995565b15156001149695505050505050565b60006119f984846114cd565b60048054604051636c51371d60e11b815263ffffffff8916928101929092529192506000916001600160a01b03169063d8a26e3a90602401600060405180830381865afa158015611a4e573d6000803e3d6000fd5b505050506040513d6000823e601f3d908101601f19168201604052611a769190810190612850565b90508160c001511515600115151415611acb5760405162461bcd60e51b815260206004820152601760248201527631b0b73737ba1031329039b2ba10313c903634b735b2b960491b6044820152606401610292565b6101008101515115611b5e57610100810151518251101580611b1857506101008101518251815160009291908110611b0557611b056125e2565b60200260200101516001600160a01b0316145b611b5e5760405162461bcd60e51b815260206004820152601760248201527619195cdd1a5b985d1a5bdb88185b1c9958591e481cd95d604a1b6044820152606401610292565b8160a0015115611dc9576000806000806000876001600160a01b031663d49a2a7c6040518163ffffffff1660e01b81526004016000604051808303816000875af1158015611bb0573d6000803e3d6000fd5b505050506040513d6000823e601f3d908101601f19168201604052611bd89190810190612cc6565b94509450945094509450611be93390565b6001600160a01b0316846001600160a01b031614611c365760405162461bcd60e51b815260206004820152600a60248201526906d69736d6174636820360b41b6044820152606401610292565b876001600160a01b0316856001600160a01b031614611c845760405162461bcd60e51b815260206004820152600a6024820152696d69736d61746368203160b01b6044820152606401610292565b828b14611cc05760405162461bcd60e51b815260206004820152600a60248201526936b4b9b6b0ba31b4101960b11b6044820152606401610292565b6020870151604051630686b30160e31b815273__$7f45f87f0a73bf4fcfd10e7fc7fd4aefbf$__91633435980891611cfc918691600401612d54565b602060405180830381865af4158015611d19573d6000803e3d6000fd5b505050506040513d601f19601f82011682018060405250810190611d3d9190612995565b611d765760405162461bcd60e51b815260206004820152600a6024820152696d69736d61746368203360b01b6044820152606401610292565b60408701516001600160e01b0319828116911614611dc35760405162461bcd60e51b815260206004820152600a6024820152691b5a5cdb585d18da080d60b21b6044820152606401610292565b50505050505b61010081015151611de15781516110c0906001612b84565b610100810151518251611df5906001612b84565b106112a3578151600090611e0a906001612b84565b6001600160401b03811115611e2157611e21611fe9565b604051908082528060200260200182016040528015611e4a578160200160208202803683370190505b50905060005b8151811015611297578351811415611e9a5784828281518110611e7557611e756125e2565b60200260200101906001600160a01b031690816001600160a01b031681525050611efa565b82610100015151811015611efa578261010001518181518110611ebf57611ebf6125e2565b6020026020010151828281518110611ed957611ed96125e2565b60200260200101906001600160a01b031690816001600160a01b0316815250505b600101611e50565b60408051610120810182526000808252606060208301819052928201819052828201929092526080810182905260a0810182905260c0810182905260e0810182905261010081019190915290565b828054611f5c9061261e565b90600052602060002090601f016020900481019282611f7e5760008555611fc4565b82601f10611f9757805160ff1916838001178555611fc4565b82800160010185558215611fc4579182015b82811115611fc4578251825591602001919060010190611fa9565b50611fd0929150611fd4565b5090565b5b80821115611fd05760008155600101611fd5565b634e487b7160e01b600052604160045260246000fd5b60405161012081016001600160401b038111828210171561202257612022611fe9565b60405290565b604051601f8201601f191681016001600160401b038111828210171561205057612050611fe9565b604052919050565b60006001600160401b0382111561207157612071611fe9565b5060051b60200190565b6001600160a01b038116811461209057600080fd5b50565b600060208083850312156120a657600080fd5b82356001600160401b038111156120bc57600080fd5b8301601f810185136120cd57600080fd5b80356120e06120db82612058565b612028565b81815260059190911b820183019083810190878311156120ff57600080fd5b928401925b828410156121265783356121178161207b565b82529284019290840190612104565b979650505050505050565b60008083601f84011261214357600080fd5b5081356001600160401b0381111561215a57600080fd5b60208301915083602082850101111561217257600080fd5b9250929050565b6000806020838503121561218c57600080fd5b82356001600160401b038111156121a257600080fd5b6121ae85828601612131565b90969095509350505050565b60005b838110156121d55781810151838201526020016121bd565b83811115610f985750506000910152565b600081518084526121fe8160208601602086016121ba565b601f01601f19169290920160200192915050565b60208152815160208201526000602083015161012080604085015261223b6101408501836121e6565b9150604085015161225860608601826001600160e01b0319169052565b506060850151848303601f1901608086015261227483826121e6565b925050608085015161228a60a086018215159052565b5060a085015180151560c08601525060c085015180151560e08601525060e08501516101006122bc8187018315159052565b90950151151593019290925250919050565b60006001600160401b038211156122e7576122e7611fe9565b50601f01601f191660200190565b60006123036120db846122ce565b905082815283838301111561231757600080fd5b828260208301376000602084830101529392505050565b600082601f83011261233f57600080fd5b61031a838335602085016122f5565b801515811461209057600080fd5b80356123678161234e565b919050565b600080600080600080600060e0888a03121561238757600080fd5b8735965060208801356001600160401b03808211156123a557600080fd5b818a0191508a601f8301126123b957600080fd5b6123c88b8335602085016122f5565b975060408a01359150808211156123de57600080fd5b506123eb8a828b0161232e565b9550506123fa6060890161235c565b93506124086080890161235c565b925061241660a0890161235c565b915061242460c0890161235c565b905092959891949750929550565b60006020828403121561244457600080fd5b5035919050565b6000806000806040858703121561246157600080fd5b84356001600160401b038082111561247857600080fd5b61248488838901612131565b9096509450602087013591508082111561249d57600080fd5b506124aa87828801612131565b95989497509550505050565b6000806000604084860312156124cb57600080fd5b8335925060208401356001600160401b038111156124e857600080fd5b6124f486828701612131565b9497909650939450505050565b6000806000806060858703121561251757600080fd5b8435935060208501356001600160401b0381111561253457600080fd5b61254087828801612131565b90945092505060408501356125548161207b565b939692955090935050565b60006020828403121561257157600080fd5b813561257c8161207b565b9392505050565b6000806040838503121561259657600080fd5b82356125a18161207b565b915060208301356125b18161234e565b809150509250929050565b6020808252600c908201526b3737ba103232b83637bcb2b960a11b604082015260600190565b634e487b7160e01b600052603260045260246000fd5b6020808252600c908201526b1b9bdd08185c1c1c9bdd995960a21b604082015260600190565b600181811c9082168061263257607f821691505b6020821081141561265357634e487b7160e01b600052602260045260246000fd5b50919050565b6020808252600990820152683737ba1037bbb732b960b91b604082015260600190565b805163ffffffff8116811461236757600080fd5b80516123678161207b565b600082601f8301126126ac57600080fd5b815160206126bc6120db83612058565b82815260059290921b840181019181810190868411156126db57600080fd5b8286015b848110156126fd576126f08161267c565b83529183019183016126df565b509695505050505050565b60006127166120db846122ce565b905082815283838301111561272a57600080fd5b61257c8360208301846121ba565b600082601f83011261274957600080fd5b61031a83835160208501612708565b600082601f83011261276957600080fd5b815160206127796120db83612058565b82815260059290921b8401810191818101908684111561279857600080fd5b8286015b848110156126fd5780516001600160401b038111156127bb5760008081fd5b8701603f810189136127cd5760008081fd5b6127de898683015160408401612708565b84525091830191830161279c565b600082601f8301126127fd57600080fd5b8151602061280d6120db83612058565b82815260059290921b8401810191818101908684111561282c57600080fd5b8286015b848110156126fd5780516128438161207b565b8352918301918301612830565b60006020828403121561286257600080fd5b81516001600160401b038082111561287957600080fd5b90830190610120828603121561288e57600080fd5b612896611fff565b61289f8361267c565b81526128ad6020840161267c565b60208201526128be6040840161267c565b60408201526128cf60608401612690565b60608201526080830151828111156128e657600080fd5b6128f28782860161269b565b60808301525060a08301518281111561290a57600080fd5b61291687828601612738565b60a08301525060c08301518281111561292e57600080fd5b61293a8782860161269b565b60c08301525060e08301518281111561295257600080fd5b61295e87828601612758565b60e083015250610100808401518381111561297857600080fd5b612984888287016127ec565b918301919091525095945050505050565b6000602082840312156129a757600080fd5b815161257c8161234e565b600081518084526020808501945080840160005b838110156129e857815163ffffffff16875295820195908201906001016129c6565b509495945050505050565b600081518084526020808501808196508360051b8101915082860160005b85811015612a3b578284038952612a298483516121e6565b98850198935090840190600101612a11565b5091979650505050505050565b600081518084526020808501945080840160005b838110156129e85781516001600160a01b031687529582019590820190600101612a5c565b63ffffffff8316815260406020820152612aa460408201835163ffffffff169052565b60006020830151612abd606084018263ffffffff169052565b50604083015163ffffffff811660808401525060608301516001600160a01b03811660a08401525060808301516101208060c0850152612b016101608501836129b2565b915060a0850151603f19808685030160e0870152612b1f84836121e6565b935060c08701519150610100818786030181880152612b3e85846129b2565b945060e08801519250818786030184880152612b5a85846129f3565b94508088015193505080868503016101408701525050612b7a8282612a48565b9695505050505050565b60008219821115612ba557634e487b7160e01b600052601160045260246000fd5b500190565b602080825260099082015268626c616e6b206b657960b81b604082015260600190565b81835281816020850137506000828201602090810191909152601f909101601f19169091010190565b60408152600080855481600182811c915080831680612c1657607f831692505b6020808410821415612c3657634e487b7160e01b86526022600452602486fd5b6040880184905260608801828015612c555760018114612c6657612c91565b60ff19871682528282019750612c91565b60008d81526020902060005b87811015612c8b57815484820152908601908401612c72565b83019850505b5050878603818901525050505050612b7a818587612bcd565b60008251612cbc8184602087016121ba565b9190910192915050565b600080600080600060a08688031215612cde57600080fd5b8551612ce98161207b565b6020870151909550612cfa8161207b565b6040870151606088015191955093506001600160401b03811115612d1d57600080fd5b612d2988828901612738565b925050608086015163ffffffff60e01b81168114612d4657600080fd5b809150509295509295909350565b604081526000612d6760408301856121e6565b8281036020840152612d7981856121e6565b9594505050505056fea2646970667358221220e89e63837bbb73e8d9c8f7e7b33519cfa7e896a755fcdd9b1441949ae599f61164736f6c634300080c0033",
  "libraries": {
    "InfinityMintUtil": "0x3411DEa54B2FB5aB203616bB614D61794432d7B1"
  },
  "devdoc": {
    "author": "0xTinman.eth",
    "details": "Allows content owners to add pre-validated links the user can add to their destinations field, contract creator sets links through build tools",
    "kind": "dev",
    "methods": {},
    "title": "InfinityMint Linker",
    "version": 1
  },
  "userdoc": {
    "kind": "user",
    "methods": {
      "clearLinks()": {
        "notice": "used by build tools to redeploy"
      },
      "erc721Location()": {
        "notice": "the location of the main ERC721 contract"
      },
      "forceLink(uint256,string,address)": {
        "notice": "Can be called by other contracts who are approved"
      },
      "setLink(uint256,string,address)": {
        "notice": "has to be called by token owner"
      },
      "toggleSupport(uint256)": {
        "notice": "disables this link from being used in the future"
      }
    },
    "notice": "Serves as a utility contract which manages the destinations field of an InfinityMint token",
    "version": 1
  },
  "storageLayout": {
    "storage": [
      {
        "astId": 458,
        "contract": "contracts/InfinityMintLinker.sol:InfinityMintLinker",
        "label": "deployer",
        "offset": 0,
        "slot": "0",
        "type": "t_address"
      },
      {
        "astId": 461,
        "contract": "contracts/InfinityMintLinker.sol:InfinityMintLinker",
        "label": "executionCount",
        "offset": 0,
        "slot": "1",
        "type": "t_uint256"
      },
      {
        "astId": 465,
        "contract": "contracts/InfinityMintLinker.sol:InfinityMintLinker",
        "label": "approved",
        "offset": 0,
        "slot": "2",
        "type": "t_mapping(t_address,t_bool)"
      },
      {
        "astId": 4571,
        "contract": "contracts/InfinityMintLinker.sol:InfinityMintLinker",
        "label": "erc721Location",
        "offset": 0,
        "slot": "3",
        "type": "t_address"
      },
      {
        "astId": 4575,
        "contract": "contracts/InfinityMintLinker.sol:InfinityMintLinker",
        "label": "storageController",
        "offset": 0,
        "slot": "4",
        "type": "t_contract(InfinityMintStorage)6696"
      },
      {
        "astId": 4581,
        "contract": "contracts/InfinityMintLinker.sol:InfinityMintLinker",
        "label": "links",
        "offset": 0,
        "slot": "5",
        "type": "t_mapping(t_uint256,t_struct(Link)4604_storage)"
      },
      {
        "astId": 4585,
        "contract": "contracts/InfinityMintLinker.sol:InfinityMintLinker",
        "label": "linkCount",
        "offset": 0,
        "slot": "6",
        "type": "t_uint256"
      }
    ],
    "types": {
      "t_address": {
        "encoding": "inplace",
        "label": "address",
        "numberOfBytes": "20"
      },
      "t_bool": {
        "encoding": "inplace",
        "label": "bool",
        "numberOfBytes": "1"
      },
      "t_bytes4": {
        "encoding": "inplace",
        "label": "bytes4",
        "numberOfBytes": "4"
      },
      "t_bytes_storage": {
        "encoding": "bytes",
        "label": "bytes",
        "numberOfBytes": "32"
      },
      "t_contract(InfinityMintStorage)6696": {
        "encoding": "inplace",
        "label": "contract InfinityMintStorage",
        "numberOfBytes": "20"
      },
      "t_mapping(t_address,t_bool)": {
        "encoding": "mapping",
        "key": "t_address",
        "label": "mapping(address => bool)",
        "numberOfBytes": "32",
        "value": "t_bool"
      },
      "t_mapping(t_uint256,t_struct(Link)4604_storage)": {
        "encoding": "mapping",
        "key": "t_uint256",
        "label": "mapping(uint256 => struct InfinityMintLinker.Link)",
        "numberOfBytes": "32",
        "value": "t_struct(Link)4604_storage"
      },
      "t_string_storage": {
        "encoding": "bytes",
        "label": "string",
        "numberOfBytes": "32"
      },
      "t_struct(Link)4604_storage": {
        "encoding": "inplace",
        "label": "struct InfinityMintLinker.Link",
        "members": [
          {
            "astId": 4587,
            "contract": "contracts/InfinityMintLinker.sol:InfinityMintLinker",
            "label": "index",
            "offset": 0,
            "slot": "0",
            "type": "t_uint256"
          },
          {
            "astId": 4589,
            "contract": "contracts/InfinityMintLinker.sol:InfinityMintLinker",
            "label": "versionType",
            "offset": 0,
            "slot": "1",
            "type": "t_bytes_storage"
          },
          {
            "astId": 4591,
            "contract": "contracts/InfinityMintLinker.sol:InfinityMintLinker",
            "label": "interfaceId",
            "offset": 0,
            "slot": "2",
            "type": "t_bytes4"
          },
          {
            "astId": 4593,
            "contract": "contracts/InfinityMintLinker.sol:InfinityMintLinker",
            "label": "key",
            "offset": 0,
            "slot": "3",
            "type": "t_string_storage"
          },
          {
            "astId": 4595,
            "contract": "contracts/InfinityMintLinker.sol:InfinityMintLinker",
            "label": "erc721",
            "offset": 0,
            "slot": "4",
            "type": "t_bool"
          },
          {
            "astId": 4597,
            "contract": "contracts/InfinityMintLinker.sol:InfinityMintLinker",
            "label": "verifyIntegrity",
            "offset": 1,
            "slot": "4",
            "type": "t_bool"
          },
          {
            "astId": 4599,
            "contract": "contracts/InfinityMintLinker.sol:InfinityMintLinker",
            "label": "forcedOnly",
            "offset": 2,
            "slot": "4",
            "type": "t_bool"
          },
          {
            "astId": 4601,
            "contract": "contracts/InfinityMintLinker.sol:InfinityMintLinker",
            "label": "permanent",
            "offset": 3,
            "slot": "4",
            "type": "t_bool"
          },
          {
            "astId": 4603,
            "contract": "contracts/InfinityMintLinker.sol:InfinityMintLinker",
            "label": "active",
            "offset": 4,
            "slot": "4",
            "type": "t_bool"
          }
        ],
        "numberOfBytes": "160"
      },
      "t_uint256": {
        "encoding": "inplace",
        "label": "uint256",
        "numberOfBytes": "32"
      }
    }
  }
}