{
  "address": "0x044a9Ab33ce67bc1Cc7CE6afc9DC9EB160E14aE0",
  "abi": [
    {
      "inputs": [
        {
          "internalType": "address",
          "name": "_infinityMint",
          "type": "address"
        }
      ],
      "stateMutability": "nonpayable",
      "type": "constructor"
    },
    {
      "anonymous": false,
      "inputs": [
        {
          "indexed": true,
          "internalType": "address",
          "name": "sender",
          "type": "address"
        },
        {
          "components": [
            {
              "internalType": "uint256",
              "name": "tokenId",
              "type": "uint256"
            },
            {
              "internalType": "address",
              "name": "from",
              "type": "address"
            },
            {
              "internalType": "address",
              "name": "to",
              "type": "address"
            },
            {
              "internalType": "uint256",
              "name": "value",
              "type": "uint256"
            },
            {
              "internalType": "bool",
              "name": "hasTransfer",
              "type": "bool"
            }
          ],
          "indexed": false,
          "internalType": "struct Mod_Marketplace.TransferObject",
          "name": "",
          "type": "tuple"
        }
      ],
      "name": "AwaitingTransfer",
      "type": "event"
    },
    {
      "anonymous": false,
      "inputs": [
        {
          "indexed": true,
          "internalType": "address",
          "name": "sender",
          "type": "address"
        },
        {
          "indexed": false,
          "internalType": "uint32",
          "name": "tokenId",
          "type": "uint32"
        },
        {
          "indexed": false,
          "internalType": "uint256",
          "name": "amount",
          "type": "uint256"
        }
      ],
      "name": "Offer",
      "type": "event"
    },
    {
      "anonymous": false,
      "inputs": [
        {
          "indexed": true,
          "internalType": "address",
          "name": "sender",
          "type": "address"
        },
        {
          "indexed": false,
          "internalType": "uint256",
          "name": "tokenId",
          "type": "uint256"
        },
        {
          "indexed": false,
          "internalType": "address",
          "name": "to",
          "type": "address"
        },
        {
          "indexed": false,
          "internalType": "uint256",
          "name": "amount",
          "type": "uint256"
        }
      ],
      "name": "TransferConfirmed",
      "type": "event"
    },
    {
      "inputs": [
        {
          "internalType": "uint32",
          "name": "tokenId",
          "type": "uint32"
        },
        {
          "internalType": "address",
          "name": "offerSender",
          "type": "address"
        }
      ],
      "name": "acceptOffer",
      "outputs": [],
      "stateMutability": "nonpayable",
      "type": "function"
    },
    {
      "inputs": [
        {
          "internalType": "uint32",
          "name": "tokenId",
          "type": "uint32"
        }
      ],
      "name": "awaitingTransfer",
      "outputs": [
        {
          "internalType": "bool",
          "name": "",
          "type": "bool"
        }
      ],
      "stateMutability": "view",
      "type": "function"
    },
    {
      "inputs": [
        {
          "internalType": "uint32",
          "name": "tokenId",
          "type": "uint32"
        }
      ],
      "name": "awaitingTransferTo",
      "outputs": [
        {
          "internalType": "address",
          "name": "",
          "type": "address"
        }
      ],
      "stateMutability": "view",
      "type": "function"
    },
    {
      "inputs": [
        {
          "internalType": "uint32",
          "name": "tokenId",
          "type": "uint32"
        }
      ],
      "name": "confirmTransfer",
      "outputs": [],
      "stateMutability": "nonpayable",
      "type": "function"
    },
    {
      "inputs": [
        {
          "internalType": "uint32",
          "name": "tokenId",
          "type": "uint32"
        },
        {
          "internalType": "address",
          "name": "offerSender",
          "type": "address"
        }
      ],
      "name": "getOffer",
      "outputs": [
        {
          "components": [
            {
              "internalType": "address",
              "name": "sender",
              "type": "address"
            },
            {
              "internalType": "uint256",
              "name": "tokenId",
              "type": "uint256"
            },
            {
              "internalType": "uint256",
              "name": "value",
              "type": "uint256"
            }
          ],
          "internalType": "struct Mod_Marketplace.OfferObject",
          "name": "",
          "type": "tuple"
        }
      ],
      "stateMutability": "view",
      "type": "function"
    },
    {
      "inputs": [
        {
          "internalType": "uint32",
          "name": "tokenId",
          "type": "uint32"
        }
      ],
      "name": "getOffers",
      "outputs": [
        {
          "internalType": "address[]",
          "name": "",
          "type": "address[]"
        }
      ],
      "stateMutability": "view",
      "type": "function"
    },
    {
      "inputs": [
        {
          "internalType": "uint32",
          "name": "tokenId",
          "type": "uint32"
        }
      ],
      "name": "makeOffer",
      "outputs": [],
      "stateMutability": "payable",
      "type": "function"
    },
    {
      "inputs": [
        {
          "internalType": "uint32",
          "name": "tokenId",
          "type": "uint32"
        }
      ],
      "name": "ownerOf",
      "outputs": [
        {
          "internalType": "address",
          "name": "",
          "type": "address"
        }
      ],
      "stateMutability": "nonpayable",
      "type": "function"
    },
    {
      "inputs": [
        {
          "internalType": "uint32",
          "name": "tokenId",
          "type": "uint32"
        }
      ],
      "name": "revokeOffer",
      "outputs": [],
      "stateMutability": "nonpayable",
      "type": "function"
    },
    {
      "inputs": [
        {
          "internalType": "uint32",
          "name": "",
          "type": "uint32"
        },
        {
          "internalType": "uint256",
          "name": "",
          "type": "uint256"
        }
      ],
      "name": "userOffers",
      "outputs": [
        {
          "internalType": "address",
          "name": "",
          "type": "address"
        }
      ],
      "stateMutability": "view",
      "type": "function"
    }
  ],
  "transactionHash": "0x52dffb838bfe93cd7e6decf4fbcde24d43830fd8d56bda23e1d05721fca19319",
  "args": [
    "0x31845Bebf7090E7BB0a2e9e191d463336131Dca7"
  ],
  "numDeployments": 1,
  "solcInputHash": "c554005d846e5256cfd947c8d0a331d2",
  "bytecode": "0x608060405234801561001057600080fd5b5060405161143438038061143483398101604081905261002f916100a6565b803b6100815760405162461bcd60e51b815260206004820152601c60248201527f4d757374206265204e465420636f6e7472616374206164647265737300000000604482015260640160405180910390fd5b600080546001600160a01b0319166001600160a01b03929092169190911790556100d6565b6000602082840312156100b857600080fd5b81516001600160a01b03811681146100cf57600080fd5b9392505050565b61134f806100e56000396000f3fe6080604052600436106100815760003560e01c806317f50a28146100865780631da9b3cf146100c357806323b7ec3b1461010e5780633626a54c1461012e57806342aa03d5146101505780638a3b41fb14610170578063a83fc667146101a0578063c1655d11146101c0578063d337ab69146101ff578063f511e1c61461022c575b600080fd5b34801561009257600080fd5b506100a66100a1366004611095565b61023f565b6040516001600160a01b0390911681526020015b60405180910390f35b3480156100cf57600080fd5b506100e36100de3660046110d7565b610277565b6040805182516001600160a01b031681526020808401519082015291810151908201526060016100ba565b34801561011a57600080fd5b506100a661012936600461110e565b6102f6565b34801561013a57600080fd5b5061014e61014936600461110e565b6103c7565b005b34801561015c57600080fd5b5061014e61016b36600461110e565b6105ff565b34801561017c57600080fd5b5061019061018b36600461110e565b610819565b60405190151581526020016100ba565b3480156101ac57600080fd5b5061014e6101bb3660046110d7565b61086e565b3480156101cc57600080fd5b506100a66101db36600461110e565b63ffffffff166000908152600460205260409020600201546001600160a01b031690565b34801561020b57600080fd5b5061021f61021a36600461110e565b610b29565b6040516100ba9190611130565b61014e61023a36600461110e565b610b9c565b6003602052816000526040600020818154811061025b57600080fd5b6000918252602090912001546001600160a01b03169150829050565b6102a4604051806060016040528060006001600160a01b0316815260200160008152602001600081525090565b5063ffffffff9190911660009081526002602081815260408084206001600160a01b03958616855282529283902083516060810185528154909516855260018101549185019190915201549082015290565b600080546040805163ffffffff851660248083019190915282518083039091018152604490910182526020810180516001600160e01b03166331a9108f60e11b1790529051839283926001600160a01b0390911691610355919061117d565b6000604051808303816000865af19150503d8060008114610392576040519150601f19603f3d011682016040523d82523d6000602084013e610397565b606091505b5091509150816103ab575060009392505050565b808060200190518101906103bf91906111b8565b949350505050565b60018060008282546103d991906111eb565b90915550506001805463ffffffff83166000908152600460205260409020909101546001600160a01b031633146104435760405162461bcd60e51b81526020600482015260096024820152683737ba1037bbb732b960b91b60448201526064015b60405180910390fd5b63ffffffff82166000908152600460208190526040909120015460ff16156104ac5760405162461bcd60e51b815260206004820152601c60248201527b1d1bdad95b881a185cc8185b1c9958591e481d1c985b9cd9995c995960221b604482015260640161043a565b63ffffffff82166000908152600460205260409020600201546001600160a01b03166104d7836102f6565b6001600160a01b0316146105225760405162461bcd60e51b81526020600482015260126024820152711a185cc81b9bdd081d1c985b9cd9995c995960721b604482015260640161043a565b63ffffffff82166000818152600460208181526040808420600381018054835160a081018552888152808601888152818601898152606083018a81526001608085018181529c8c52988a905292518655905196850180546001600160a01b039889166001600160a01b03199182161790915590516002860180549190981691161790955593519055945194909201805494151560ff199095169490941790935551339183156108fc02918491818181858888f193505050501580156105eb573d6000803e3d6000fd5b505060015481146105fb57600080fd5b5050565b600180600082825461061191906111eb565b9091555050600154610624335b3b151590565b156106415760405162461bcd60e51b815260040161043a90611203565b63ffffffff82166000908152600460205260409020600201546001600160a01b03163314156106b25760405162461bcd60e51b815260206004820152601e60248201527f796f752063616e6e6f74207265766f6b6520617420746869732074696d650000604482015260640161043a565b63ffffffff821660009081526002602090815260408083203384529091529020546001600160a01b031615801590610712575063ffffffff82166000908152600260209081526040808320338085529252909120546001600160a01b0316145b6107745760405162461bcd60e51b815260206004820152602d60248201527f4e6f206f666665722066726f6d20746869732061646472657373206f7220696e60448201526c31b7b932b1ba1039b2b73232b960991b606482015260840161043a565b63ffffffff82166000908152600260208181526040808420338086529252808420909201549151909282156108fc02929190818181858888f193505050501580156107c3573d6000803e3d6000fd5b5063ffffffff82166000908152600260208181526040808420338086529252832080546001600160a01b0319168155600181018490559091019190915561080b908390610e15565b60015481146105fb57600080fd5b63ffffffff81166000908152600460205260408120600201546001600160a01b031615801590610868575063ffffffff82166000908152600460208190526040909120015460ff161515600114155b92915050565b63ffffffff82166000908152600460205260409020600201546001600160a01b0316156108ad5760405162461bcd60e51b815260040161043a90611236565b63ffffffff821660009081526002602090815260408083206001600160a01b038581168552925290912054166109225760405162461bcd60e51b815260206004820152601a6024820152794e6f206f666665722066726f6d2074686973206164647265737360301b604482015260640161043a565b600061092d836102f6565b6001600160a01b031614156109545760405162461bcd60e51b815260040161043a90611294565b3361095e836102f6565b6001600160a01b0316146109c05760405162461bcd60e51b815260206004820152602360248201527f596f7520617265206e6f7420746865206f776e6572206f66207468697320746f60448201526235b2b760e91b606482015260840161043a565b6040518060a001604052808363ffffffff1681526020016109de3390565b6001600160a01b03908116825263ffffffff851660008181526002602081815260408084208987168552825280842080548716838901528301548188015260609687018490529383526004808252928490208751808255888301516001830180549189166001600160a01b031992831681179091558a88015195840180549690991695909116851790975588880151600383018190556080998a015192909501805492151560ff1990931683179055855190815291820195909552928301529281019290925260ff1615159181019190915233907fd6d62b1d68b09c76da5e93f71d4945ceb3266f771df45c48e4d101d1917e8c659060a00160405180910390a263ffffffff821660009081526002602081815260408084206001600160a01b0386168552909152822080546001600160a01b03191681556001810183905501556105fb8282610e15565b63ffffffff8116600090815260036020908152604091829020805483518184028101840190945280845260609392830182828015610b9057602002820191906000526020600020905b81546001600160a01b03168152600190910190602001808311610b72575b50505050509050919050565b6001806000828254610bae91906111eb565b9091555050600154610bbf3361061e565b15610bdc5760405162461bcd60e51b815260040161043a90611203565b6000610be7836102f6565b6001600160a01b03161415610c0e5760405162461bcd60e51b815260040161043a90611294565b33610c18836102f6565b6001600160a01b03161415610c7b5760405162461bcd60e51b8152602060048201526024808201527f43616e6e6f74206d616b65206f6666657273206f6e20796f7572206f776e207460448201526337b5b2b760e11b606482015260840161043a565b63ffffffff821660009081526002602090815260408083203384529091529020546001600160a01b031615610cf25760405162461bcd60e51b815260206004820152601e60248201527f596f7520616c7265616479206861766520616e206f66666572206f70656e0000604482015260640161043a565b63ffffffff82166000908152600460205260409020600201546001600160a01b031615610d315760405162461bcd60e51b815260040161043a90611236565b6040518060600160405280610d433390565b6001600160a01b03908116825263ffffffff8516602080840182905234604094850181905260008381526002808452868220338084529085528783208951815498166001600160a01b03199889161781558986015160018083019190915599890151920191909155848252600384528682208054988901815582529083902090960180549094168617909355835191825281019190915281517fb59aaf71da20e81c5cfd49e0e680b3a7b05360f3d14b1dc430858b399739648c929181900390910190a260015481146105fb57600080fd5b63ffffffff8216600090815260036020526040902054610e37906001906112bb565b610e6e57604080516000808252602080830180855263ffffffff8716835260039091529290209051610e699290611002565b505050565b63ffffffff8216600090815260036020526040812054610e90906001906112bb565b67ffffffffffffffff811115610ea857610ea86112d2565b604051908082528060200260200182016040528015610ed1578160200160208202803683370190505b5090506000805b63ffffffff8516600090815260036020526040902054811015610fd45763ffffffff8516600090815260036020526040902080546001600160a01b038616919083908110610f2857610f286112e8565b6000918252602090912001546001600160a01b03161415610f4857610fc2565b63ffffffff85166000908152600360205260409020805482908110610f6f57610f6f6112e8565b6000918252602090912001546001600160a01b03168383610f8f816112fe565b945081518110610fa157610fa16112e8565b60200260200101906001600160a01b031690816001600160a01b0316815250505b80610fcc816112fe565b915050610ed8565b5063ffffffff841660009081526003602090815260409091208351610ffb92850190611002565b5050505050565b828054828255906000526020600020908101928215611057579160200282015b8281111561105757825182546001600160a01b0319166001600160a01b03909116178255602090920191600190910190611022565b50611063929150611067565b5090565b5b808211156110635760008155600101611068565b803563ffffffff8116811461109057600080fd5b919050565b600080604083850312156110a857600080fd5b6110b18361107c565b946020939093013593505050565b6001600160a01b03811681146110d457600080fd5b50565b600080604083850312156110ea57600080fd5b6110f38361107c565b91506020830135611103816110bf565b809150509250929050565b60006020828403121561112057600080fd5b6111298261107c565b9392505050565b6020808252825182820181905260009190848201906040850190845b818110156111715783516001600160a01b03168352928401929184019160010161114c565b50909695505050505050565b6000825160005b8181101561119e5760208186018101518583015201611184565b818111156111ad576000828501525b509190910192915050565b6000602082840312156111ca57600080fd5b8151611129816110bf565b634e487b7160e01b600052601160045260246000fd5b600082198211156111fe576111fe6111d5565b500190565b60208082526019908201527810dbdb9d1c9858dd1cc8185c99481b9bdd08185b1b1bddd959603a1b604082015260600190565b602080825260409082018190527f5468697320746f6b656e2068617320616c7265616479206265656e20736f6c64908201527f20616e642069732077616974696e6720746f206265207472616e736665726564606082015260800190565b6020808252600d908201526c24b73b30b634b2102a37b5b2b760991b604082015260600190565b6000828210156112cd576112cd6111d5565b500390565b634e487b7160e01b600052604160045260246000fd5b634e487b7160e01b600052603260045260246000fd5b6000600019821415611312576113126111d5565b506001019056fea264697066735822122092def988d614bac5621beeade63857d4d9ff3c2d0a87418796db524b7050806564736f6c634300080c0033",
  "libraries": {
    "InfinityMintUtil": "0x3411DEa54B2FB5aB203616bB614D61794432d7B1"
  },
  "devdoc": {
    "kind": "dev",
    "methods": {},
    "version": 1
  },
  "userdoc": {
    "kind": "user",
    "methods": {},
    "version": 1
  },
  "storageLayout": {
    "storage": [
      {
        "astId": 8865,
        "contract": "contracts/__mods/Marketplace.sol:Mod_Marketplace",
        "label": "infinityMint",
        "offset": 0,
        "slot": "0",
        "type": "t_address"
      },
      {
        "astId": 8885,
        "contract": "contracts/__mods/Marketplace.sol:Mod_Marketplace",
        "label": "executionCount",
        "offset": 0,
        "slot": "1",
        "type": "t_uint256"
      },
      {
        "astId": 8892,
        "contract": "contracts/__mods/Marketplace.sol:Mod_Marketplace",
        "label": "tokenOffers",
        "offset": 0,
        "slot": "2",
        "type": "t_mapping(t_uint32,t_mapping(t_address,t_struct(OfferObject)8872_storage))"
      },
      {
        "astId": 8897,
        "contract": "contracts/__mods/Marketplace.sol:Mod_Marketplace",
        "label": "userOffers",
        "offset": 0,
        "slot": "3",
        "type": "t_mapping(t_uint32,t_array(t_address)dyn_storage)"
      },
      {
        "astId": 8902,
        "contract": "contracts/__mods/Marketplace.sol:Mod_Marketplace",
        "label": "transfers",
        "offset": 0,
        "slot": "4",
        "type": "t_mapping(t_uint32,t_struct(TransferObject)8883_storage)"
      }
    ],
    "types": {
      "t_address": {
        "encoding": "inplace",
        "label": "address",
        "numberOfBytes": "20"
      },
      "t_array(t_address)dyn_storage": {
        "base": "t_address",
        "encoding": "dynamic_array",
        "label": "address[]",
        "numberOfBytes": "32"
      },
      "t_bool": {
        "encoding": "inplace",
        "label": "bool",
        "numberOfBytes": "1"
      },
      "t_mapping(t_address,t_struct(OfferObject)8872_storage)": {
        "encoding": "mapping",
        "key": "t_address",
        "label": "mapping(address => struct Mod_Marketplace.OfferObject)",
        "numberOfBytes": "32",
        "value": "t_struct(OfferObject)8872_storage"
      },
      "t_mapping(t_uint32,t_array(t_address)dyn_storage)": {
        "encoding": "mapping",
        "key": "t_uint32",
        "label": "mapping(uint32 => address[])",
        "numberOfBytes": "32",
        "value": "t_array(t_address)dyn_storage"
      },
      "t_mapping(t_uint32,t_mapping(t_address,t_struct(OfferObject)8872_storage))": {
        "encoding": "mapping",
        "key": "t_uint32",
        "label": "mapping(uint32 => mapping(address => struct Mod_Marketplace.OfferObject))",
        "numberOfBytes": "32",
        "value": "t_mapping(t_address,t_struct(OfferObject)8872_storage)"
      },
      "t_mapping(t_uint32,t_struct(TransferObject)8883_storage)": {
        "encoding": "mapping",
        "key": "t_uint32",
        "label": "mapping(uint32 => struct Mod_Marketplace.TransferObject)",
        "numberOfBytes": "32",
        "value": "t_struct(TransferObject)8883_storage"
      },
      "t_struct(OfferObject)8872_storage": {
        "encoding": "inplace",
        "label": "struct Mod_Marketplace.OfferObject",
        "members": [
          {
            "astId": 8867,
            "contract": "contracts/__mods/Marketplace.sol:Mod_Marketplace",
            "label": "sender",
            "offset": 0,
            "slot": "0",
            "type": "t_address"
          },
          {
            "astId": 8869,
            "contract": "contracts/__mods/Marketplace.sol:Mod_Marketplace",
            "label": "tokenId",
            "offset": 0,
            "slot": "1",
            "type": "t_uint256"
          },
          {
            "astId": 8871,
            "contract": "contracts/__mods/Marketplace.sol:Mod_Marketplace",
            "label": "value",
            "offset": 0,
            "slot": "2",
            "type": "t_uint256"
          }
        ],
        "numberOfBytes": "96"
      },
      "t_struct(TransferObject)8883_storage": {
        "encoding": "inplace",
        "label": "struct Mod_Marketplace.TransferObject",
        "members": [
          {
            "astId": 8874,
            "contract": "contracts/__mods/Marketplace.sol:Mod_Marketplace",
            "label": "tokenId",
            "offset": 0,
            "slot": "0",
            "type": "t_uint256"
          },
          {
            "astId": 8876,
            "contract": "contracts/__mods/Marketplace.sol:Mod_Marketplace",
            "label": "from",
            "offset": 0,
            "slot": "1",
            "type": "t_address"
          },
          {
            "astId": 8878,
            "contract": "contracts/__mods/Marketplace.sol:Mod_Marketplace",
            "label": "to",
            "offset": 0,
            "slot": "2",
            "type": "t_address"
          },
          {
            "astId": 8880,
            "contract": "contracts/__mods/Marketplace.sol:Mod_Marketplace",
            "label": "value",
            "offset": 0,
            "slot": "3",
            "type": "t_uint256"
          },
          {
            "astId": 8882,
            "contract": "contracts/__mods/Marketplace.sol:Mod_Marketplace",
            "label": "hasTransfer",
            "offset": 0,
            "slot": "4",
            "type": "t_bool"
          }
        ],
        "numberOfBytes": "160"
      },
      "t_uint256": {
        "encoding": "inplace",
        "label": "uint256",
        "numberOfBytes": "32"
      },
      "t_uint32": {
        "encoding": "inplace",
        "label": "uint32",
        "numberOfBytes": "4"
      }
    }
  }
}