{
  "address": "0x93fE963450fBFe154Bbe3Ee813eAd4AE2C41f854",
  "abi": [
    {
      "inputs": [
        {
          "internalType": "string",
          "name": "_tokenURI",
          "type": "string"
        },
        {
          "internalType": "string",
          "name": "_tokenName",
          "type": "string"
        },
        {
          "internalType": "string",
          "name": "_tokenSymbol",
          "type": "string"
        },
        {
          "internalType": "address",
          "name": "redemptionDestination",
          "type": "address"
        },
        {
          "internalType": "address",
          "name": "linkerDestination",
          "type": "address"
        },
        {
          "internalType": "address",
          "name": "parentERC721",
          "type": "address"
        }
      ],
      "stateMutability": "nonpayable",
      "type": "constructor"
    },
    {
      "anonymous": false,
      "inputs": [
        {
          "indexed": true,
          "internalType": "address",
          "name": "owner",
          "type": "address"
        },
        {
          "indexed": true,
          "internalType": "address",
          "name": "approved",
          "type": "address"
        },
        {
          "indexed": true,
          "internalType": "uint256",
          "name": "tokenId",
          "type": "uint256"
        }
      ],
      "name": "Approval",
      "type": "event"
    },
    {
      "anonymous": false,
      "inputs": [
        {
          "indexed": true,
          "internalType": "address",
          "name": "owner",
          "type": "address"
        },
        {
          "indexed": true,
          "internalType": "address",
          "name": "operator",
          "type": "address"
        },
        {
          "indexed": false,
          "internalType": "bool",
          "name": "approved",
          "type": "bool"
        }
      ],
      "name": "ApprovalForAll",
      "type": "event"
    },
    {
      "anonymous": false,
      "inputs": [
        {
          "indexed": true,
          "internalType": "address",
          "name": "sender",
          "type": "address"
        },
        {
          "indexed": true,
          "internalType": "address",
          "name": "changee",
          "type": "address"
        },
        {
          "indexed": false,
          "internalType": "bool",
          "name": "value",
          "type": "bool"
        }
      ],
      "name": "PermissionChange",
      "type": "event"
    },
    {
      "anonymous": false,
      "inputs": [
        {
          "indexed": true,
          "internalType": "address",
          "name": "from",
          "type": "address"
        },
        {
          "indexed": true,
          "internalType": "address",
          "name": "to",
          "type": "address"
        },
        {
          "indexed": true,
          "internalType": "uint256",
          "name": "tokenId",
          "type": "uint256"
        }
      ],
      "name": "Transfer",
      "type": "event"
    },
    {
      "anonymous": false,
      "inputs": [
        {
          "indexed": true,
          "internalType": "address",
          "name": "from",
          "type": "address"
        },
        {
          "indexed": true,
          "internalType": "address",
          "name": "to",
          "type": "address"
        }
      ],
      "name": "TransferedOwnership",
      "type": "event"
    },
    {
      "inputs": [
        {
          "internalType": "address",
          "name": "_to",
          "type": "address"
        },
        {
          "internalType": "uint256",
          "name": "_tokenId",
          "type": "uint256"
        }
      ],
      "name": "approve",
      "outputs": [],
      "stateMutability": "nonpayable",
      "type": "function"
    },
    {
      "inputs": [
        {
          "internalType": "address",
          "name": "",
          "type": "address"
        }
      ],
      "name": "approved",
      "outputs": [
        {
          "internalType": "bool",
          "name": "",
          "type": "bool"
        }
      ],
      "stateMutability": "view",
      "type": "function"
    },
    {
      "inputs": [
        {
          "internalType": "address",
          "name": "_owner",
          "type": "address"
        }
      ],
      "name": "balanceOf",
      "outputs": [
        {
          "internalType": "uint256",
          "name": "",
          "type": "uint256"
        }
      ],
      "stateMutability": "view",
      "type": "function"
    },
    {
      "inputs": [
        {
          "internalType": "uint256",
          "name": "parentTokenId",
          "type": "uint256"
        }
      ],
      "name": "canGetProofOfRedemption",
      "outputs": [
        {
          "internalType": "bool",
          "name": "",
          "type": "bool"
        }
      ],
      "stateMutability": "view",
      "type": "function"
    },
    {
      "inputs": [],
      "name": "deployer",
      "outputs": [
        {
          "internalType": "address",
          "name": "",
          "type": "address"
        }
      ],
      "stateMutability": "view",
      "type": "function"
    },
    {
      "inputs": [
        {
          "internalType": "uint256",
          "name": "_tokenId",
          "type": "uint256"
        }
      ],
      "name": "exists",
      "outputs": [
        {
          "internalType": "bool",
          "name": "",
          "type": "bool"
        }
      ],
      "stateMutability": "view",
      "type": "function"
    },
    {
      "inputs": [
        {
          "internalType": "address",
          "name": "sender",
          "type": "address"
        }
      ],
      "name": "forceMint",
      "outputs": [],
      "stateMutability": "nonpayable",
      "type": "function"
    },
    {
      "inputs": [
        {
          "internalType": "uint256",
          "name": "tokenId",
          "type": "uint256"
        }
      ],
      "name": "get",
      "outputs": [
        {
          "components": [
            {
              "internalType": "bool",
              "name": "valid",
              "type": "bool"
            },
            {
              "internalType": "uint256",
              "name": "redemptionTokenId",
              "type": "uint256"
            },
            {
              "internalType": "uint256",
              "name": "redeemedToken",
              "type": "uint256"
            },
            {
              "internalType": "address",
              "name": "redeemer",
              "type": "address"
            },
            {
              "internalType": "uint256",
              "name": "time",
              "type": "uint256"
            }
          ],
          "internalType": "struct Mod_RedemptionLinker.ProofOfRedemption",
          "name": "",
          "type": "tuple"
        }
      ],
      "stateMutability": "view",
      "type": "function"
    },
    {
      "inputs": [
        {
          "internalType": "uint256",
          "name": "_tokenId",
          "type": "uint256"
        }
      ],
      "name": "getApproved",
      "outputs": [
        {
          "internalType": "address",
          "name": "",
          "type": "address"
        }
      ],
      "stateMutability": "view",
      "type": "function"
    },
    {
      "inputs": [
        {
          "internalType": "uint256",
          "name": "parentTokenId",
          "type": "uint256"
        }
      ],
      "name": "getProofOfRedemption",
      "outputs": [
        {
          "components": [
            {
              "internalType": "bool",
              "name": "valid",
              "type": "bool"
            },
            {
              "internalType": "uint256",
              "name": "redemptionTokenId",
              "type": "uint256"
            },
            {
              "internalType": "uint256",
              "name": "redeemedToken",
              "type": "uint256"
            },
            {
              "internalType": "address",
              "name": "redeemer",
              "type": "address"
            },
            {
              "internalType": "uint256",
              "name": "time",
              "type": "uint256"
            }
          ],
          "internalType": "struct Mod_RedemptionLinker.ProofOfRedemption",
          "name": "",
          "type": "tuple"
        }
      ],
      "stateMutability": "view",
      "type": "function"
    },
    {
      "inputs": [
        {
          "internalType": "address",
          "name": "_owner",
          "type": "address"
        },
        {
          "internalType": "address",
          "name": "_operator",
          "type": "address"
        }
      ],
      "name": "isApprovedForAll",
      "outputs": [
        {
          "internalType": "bool",
          "name": "",
          "type": "bool"
        }
      ],
      "stateMutability": "view",
      "type": "function"
    },
    {
      "inputs": [
        {
          "internalType": "address",
          "name": "addr",
          "type": "address"
        },
        {
          "internalType": "uint256",
          "name": "tokenId",
          "type": "uint256"
        }
      ],
      "name": "isApprovedOrOwner",
      "outputs": [
        {
          "internalType": "bool",
          "name": "",
          "type": "bool"
        }
      ],
      "stateMutability": "view",
      "type": "function"
    },
    {
      "inputs": [
        {
          "internalType": "address",
          "name": "addr",
          "type": "address"
        }
      ],
      "name": "isAuthenticated",
      "outputs": [
        {
          "internalType": "bool",
          "name": "",
          "type": "bool"
        }
      ],
      "stateMutability": "view",
      "type": "function"
    },
    {
      "inputs": [
        {
          "internalType": "uint256",
          "name": "parentTokenId",
          "type": "uint256"
        }
      ],
      "name": "mintProofOfRedemption",
      "outputs": [],
      "stateMutability": "nonpayable",
      "type": "function"
    },
    {
      "inputs": [
        {
          "internalType": "address[]",
          "name": "addrs",
          "type": "address[]"
        }
      ],
      "name": "multiApprove",
      "outputs": [],
      "stateMutability": "nonpayable",
      "type": "function"
    },
    {
      "inputs": [
        {
          "internalType": "address[]",
          "name": "addrs",
          "type": "address[]"
        }
      ],
      "name": "multiRevoke",
      "outputs": [],
      "stateMutability": "nonpayable",
      "type": "function"
    },
    {
      "inputs": [],
      "name": "name",
      "outputs": [
        {
          "internalType": "string",
          "name": "",
          "type": "string"
        }
      ],
      "stateMutability": "view",
      "type": "function"
    },
    {
      "inputs": [
        {
          "internalType": "uint256",
          "name": "_tokenId",
          "type": "uint256"
        }
      ],
      "name": "ownerOf",
      "outputs": [
        {
          "internalType": "address",
          "name": "",
          "type": "address"
        }
      ],
      "stateMutability": "view",
      "type": "function"
    },
    {
      "inputs": [
        {
          "internalType": "address",
          "name": "_from",
          "type": "address"
        },
        {
          "internalType": "address",
          "name": "_to",
          "type": "address"
        },
        {
          "internalType": "uint256",
          "name": "_tokenId",
          "type": "uint256"
        }
      ],
      "name": "safeTransferFrom",
      "outputs": [],
      "stateMutability": "nonpayable",
      "type": "function"
    },
    {
      "inputs": [
        {
          "internalType": "address",
          "name": "_from",
          "type": "address"
        },
        {
          "internalType": "address",
          "name": "_to",
          "type": "address"
        },
        {
          "internalType": "uint256",
          "name": "_tokenId",
          "type": "uint256"
        },
        {
          "internalType": "bytes",
          "name": "_data",
          "type": "bytes"
        }
      ],
      "name": "safeTransferFrom",
      "outputs": [],
      "stateMutability": "nonpayable",
      "type": "function"
    },
    {
      "inputs": [
        {
          "internalType": "address",
          "name": "_operator",
          "type": "address"
        },
        {
          "internalType": "bool",
          "name": "_approved",
          "type": "bool"
        }
      ],
      "name": "setApprovalForAll",
      "outputs": [],
      "stateMutability": "nonpayable",
      "type": "function"
    },
    {
      "inputs": [
        {
          "internalType": "string",
          "name": "uri",
          "type": "string"
        }
      ],
      "name": "setForcedTokenURI",
      "outputs": [],
      "stateMutability": "nonpayable",
      "type": "function"
    },
    {
      "inputs": [
        {
          "internalType": "address",
          "name": "addr",
          "type": "address"
        },
        {
          "internalType": "bool",
          "name": "value",
          "type": "bool"
        }
      ],
      "name": "setPrivilages",
      "outputs": [],
      "stateMutability": "nonpayable",
      "type": "function"
    },
    {
      "inputs": [
        {
          "internalType": "uint256",
          "name": "_tokenId",
          "type": "uint256"
        },
        {
          "internalType": "string",
          "name": "_newURI",
          "type": "string"
        }
      ],
      "name": "setTokenURI",
      "outputs": [],
      "stateMutability": "nonpayable",
      "type": "function"
    },
    {
      "inputs": [
        {
          "internalType": "bytes4",
          "name": "interfaceId",
          "type": "bytes4"
        }
      ],
      "name": "supportsInterface",
      "outputs": [
        {
          "internalType": "bool",
          "name": "",
          "type": "bool"
        }
      ],
      "stateMutability": "view",
      "type": "function"
    },
    {
      "inputs": [],
      "name": "symbol",
      "outputs": [
        {
          "internalType": "string",
          "name": "",
          "type": "string"
        }
      ],
      "stateMutability": "view",
      "type": "function"
    },
    {
      "inputs": [
        {
          "internalType": "uint256",
          "name": "_tokenId",
          "type": "uint256"
        }
      ],
      "name": "tokenURI",
      "outputs": [
        {
          "internalType": "string",
          "name": "",
          "type": "string"
        }
      ],
      "stateMutability": "view",
      "type": "function"
    },
    {
      "inputs": [
        {
          "internalType": "address",
          "name": "_from",
          "type": "address"
        },
        {
          "internalType": "address",
          "name": "_to",
          "type": "address"
        },
        {
          "internalType": "uint256",
          "name": "_tokenId",
          "type": "uint256"
        }
      ],
      "name": "transferFrom",
      "outputs": [],
      "stateMutability": "nonpayable",
      "type": "function"
    },
    {
      "inputs": [
        {
          "internalType": "address",
          "name": "addr",
          "type": "address"
        }
      ],
      "name": "transferOwnership",
      "outputs": [],
      "stateMutability": "nonpayable",
      "type": "function"
    }
  ],
  "transactionHash": "0xedaa678bcf2dee1e53daf5397ef6d035cad0f6b16c5b9f88ed40d0649ddc5f52",
  "args": [
    "",
    "🥳time.eth: Proof Of Redemption",
    "PoR",
    "0x7536E13107634EB8cfab01002Ca8C8ea69B8C1Ee",
    "0x76073EbAAcFD6EBE3Dd6439633A1b1d871ebf49b",
    "0x31845Bebf7090E7BB0a2e9e191d463336131Dca7"
  ],
  "numDeployments": 1,
  "solcInputHash": "c554005d846e5256cfd947c8d0a331d2",
  "bytecode": "0x60806040523480156200001157600080fd5b506040516200222838038062002228833981016040819052620000349162000297565b8451859085906200004d90600590602085019062000107565b5080516200006390600690602084019062000107565b505060078054336001600160a01b0319918216811790925560009182526009602090815260408320805460ff19166001179055600892909255600b805482166001600160a01b0388811691909117909155600c80549092169086161790558751620000d59250600a9189019062000107565b50600d80546001600160a01b0319166001600160a01b039290921691909117905550506000601055506200039c915050565b82805462000115906200035f565b90600052602060002090601f01602090048101928262000139576000855562000184565b82601f106200015457805160ff191683800117855562000184565b8280016001018555821562000184579182015b828111156200018457825182559160200191906001019062000167565b506200019292915062000196565b5090565b5b8082111562000192576000815560010162000197565b634e487b7160e01b600052604160045260246000fd5b600082601f830112620001d557600080fd5b81516001600160401b0380821115620001f257620001f2620001ad565b604051601f8301601f19908116603f011681019082821181831017156200021d576200021d620001ad565b816040528381526020925086838588010111156200023a57600080fd5b600091505b838210156200025e57858201830151818301840152908201906200023f565b83821115620002705760008385830101525b9695505050505050565b80516001600160a01b03811681146200029257600080fd5b919050565b60008060008060008060c08789031215620002b157600080fd5b86516001600160401b0380821115620002c957600080fd5b620002d78a838b01620001c3565b97506020890151915080821115620002ee57600080fd5b620002fc8a838b01620001c3565b965060408901519150808211156200031357600080fd5b506200032289828a01620001c3565b94505062000333606088016200027a565b925062000343608088016200027a565b91506200035360a088016200027a565b90509295509295509295565b600181811c908216806200037457607f821691505b602082108114156200039657634e487b7160e01b600052602260045260246000fd5b50919050565b611e7c80620003ac6000396000f3fe608060405234801561001057600080fd5b506004361061015f5760003560e01c806301ffc9a71461016457806306fdde031461018c578063081812fc146101a1578063095ea7b3146101cc5780630f762324146101e157806310a8c7a9146101f457806312b93dbf14610207578063162094c41461021a57806323b872dd1461022d57806331ed86d21461024057806342842e0e14610253578063430c2081146102665780634f558e79146102795780636352211e1461028c57806370a082311461029f5780637c0a7aab146102d657806394462e43146102e95780639507d39a146102fc57806395d89b4114610357578063a22cb4651461035f578063b88d4fde14610372578063c825fd3314610385578063c87b56dd14610398578063d15d4150146103ab578063d5f39488146103be578063d8b964e6146103d1578063e985e9c5146103f4578063f2fde38b14610407578063fe684c0e1461041a575b600080fd5b610177610172366004611879565b61042d565b60405190151581526020015b60405180910390f35b61019461047f565b60405161018391906118ea565b6101b46101af3660046118fd565b610511565b6040516001600160a01b039091168152602001610183565b6101df6101da366004611932565b61052c565b005b6101776101ef3660046118fd565b610681565b6101df6102023660046119a2565b6107fe565b6101df6102153660046118fd565b610895565b6101df610228366004611ac5565b610c3e565b6101df61023b366004611b0b565b610cc5565b6101df61024e3660046119a2565b610e35565b6101df610261366004611b0b565b610ec8565b610177610274366004611932565b610ee3565b6101776102873660046118fd565b610f42565b6101b461029a3660046118fd565b610f5f565b6102c86102ad366004611b47565b6001600160a01b031660009081526004602052604090205490565b604051908152602001610183565b6101df6102e4366004611b62565b610fc4565b6101df6102f7366004611b47565b611001565b61030f61030a3660046118fd565b611055565b604051610183919081511515815260208083015190820152604080830151908201526060808301516001600160a01b0316908201526080918201519181019190915260a00190565b6101946110ba565b6101df61036d366004611ba4565b6110c9565b6101df610380366004611bdb565b611136565b61030f6103933660046118fd565b611148565b6101946103a63660046118fd565b611202565b6101776103b9366004611b47565b6112d2565b6007546101b4906001600160a01b031681565b6101776103df366004611b47565b60096020526000908152604090205460ff1681565b610177610402366004611c56565b61130b565b6101df610415366004611b47565b611339565b6101df610428366004611ba4565b6113df565b60006001600160e01b031982166380ac58cd60e01b148061045e57506001600160e01b03198216635b5e139f60e01b145b8061047957506301ffc9a760e01b6001600160e01b03198316145b92915050565b60606005805461048e90611c89565b80601f01602080910402602001604051908101604052809291908181526020018280546104ba90611c89565b80156105075780601f106104dc57610100808354040283529160200191610507565b820191906000526020600020905b8154815290600101906020018083116104ea57829003601f168201915b5050505050905090565b6000908152600260205260409020546001600160a01b031690565b600061053782610f5f565b9050806001600160a01b0316836001600160a01b031614156105975760405162461bcd60e51b815260206004820152601460248201527331b0b73737ba1030b8383937bb329037bbb732b960611b60448201526064015b60405180910390fd5b336001600160a01b03821614806105b357506105b3813361130b565b6106255760405162461bcd60e51b815260206004820152603d60248201527f4552433732313a20617070726f76652063616c6c6572206973206e6f7420746f60448201527f6b656e206f776e6572206f7220617070726f76656420666f7220616c6c000000606482015260840161058e565b60008281526002602052604080822080546001600160a01b0319166001600160a01b0387811691821790925591518593918516917f8c5be1e5ebec7d5bd14f71427d1e84f3dd0314c0f7b2291e5b200ac8c7c3b92591a4505050565b600d54604051634f558e7960e01b8152600481018390526000916001600160a01b031690634f558e7990602401602060405180830381865afa1580156106cb573d6000803e3d6000fd5b505050506040513d601f19601f820116820180604052508101906106ef9190611cc4565b6106fb57506000919050565b600d546001600160a01b031663430c208133846040518363ffffffff1660e01b815260040161072b929190611ce1565b602060405180830381865afa158015610748573d6000803e3d6000fd5b505050506040513d601f19601f8201168201806040525081019061076c9190611cc4565b80156107e05750600b5460405163a7771ea560e01b8152600481018490526001600160a01b039091169063a7771ea590602401602060405180830381865afa1580156107bc573d6000803e3d6000fd5b505050506040513d601f19601f820116820180604052508101906107e09190611cc4565b80156104795750506000908152600f602052604090205460ff161590565b6007546001600160a01b031633146108285760405162461bcd60e51b815260040161058e90611cfa565b805161083357600080fd5b60005b81518110156108915760016009600084848151811061085757610857611d20565b6020908102919091018101516001600160a01b03168252810191909152604001600020805460ff1916911515919091179055600101610836565b5050565b600d546001600160a01b031663430c208133836040518363ffffffff1660e01b81526004016108c5929190611ce1565b602060405180830381865afa1580156108e2573d6000803e3d6000fd5b505050506040513d601f19601f820116820180604052508101906109069190611cc4565b61094e5760405162461bcd60e51b815260206004820152601960248201527839b2b73232b9103237b2b9903737ba1037bbb7103a37b5b2b760391b604482015260640161058e565b6000818152600f602052604090205460ff16156109a05760405162461bcd60e51b815260206004820152601060248201526f185b1c9958591e481c995919595b595960821b604482015260640161058e565b600b5460405163a7771ea560e01b8152600481018390526001600160a01b039091169063a7771ea590602401602060405180830381865afa1580156109e9573d6000803e3d6000fd5b505050506040513d601f19601f82011682018060405250810190610a0d9190611cc4565b610a735760405162461bcd60e51b815260206004820152603160248201527f686173206e6f74206265656e2072656465656d6564207468726f75676820726560448201527019195b5c1d1a5bdb8818dbdb9d1c9858dd607a1b606482015260840161058e565b610a8f33601054604051806020016040528060008152506114ba565b6040518060a0016040528060718152602001611dd6607191396001600060105481526020019081526020016000209080519060200190610ad092919061178d565b50600c54604051630d25146b60e41b815260048101839052606060248201526013606482015272383937b7b32fb7b32fb932b232b6b83a34b7b760691b60848201523060448201526001600160a01b039091169063d25146b09060a401600060405180830381600087803b158015610b4757600080fd5b505af1158015610b5b573d6000803e3d6000fd5b5050604080516060808201835260018083526010805460208086019182528587018a815260008b8152600f83528881209751885490151560ff199182161789559351888701559051600297880155875160a0810189528581528454818401818152828b018e815233998401998a524260808501908152928552600e90955299909220905181549015159416939093178355965182850155519481019490945591516003840180546001600160a01b03929092166001600160a01b0319909216919091179055925160049092019190915554610c3893509150611d4c565b60105550565b6007546001600160a01b0316331480610c6657503360009081526009602052604090205460ff165b610ca15760405162461bcd60e51b815260206004820152600c60248201526b1b9bdd08185c1c1c9bdd995960a21b604482015260640161058e565b60008281526001602090815260409091208251610cc09284019061178d565b505050565b610ccf3382610ee3565b610d135760405162461bcd60e51b81526020600482015260156024820152743737ba1030b8383937bb32b21037b91037bbb732b960591b604482015260640161058e565b6001600160a01b038316610d635760405162461bcd60e51b815260206004820152601760248201527673656e64696e6720746f206e756c6c206164647265737360481b604482015260640161058e565b600081815260026020908152604080832080546001600160a01b03191690556001600160a01b038616835260049091528120805460019290610da6908490611d64565b90915550506001600160a01b0382166000908152600460205260408120805460019290610dd4908490611d4c565b909155505060008181526020819052604080822080546001600160a01b0319166001600160a01b0386811691821790925591518493918716917fddf252ad1be2c89b69c2b068fc378daa952ba7f163c4a11628f55a4df523b3ef91a4505050565b6007546001600160a01b03163314610e5f5760405162461bcd60e51b815260040161058e90611cfa565b8051610e6a57600080fd5b60005b815181101561089157600060096000848481518110610e8e57610e8e611d20565b6020908102919091018101516001600160a01b03168252810191909152604001600020805460ff1916911515919091179055600101610e6d565b610cc0838383604051806020016040528060008152506115db565b600080610eef83610f5f565b9050806001600160a01b0316846001600160a01b03161480610f165750610f16818561130b565b80610f3a5750836001600160a01b0316610f2f84610511565b6001600160a01b0316145b949350505050565b6000908152602081905260409020546001600160a01b0316151590565b6000610f6a82610f42565b610fa85760405162461bcd60e51b815260206004820152600f60248201526e1a5b9d985b1a59081d1bdad95b9259608a1b604482015260640161058e565b506000908152602081905260409020546001600160a01b031690565b6007546001600160a01b03163314610fee5760405162461bcd60e51b815260040161058e90611cfa565b805161089190600a90602084019061178d565b6007546001600160a01b0316331461102b5760405162461bcd60e51b815260040161058e90611cfa565b61104781601054604051806020016040528060008152506114ba565b601054610c38906001611d4c565b61105d611811565b506000908152600e6020908152604091829020825160a081018452815460ff161515815260018201549281019290925260028101549282019290925260038201546001600160a01b03166060820152600490910154608082015290565b60606006805461048e90611c89565b3360008181526003602090815260408083206001600160a01b03871680855290835292819020805460ff191686151590811790915590519081529192917f17307eab39ab6107e8899845ad3d59bd9653f200f220920489ca2b5937696c3191015b60405180910390a35050565b611142848484846115db565b50505050565b611150611811565b6000828152600f602052604090205460ff1661119c5760405162461bcd60e51b815260206004820152600b60248201526a34b73b30b634b2102837a960a91b604482015260640161058e565b506000908152600f602090815260408083206001908101548452600e835292819020815160a081018352815460ff1615158152938101549284019290925260028201549083015260038101546001600160a01b0316606083015260040154608082015290565b600081815260016020526040902080546060919061121f90611c89565b151590506112b957600a805461123490611c89565b80601f016020809104026020016040519081016040528092919081815260200182805461126090611c89565b80156112ad5780601f10611282576101008083540402835291602001916112ad565b820191906000526020600020905b81548152906001019060200180831161129057829003601f168201915b50505050509050919050565b6000828152600160205260409020805461123490611c89565b6007546000906001600160a01b03838116911614806104795750506001600160a01b031660009081526009602052604090205460ff1690565b6001600160a01b03918216600090815260036020908152604080832093909416825291909152205460ff1690565b6007546001600160a01b031633146113635760405162461bcd60e51b815260040161058e90611cfa565b600780546001600160a01b03908116600090815260096020526040808220805460ff1990811690915584546001600160a01b03191693861693841790945582825280822080549094166001179093559151909133917f93091b3f3cd424efabc74e181f3799f3476ed758412561ed3b29515c51f567529190a350565b6007546001600160a01b031633146114095760405162461bcd60e51b815260040161058e90611cfa565b6007546001600160a01b03838116911614156114605760405162461bcd60e51b815260206004820152601660248201527531b0b73737ba1036b7b234b33c903232b83637bcb2b960511b604482015260640161058e565b6001600160a01b038216600081815260096020908152604091829020805460ff1916851515908117909155915191825233917ff38de818d000d07d091732dd783c6855722d7bc1934d92b7635133289d341695910161112a565b6001600160a01b0383166114fb5760405162461bcd60e51b81526020600482015260086024820152670c1e0c081b5a5b9d60c21b604482015260640161058e565b61150482610f42565b156115425760405162461bcd60e51b815260206004820152600e60248201526d185b1c9958591e481b5a5b9d195960921b604482015260640161058e565b6001600160a01b038316600090815260046020526040812080546001929061156b908490611d4c565b909155505060008281526020819052604080822080546001600160a01b0319166001600160a01b03871690811790915590518492907fddf252ad1be2c89b69c2b068fc378daa952ba7f163c4a11628f55a4df523b3ef908290a46115d2333085858561164b565b610cc057600080fd5b6115e6848484610cc5565b6115f3338585858561164b565b6111425760405162461bcd60e51b815260206004820152602360248201527f45524337323120526563656976657220436f6e6669726d6174696f6e2049732060448201526210985960ea1b606482015260840161058e565b6000833b61165b57506001611784565b604051630a85bd0160e11b81526001600160a01b0385169063150b7a029061168d908990899088908890600401611d7b565b6020604051808303816000875af19250505080156116c8575060408051601f3d908101601f191682019092526116c591810190611db8565b60015b61176e573d8080156116f6576040519150601f19603f3d011682016040523d82523d6000602084013e6116fb565b606091505b5080516117665760405162461bcd60e51b815260206004820152603360248201527f5468697320636f6e747261637420646f6573206e6f7420696d706c656d656e746044820152721030b71024a2a9219b9918a932b1b2b4bb32b960691b606482015260840161058e565b805181602001fd5b6001600160e01b031916630a85bd0160e11b1490505b95945050505050565b82805461179990611c89565b90600052602060002090601f0160209004810192826117bb5760008555611801565b82601f106117d457805160ff1916838001178555611801565b82800160010185558215611801579182015b828111156118015782518255916020019190600101906117e6565b5061180d92915061184b565b5090565b6040518060a00160405280600015158152602001600081526020016000815260200160006001600160a01b03168152602001600081525090565b5b8082111561180d576000815560010161184c565b6001600160e01b03198116811461187657600080fd5b50565b60006020828403121561188b57600080fd5b813561189681611860565b9392505050565b6000815180845260005b818110156118c3576020818501810151868301820152016118a7565b818111156118d5576000602083870101525b50601f01601f19169290920160200192915050565b602081526000611896602083018461189d565b60006020828403121561190f57600080fd5b5035919050565b80356001600160a01b038116811461192d57600080fd5b919050565b6000806040838503121561194557600080fd5b61194e83611916565b946020939093013593505050565b634e487b7160e01b600052604160045260246000fd5b604051601f8201601f191681016001600160401b038111828210171561199a5761199a61195c565b604052919050565b600060208083850312156119b557600080fd5b82356001600160401b03808211156119cc57600080fd5b818501915085601f8301126119e057600080fd5b8135818111156119f2576119f261195c565b8060051b9150611a03848301611972565b8181529183018401918481019088841115611a1d57600080fd5b938501935b83851015611a4257611a3385611916565b82529385019390850190611a22565b98975050505050505050565b60006001600160401b03831115611a6757611a6761195c565b611a7a601f8401601f1916602001611972565b9050828152838383011115611a8e57600080fd5b828260208301376000602084830101529392505050565b600082601f830112611ab657600080fd5b61189683833560208501611a4e565b60008060408385031215611ad857600080fd5b8235915060208301356001600160401b03811115611af557600080fd5b611b0185828601611aa5565b9150509250929050565b600080600060608486031215611b2057600080fd5b611b2984611916565b9250611b3760208501611916565b9150604084013590509250925092565b600060208284031215611b5957600080fd5b61189682611916565b600060208284031215611b7457600080fd5b81356001600160401b03811115611b8a57600080fd5b610f3a84828501611aa5565b801515811461187657600080fd5b60008060408385031215611bb757600080fd5b611bc083611916565b91506020830135611bd081611b96565b809150509250929050565b60008060008060808587031215611bf157600080fd5b611bfa85611916565b9350611c0860208601611916565b92506040850135915060608501356001600160401b03811115611c2a57600080fd5b8501601f81018713611c3b57600080fd5b611c4a87823560208401611a4e565b91505092959194509250565b60008060408385031215611c6957600080fd5b611c7283611916565b9150611c8060208401611916565b90509250929050565b600181811c90821680611c9d57607f821691505b60208210811415611cbe57634e487b7160e01b600052602260045260246000fd5b50919050565b600060208284031215611cd657600080fd5b815161189681611b96565b6001600160a01b03929092168252602082015260400190565b6020808252600c908201526b3737ba103232b83637bcb2b960a11b604082015260600190565b634e487b7160e01b600052603260045260246000fd5b634e487b7160e01b600052601160045260246000fd5b60008219821115611d5f57611d5f611d36565b500190565b600082821015611d7657611d76611d36565b500390565b6001600160a01b0385811682528416602082015260408101839052608060608201819052600090611dae9083018461189d565b9695505050505050565b600060208284031215611dca57600080fd5b81516118968161186056fe68747470733a2f2f697066732e696f2f697066732f626166796265696436796463366963667a61327a6d7434366d666a627265776932647371356c726d7a677061717173796d7a6b6e746c667068726d2f706172747974696d655f64656661756c745f70726f6f665f7572692e6a736f6ea2646970667358221220c28f7c4a67d6c3b207efa8392d4503fe2d76014a25204c087f43212ea34596aa64736f6c634300080c0033",
  "libraries": {
    "InfinityMintUtil": "0x3411DEa54B2FB5aB203616bB614D61794432d7B1"
  },
  "devdoc": {
    "kind": "dev",
    "methods": {
      "approve(address,uint256)": {
        "details": "will Throw if tokenId does not exist"
      },
      "isApprovedOrOwner(address,uint256)": {
        "details": "same as open zepps"
      },
      "ownerOf(uint256)": {
        "details": "will Throw if the token does not exist"
      },
      "safeTransferFrom(address,address,uint256)": {
        "details": "Emits a {Transfer} event."
      },
      "safeTransferFrom(address,address,uint256,bytes)": {
        "details": "Emits a {Transfer} event."
      },
      "supportsInterface(bytes4)": {
        "details": "See {IERC165-supportsInterface}."
      },
      "transferFrom(address,address,uint256)": {
        "details": "Emits a {Transfer} event."
      }
    },
    "version": 1
  },
  "userdoc": {
    "kind": "user",
    "methods": {
      "approve(address,uint256)": {
        "notice": "Sets an approved adress for this token"
      },
      "balanceOf(address)": {
        "notice": "blanceOf returns the number of tokens an address currently holds."
      },
      "exists(uint256)": {
        "notice": "Returns true if a token exists."
      },
      "getApproved(uint256)": {
        "notice": "Returns the approved adress for this token."
      },
      "isApprovedForAll(address,address)": {
        "notice": "Will returns true if the operator is approved by the owner address"
      },
      "isApprovedOrOwner(address,uint256)": {
        "notice": "will returns true if the address is apprroved for all, approved operator or is the owner of a token"
      },
      "name()": {
        "notice": "Returns the name of the ERC721  for display on places like Etherscan"
      },
      "ownerOf(uint256)": {
        "notice": "Returns the owner of a current token"
      },
      "safeTransferFrom(address,address,uint256)": {
        "notice": "Just like the method above except with no data field we pass to the implemeting contract."
      },
      "safeTransferFrom(address,address,uint256,bytes)": {
        "notice": "Just like transferFrom except we will check if the to address is a contract and is an IERC721Receiver implementer"
      },
      "setApprovalForAll(address,bool)": {
        "notice": "Will approve an operator for the senders tokens"
      },
      "supportsInterface(bytes4)": {
        "notice": "this is used by opensea/polyscan to detect our ERC721"
      },
      "symbol()": {
        "notice": "Returns the symbol of the ERC721 for display on places like Polyscan"
      },
      "tokenURI(uint256)": {
        "notice": "Returns the tokens URI Metadata object"
      },
      "transferFrom(address,address,uint256)": {
        "notice": "Transfers a token fsrom one address to another. Use safeTransferFrom as that will double check that the address you send this token too is a contract that can actually receive it."
      }
    },
    "version": 1
  },
  "storageLayout": {
    "storage": [
      {
        "astId": 742,
        "contract": "contracts/__mods/RedemptionLinker.sol:Mod_RedemptionLinker",
        "label": "tokens",
        "offset": 0,
        "slot": "0",
        "type": "t_mapping(t_uint256,t_address)"
      },
      {
        "astId": 747,
        "contract": "contracts/__mods/RedemptionLinker.sol:Mod_RedemptionLinker",
        "label": "uri",
        "offset": 0,
        "slot": "1",
        "type": "t_mapping(t_uint256,t_string_storage)"
      },
      {
        "astId": 752,
        "contract": "contracts/__mods/RedemptionLinker.sol:Mod_RedemptionLinker",
        "label": "approvedTokens",
        "offset": 0,
        "slot": "2",
        "type": "t_mapping(t_uint256,t_address)"
      },
      {
        "astId": 759,
        "contract": "contracts/__mods/RedemptionLinker.sol:Mod_RedemptionLinker",
        "label": "operators",
        "offset": 0,
        "slot": "3",
        "type": "t_mapping(t_address,t_mapping(t_address,t_bool))"
      },
      {
        "astId": 764,
        "contract": "contracts/__mods/RedemptionLinker.sol:Mod_RedemptionLinker",
        "label": "balance",
        "offset": 0,
        "slot": "4",
        "type": "t_mapping(t_address,t_uint256)"
      },
      {
        "astId": 767,
        "contract": "contracts/__mods/RedemptionLinker.sol:Mod_RedemptionLinker",
        "label": "_name",
        "offset": 0,
        "slot": "5",
        "type": "t_string_storage"
      },
      {
        "astId": 770,
        "contract": "contracts/__mods/RedemptionLinker.sol:Mod_RedemptionLinker",
        "label": "_symbol",
        "offset": 0,
        "slot": "6",
        "type": "t_string_storage"
      },
      {
        "astId": 458,
        "contract": "contracts/__mods/RedemptionLinker.sol:Mod_RedemptionLinker",
        "label": "deployer",
        "offset": 0,
        "slot": "7",
        "type": "t_address"
      },
      {
        "astId": 461,
        "contract": "contracts/__mods/RedemptionLinker.sol:Mod_RedemptionLinker",
        "label": "executionCount",
        "offset": 0,
        "slot": "8",
        "type": "t_uint256"
      },
      {
        "astId": 465,
        "contract": "contracts/__mods/RedemptionLinker.sol:Mod_RedemptionLinker",
        "label": "approved",
        "offset": 0,
        "slot": "9",
        "type": "t_mapping(t_address,t_bool)"
      },
      {
        "astId": 10972,
        "contract": "contracts/__mods/RedemptionLinker.sol:Mod_RedemptionLinker",
        "label": "forcedUri",
        "offset": 0,
        "slot": "10",
        "type": "t_string_storage"
      },
      {
        "astId": 10975,
        "contract": "contracts/__mods/RedemptionLinker.sol:Mod_RedemptionLinker",
        "label": "redemption",
        "offset": 0,
        "slot": "11",
        "type": "t_contract(Mod_Redemption)10959"
      },
      {
        "astId": 10978,
        "contract": "contracts/__mods/RedemptionLinker.sol:Mod_RedemptionLinker",
        "label": "linker",
        "offset": 0,
        "slot": "12",
        "type": "t_contract(InfinityMintLinker)5547"
      },
      {
        "astId": 10981,
        "contract": "contracts/__mods/RedemptionLinker.sol:Mod_RedemptionLinker",
        "label": "parent",
        "offset": 0,
        "slot": "13",
        "type": "t_contract(ERC721)1351"
      },
      {
        "astId": 11004,
        "contract": "contracts/__mods/RedemptionLinker.sol:Mod_RedemptionLinker",
        "label": "redemptions",
        "offset": 0,
        "slot": "14",
        "type": "t_mapping(t_uint256,t_struct(ProofOfRedemption)10992_storage)"
      },
      {
        "astId": 11009,
        "contract": "contracts/__mods/RedemptionLinker.sol:Mod_RedemptionLinker",
        "label": "tokenIdTable",
        "offset": 0,
        "slot": "15",
        "type": "t_mapping(t_uint256,t_struct(Map)10999_storage)"
      },
      {
        "astId": 11011,
        "contract": "contracts/__mods/RedemptionLinker.sol:Mod_RedemptionLinker",
        "label": "redemptionTokenId",
        "offset": 0,
        "slot": "16",
        "type": "t_uint256"
      }
    ],
    "types": {
      "t_address": {
        "encoding": "inplace",
        "label": "address",
        "numberOfBytes": "20"
      },
      "t_bool": {
        "encoding": "inplace",
        "label": "bool",
        "numberOfBytes": "1"
      },
      "t_contract(ERC721)1351": {
        "encoding": "inplace",
        "label": "contract ERC721",
        "numberOfBytes": "20"
      },
      "t_contract(InfinityMintLinker)5547": {
        "encoding": "inplace",
        "label": "contract InfinityMintLinker",
        "numberOfBytes": "20"
      },
      "t_contract(Mod_Redemption)10959": {
        "encoding": "inplace",
        "label": "contract Mod_Redemption",
        "numberOfBytes": "20"
      },
      "t_mapping(t_address,t_bool)": {
        "encoding": "mapping",
        "key": "t_address",
        "label": "mapping(address => bool)",
        "numberOfBytes": "32",
        "value": "t_bool"
      },
      "t_mapping(t_address,t_mapping(t_address,t_bool))": {
        "encoding": "mapping",
        "key": "t_address",
        "label": "mapping(address => mapping(address => bool))",
        "numberOfBytes": "32",
        "value": "t_mapping(t_address,t_bool)"
      },
      "t_mapping(t_address,t_uint256)": {
        "encoding": "mapping",
        "key": "t_address",
        "label": "mapping(address => uint256)",
        "numberOfBytes": "32",
        "value": "t_uint256"
      },
      "t_mapping(t_uint256,t_address)": {
        "encoding": "mapping",
        "key": "t_uint256",
        "label": "mapping(uint256 => address)",
        "numberOfBytes": "32",
        "value": "t_address"
      },
      "t_mapping(t_uint256,t_string_storage)": {
        "encoding": "mapping",
        "key": "t_uint256",
        "label": "mapping(uint256 => string)",
        "numberOfBytes": "32",
        "value": "t_string_storage"
      },
      "t_mapping(t_uint256,t_struct(Map)10999_storage)": {
        "encoding": "mapping",
        "key": "t_uint256",
        "label": "mapping(uint256 => struct Mod_RedemptionLinker.Map)",
        "numberOfBytes": "32",
        "value": "t_struct(Map)10999_storage"
      },
      "t_mapping(t_uint256,t_struct(ProofOfRedemption)10992_storage)": {
        "encoding": "mapping",
        "key": "t_uint256",
        "label": "mapping(uint256 => struct Mod_RedemptionLinker.ProofOfRedemption)",
        "numberOfBytes": "32",
        "value": "t_struct(ProofOfRedemption)10992_storage"
      },
      "t_string_storage": {
        "encoding": "bytes",
        "label": "string",
        "numberOfBytes": "32"
      },
      "t_struct(Map)10999_storage": {
        "encoding": "inplace",
        "label": "struct Mod_RedemptionLinker.Map",
        "members": [
          {
            "astId": 10994,
            "contract": "contracts/__mods/RedemptionLinker.sol:Mod_RedemptionLinker",
            "label": "valid",
            "offset": 0,
            "slot": "0",
            "type": "t_bool"
          },
          {
            "astId": 10996,
            "contract": "contracts/__mods/RedemptionLinker.sol:Mod_RedemptionLinker",
            "label": "redemptionTokenId",
            "offset": 0,
            "slot": "1",
            "type": "t_uint256"
          },
          {
            "astId": 10998,
            "contract": "contracts/__mods/RedemptionLinker.sol:Mod_RedemptionLinker",
            "label": "parentTokenId",
            "offset": 0,
            "slot": "2",
            "type": "t_uint256"
          }
        ],
        "numberOfBytes": "96"
      },
      "t_struct(ProofOfRedemption)10992_storage": {
        "encoding": "inplace",
        "label": "struct Mod_RedemptionLinker.ProofOfRedemption",
        "members": [
          {
            "astId": 10983,
            "contract": "contracts/__mods/RedemptionLinker.sol:Mod_RedemptionLinker",
            "label": "valid",
            "offset": 0,
            "slot": "0",
            "type": "t_bool"
          },
          {
            "astId": 10985,
            "contract": "contracts/__mods/RedemptionLinker.sol:Mod_RedemptionLinker",
            "label": "redemptionTokenId",
            "offset": 0,
            "slot": "1",
            "type": "t_uint256"
          },
          {
            "astId": 10987,
            "contract": "contracts/__mods/RedemptionLinker.sol:Mod_RedemptionLinker",
            "label": "redeemedToken",
            "offset": 0,
            "slot": "2",
            "type": "t_uint256"
          },
          {
            "astId": 10989,
            "contract": "contracts/__mods/RedemptionLinker.sol:Mod_RedemptionLinker",
            "label": "redeemer",
            "offset": 0,
            "slot": "3",
            "type": "t_address"
          },
          {
            "astId": 10991,
            "contract": "contracts/__mods/RedemptionLinker.sol:Mod_RedemptionLinker",
            "label": "time",
            "offset": 0,
            "slot": "4",
            "type": "t_uint256"
          }
        ],
        "numberOfBytes": "160"
      },
      "t_uint256": {
        "encoding": "inplace",
        "label": "uint256",
        "numberOfBytes": "32"
      }
    }
  }
}