{
  "address": "0xEe34bB1478042e1753b613A5dEC2EEFB3Ca52319",
  "abi": [
    {
      "inputs": [
        {
          "internalType": "address",
          "name": "erc721Destination",
          "type": "address"
        },
        {
          "internalType": "address",
          "name": "storageDestination",
          "type": "address"
        }
      ],
      "stateMutability": "nonpayable",
      "type": "constructor"
    },
    {
      "anonymous": false,
      "inputs": [
        {
          "indexed": false,
          "internalType": "string",
          "name": "flag",
          "type": "string"
        },
        {
          "indexed": false,
          "internalType": "uint256",
          "name": "tokenId",
          "type": "uint256"
        },
        {
          "indexed": true,
          "internalType": "address",
          "name": "sender",
          "type": "address"
        },
        {
          "indexed": false,
          "internalType": "bool",
          "name": "oldValue",
          "type": "bool"
        },
        {
          "indexed": false,
          "internalType": "bool",
          "name": "newValue",
          "type": "bool"
        }
      ],
      "name": "FlagUpdated",
      "type": "event"
    },
    {
      "anonymous": false,
      "inputs": [
        {
          "indexed": false,
          "internalType": "string",
          "name": "option",
          "type": "string"
        },
        {
          "indexed": true,
          "internalType": "address",
          "name": "sender",
          "type": "address"
        },
        {
          "indexed": false,
          "internalType": "string",
          "name": "newValue",
          "type": "string"
        }
      ],
      "name": "OptionUpdated",
      "type": "event"
    },
    {
      "anonymous": false,
      "inputs": [
        {
          "indexed": true,
          "internalType": "address",
          "name": "sender",
          "type": "address"
        },
        {
          "indexed": true,
          "internalType": "address",
          "name": "changee",
          "type": "address"
        },
        {
          "indexed": false,
          "internalType": "bool",
          "name": "value",
          "type": "bool"
        }
      ],
      "name": "PermissionChange",
      "type": "event"
    },
    {
      "anonymous": false,
      "inputs": [
        {
          "indexed": true,
          "internalType": "address",
          "name": "from",
          "type": "address"
        },
        {
          "indexed": true,
          "internalType": "address",
          "name": "to",
          "type": "address"
        }
      ],
      "name": "TransferedOwnership",
      "type": "event"
    },
    {
      "inputs": [],
      "name": "approvalCount",
      "outputs": [
        {
          "internalType": "uint256",
          "name": "",
          "type": "uint256"
        }
      ],
      "stateMutability": "view",
      "type": "function"
    },
    {
      "inputs": [
        {
          "internalType": "address",
          "name": "",
          "type": "address"
        }
      ],
      "name": "approved",
      "outputs": [
        {
          "internalType": "bool",
          "name": "",
          "type": "bool"
        }
      ],
      "stateMutability": "view",
      "type": "function"
    },
    {
      "inputs": [],
      "name": "deployer",
      "outputs": [
        {
          "internalType": "address",
          "name": "",
          "type": "address"
        }
      ],
      "stateMutability": "view",
      "type": "function"
    },
    {
      "inputs": [
        {
          "internalType": "address",
          "name": "addr",
          "type": "address"
        },
        {
          "internalType": "uint256",
          "name": "tokenId",
          "type": "uint256"
        },
        {
          "internalType": "string",
          "name": "optionKey",
          "type": "string"
        }
      ],
      "name": "getTokenFlag",
      "outputs": [
        {
          "internalType": "string",
          "name": "",
          "type": "string"
        }
      ],
      "stateMutability": "view",
      "type": "function"
    },
    {
      "inputs": [
        {
          "internalType": "address",
          "name": "addr",
          "type": "address"
        }
      ],
      "name": "isAuthenticated",
      "outputs": [
        {
          "internalType": "bool",
          "name": "",
          "type": "bool"
        }
      ],
      "stateMutability": "view",
      "type": "function"
    },
    {
      "inputs": [
        {
          "internalType": "address[]",
          "name": "addrs",
          "type": "address[]"
        }
      ],
      "name": "multiApprove",
      "outputs": [],
      "stateMutability": "nonpayable",
      "type": "function"
    },
    {
      "inputs": [
        {
          "internalType": "address[]",
          "name": "addrs",
          "type": "address[]"
        }
      ],
      "name": "multiRevoke",
      "outputs": [],
      "stateMutability": "nonpayable",
      "type": "function"
    },
    {
      "inputs": [
        {
          "internalType": "address",
          "name": "addr",
          "type": "address"
        },
        {
          "internalType": "bool",
          "name": "value",
          "type": "bool"
        }
      ],
      "name": "setPrivilages",
      "outputs": [],
      "stateMutability": "nonpayable",
      "type": "function"
    },
    {
      "inputs": [
        {
          "internalType": "uint256",
          "name": "tokenId",
          "type": "uint256"
        },
        {
          "internalType": "string",
          "name": "optionKey",
          "type": "string"
        },
        {
          "internalType": "string",
          "name": "optionValue",
          "type": "string"
        }
      ],
      "name": "setTokenFlag",
      "outputs": [],
      "stateMutability": "nonpayable",
      "type": "function"
    },
    {
      "inputs": [
        {
          "internalType": "address",
          "name": "addr",
          "type": "address"
        }
      ],
      "name": "transferOwnership",
      "outputs": [],
      "stateMutability": "nonpayable",
      "type": "function"
    }
  ],
  "transactionHash": "0xa1caa47ba3c4df5c5751ea6c56882db5d93fdef121e557157557d06d4ca20046",
  "args": [
    "0x31845Bebf7090E7BB0a2e9e191d463336131Dca7",
    "0x8120EF40b29100b37BBda3B20d1261CC3F355e95"
  ],
  "numDeployments": 1,
  "solcInputHash": "c554005d846e5256cfd947c8d0a331d2",
  "bytecode": "0x608060405234801561001057600080fd5b50604051610ef0380380610ef083398101604081905261002f916100a9565b60008054336001600160a01b0319918216811783558252600360205260408220805460ff191660019081179091558290556002919091556004805482166001600160a01b0394851617905560058054909116919092161790556100dc565b80516001600160a01b03811681146100a457600080fd5b919050565b600080604083850312156100bc57600080fd5b6100c58361008d565b91506100d36020840161008d565b90509250929050565b610e05806100eb6000396000f3fe608060405234801561001057600080fd5b506004361061008e5760003560e01c806310a8c7a91461009357806331ed86d2146100a85780634a39b6bf146100bb5780636884d0a6146100e4578063d15d4150146100fb578063d5f394881461011e578063d8b964e614610149578063f2fde38b1461016c578063fd7791631461017f578063fe684c0e14610192575b600080fd5b6100a66100a13660046108ca565b6101a5565b005b6100a66100b63660046108ca565b61025b565b6100ce6100c93660046109f3565b610304565b6040516100db9190610aa5565b60405180910390f35b6100ed60025481565b6040519081526020016100db565b61010e610109366004610abf565b6103b6565b60405190151581526020016100db565b600054610131906001600160a01b031681565b6040516001600160a01b0390911681526020016100db565b61010e610157366004610abf565b60036020526000908152604090205460ff1681565b6100a661017a366004610abf565b6103f1565b6100a661018d366004610ada565b610491565b6100a66101a0366004610b4d565b61061c565b6000546001600160a01b031633146101d85760405162461bcd60e51b81526004016101cf90610b84565b60405180910390fd5b80516101e357600080fd5b60005b81518110156102575760016003600084848151811061020757610207610baa565b6020908102919091018101516001600160a01b031682528101919091526040016000908120805460ff191692151592909217909155600280549161024a83610bd6565b90915550506001016101e6565b5050565b6000546001600160a01b031633146102855760405162461bcd60e51b81526004016101cf90610b84565b805161029057600080fd5b60005b8151811015610257576000600360008484815181106102b4576102b4610baa565b6020908102919091018101516001600160a01b031682528101919091526040016000908120805460ff19169215159290921790915560028054916102f783610bf1565b9091555050600101610293565b6060600061031184610740565b6005546040519192506001600160a01b03169063712a908d90879061033c9085908890602001610c08565b6040516020818303038152906040526040518363ffffffff1660e01b8152600401610368929190610c37565b600060405180830381865afa158015610385573d6000803e3d6000fd5b505050506040513d6000823e601f3d908101601f191682016040526103ad9190810190610c63565b95945050505050565b600080546001600160a01b03838116911614806103eb57506001600160a01b03821660009081526003602052604090205460ff165b92915050565b6000546001600160a01b0316331461041b5760405162461bcd60e51b81526004016101cf90610b84565b600080546001600160a01b03908116825260036020526040808320805460ff1990811690915583546001600160a01b03191692851692831784558284528184208054909116600117905551909133917f93091b3f3cd424efabc74e181f3799f3476ed758412561ed3b29515c51f567529190a350565b6004546001600160a01b031663430c2081336040516001600160e01b031960e084901b1681526001600160a01b03909116600482015260248101869052604401602060405180830381865afa1580156104ee573d6000803e3d6000fd5b505050506040513d601f19601f820116820180604052508101906105129190610cd0565b61051b57600080fd5b600061052684610740565b6005549091506001600160a01b0316631774bc3b33838660405160200161054e929190610c08565b604051602081830303815290604052856040518463ffffffff1660e01b815260040161057c93929190610ced565b600060405180830381600087803b15801561059657600080fd5b505af11580156105aa573d6000803e3d6000fd5b505050506105b53390565b6001600160a01b03167f454dbd444d0cc5634729aec92d69ca2a77cf7cc7cc3b0e355a9f8f4ac25688ef82856040516020016105f2929190610c08565b60408051601f198184030181529082905261060e918690610d2d565b60405180910390a250505050565b6000546001600160a01b031633146106465760405162461bcd60e51b81526004016101cf90610b84565b6000546001600160a01b038381169116141561069d5760405162461bcd60e51b815260206004820152601660248201527531b0b73737ba1036b7b234b33c903232b83637bcb2b960511b60448201526064016101cf565b6001600160a01b0382166000908152600360205260409020805460ff191682158015919091179091556106e457600280549060006106da83610bd6565b91905055506106fa565b600280549060006106f483610bf1565b91905055505b60405181151581526001600160a01b0383169033907ff38de818d000d07d091732dd783c6855722d7bc1934d92b7635133289d3416959060200160405180910390a35050565b6060816107645750506040805180820190915260018152600360fc1b602082015290565b8160005b811561078e578061077881610bd6565b91506107879050600a83610d52565b9150610768565b6000816001600160401b038111156107a8576107a8610868565b6040519080825280601f01601f1916602001820160405280156107d2576020820181803683370190505b509050815b851561085f576107e8600182610d74565b905060006107f7600a88610d52565b61080290600a610d8b565b61080c9088610d74565b610817906030610daa565b905060008160f81b90508084848151811061083457610834610baa565b60200101906001600160f81b031916908160001a905350610856600a89610d52565b975050506107d7565b50949350505050565b634e487b7160e01b600052604160045260246000fd5b604051601f8201601f191681016001600160401b03811182821017156108a6576108a6610868565b604052919050565b80356001600160a01b03811681146108c557600080fd5b919050565b600060208083850312156108dd57600080fd5b82356001600160401b03808211156108f457600080fd5b818501915085601f83011261090857600080fd5b81358181111561091a5761091a610868565b8060051b915061092b84830161087e565b818152918301840191848101908884111561094557600080fd5b938501935b8385101561096a5761095b856108ae565b8252938501939085019061094a565b98975050505050505050565b60006001600160401b0382111561098f5761098f610868565b50601f01601f191660200190565b600082601f8301126109ae57600080fd5b81356109c16109bc82610976565b61087e565b8181528460208386010111156109d657600080fd5b816020850160208301376000918101602001919091529392505050565b600080600060608486031215610a0857600080fd5b610a11846108ae565b92506020840135915060408401356001600160401b03811115610a3357600080fd5b610a3f8682870161099d565b9150509250925092565b60005b83811015610a64578181015183820152602001610a4c565b83811115610a73576000848401525b50505050565b60008151808452610a91816020860160208601610a49565b601f01601f19169290920160200192915050565b602081526000610ab86020830184610a79565b9392505050565b600060208284031215610ad157600080fd5b610ab8826108ae565b600080600060608486031215610aef57600080fd5b8335925060208401356001600160401b0380821115610b0d57600080fd5b610b198783880161099d565b93506040860135915080821115610b2f57600080fd5b50610a3f8682870161099d565b8015158114610b4a57600080fd5b50565b60008060408385031215610b6057600080fd5b610b69836108ae565b91506020830135610b7981610b3c565b809150509250929050565b6020808252600c908201526b3737ba103232b83637bcb2b960a11b604082015260600190565b634e487b7160e01b600052603260045260246000fd5b634e487b7160e01b600052601160045260246000fd5b6000600019821415610bea57610bea610bc0565b5060010190565b600081610c0057610c00610bc0565b506000190190565b60008351610c1a818460208801610a49565b835190830190610c2e818360208801610a49565b01949350505050565b6001600160a01b0383168152604060208201819052600090610c5b90830184610a79565b949350505050565b600060208284031215610c7557600080fd5b81516001600160401b03811115610c8b57600080fd5b8201601f81018413610c9c57600080fd5b8051610caa6109bc82610976565b818152856020838501011115610cbf57600080fd5b6103ad826020830160208601610a49565b600060208284031215610ce257600080fd5b8151610ab881610b3c565b6001600160a01b0384168152606060208201819052600090610d1190830185610a79565b8281036040840152610d238185610a79565b9695505050505050565b604081526000610d406040830185610a79565b82810360208401526103ad8185610a79565b600082610d6f57634e487b7160e01b600052601260045260246000fd5b500490565b600082821015610d8657610d86610bc0565b500390565b6000816000190483118215151615610da557610da5610bc0565b500290565b600060ff821660ff84168060ff03821115610dc757610dc7610bc0565b01939250505056fea264697066735822122080e1f186df09eb5e8f1e0e02b70ec890548432f76567e494d723c3b2af9b94ec64736f6c634300080c0033",
  "libraries": {
    "InfinityMintUtil": "0x3411DEa54B2FB5aB203616bB614D61794432d7B1"
  },
  "devdoc": {
    "kind": "dev",
    "methods": {},
    "version": 1
  },
  "userdoc": {
    "kind": "user",
    "methods": {},
    "version": 1
  },
  "storageLayout": {
    "storage": [
      {
        "astId": 16908,
        "contract": "contracts/__mods/FlagManager.sol:Mod_FlagManager",
        "label": "deployer",
        "offset": 0,
        "slot": "0",
        "type": "t_address"
      },
      {
        "astId": 16911,
        "contract": "contracts/__mods/FlagManager.sol:Mod_FlagManager",
        "label": "executionCount",
        "offset": 0,
        "slot": "1",
        "type": "t_uint256"
      },
      {
        "astId": 16913,
        "contract": "contracts/__mods/FlagManager.sol:Mod_FlagManager",
        "label": "approvalCount",
        "offset": 0,
        "slot": "2",
        "type": "t_uint256"
      },
      {
        "astId": 16917,
        "contract": "contracts/__mods/FlagManager.sol:Mod_FlagManager",
        "label": "approved",
        "offset": 0,
        "slot": "3",
        "type": "t_mapping(t_address,t_bool)"
      },
      {
        "astId": 8730,
        "contract": "contracts/__mods/FlagManager.sol:Mod_FlagManager",
        "label": "erc721",
        "offset": 0,
        "slot": "4",
        "type": "t_contract(InfinityMint)19351"
      },
      {
        "astId": 8733,
        "contract": "contracts/__mods/FlagManager.sol:Mod_FlagManager",
        "label": "storageController",
        "offset": 0,
        "slot": "5",
        "type": "t_contract(InfinityMintStorage)21181"
      }
    ],
    "types": {
      "t_address": {
        "encoding": "inplace",
        "label": "address",
        "numberOfBytes": "20"
      },
      "t_bool": {
        "encoding": "inplace",
        "label": "bool",
        "numberOfBytes": "1"
      },
      "t_contract(InfinityMint)19351": {
        "encoding": "inplace",
        "label": "contract InfinityMint",
        "numberOfBytes": "20"
      },
      "t_contract(InfinityMintStorage)21181": {
        "encoding": "inplace",
        "label": "contract InfinityMintStorage",
        "numberOfBytes": "20"
      },
      "t_mapping(t_address,t_bool)": {
        "encoding": "mapping",
        "key": "t_address",
        "label": "mapping(address => bool)",
        "numberOfBytes": "32",
        "value": "t_bool"
      },
      "t_uint256": {
        "encoding": "inplace",
        "label": "uint256",
        "numberOfBytes": "32"
      }
    }
  }
}