{
  "address": "0x86137CD3627c53C2E5cDe8d02Cd8282A66f5e0Ed",
  "abi": [
    {
      "inputs": [
        {
          "internalType": "address",
          "name": "erc721Destination",
          "type": "address"
        },
        {
          "internalType": "address",
          "name": "storageDestination",
          "type": "address"
        }
      ],
      "stateMutability": "nonpayable",
      "type": "constructor"
    },
    {
      "anonymous": false,
      "inputs": [
        {
          "indexed": false,
          "internalType": "string",
          "name": "flag",
          "type": "string"
        },
        {
          "indexed": false,
          "internalType": "uint256",
          "name": "tokenId",
          "type": "uint256"
        },
        {
          "indexed": true,
          "internalType": "address",
          "name": "sender",
          "type": "address"
        },
        {
          "indexed": false,
          "internalType": "bool",
          "name": "oldValue",
          "type": "bool"
        },
        {
          "indexed": false,
          "internalType": "bool",
          "name": "newValue",
          "type": "bool"
        }
      ],
      "name": "FlagUpdated",
      "type": "event"
    },
    {
      "anonymous": false,
      "inputs": [
        {
          "indexed": false,
          "internalType": "string",
          "name": "option",
          "type": "string"
        },
        {
          "indexed": true,
          "internalType": "address",
          "name": "sender",
          "type": "address"
        },
        {
          "indexed": false,
          "internalType": "string",
          "name": "newValue",
          "type": "string"
        }
      ],
      "name": "OptionUpdated",
      "type": "event"
    },
    {
      "anonymous": false,
      "inputs": [
        {
          "indexed": true,
          "internalType": "address",
          "name": "sender",
          "type": "address"
        },
        {
          "indexed": true,
          "internalType": "address",
          "name": "changee",
          "type": "address"
        },
        {
          "indexed": false,
          "internalType": "bool",
          "name": "value",
          "type": "bool"
        }
      ],
      "name": "PermissionChange",
      "type": "event"
    },
    {
      "anonymous": false,
      "inputs": [
        {
          "indexed": true,
          "internalType": "address",
          "name": "from",
          "type": "address"
        },
        {
          "indexed": true,
          "internalType": "address",
          "name": "to",
          "type": "address"
        }
      ],
      "name": "TransferedOwnership",
      "type": "event"
    },
    {
      "inputs": [
        {
          "internalType": "address",
          "name": "",
          "type": "address"
        }
      ],
      "name": "approved",
      "outputs": [
        {
          "internalType": "bool",
          "name": "",
          "type": "bool"
        }
      ],
      "stateMutability": "view",
      "type": "function"
    },
    {
      "inputs": [],
      "name": "deployer",
      "outputs": [
        {
          "internalType": "address",
          "name": "",
          "type": "address"
        }
      ],
      "stateMutability": "view",
      "type": "function"
    },
    {
      "inputs": [
        {
          "internalType": "address",
          "name": "addr",
          "type": "address"
        },
        {
          "internalType": "uint256",
          "name": "tokenId",
          "type": "uint256"
        },
        {
          "internalType": "string",
          "name": "optionKey",
          "type": "string"
        }
      ],
      "name": "getTokenFlag",
      "outputs": [
        {
          "internalType": "string",
          "name": "",
          "type": "string"
        }
      ],
      "stateMutability": "view",
      "type": "function"
    },
    {
      "inputs": [
        {
          "internalType": "address",
          "name": "addr",
          "type": "address"
        }
      ],
      "name": "isAuthenticated",
      "outputs": [
        {
          "internalType": "bool",
          "name": "",
          "type": "bool"
        }
      ],
      "stateMutability": "view",
      "type": "function"
    },
    {
      "inputs": [
        {
          "internalType": "address[]",
          "name": "addrs",
          "type": "address[]"
        }
      ],
      "name": "multiApprove",
      "outputs": [],
      "stateMutability": "nonpayable",
      "type": "function"
    },
    {
      "inputs": [
        {
          "internalType": "address[]",
          "name": "addrs",
          "type": "address[]"
        }
      ],
      "name": "multiRevoke",
      "outputs": [],
      "stateMutability": "nonpayable",
      "type": "function"
    },
    {
      "inputs": [
        {
          "internalType": "address",
          "name": "addr",
          "type": "address"
        },
        {
          "internalType": "bool",
          "name": "value",
          "type": "bool"
        }
      ],
      "name": "setPrivilages",
      "outputs": [],
      "stateMutability": "nonpayable",
      "type": "function"
    },
    {
      "inputs": [
        {
          "internalType": "uint256",
          "name": "tokenId",
          "type": "uint256"
        },
        {
          "internalType": "string",
          "name": "optionKey",
          "type": "string"
        },
        {
          "internalType": "string",
          "name": "optionValue",
          "type": "string"
        }
      ],
      "name": "setTokenFlag",
      "outputs": [],
      "stateMutability": "nonpayable",
      "type": "function"
    },
    {
      "inputs": [
        {
          "internalType": "address",
          "name": "addr",
          "type": "address"
        }
      ],
      "name": "transferOwnership",
      "outputs": [],
      "stateMutability": "nonpayable",
      "type": "function"
    }
  ],
  "transactionHash": "0xacf8a34209bf6fec643a52b0efe12bac5e655c7609c27182592ef221f88f635c",
  "args": [
    "0x23aeFB62eeb7Fd26C2E42A8fD75b8B2Fd54D7206",
    "0x0e7A86ca9927b2366579b422b0b7d05b5277F25c"
  ],
  "numDeployments": 1,
  "solcInputHash": "88e89878235543c99c9822d7ca4644df",
  "bytecode": "0x608060405234801561001057600080fd5b50604051610e44380380610e4483398101604081905261002f916100a4565b60008054336001600160a01b0319918216811783558252600260205260408220805460ff19166001908117909155919091556003805482166001600160a01b0394851617905560048054909116919092161790556100d7565b80516001600160a01b038116811461009f57600080fd5b919050565b600080604083850312156100b757600080fd5b6100c083610088565b91506100ce60208401610088565b90509250929050565b610d5e806100e66000396000f3fe608060405234801561001057600080fd5b50600436106100835760003560e01c806310a8c7a91461008857806331ed86d21461009d5780634a39b6bf146100b0578063d15d4150146100d9578063d5f39488146100fc578063d8b964e614610127578063f2fde38b1461014a578063fd7791631461015d578063fe684c0e14610170575b600080fd5b61009b61009636600461083a565b610183565b005b61009b6100ab36600461083a565b610223565b6100c36100be366004610963565b6102b6565b6040516100d09190610a15565b60405180910390f35b6100ec6100e7366004610a2f565b610368565b60405190151581526020016100d0565b60005461010f906001600160a01b031681565b6040516001600160a01b0390911681526020016100d0565b6100ec610135366004610a2f565b60026020526000908152604090205460ff1681565b61009b610158366004610a2f565b6103a3565b61009b61016b366004610a4a565b610443565b61009b61017e366004610abd565b6105ce565b6000546001600160a01b031633146101b65760405162461bcd60e51b81526004016101ad90610af4565b60405180910390fd5b80516101c157600080fd5b60005b815181101561021f576001600260008484815181106101e5576101e5610b1a565b6020908102919091018101516001600160a01b03168252810191909152604001600020805460ff19169115159190911790556001016101c4565b5050565b6000546001600160a01b0316331461024d5760405162461bcd60e51b81526004016101ad90610af4565b805161025857600080fd5b60005b815181101561021f5760006002600084848151811061027c5761027c610b1a565b6020908102919091018101516001600160a01b03168252810191909152604001600020805460ff191691151591909117905560010161025b565b606060006102c3846106b0565b6004546040519192506001600160a01b03169063712a908d9087906102ee9085908890602001610b30565b6040516020818303038152906040526040518363ffffffff1660e01b815260040161031a929190610b5f565b600060405180830381865afa158015610337573d6000803e3d6000fd5b505050506040513d6000823e601f3d908101601f1916820160405261035f9190810190610b8b565b95945050505050565b600080546001600160a01b038381169116148061039d57506001600160a01b03821660009081526002602052604090205460ff165b92915050565b6000546001600160a01b031633146103cd5760405162461bcd60e51b81526004016101ad90610af4565b600080546001600160a01b03908116825260026020526040808320805460ff1990811690915583546001600160a01b03191692851692831784558284528184208054909116600117905551909133917f93091b3f3cd424efabc74e181f3799f3476ed758412561ed3b29515c51f567529190a350565b6003546001600160a01b031663430c2081336040516001600160e01b031960e084901b1681526001600160a01b03909116600482015260248101869052604401602060405180830381865afa1580156104a0573d6000803e3d6000fd5b505050506040513d601f19601f820116820180604052508101906104c49190610bf8565b6104cd57600080fd5b60006104d8846106b0565b6004549091506001600160a01b0316631774bc3b338386604051602001610500929190610b30565b604051602081830303815290604052856040518463ffffffff1660e01b815260040161052e93929190610c15565b600060405180830381600087803b15801561054857600080fd5b505af115801561055c573d6000803e3d6000fd5b505050506105673390565b6001600160a01b03167f454dbd444d0cc5634729aec92d69ca2a77cf7cc7cc3b0e355a9f8f4ac25688ef82856040516020016105a4929190610b30565b60408051601f19818403018152908290526105c0918690610c55565b60405180910390a250505050565b6000546001600160a01b031633146105f85760405162461bcd60e51b81526004016101ad90610af4565b6000546001600160a01b038381169116141561064f5760405162461bcd60e51b815260206004820152601660248201527531b0b73737ba1036b7b234b33c903232b83637bcb2b960511b60448201526064016101ad565b6001600160a01b038216600081815260026020908152604091829020805460ff1916851515908117909155915191825233917ff38de818d000d07d091732dd783c6855722d7bc1934d92b7635133289d341695910160405180910390a35050565b6060816106d45750506040805180820190915260018152600360fc1b602082015290565b8160005b81156106fe57806106e881610c90565b91506106f79050600a83610cab565b91506106d8565b6000816001600160401b03811115610718576107186107d8565b6040519080825280601f01601f191660200182016040528015610742576020820181803683370190505b509050815b85156107cf57610758600182610ccd565b90506000610767600a88610cab565b61077290600a610ce4565b61077c9088610ccd565b610787906030610d03565b905060008160f81b9050808484815181106107a4576107a4610b1a565b60200101906001600160f81b031916908160001a9053506107c6600a89610cab565b97505050610747565b50949350505050565b634e487b7160e01b600052604160045260246000fd5b604051601f8201601f191681016001600160401b0381118282101715610816576108166107d8565b604052919050565b80356001600160a01b038116811461083557600080fd5b919050565b6000602080838503121561084d57600080fd5b82356001600160401b038082111561086457600080fd5b818501915085601f83011261087857600080fd5b81358181111561088a5761088a6107d8565b8060051b915061089b8483016107ee565b81815291830184019184810190888411156108b557600080fd5b938501935b838510156108da576108cb8561081e565b825293850193908501906108ba565b98975050505050505050565b60006001600160401b038211156108ff576108ff6107d8565b50601f01601f191660200190565b600082601f83011261091e57600080fd5b813561093161092c826108e6565b6107ee565b81815284602083860101111561094657600080fd5b816020850160208301376000918101602001919091529392505050565b60008060006060848603121561097857600080fd5b6109818461081e565b92506020840135915060408401356001600160401b038111156109a357600080fd5b6109af8682870161090d565b9150509250925092565b60005b838110156109d45781810151838201526020016109bc565b838111156109e3576000848401525b50505050565b60008151808452610a018160208601602086016109b9565b601f01601f19169290920160200192915050565b602081526000610a2860208301846109e9565b9392505050565b600060208284031215610a4157600080fd5b610a288261081e565b600080600060608486031215610a5f57600080fd5b8335925060208401356001600160401b0380821115610a7d57600080fd5b610a898783880161090d565b93506040860135915080821115610a9f57600080fd5b506109af8682870161090d565b8015158114610aba57600080fd5b50565b60008060408385031215610ad057600080fd5b610ad98361081e565b91506020830135610ae981610aac565b809150509250929050565b6020808252600c908201526b3737ba103232b83637bcb2b960a11b604082015260600190565b634e487b7160e01b600052603260045260246000fd5b60008351610b428184602088016109b9565b835190830190610b568183602088016109b9565b01949350505050565b6001600160a01b0383168152604060208201819052600090610b83908301846109e9565b949350505050565b600060208284031215610b9d57600080fd5b81516001600160401b03811115610bb357600080fd5b8201601f81018413610bc457600080fd5b8051610bd261092c826108e6565b818152856020838501011115610be757600080fd5b61035f8260208301602086016109b9565b600060208284031215610c0a57600080fd5b8151610a2881610aac565b6001600160a01b0384168152606060208201819052600090610c39908301856109e9565b8281036040840152610c4b81856109e9565b9695505050505050565b604081526000610c6860408301856109e9565b828103602084015261035f81856109e9565b634e487b7160e01b600052601160045260246000fd5b6000600019821415610ca457610ca4610c7a565b5060010190565b600082610cc857634e487b7160e01b600052601260045260246000fd5b500490565b600082821015610cdf57610cdf610c7a565b500390565b6000816000190483118215151615610cfe57610cfe610c7a565b500290565b600060ff821660ff84168060ff03821115610d2057610d20610c7a565b01939250505056fea2646970667358221220b3ae4ffaeb85c1b279b04cf6538c0c3e3663680d8505a66edd36e9f71dafe28364736f6c634300080c0033",
  "libraries": {
    "InfinityMintUtil": "0xE63d9C6E747ee427Bc3E022f371Cada1D4B9Ab24"
  },
  "devdoc": {
    "kind": "dev",
    "methods": {},
    "version": 1
  },
  "userdoc": {
    "kind": "user",
    "methods": {},
    "version": 1
  },
  "storageLayout": {
    "storage": [
      {
        "astId": 458,
        "contract": "contracts/__mods/FlagManager.sol:Mod_FlagManager",
        "label": "deployer",
        "offset": 0,
        "slot": "0",
        "type": "t_address"
      },
      {
        "astId": 461,
        "contract": "contracts/__mods/FlagManager.sol:Mod_FlagManager",
        "label": "executionCount",
        "offset": 0,
        "slot": "1",
        "type": "t_uint256"
      },
      {
        "astId": 465,
        "contract": "contracts/__mods/FlagManager.sol:Mod_FlagManager",
        "label": "approved",
        "offset": 0,
        "slot": "2",
        "type": "t_mapping(t_address,t_bool)"
      },
      {
        "astId": 8730,
        "contract": "contracts/__mods/FlagManager.sol:Mod_FlagManager",
        "label": "erc721",
        "offset": 0,
        "slot": "3",
        "type": "t_contract(InfinityMint)2599"
      },
      {
        "astId": 8733,
        "contract": "contracts/__mods/FlagManager.sol:Mod_FlagManager",
        "label": "storageController",
        "offset": 0,
        "slot": "4",
        "type": "t_contract(InfinityMintStorage)6696"
      }
    ],
    "types": {
      "t_address": {
        "encoding": "inplace",
        "label": "address",
        "numberOfBytes": "20"
      },
      "t_bool": {
        "encoding": "inplace",
        "label": "bool",
        "numberOfBytes": "1"
      },
      "t_contract(InfinityMint)2599": {
        "encoding": "inplace",
        "label": "contract InfinityMint",
        "numberOfBytes": "20"
      },
      "t_contract(InfinityMintStorage)6696": {
        "encoding": "inplace",
        "label": "contract InfinityMintStorage",
        "numberOfBytes": "20"
      },
      "t_mapping(t_address,t_bool)": {
        "encoding": "mapping",
        "key": "t_address",
        "label": "mapping(address => bool)",
        "numberOfBytes": "32",
        "value": "t_bool"
      },
      "t_uint256": {
        "encoding": "inplace",
        "label": "uint256",
        "numberOfBytes": "32"
      }
    }
  }
}