{
  "address": "0x94fC08eB64dBD73787944E51bC9F33c1eDb5289A",
  "abi": [
    {
      "inputs": [
        {
          "internalType": "address",
          "name": "erc721Destination",
          "type": "address"
        },
        {
          "internalType": "address",
          "name": "assetControllerDestination",
          "type": "address"
        },
        {
          "internalType": "address",
          "name": "randomNumberControllerDestination",
          "type": "address"
        },
        {
          "internalType": "address",
          "name": "valuesControllerDestination",
          "type": "address"
        },
        {
          "internalType": "address",
          "name": "royaltyControllerDestination",
          "type": "address"
        }
      ],
      "stateMutability": "nonpayable",
      "type": "constructor"
    },
    {
      "anonymous": false,
      "inputs": [
        {
          "indexed": true,
          "internalType": "address",
          "name": "sender",
          "type": "address"
        },
        {
          "indexed": true,
          "internalType": "address",
          "name": "changee",
          "type": "address"
        },
        {
          "indexed": false,
          "internalType": "bool",
          "name": "value",
          "type": "bool"
        }
      ],
      "name": "PermissionChange",
      "type": "event"
    },
    {
      "anonymous": false,
      "inputs": [
        {
          "indexed": true,
          "internalType": "address",
          "name": "from",
          "type": "address"
        },
        {
          "indexed": true,
          "internalType": "address",
          "name": "to",
          "type": "address"
        }
      ],
      "name": "TransferedOwnership",
      "type": "event"
    },
    {
      "inputs": [
        {
          "internalType": "address",
          "name": "",
          "type": "address"
        }
      ],
      "name": "approved",
      "outputs": [
        {
          "internalType": "bool",
          "name": "",
          "type": "bool"
        }
      ],
      "stateMutability": "view",
      "type": "function"
    },
    {
      "inputs": [],
      "name": "assetController",
      "outputs": [
        {
          "internalType": "contract InfinityMintAsset",
          "name": "",
          "type": "address"
        }
      ],
      "stateMutability": "view",
      "type": "function"
    },
    {
      "inputs": [],
      "name": "balance",
      "outputs": [
        {
          "internalType": "uint256",
          "name": "",
          "type": "uint256"
        }
      ],
      "stateMutability": "view",
      "type": "function"
    },
    {
      "inputs": [],
      "name": "deployer",
      "outputs": [
        {
          "internalType": "address",
          "name": "",
          "type": "address"
        }
      ],
      "stateMutability": "view",
      "type": "function"
    },
    {
      "inputs": [],
      "name": "deposit",
      "outputs": [],
      "stateMutability": "nonpayable",
      "type": "function"
    },
    {
      "inputs": [],
      "name": "erc721",
      "outputs": [
        {
          "internalType": "contract InfinityMint",
          "name": "",
          "type": "address"
        }
      ],
      "stateMutability": "view",
      "type": "function"
    },
    {
      "inputs": [
        {
          "internalType": "address",
          "name": "addr",
          "type": "address"
        }
      ],
      "name": "isAuthenticated",
      "outputs": [
        {
          "internalType": "bool",
          "name": "",
          "type": "bool"
        }
      ],
      "stateMutability": "view",
      "type": "function"
    },
    {
      "inputs": [
        {
          "internalType": "uint32",
          "name": "pathId",
          "type": "uint32"
        },
        {
          "internalType": "uint32[]",
          "name": "assets",
          "type": "uint32[]"
        },
        {
          "internalType": "uint256",
          "name": "nameCount",
          "type": "uint256"
        }
      ],
      "name": "mint",
      "outputs": [],
      "stateMutability": "payable",
      "type": "function"
    },
    {
      "inputs": [
        {
          "internalType": "address[]",
          "name": "addrs",
          "type": "address[]"
        }
      ],
      "name": "multiApprove",
      "outputs": [],
      "stateMutability": "nonpayable",
      "type": "function"
    },
    {
      "inputs": [
        {
          "internalType": "address[]",
          "name": "addrs",
          "type": "address[]"
        }
      ],
      "name": "multiRevoke",
      "outputs": [],
      "stateMutability": "nonpayable",
      "type": "function"
    },
    {
      "inputs": [],
      "name": "randomNumberController",
      "outputs": [
        {
          "internalType": "contract RandomNumber",
          "name": "",
          "type": "address"
        }
      ],
      "stateMutability": "view",
      "type": "function"
    },
    {
      "inputs": [],
      "name": "royaltyController",
      "outputs": [
        {
          "internalType": "contract Royalty",
          "name": "",
          "type": "address"
        }
      ],
      "stateMutability": "view",
      "type": "function"
    },
    {
      "inputs": [
        {
          "internalType": "address",
          "name": "addr",
          "type": "address"
        },
        {
          "internalType": "bool",
          "name": "value",
          "type": "bool"
        }
      ],
      "name": "setPrivilages",
      "outputs": [],
      "stateMutability": "nonpayable",
      "type": "function"
    },
    {
      "inputs": [
        {
          "internalType": "address",
          "name": "addr",
          "type": "address"
        }
      ],
      "name": "transferOwnership",
      "outputs": [],
      "stateMutability": "nonpayable",
      "type": "function"
    },
    {
      "inputs": [],
      "name": "valuesController",
      "outputs": [
        {
          "internalType": "contract InfinityMintValues",
          "name": "",
          "type": "address"
        }
      ],
      "stateMutability": "view",
      "type": "function"
    }
  ],
  "transactionHash": "0x3564fa7cbb31616c1a8b3791f8c92605187a4f815d61e4108474a9453e7889a0",
  "args": [
    "0x31845Bebf7090E7BB0a2e9e191d463336131Dca7",
    "0x67Ccfc2Ca4270DeF7922470A0DDEd1090514DFEF",
    "0x05757Fb2a6f48777765213b05Fb3E1293340E53B",
    "0x88B11F935975441aC5b3711e2fbA9db8E5E7c775",
    "0x2683009b41b999Baf1b8F900dB23fd51c2a099d3"
  ],
  "numDeployments": 1,
  "solcInputHash": "c554005d846e5256cfd947c8d0a331d2",
  "bytecode": "0x60806040523480156200001157600080fd5b5060405162001897380380620018978339810160408190526200003491620000db565b60008054336001600160a01b0319918216811783558252600260205260408220805460ff19166001908117909155919091556004805482166001600160a01b0397881617905560038054821695871695909517909455600580548516938616939093179092556006805484169185169190911790556007805490921692169190911790556200014b565b80516001600160a01b0381168114620000d657600080fd5b919050565b600080600080600060a08688031215620000f457600080fd5b620000ff86620000be565b94506200010f60208701620000be565b93506200011f60408701620000be565b92506200012f60608701620000be565b91506200013f60808701620000be565b90509295509295909350565b61173c806200015b6000396000f3fe6080604052600436106100b85760003560e01c80630c380cf0146100bd578063105c4813146100f357806310a8c7a91461011357806331ed86d21461013557806355ba3ac414610155578063573f860014610168578063aed5ef8214610188578063b69ef8a8146101a8578063bca6ce64146101c3578063d0e30db0146101e3578063d15d4150146101f8578063d5f3948814610228578063d8b964e614610248578063f2fde38b14610278578063fe684c0e14610298575b600080fd5b3480156100c957600080fd5b506006546100dd906001600160a01b031681565b6040516100ea9190610fbd565b60405180910390f35b3480156100ff57600080fd5b506007546100dd906001600160a01b031681565b34801561011f57600080fd5b5061013361012e36600461104f565b6102b8565b005b34801561014157600080fd5b5061013361015036600461104f565b610358565b6101336101633660046110ff565b6103eb565b34801561017457600080fd5b506003546100dd906001600160a01b031681565b34801561019457600080fd5b506005546100dd906001600160a01b031681565b3480156101b457600080fd5b506040514781526020016100ea565b3480156101cf57600080fd5b506004546100dd906001600160a01b031681565b3480156101ef57600080fd5b50610133610cd0565b34801561020457600080fd5b506102186102133660046111b5565b610e00565b60405190151581526020016100ea565b34801561023457600080fd5b506000546100dd906001600160a01b031681565b34801561025457600080fd5b506102186102633660046111b5565b60026020526000908152604090205460ff1681565b34801561028457600080fd5b506101336102933660046111b5565b610e3b565b3480156102a457600080fd5b506101336102b33660046111e7565b610edb565b6000546001600160a01b031633146102eb5760405162461bcd60e51b81526004016102e290611220565b60405180910390fd5b80516102f657600080fd5b60005b81518110156103545760016002600084848151811061031a5761031a611246565b6020908102919091018101516001600160a01b03168252810191909152604001600020805460ff19169115159190911790556001016102f9565b5050565b6000546001600160a01b031633146103825760405162461bcd60e51b81526004016102e290611220565b805161038d57600080fd5b60005b8151811015610354576000600260008484815181106103b1576103b1611246565b6020908102919091018101516001600160a01b03168252810191909152604001600020805460ff1916911515919091179055600101610390565b60018060008282546103fd9190611272565b90915550506001546004546001600160a01b031663d8b964e6336040518263ffffffff1660e01b81526004016104339190610fbd565b602060405180830381865afa158015610450573d6000803e3d6000fd5b505050506040513d601f19601f82011682018060405250810190610474919061128a565b806104f357506004805460408051631abe729160e31b8152905133936001600160a01b039093169263d5f39488928082019260209290918290030181865afa1580156104c4573d6000803e3d6000fd5b505050506040513d601f19601f820116820180604052508101906104e891906112a7565b6001600160a01b0316145b8061056757506004805460408051633ffcdacb60e11b815290516001600160a01b0390921692637ff9b5969282820192602092908290030181865afa158015610540573d6000803e3d6000fd5b505050506040513d601f19601f8201168201806040525081019061056491906112c4565b34145b6105a55760405162461bcd60e51b815260206004820152600f60248201526e496e636f72726563742076616c756560881b60448201526064016102e2565b600354604051633b987a7d60e11b81526001600160a01b0390911690637730f4fa906105d59087906004016112dd565b602060405180830381865afa1580156105f2573d6000803e3d6000fd5b505050506040513d601f19601f82011682018060405250810190610616919061128a565b6106515760405162461bcd60e51b815260206004820152600c60248201526b092dcecc2d8d2c840a0c2e8d60a31b60448201526064016102e2565b6003546040516335697ba760e01b81526000916001600160a01b0316906335697ba7906106829088906004016112dd565b600060405180830381865afa15801561069f573d6000803e3d6000fd5b505050506040513d6000823e601f3d908101601f191682016040526106c791908101906112ee565b9050835181511461070d5760405162461bcd60e51b815260206004820152601060248201526f496e76616c69642053656374696f6e7360801b60448201526064016102e2565b60005b815181101561086257600082828151811061072d5761072d611246565b6020908102919091010151600354604051638c9fcab960e01b8152600481018390529192506000916001600160a01b0390911690638c9fcab990602401600060405180830381865afa158015610787573d6000803e3d6000fd5b505050506040513d6000823e601f3d908101601f191682016040526107af91908101906112ee565b90506000805b8251811015610819578885815181106107d0576107d0611246565b602002602001015163ffffffff168382815181106107f0576107f0611246565b602002602001015114156108075760019150610819565b8061081181611373565b9150506107b5565b50806108575760405162461bcd60e51b815260206004820152600d60248201526c125b9d985b1a5908185cdcd95d609a1b60448201526064016102e2565b505050600101610710565b506000831161087057600192505b6006546040516206259160e71b815260206004820152600b60248201526a6d6174636865644d6f646560a81b60448201526060916001600160a01b031690630312c88090606401602060405180830381865afa1580156108d4573d6000803e3d6000fd5b505050506040513d601f19601f820116820180604052508101906108f8919061128a565b61098057600354600554604051632637f35160e11b8152600481018790526001600160a01b039182166024820152911690634c6fe6a2906044016000604051808303816000875af1158015610951573d6000803e3d6000fd5b505050506040513d6000823e601f3d908101601f191682016040526109799190810190611425565b9050610acc565b6040805160028082526060820190925290816020015b6060815260200190600190039081610996575050600354604051634622ab0360e01b81529192506001600160a01b031690634622ab03906109db9089906004016112dd565b600060405180830381865afa1580156109f8573d6000803e3d6000fd5b505050506040513d6000823e601f3d908101601f19168201604052610a2091908101906114d5565b81600081518110610a3357610a33611246565b602090810291909101015260048054604080516395d89b4160e01b815290516001600160a01b03909216926395d89b419282820192600092908290030181865afa158015610a85573d6000803e3d6000fd5b505050506040513d6000823e601f3d908101601f19168201604052610aad91908101906114d5565b81600181518110610ac057610ac0611246565b60200260200101819052505b60035460055460405163eb2c2da360e01b815263ffffffff891660048201526001600160a01b039182166024820152600092919091169063eb2c2da3906044016000604051808303816000875af1158015610b2b573d6000803e3d6000fd5b505050506040513d6000823e601f3d908101601f19168201604052610b539190810190611509565b600480546040516335daa6f960e11b81529293506001600160a01b031691636bb54df2913491610b8691600091016112dd565b6000604051808303818588803b158015610b9f57600080fd5b505af1158015610bb3573d6000803e3d6000fd5b50506004546001600160a01b0316925063c97caf1f91503390506003546040516321df5f2760e11b81528b916001600160a01b0316906343bebe4e90610bfd9084906004016112dd565b602060405180830381865afa158015610c1a573d6000803e3d6000fd5b505050506040513d601f19601f82011682018060405250810190610c3e9190611597565b604080516020810182526000815290516001600160e01b031960e087901b168152610c749493929188918e908b90600401611621565b600060405180830381600087803b158015610c8e57600080fd5b505af1158015610ca2573d6000803e3d6000fd5b505050505050506001548114610cca5760405162461bcd60e51b81526004016102e2906116e4565b50505050565b6000546001600160a01b03163314610cfa5760405162461bcd60e51b81526004016102e290611220565b6001806000828254610d0c9190611272565b909155505060015460004711610d7a5760405162461bcd60e51b815260206004820152602d60248201527f4e6f2062616c616e636520746f206465706f73697420746f206d61696e20657260448201526c18cdcc8c4818dbdb9d1c9858dd609a1b60648201526084016102e2565b6004546001600160a01b0316636bb54df24760006040518363ffffffff1660e01b8152600401610daa91906112dd565b6000604051808303818588803b158015610dc357600080fd5b505af1158015610dd7573d6000803e3d6000fd5b50505050506001548114610dfd5760405162461bcd60e51b81526004016102e2906116e4565b50565b600080546001600160a01b0383811691161480610e3557506001600160a01b03821660009081526002602052604090205460ff165b92915050565b6000546001600160a01b03163314610e655760405162461bcd60e51b81526004016102e290611220565b600080546001600160a01b03908116825260026020526040808320805460ff1990811690915583546001600160a01b03191692851692831784558284528184208054909116600117905551909133917f93091b3f3cd424efabc74e181f3799f3476ed758412561ed3b29515c51f567529190a350565b6000546001600160a01b03163314610f055760405162461bcd60e51b81526004016102e290611220565b6000546001600160a01b0383811691161415610f5c5760405162461bcd60e51b815260206004820152601660248201527531b0b73737ba1036b7b234b33c903232b83637bcb2b960511b60448201526064016102e2565b6001600160a01b038216600081815260026020908152604091829020805460ff1916851515908117909155915191825233917ff38de818d000d07d091732dd783c6855722d7bc1934d92b7635133289d341695910160405180910390a35050565b6001600160a01b0391909116815260200190565b634e487b7160e01b600052604160045260246000fd5b604051601f8201601f191681016001600160401b038111828210171561100f5761100f610fd1565b604052919050565b60006001600160401b0382111561103057611030610fd1565b5060051b60200190565b6001600160a01b0381168114610dfd57600080fd5b6000602080838503121561106257600080fd5b82356001600160401b0381111561107857600080fd5b8301601f8101851361108957600080fd5b803561109c61109782611017565b610fe7565b81815260059190911b820183019083810190878311156110bb57600080fd5b928401925b828410156110e25783356110d38161103a565b825292840192908401906110c0565b979650505050505050565b63ffffffff81168114610dfd57600080fd5b60008060006060848603121561111457600080fd5b833561111f816110ed565b92506020848101356001600160401b0381111561113b57600080fd5b8501601f8101871361114c57600080fd5b803561115a61109782611017565b81815260059190911b8201830190838101908983111561117957600080fd5b928401925b828410156111a0578335611191816110ed565b8252928401929084019061117e565b96999698505050506040949094013593505050565b6000602082840312156111c757600080fd5b81356111d28161103a565b9392505050565b8015158114610dfd57600080fd5b600080604083850312156111fa57600080fd5b82356112058161103a565b91506020830135611215816111d9565b809150509250929050565b6020808252600c908201526b3737ba103232b83637bcb2b960a11b604082015260600190565b634e487b7160e01b600052603260045260246000fd5b634e487b7160e01b600052601160045260246000fd5b600082198211156112855761128561125c565b500190565b60006020828403121561129c57600080fd5b81516111d2816111d9565b6000602082840312156112b957600080fd5b81516111d28161103a565b6000602082840312156112d657600080fd5b5051919050565b63ffffffff91909116815260200190565b6000602080838503121561130157600080fd5b82516001600160401b0381111561131757600080fd5b8301601f8101851361132857600080fd5b805161133661109782611017565b81815260059190911b8201830190838101908783111561135557600080fd5b928401925b828410156110e25783518252928401929084019061135a565b60006000198214156113875761138761125c565b5060010190565b60005b838110156113a9578181015183820152602001611391565b83811115610cca5750506000910152565b600082601f8301126113cb57600080fd5b81516001600160401b038111156113e4576113e4610fd1565b6113f7601f8201601f1916602001610fe7565b81815284602083860101111561140c57600080fd5b61141d82602083016020870161138e565b949350505050565b6000602080838503121561143857600080fd5b82516001600160401b038082111561144f57600080fd5b818501915085601f83011261146357600080fd5b815161147161109782611017565b81815260059190911b8301840190848101908883111561149057600080fd5b8585015b838110156114c8578051858111156114ac5760008081fd5b6114ba8b89838a01016113ba565b845250918601918601611494565b5098975050505050505050565b6000602082840312156114e757600080fd5b81516001600160401b038111156114fd57600080fd5b61141d848285016113ba565b6000602080838503121561151c57600080fd5b82516001600160401b0381111561153257600080fd5b8301601f8101851361154357600080fd5b805161155161109782611017565b81815260059190911b8201830190838101908783111561157057600080fd5b928401925b828410156110e2578351611588816110ed565b82529284019290840190611575565b6000602082840312156115a957600080fd5b81516111d2816110ed565b600081518084526020808501945080840160005b838110156115ea57815163ffffffff16875295820195908201906001016115c8565b509495945050505050565b6000815180845261160d81602086016020860161138e565b601f01601f19169290920160200192915050565b60018060a01b03881681526000602063ffffffff808a168285015280891660408501525060e0606084015261165960e08401886115b4565b838103608085015261166b81886115f5565b905083810360a085015261167f81876115b4565b905083810360c08501528085518083528383019150838160051b84010184880160005b838110156116d057601f198684030185526116be8383516115f5565b948701949250908601906001016116a2565b50909e9d5050505050505050505050505050565b60208082526008908201526772652d656e74727960c01b60408201526060019056fea2646970667358221220819d623e0247901554f76235c327b2acd53d439f88bf24f8d20dd74545c125af64736f6c634300080c0033",
  "libraries": {},
  "devdoc": {
    "kind": "dev",
    "methods": {},
    "version": 1
  },
  "userdoc": {
    "kind": "user",
    "methods": {},
    "version": 1
  },
  "storageLayout": {
    "storage": [
      {
        "astId": 458,
        "contract": "contracts/__mods/SelectiveMint.sol:Mod_SelectiveMint",
        "label": "deployer",
        "offset": 0,
        "slot": "0",
        "type": "t_address"
      },
      {
        "astId": 461,
        "contract": "contracts/__mods/SelectiveMint.sol:Mod_SelectiveMint",
        "label": "executionCount",
        "offset": 0,
        "slot": "1",
        "type": "t_uint256"
      },
      {
        "astId": 465,
        "contract": "contracts/__mods/SelectiveMint.sol:Mod_SelectiveMint",
        "label": "approved",
        "offset": 0,
        "slot": "2",
        "type": "t_mapping(t_address,t_bool)"
      },
      {
        "astId": 11313,
        "contract": "contracts/__mods/SelectiveMint.sol:Mod_SelectiveMint",
        "label": "assetController",
        "offset": 0,
        "slot": "3",
        "type": "t_contract(InfinityMintAsset)4558"
      },
      {
        "astId": 11316,
        "contract": "contracts/__mods/SelectiveMint.sol:Mod_SelectiveMint",
        "label": "erc721",
        "offset": 0,
        "slot": "4",
        "type": "t_contract(InfinityMint)2599"
      },
      {
        "astId": 11319,
        "contract": "contracts/__mods/SelectiveMint.sol:Mod_SelectiveMint",
        "label": "randomNumberController",
        "offset": 0,
        "slot": "5",
        "type": "t_contract(RandomNumber)7944"
      },
      {
        "astId": 11322,
        "contract": "contracts/__mods/SelectiveMint.sol:Mod_SelectiveMint",
        "label": "valuesController",
        "offset": 0,
        "slot": "6",
        "type": "t_contract(InfinityMintValues)7070"
      },
      {
        "astId": 11325,
        "contract": "contracts/__mods/SelectiveMint.sol:Mod_SelectiveMint",
        "label": "royaltyController",
        "offset": 0,
        "slot": "7",
        "type": "t_contract(Royalty)8132"
      }
    ],
    "types": {
      "t_address": {
        "encoding": "inplace",
        "label": "address",
        "numberOfBytes": "20"
      },
      "t_bool": {
        "encoding": "inplace",
        "label": "bool",
        "numberOfBytes": "1"
      },
      "t_contract(InfinityMint)2599": {
        "encoding": "inplace",
        "label": "contract InfinityMint",
        "numberOfBytes": "20"
      },
      "t_contract(InfinityMintAsset)4558": {
        "encoding": "inplace",
        "label": "contract InfinityMintAsset",
        "numberOfBytes": "20"
      },
      "t_contract(InfinityMintValues)7070": {
        "encoding": "inplace",
        "label": "contract InfinityMintValues",
        "numberOfBytes": "20"
      },
      "t_contract(RandomNumber)7944": {
        "encoding": "inplace",
        "label": "contract RandomNumber",
        "numberOfBytes": "20"
      },
      "t_contract(Royalty)8132": {
        "encoding": "inplace",
        "label": "contract Royalty",
        "numberOfBytes": "20"
      },
      "t_mapping(t_address,t_bool)": {
        "encoding": "mapping",
        "key": "t_address",
        "label": "mapping(address => bool)",
        "numberOfBytes": "32",
        "value": "t_bool"
      },
      "t_uint256": {
        "encoding": "inplace",
        "label": "uint256",
        "numberOfBytes": "32"
      }
    }
  }
}