{
  "address": "0x7536E13107634EB8cfab01002Ca8C8ea69B8C1Ee",
  "abi": [
    {
      "inputs": [
        {
          "internalType": "address",
          "name": "erc721Destination",
          "type": "address"
        }
      ],
      "stateMutability": "nonpayable",
      "type": "constructor"
    },
    {
      "anonymous": false,
      "inputs": [
        {
          "indexed": true,
          "internalType": "address",
          "name": "sender",
          "type": "address"
        },
        {
          "indexed": true,
          "internalType": "address",
          "name": "changee",
          "type": "address"
        },
        {
          "indexed": false,
          "internalType": "bool",
          "name": "value",
          "type": "bool"
        }
      ],
      "name": "PermissionChange",
      "type": "event"
    },
    {
      "anonymous": false,
      "inputs": [
        {
          "indexed": false,
          "internalType": "uint256",
          "name": "tokenId",
          "type": "uint256"
        },
        {
          "indexed": true,
          "internalType": "address",
          "name": "sender",
          "type": "address"
        },
        {
          "indexed": false,
          "internalType": "address",
          "name": "admin",
          "type": "address"
        }
      ],
      "name": "RequestApproved",
      "type": "event"
    },
    {
      "anonymous": false,
      "inputs": [
        {
          "indexed": false,
          "internalType": "uint256",
          "name": "tokenId",
          "type": "uint256"
        },
        {
          "indexed": true,
          "internalType": "address",
          "name": "sender",
          "type": "address"
        },
        {
          "indexed": false,
          "internalType": "address",
          "name": "admin",
          "type": "address"
        }
      ],
      "name": "RequestRejected",
      "type": "event"
    },
    {
      "anonymous": false,
      "inputs": [
        {
          "indexed": false,
          "internalType": "uint256",
          "name": "tokenId",
          "type": "uint256"
        },
        {
          "indexed": true,
          "internalType": "address",
          "name": "sender",
          "type": "address"
        }
      ],
      "name": "RequestSubmitted",
      "type": "event"
    },
    {
      "anonymous": false,
      "inputs": [
        {
          "indexed": true,
          "internalType": "address",
          "name": "from",
          "type": "address"
        },
        {
          "indexed": true,
          "internalType": "address",
          "name": "to",
          "type": "address"
        }
      ],
      "name": "TransferedOwnership",
      "type": "event"
    },
    {
      "inputs": [
        {
          "internalType": "uint256",
          "name": "tokenId",
          "type": "uint256"
        },
        {
          "internalType": "bytes",
          "name": "redemption",
          "type": "bytes"
        }
      ],
      "name": "addRedemption",
      "outputs": [],
      "stateMutability": "nonpayable",
      "type": "function"
    },
    {
      "inputs": [
        {
          "internalType": "uint256[]",
          "name": "_tokenIds",
          "type": "uint256[]"
        },
        {
          "internalType": "bytes[]",
          "name": "redemptions",
          "type": "bytes[]"
        }
      ],
      "name": "addRedemptions",
      "outputs": [],
      "stateMutability": "nonpayable",
      "type": "function"
    },
    {
      "inputs": [
        {
          "internalType": "uint256",
          "name": "tokenId",
          "type": "uint256"
        },
        {
          "internalType": "bytes",
          "name": "redemption",
          "type": "bytes"
        }
      ],
      "name": "approveRedeem",
      "outputs": [],
      "stateMutability": "nonpayable",
      "type": "function"
    },
    {
      "inputs": [
        {
          "internalType": "address",
          "name": "",
          "type": "address"
        }
      ],
      "name": "approved",
      "outputs": [
        {
          "internalType": "bool",
          "name": "",
          "type": "bool"
        }
      ],
      "stateMutability": "view",
      "type": "function"
    },
    {
      "inputs": [],
      "name": "deployer",
      "outputs": [
        {
          "internalType": "address",
          "name": "",
          "type": "address"
        }
      ],
      "stateMutability": "view",
      "type": "function"
    },
    {
      "inputs": [
        {
          "internalType": "uint256",
          "name": "tokenId",
          "type": "uint256"
        }
      ],
      "name": "getActiveRedemption",
      "outputs": [
        {
          "internalType": "bytes",
          "name": "",
          "type": "bytes"
        }
      ],
      "stateMutability": "view",
      "type": "function"
    },
    {
      "inputs": [
        {
          "internalType": "uint256",
          "name": "tokenId",
          "type": "uint256"
        }
      ],
      "name": "getChecks",
      "outputs": [
        {
          "internalType": "bool[]",
          "name": "bools",
          "type": "bool[]"
        }
      ],
      "stateMutability": "view",
      "type": "function"
    },
    {
      "inputs": [],
      "name": "getMyRequestCount",
      "outputs": [
        {
          "internalType": "uint256",
          "name": "",
          "type": "uint256"
        }
      ],
      "stateMutability": "view",
      "type": "function"
    },
    {
      "inputs": [
        {
          "internalType": "uint256",
          "name": "tokenId",
          "type": "uint256"
        }
      ],
      "name": "getRedemptionProof",
      "outputs": [
        {
          "components": [
            {
              "internalType": "address",
              "name": "receiver",
              "type": "address"
            },
            {
              "internalType": "address",
              "name": "admin",
              "type": "address"
            },
            {
              "internalType": "uint256",
              "name": "time",
              "type": "uint256"
            },
            {
              "internalType": "uint256",
              "name": "tokenId",
              "type": "uint256"
            },
            {
              "internalType": "bool",
              "name": "valid",
              "type": "bool"
            }
          ],
          "internalType": "struct Mod_Redemption.SuccessfulRedemption",
          "name": "",
          "type": "tuple"
        }
      ],
      "stateMutability": "view",
      "type": "function"
    },
    {
      "inputs": [
        {
          "internalType": "uint256",
          "name": "tokenId",
          "type": "uint256"
        }
      ],
      "name": "getRequest",
      "outputs": [
        {
          "components": [
            {
              "internalType": "address",
              "name": "sender",
              "type": "address"
            },
            {
              "internalType": "bytes",
              "name": "redemption",
              "type": "bytes"
            },
            {
              "internalType": "bytes",
              "name": "key",
              "type": "bytes"
            },
            {
              "internalType": "bool",
              "name": "valid",
              "type": "bool"
            }
          ],
          "internalType": "struct Mod_Redemption.Request",
          "name": "",
          "type": "tuple"
        }
      ],
      "stateMutability": "view",
      "type": "function"
    },
    {
      "inputs": [
        {
          "internalType": "address",
          "name": "addr",
          "type": "address"
        }
      ],
      "name": "getRequestCount",
      "outputs": [
        {
          "internalType": "uint256",
          "name": "",
          "type": "uint256"
        }
      ],
      "stateMutability": "view",
      "type": "function"
    },
    {
      "inputs": [
        {
          "internalType": "uint256",
          "name": "tokenId",
          "type": "uint256"
        }
      ],
      "name": "getRequestOwner",
      "outputs": [
        {
          "internalType": "address",
          "name": "",
          "type": "address"
        }
      ],
      "stateMutability": "view",
      "type": "function"
    },
    {
      "inputs": [
        {
          "internalType": "uint256",
          "name": "tokenId",
          "type": "uint256"
        }
      ],
      "name": "hasRedeemed",
      "outputs": [
        {
          "internalType": "bool",
          "name": "",
          "type": "bool"
        }
      ],
      "stateMutability": "view",
      "type": "function"
    },
    {
      "inputs": [
        {
          "internalType": "uint256",
          "name": "tokenId",
          "type": "uint256"
        }
      ],
      "name": "hasRequest",
      "outputs": [
        {
          "internalType": "bool",
          "name": "",
          "type": "bool"
        }
      ],
      "stateMutability": "view",
      "type": "function"
    },
    {
      "inputs": [
        {
          "internalType": "address",
          "name": "addr",
          "type": "address"
        }
      ],
      "name": "isAuthenticated",
      "outputs": [
        {
          "internalType": "bool",
          "name": "",
          "type": "bool"
        }
      ],
      "stateMutability": "view",
      "type": "function"
    },
    {
      "inputs": [
        {
          "internalType": "uint256",
          "name": "tokenId",
          "type": "uint256"
        }
      ],
      "name": "isRedeemable",
      "outputs": [
        {
          "internalType": "bool",
          "name": "",
          "type": "bool"
        }
      ],
      "stateMutability": "view",
      "type": "function"
    },
    {
      "inputs": [
        {
          "internalType": "uint256",
          "name": "tokenId",
          "type": "uint256"
        }
      ],
      "name": "makeUnredeemable",
      "outputs": [],
      "stateMutability": "nonpayable",
      "type": "function"
    },
    {
      "inputs": [
        {
          "internalType": "address[]",
          "name": "addrs",
          "type": "address[]"
        }
      ],
      "name": "multiApprove",
      "outputs": [],
      "stateMutability": "nonpayable",
      "type": "function"
    },
    {
      "inputs": [
        {
          "internalType": "address[]",
          "name": "addrs",
          "type": "address[]"
        }
      ],
      "name": "multiRevoke",
      "outputs": [],
      "stateMutability": "nonpayable",
      "type": "function"
    },
    {
      "inputs": [
        {
          "internalType": "address",
          "name": "",
          "type": "address"
        },
        {
          "internalType": "address",
          "name": "",
          "type": "address"
        },
        {
          "internalType": "uint256",
          "name": "",
          "type": "uint256"
        },
        {
          "internalType": "bytes",
          "name": "",
          "type": "bytes"
        }
      ],
      "name": "onERC721Received",
      "outputs": [
        {
          "internalType": "bytes4",
          "name": "",
          "type": "bytes4"
        }
      ],
      "stateMutability": "view",
      "type": "function"
    },
    {
      "inputs": [
        {
          "internalType": "uint256",
          "name": "tokenId",
          "type": "uint256"
        }
      ],
      "name": "rejectRedeem",
      "outputs": [],
      "stateMutability": "nonpayable",
      "type": "function"
    },
    {
      "inputs": [
        {
          "internalType": "uint256",
          "name": "tokenId",
          "type": "uint256"
        },
        {
          "internalType": "bytes",
          "name": "redemption",
          "type": "bytes"
        },
        {
          "internalType": "bytes",
          "name": "theirKey",
          "type": "bytes"
        }
      ],
      "name": "requestToken",
      "outputs": [],
      "stateMutability": "nonpayable",
      "type": "function"
    },
    {
      "inputs": [
        {
          "internalType": "address",
          "name": "addr",
          "type": "address"
        },
        {
          "internalType": "bool",
          "name": "value",
          "type": "bool"
        }
      ],
      "name": "setPrivilages",
      "outputs": [],
      "stateMutability": "nonpayable",
      "type": "function"
    },
    {
      "inputs": [
        {
          "internalType": "address",
          "name": "addr",
          "type": "address"
        },
        {
          "internalType": "bool",
          "name": "value",
          "type": "bool"
        }
      ],
      "name": "setWalletBlocked",
      "outputs": [],
      "stateMutability": "nonpayable",
      "type": "function"
    },
    {
      "inputs": [
        {
          "internalType": "address",
          "name": "addr",
          "type": "address"
        }
      ],
      "name": "transferOwnership",
      "outputs": [],
      "stateMutability": "nonpayable",
      "type": "function"
    },
    {
      "inputs": [],
      "name": "version",
      "outputs": [
        {
          "internalType": "string",
          "name": "",
          "type": "string"
        }
      ],
      "stateMutability": "view",
      "type": "function"
    }
  ],
  "transactionHash": "0xdf944196dbf3c68451f8ce2546d815c72f069f05e944c9b4220c2dbba3c31269",
  "args": [
    "0x31845Bebf7090E7BB0a2e9e191d463336131Dca7"
  ],
  "numDeployments": 1,
  "solcInputHash": "c554005d846e5256cfd947c8d0a331d2",
  "bytecode": "0x60806040523480156200001157600080fd5b50604051620025f9380380620025f9833981016040819052620000349162000085565b60008054336001600160a01b0319918216811783558252600260205260408220805460ff1916600190811790915591909155600380549091166001600160a01b0392909216919091179055620000b7565b6000602082840312156200009857600080fd5b81516001600160a01b0381168114620000b057600080fd5b9392505050565b61253280620000c76000396000f3fe608060405234801561001057600080fd5b506004361061013e5760003560e01c806310a8c7a914610143578063150b7a021461015857806326f72ec81461018957806331ed86d2146101e957806353565824146101fc57806354fd4d501461020f57806372c94b5c1461023f5780637918d3fe146102525780637cc9c1ac146102725780637e9cbd3b1461028557806382adf9c5146102985780638474a7e1146102ab5780638611cb67146102be57806394b591af146102e9578063a7771ea5146102fc578063ada499631461031f578063b904c3ba14610340578063c58343ef14610353578063cf7a53a114610373578063d15d41501461037b578063d5f394881461038e578063d8b964e6146103a1578063e2ad3eb0146103c4578063f2fde38b146103d7578063f48cc326146103ea578063fe684c0e146103fd575b600080fd5b610156610151366004611d2f565b610410565b005b61016b610166366004611dcd565b6104b0565b6040516001600160e01b031990911681526020015b60405180910390f35b61019c610197366004611e6b565b610507565b604051610180919081516001600160a01b03908116825260208084015190911690820152604080830151908201526060808301519082015260809182015115159181019190915260a00190565b6101566101f7366004611d2f565b6105df565b61015661020a366004611e6b565b610672565b61023260405180604001604052806004815260200163302e363960e01b81525081565b6040516101809190611ed1565b61015661024d366004611f5a565b610816565b610265610260366004611e6b565b610d67565b6040516101809190611fa0565b610156610280366004611fe6565b610e6a565b610156610293366004611f5a565b611296565b6101566102a6366004611e6b565b61142b565b6102326102b9366004611e6b565b611505565b6102d16102cc366004611e6b565b61160c565b6040516001600160a01b039091168152602001610180565b6101566102f73660046120dc565b611649565b61030f61030a366004611e6b565b61173d565b6040519015158152602001610180565b61033261032d36600461218a565b611755565b604051908152602001610180565b61030f61034e366004611e6b565b6117b6565b610366610361366004611e6b565b6117d3565b60405161018091906121a7565b610332611970565b61030f61038936600461218a565b611990565b6000546102d1906001600160a01b031681565b61030f6103af36600461218a565b60026020526000908152604090205460ff1681565b6101566103d2366004612219565b6119cb565b6101566103e536600461218a565b611a3a565b61030f6103f8366004611e6b565b611ada565b61015661040b366004612219565b611afc565b6000546001600160a01b031633146104435760405162461bcd60e51b815260040161043a90612252565b60405180910390fd5b805161044e57600080fd5b60005b81518110156104ac5760016002600084848151811061047257610472612278565b6020908102919091018101516001600160a01b03168252810191909152604001600020805460ff1916911515919091179055600101610451565b5050565b600080546001600160a01b03163314806104d957503360009081526002602052604090205460ff165b6104f55760405162461bcd60e51b815260040161043a9061228e565b50630a85bd0160e11b95945050505050565b6040805160a08101825260008082526020820181905291810182905260608101829052608081019190915261053b8261173d565b61057f5760405162461bcd60e51b81526020600482015260156024820152741a185cc81b9bdd081899595b881c995919595b5959605a1b604482015260640161043a565b50600090815260066020908152604091829020825160a08101845281546001600160a01b039081168252600183015416928101929092526002810154928201929092526003820154606082015260049091015460ff161515608082015290565b6000546001600160a01b031633146106095760405162461bcd60e51b815260040161043a90612252565b805161061457600080fd5b60005b81518110156104ac5760006002600084848151811061063857610638612278565b6020908102919091018101516001600160a01b03168252810191909152604001600020805460ff1916911515919091179055600101610617565b6000546001600160a01b031633148061069a57503360009081526002602052604090205460ff165b6106b65760405162461bcd60e51b815260040161043a9061228e565b60008181526005602052604090206003015460ff166106e75760405162461bcd60e51b815260040161043a906122b4565b60008181526004602052604090208054610700906122dd565b151590506107205760405162461bcd60e51b815260040161043a90612318565b6000818152600560209081526040808320546001600160a01b03168084526007909252909120541561078b576001600160a01b03811660009081526007602052604090205461077190600190612363565b6001600160a01b0382166000908152600760205260409020555b600082815260056020526040812080546001600160a01b0319168155906107b56001830182611bde565b6107c3600283016000611bde565b50600301805460ff191690556001600160a01b0381167f0b7cdc900b8ac2bfb0d3b2139ecf8be43e21bb1c2e2380190243786c5c5bd3d3833360405161080a92919061237a565b60405180910390a25050565b6000546001600160a01b031633148061083e57503360009081526002602052604090205460ff165b61085a5760405162461bcd60e51b815260040161043a9061228e565b600180600082825461086c9190612391565b909155505060015460008381526005602052604090206003015460ff166108a55760405162461bcd60e51b815260040161043a906122b4565b600083815260046020526040902080546108be906122dd565b151590506108de5760405162461bcd60e51b815260040161043a90612318565b60008381526006602052604090206004015460ff16156109105760405162461bcd60e51b815260040161043a906123a9565b6000838152600460208190526040918290209151630686b30160e31b8152733411DEa54B2FB5aB203616bB614D61794432d7B1926334359808926109579287929101612481565b602060405180830381865af4158015610974573d6000803e3d6000fd5b505050506040513d601f19601f8201168201806040525081019061099891906124af565b6109d35760405162461bcd60e51b815260206004820152600c60248201526b18da1958dac819985a5b195960a21b604482015260640161043a565b600083815260056020908152604080832081516080810190925280546001600160a01b031682526001810180549293919291840191610a11906122dd565b80601f0160208091040260200160405190810160405280929190818152602001828054610a3d906122dd565b8015610a8a5780601f10610a5f57610100808354040283529160200191610a8a565b820191906000526020600020905b815481529060010190602001808311610a6d57829003601f168201915b50505050508152602001600282018054610aa3906122dd565b80601f0160208091040260200160405190810160405280929190818152602001828054610acf906122dd565b8015610b1c5780601f10610af157610100808354040283529160200191610b1c565b820191906000526020600020905b815481529060010190602001808311610aff57829003601f168201915b50505091835250506003919091015460ff161515602091820152600086815260059091526040812080546001600160a01b0319168155919250610b626001830182611bde565b610b70600283016000611bde565b506003908101805460ff199081169091556040805160a08101825284516001600160a01b03908116825233602080840191825242848601908152606085018c815260016080870181815260008f815260068652898120985189549089166001600160a01b0319918216178a55965192890180549389169390971692909217909555915160028701555197850197909755905160049093018054931515939095169290921790935560058152818420549092168352600790915290205415610c725780516001600160a01b0316600090815260076020526040902054610c5790600190612363565b81516001600160a01b03166000908152600760205260409020555b6003548151604051632142170760e11b81523060048201526001600160a01b039182166024820152604481018790529116906342842e0e90606401600060405180830381600087803b158015610cc757600080fd5b505af1158015610cdb573d6000803e3d6000fd5b505082516001600160a01b031691507fc304de2ee997fd24fdfed24b05b8a4f183098cf2178adca7bd77238f65f84a2290508533604051610d1d92919061237a565b60405180910390a2506001548114610d625760405162461bcd60e51b815260206004820152600860248201526772652d656e74727960c01b604482015260640161043a565b505050565b6040805160038082526080820190925260609160208201838036833701905050604051637a46619360e11b815260048101849052909150309063f48cc32690602401602060405180830381865afa158015610dc6573d6000803e3d6000fd5b505050506040513d601f19601f82011682018060405250810190610dea91906124af565b81600081518110610dfd57610dfd612278565b91151560209283029190910190910152610e168261173d565b81600181518110610e2957610e29612278565b91151560209283029190910190910152610e42826117b6565b81600281518110610e5557610e55612278565b91151560209283029190910190910152919050565b333b15610eb95760405162461bcd60e51b815260206004820152601d60248201527f63616e6e6f7420626520696e766f6b656420627920636f6e7472616374000000604482015260640161043a565b3360009081526008602052604090205460ff1615610f245760405162461bcd60e51b815260206004820152602260248201527f63616e6e6f742072656465656d206120746f6b656e20617420746869732074696044820152616d6560f01b606482015260840161043a565b3360009081526007602052604090205460031015610f995760405162461bcd60e51b815260206004820152602c60248201527f796f75206861766520746f6f206d616e79207265717565737473206f70656e2060448201526b617420746869732074696d6560a01b606482015260840161043a565b60008381526006602052604090206004015460ff1615610fcb5760405162461bcd60e51b815260040161043a906123a9565b60008381526004602052604090208054610fe4906122dd565b151590506110045760405162461bcd60e51b815260040161043a90612318565b60008381526005602052604090206003015460ff16156110725760405162461bcd60e51b815260206004820152602360248201527f7265717565737420616c7265616479206f70656e20666f72207468697320746f60448201526235b2b760e91b606482015260840161043a565b815182906110935760405162461bcd60e51b815260040161043a9190611ed1565b50600083815260046020526040902080546110ad906122dd565b600085815260046020526040902091506110da5760405162461bcd60e51b815260040161043a91906124cc565b506000838152600460208190526040918290209151630686b30160e31b8152733411DEa54B2FB5aB203616bB614D61794432d7B1926334359808926111229287929101612481565b602060405180830381865af415801561113f573d6000803e3d6000fd5b505050506040513d601f19601f8201168201806040525081019061116391906124af565b82906111825760405162461bcd60e51b815260040161043a9190611ed1565b5060405180608001604052806111953390565b6001600160a01b039081168252602080830186905260408084018690526001606090940184905260008881526005835220845181546001600160a01b031916931692909217825583810151805192936111f693908501929190910190611c18565b5060408201518051611212916002840191602090910190611c18565b50606091909101516003909101805460ff191691151591909117905533600090815260076020526040902054611249906001612391565b33600081815260076020908152604091829020939093555185815290917f67da995c6df7166078290dae7ac4f9c90eeb269d051c434663949b26f04dba1d910160405180910390a2505050565b6000546001600160a01b03163314806112be57503360009081526002602052604090205460ff165b6112da5760405162461bcd60e51b815260040161043a9061228e565b600082815260046020526040902080546112f3906122dd565b1590506113305760405162461bcd60e51b815260206004820152600b60248201526a185b1c9958591e481cd95d60aa1b604482015260640161043a565b6003546040516331a9108f60e11b81526004810184905230916001600160a01b031690636352211e90602401602060405180830381865afa158015611379573d6000803e3d6000fd5b505050506040513d601f19601f8201168201806040525081019061139d91906124df565b6001600160a01b03161461140c5760405162461bcd60e51b815260206004820152603060248201527f706c65617365207472616e736665722074686520746f6b656e20746f2074686960448201526f1cc818dbdb9d1c9858dd08199a5c9cdd60821b606482015260840161043a565b60008281526004602090815260409091208251610d6292840190611c18565b60008181526004602052604090208054611444906122dd565b151590506114895760405162461bcd60e51b81526020600482015260126024820152716d7573742062652072656465656d61626c6560701b604482015260640161043a565b60008181526006602052604090206004015460ff16156114eb5760405162461bcd60e51b815260206004820152601e60248201527f616c72656164792072656465656d65642063616e6e6f74206368616e67650000604482015260640161043a565b600081815260046020526040812061150291611bde565b50565b6000818152600460205260409020805460609190611522906122dd565b1515905061156e5760405162461bcd60e51b815260206004820152601960248201527834b73b30b634b21030b1ba34bb32903932b232b6b83a34b7b760391b604482015260640161043a565b60008281526004602052604090208054611587906122dd565b80601f01602080910402602001604051908101604052809291908181526020018280546115b3906122dd565b80156116005780601f106115d557610100808354040283529160200191611600565b820191906000526020600020905b8154815290600101906020018083116115e357829003601f168201915b50505050509050919050565b60008181526005602052604081206003015460ff1661162d57506000919050565b506000908152600560205260409020546001600160a01b031690565b6000546001600160a01b031633148061167157503360009081526002602052604090205460ff165b61168d5760405162461bcd60e51b815260040161043a9061228e565b80518251146116c95760405162461bcd60e51b81526020600482015260086024820152670dad2e6dac2e8c6d60c31b604482015260640161043a565b60005b8151811015610d625760008382815181106116e9576116e9612278565b6020026020010151905082828151811061170557611705612278565b6020026020010151600460008381526020019081526020016000209080519060200190611733929190611c18565b50506001016116cc565b60009081526006602052604090206004015460ff1690565b600080546001600160a01b031633148061177e57503360009081526002602052604090205460ff165b61179a5760405162461bcd60e51b815260040161043a9061228e565b506001600160a01b031660009081526007602052604090205490565b60009081526005602052604090206003015460ff16151560011490565b611809604051806080016040528060006001600160a01b0316815260200160608152602001606081526020016000151581525090565b60008281526005602090815260409182902082516080810190935280546001600160a01b031683526001810180549192840191611845906122dd565b80601f0160208091040260200160405190810160405280929190818152602001828054611871906122dd565b80156118be5780601f10611893576101008083540402835291602001916118be565b820191906000526020600020905b8154815290600101906020018083116118a157829003601f168201915b505050505081526020016002820180546118d7906122dd565b80601f0160208091040260200160405190810160405280929190818152602001828054611903906122dd565b80156119505780601f1061192557610100808354040283529160200191611950565b820191906000526020600020905b81548152906001019060200180831161193357829003601f168201915b50505091835250506003919091015460ff16151560209091015292915050565b60003361197c57600080fd5b503360009081526007602052604090205490565b600080546001600160a01b03838116911614806119c557506001600160a01b03821660009081526002602052604090205460ff165b92915050565b6000546001600160a01b03163314806119f357503360009081526002602052604090205460ff165b611a0f5760405162461bcd60e51b815260040161043a9061228e565b6001600160a01b03919091166000908152600860205260409020805460ff1916911515919091179055565b6000546001600160a01b03163314611a645760405162461bcd60e51b815260040161043a90612252565b600080546001600160a01b03908116825260026020526040808320805460ff1990811690915583546001600160a01b03191692851692831784558284528184208054909116600117905551909133917f93091b3f3cd424efabc74e181f3799f3476ed758412561ed3b29515c51f567529190a350565b60008181526004602052604081208054611af3906122dd565b15159392505050565b6000546001600160a01b03163314611b265760405162461bcd60e51b815260040161043a90612252565b6000546001600160a01b0383811691161415611b7d5760405162461bcd60e51b815260206004820152601660248201527531b0b73737ba1036b7b234b33c903232b83637bcb2b960511b604482015260640161043a565b6001600160a01b038216600081815260026020908152604091829020805460ff1916851515908117909155915191825233917ff38de818d000d07d091732dd783c6855722d7bc1934d92b7635133289d341695910160405180910390a35050565b508054611bea906122dd565b6000825580601f10611bfa575050565b601f0160209004906000526020600020908101906115029190611c9c565b828054611c24906122dd565b90600052602060002090601f016020900481019282611c465760008555611c8c565b82601f10611c5f57805160ff1916838001178555611c8c565b82800160010185558215611c8c579182015b82811115611c8c578251825591602001919060010190611c71565b50611c98929150611c9c565b5090565b5b80821115611c985760008155600101611c9d565b634e487b7160e01b600052604160045260246000fd5b604051601f8201601f191681016001600160401b0381118282101715611cef57611cef611cb1565b604052919050565b60006001600160401b03821115611d1057611d10611cb1565b5060051b60200190565b6001600160a01b038116811461150257600080fd5b60006020808385031215611d4257600080fd5b82356001600160401b03811115611d5857600080fd5b8301601f81018513611d6957600080fd5b8035611d7c611d7782611cf7565b611cc7565b81815260059190911b82018301908381019087831115611d9b57600080fd5b928401925b82841015611dc2578335611db381611d1a565b82529284019290840190611da0565b979650505050505050565b600080600080600060808688031215611de557600080fd5b8535611df081611d1a565b94506020860135611e0081611d1a565b93506040860135925060608601356001600160401b0380821115611e2357600080fd5b818801915088601f830112611e3757600080fd5b813581811115611e4657600080fd5b896020828501011115611e5857600080fd5b9699959850939650602001949392505050565b600060208284031215611e7d57600080fd5b5035919050565b6000815180845260005b81811015611eaa57602081850181015186830182015201611e8e565b81811115611ebc576000602083870101525b50601f01601f19169290920160200192915050565b602081526000611ee46020830184611e84565b9392505050565b600082601f830112611efc57600080fd5b81356001600160401b03811115611f1557611f15611cb1565b611f28601f8201601f1916602001611cc7565b818152846020838601011115611f3d57600080fd5b816020850160208301376000918101602001919091529392505050565b60008060408385031215611f6d57600080fd5b8235915060208301356001600160401b03811115611f8a57600080fd5b611f9685828601611eeb565b9150509250929050565b6020808252825182820181905260009190848201906040850190845b81811015611fda578351151583529284019291840191600101611fbc565b50909695505050505050565b600080600060608486031215611ffb57600080fd5b8335925060208401356001600160401b038082111561201957600080fd5b61202587838801611eeb565b9350604086013591508082111561203b57600080fd5b5061204886828701611eeb565b9150509250925092565b600082601f83011261206357600080fd5b81356020612073611d7783611cf7565b82815260059290921b8401810191818101908684111561209257600080fd5b8286015b848110156120d15780356001600160401b038111156120b55760008081fd5b6120c38986838b0101611eeb565b845250918301918301612096565b509695505050505050565b600080604083850312156120ef57600080fd5b82356001600160401b038082111561210657600080fd5b818501915085601f83011261211a57600080fd5b8135602061212a611d7783611cf7565b82815260059290921b8401810191818101908984111561214957600080fd5b948201945b838610156121675785358252948201949082019061214e565b9650508601359250508082111561217d57600080fd5b50611f9685828601612052565b60006020828403121561219c57600080fd5b8135611ee481611d1a565b602080825282516001600160a01b031682820152820151608060408301526000906121d560a0840182611e84565b90506040840151601f198483030160608501526121f28282611e84565b9150506060840151151560808401528091505092915050565b801515811461150257600080fd5b6000806040838503121561222c57600080fd5b823561223781611d1a565b915060208301356122478161220b565b809150509250929050565b6020808252600c908201526b3737ba103232b83637bcb2b960a11b604082015260600190565b634e487b7160e01b600052603260045260246000fd5b6020808252600c908201526b1b9bdd08185c1c1c9bdd995960a21b604082015260600190565b6020808252600f908201526e1a5b9d985b1a59081c995c5d595cdd608a1b604082015260600190565b600181811c908216806122f157607f821691505b6020821081141561231257634e487b7160e01b600052602260045260246000fd5b50919050565b6020808252601b908201527a1a5b9d985b1a59081c9959195b5c1d1a5bdb881d1bdad95b881a59602a1b604082015260600190565b634e487b7160e01b600052601160045260246000fd5b6000828210156123755761237561234d565b500390565b9182526001600160a01b0316602082015260400190565b600082198211156123a4576123a461234d565b500190565b6020808252601f908201527f746f6b656e2068617320616c7265616479206265656e2072656465656d656400604082015260600190565b8054600090600181811c90808316806123fa57607f831692505b602080841082141561241c57634e487b7160e01b600052602260045260246000fd5b838852818015612433576001811461244757612475565b60ff19861689830152604089019650612475565b876000528160002060005b8681101561246d5781548b8201850152908501908301612452565b8a0183019750505b50505050505092915050565b6040815260006124946040830185611e84565b82810360208401526124a681856123e0565b95945050505050565b6000602082840312156124c157600080fd5b8151611ee48161220b565b602081526000611ee460208301846123e0565b6000602082840312156124f157600080fd5b8151611ee481611d1a56fea264697066735822122071281682b9e9db15ca8fc58e227a0c15ad660d8355857a1fb44b51fd32a9c00f64736f6c634300080c0033",
  "deployedBytecode": "0x608060405234801561001057600080fd5b506004361061013e5760003560e01c806310a8c7a914610143578063150b7a021461015857806326f72ec81461018957806331ed86d2146101e957806353565824146101fc57806354fd4d501461020f57806372c94b5c1461023f5780637918d3fe146102525780637cc9c1ac146102725780637e9cbd3b1461028557806382adf9c5146102985780638474a7e1146102ab5780638611cb67146102be57806394b591af146102e9578063a7771ea5146102fc578063ada499631461031f578063b904c3ba14610340578063c58343ef14610353578063cf7a53a114610373578063d15d41501461037b578063d5f394881461038e578063d8b964e6146103a1578063e2ad3eb0146103c4578063f2fde38b146103d7578063f48cc326146103ea578063fe684c0e146103fd575b600080fd5b610156610151366004611d2f565b610410565b005b61016b610166366004611dcd565b6104b0565b6040516001600160e01b031990911681526020015b60405180910390f35b61019c610197366004611e6b565b610507565b604051610180919081516001600160a01b03908116825260208084015190911690820152604080830151908201526060808301519082015260809182015115159181019190915260a00190565b6101566101f7366004611d2f565b6105df565b61015661020a366004611e6b565b610672565b61023260405180604001604052806004815260200163302e363960e01b81525081565b6040516101809190611ed1565b61015661024d366004611f5a565b610816565b610265610260366004611e6b565b610d67565b6040516101809190611fa0565b610156610280366004611fe6565b610e6a565b610156610293366004611f5a565b611296565b6101566102a6366004611e6b565b61142b565b6102326102b9366004611e6b565b611505565b6102d16102cc366004611e6b565b61160c565b6040516001600160a01b039091168152602001610180565b6101566102f73660046120dc565b611649565b61030f61030a366004611e6b565b61173d565b6040519015158152602001610180565b61033261032d36600461218a565b611755565b604051908152602001610180565b61030f61034e366004611e6b565b6117b6565b610366610361366004611e6b565b6117d3565b60405161018091906121a7565b610332611970565b61030f61038936600461218a565b611990565b6000546102d1906001600160a01b031681565b61030f6103af36600461218a565b60026020526000908152604090205460ff1681565b6101566103d2366004612219565b6119cb565b6101566103e536600461218a565b611a3a565b61030f6103f8366004611e6b565b611ada565b61015661040b366004612219565b611afc565b6000546001600160a01b031633146104435760405162461bcd60e51b815260040161043a90612252565b60405180910390fd5b805161044e57600080fd5b60005b81518110156104ac5760016002600084848151811061047257610472612278565b6020908102919091018101516001600160a01b03168252810191909152604001600020805460ff1916911515919091179055600101610451565b5050565b600080546001600160a01b03163314806104d957503360009081526002602052604090205460ff165b6104f55760405162461bcd60e51b815260040161043a9061228e565b50630a85bd0160e11b95945050505050565b6040805160a08101825260008082526020820181905291810182905260608101829052608081019190915261053b8261173d565b61057f5760405162461bcd60e51b81526020600482015260156024820152741a185cc81b9bdd081899595b881c995919595b5959605a1b604482015260640161043a565b50600090815260066020908152604091829020825160a08101845281546001600160a01b039081168252600183015416928101929092526002810154928201929092526003820154606082015260049091015460ff161515608082015290565b6000546001600160a01b031633146106095760405162461bcd60e51b815260040161043a90612252565b805161061457600080fd5b60005b81518110156104ac5760006002600084848151811061063857610638612278565b6020908102919091018101516001600160a01b03168252810191909152604001600020805460ff1916911515919091179055600101610617565b6000546001600160a01b031633148061069a57503360009081526002602052604090205460ff165b6106b65760405162461bcd60e51b815260040161043a9061228e565b60008181526005602052604090206003015460ff166106e75760405162461bcd60e51b815260040161043a906122b4565b60008181526004602052604090208054610700906122dd565b151590506107205760405162461bcd60e51b815260040161043a90612318565b6000818152600560209081526040808320546001600160a01b03168084526007909252909120541561078b576001600160a01b03811660009081526007602052604090205461077190600190612363565b6001600160a01b0382166000908152600760205260409020555b600082815260056020526040812080546001600160a01b0319168155906107b56001830182611bde565b6107c3600283016000611bde565b50600301805460ff191690556001600160a01b0381167f0b7cdc900b8ac2bfb0d3b2139ecf8be43e21bb1c2e2380190243786c5c5bd3d3833360405161080a92919061237a565b60405180910390a25050565b6000546001600160a01b031633148061083e57503360009081526002602052604090205460ff165b61085a5760405162461bcd60e51b815260040161043a9061228e565b600180600082825461086c9190612391565b909155505060015460008381526005602052604090206003015460ff166108a55760405162461bcd60e51b815260040161043a906122b4565b600083815260046020526040902080546108be906122dd565b151590506108de5760405162461bcd60e51b815260040161043a90612318565b60008381526006602052604090206004015460ff16156109105760405162461bcd60e51b815260040161043a906123a9565b6000838152600460208190526040918290209151630686b30160e31b815273__$7f45f87f0a73bf4fcfd10e7fc7fd4aefbf$__926334359808926109579287929101612481565b602060405180830381865af4158015610974573d6000803e3d6000fd5b505050506040513d601f19601f8201168201806040525081019061099891906124af565b6109d35760405162461bcd60e51b815260206004820152600c60248201526b18da1958dac819985a5b195960a21b604482015260640161043a565b600083815260056020908152604080832081516080810190925280546001600160a01b031682526001810180549293919291840191610a11906122dd565b80601f0160208091040260200160405190810160405280929190818152602001828054610a3d906122dd565b8015610a8a5780601f10610a5f57610100808354040283529160200191610a8a565b820191906000526020600020905b815481529060010190602001808311610a6d57829003601f168201915b50505050508152602001600282018054610aa3906122dd565b80601f0160208091040260200160405190810160405280929190818152602001828054610acf906122dd565b8015610b1c5780601f10610af157610100808354040283529160200191610b1c565b820191906000526020600020905b815481529060010190602001808311610aff57829003601f168201915b50505091835250506003919091015460ff161515602091820152600086815260059091526040812080546001600160a01b0319168155919250610b626001830182611bde565b610b70600283016000611bde565b506003908101805460ff199081169091556040805160a08101825284516001600160a01b03908116825233602080840191825242848601908152606085018c815260016080870181815260008f815260068652898120985189549089166001600160a01b0319918216178a55965192890180549389169390971692909217909555915160028701555197850197909755905160049093018054931515939095169290921790935560058152818420549092168352600790915290205415610c725780516001600160a01b0316600090815260076020526040902054610c5790600190612363565b81516001600160a01b03166000908152600760205260409020555b6003548151604051632142170760e11b81523060048201526001600160a01b039182166024820152604481018790529116906342842e0e90606401600060405180830381600087803b158015610cc757600080fd5b505af1158015610cdb573d6000803e3d6000fd5b505082516001600160a01b031691507fc304de2ee997fd24fdfed24b05b8a4f183098cf2178adca7bd77238f65f84a2290508533604051610d1d92919061237a565b60405180910390a2506001548114610d625760405162461bcd60e51b815260206004820152600860248201526772652d656e74727960c01b604482015260640161043a565b505050565b6040805160038082526080820190925260609160208201838036833701905050604051637a46619360e11b815260048101849052909150309063f48cc32690602401602060405180830381865afa158015610dc6573d6000803e3d6000fd5b505050506040513d601f19601f82011682018060405250810190610dea91906124af565b81600081518110610dfd57610dfd612278565b91151560209283029190910190910152610e168261173d565b81600181518110610e2957610e29612278565b91151560209283029190910190910152610e42826117b6565b81600281518110610e5557610e55612278565b91151560209283029190910190910152919050565b333b15610eb95760405162461bcd60e51b815260206004820152601d60248201527f63616e6e6f7420626520696e766f6b656420627920636f6e7472616374000000604482015260640161043a565b3360009081526008602052604090205460ff1615610f245760405162461bcd60e51b815260206004820152602260248201527f63616e6e6f742072656465656d206120746f6b656e20617420746869732074696044820152616d6560f01b606482015260840161043a565b3360009081526007602052604090205460031015610f995760405162461bcd60e51b815260206004820152602c60248201527f796f75206861766520746f6f206d616e79207265717565737473206f70656e2060448201526b617420746869732074696d6560a01b606482015260840161043a565b60008381526006602052604090206004015460ff1615610fcb5760405162461bcd60e51b815260040161043a906123a9565b60008381526004602052604090208054610fe4906122dd565b151590506110045760405162461bcd60e51b815260040161043a90612318565b60008381526005602052604090206003015460ff16156110725760405162461bcd60e51b815260206004820152602360248201527f7265717565737420616c7265616479206f70656e20666f72207468697320746f60448201526235b2b760e91b606482015260840161043a565b815182906110935760405162461bcd60e51b815260040161043a9190611ed1565b50600083815260046020526040902080546110ad906122dd565b600085815260046020526040902091506110da5760405162461bcd60e51b815260040161043a91906124cc565b506000838152600460208190526040918290209151630686b30160e31b815273__$7f45f87f0a73bf4fcfd10e7fc7fd4aefbf$__926334359808926111229287929101612481565b602060405180830381865af415801561113f573d6000803e3d6000fd5b505050506040513d601f19601f8201168201806040525081019061116391906124af565b82906111825760405162461bcd60e51b815260040161043a9190611ed1565b5060405180608001604052806111953390565b6001600160a01b039081168252602080830186905260408084018690526001606090940184905260008881526005835220845181546001600160a01b031916931692909217825583810151805192936111f693908501929190910190611c18565b5060408201518051611212916002840191602090910190611c18565b50606091909101516003909101805460ff191691151591909117905533600090815260076020526040902054611249906001612391565b33600081815260076020908152604091829020939093555185815290917f67da995c6df7166078290dae7ac4f9c90eeb269d051c434663949b26f04dba1d910160405180910390a2505050565b6000546001600160a01b03163314806112be57503360009081526002602052604090205460ff165b6112da5760405162461bcd60e51b815260040161043a9061228e565b600082815260046020526040902080546112f3906122dd565b1590506113305760405162461bcd60e51b815260206004820152600b60248201526a185b1c9958591e481cd95d60aa1b604482015260640161043a565b6003546040516331a9108f60e11b81526004810184905230916001600160a01b031690636352211e90602401602060405180830381865afa158015611379573d6000803e3d6000fd5b505050506040513d601f19601f8201168201806040525081019061139d91906124df565b6001600160a01b03161461140c5760405162461bcd60e51b815260206004820152603060248201527f706c65617365207472616e736665722074686520746f6b656e20746f2074686960448201526f1cc818dbdb9d1c9858dd08199a5c9cdd60821b606482015260840161043a565b60008281526004602090815260409091208251610d6292840190611c18565b60008181526004602052604090208054611444906122dd565b151590506114895760405162461bcd60e51b81526020600482015260126024820152716d7573742062652072656465656d61626c6560701b604482015260640161043a565b60008181526006602052604090206004015460ff16156114eb5760405162461bcd60e51b815260206004820152601e60248201527f616c72656164792072656465656d65642063616e6e6f74206368616e67650000604482015260640161043a565b600081815260046020526040812061150291611bde565b50565b6000818152600460205260409020805460609190611522906122dd565b1515905061156e5760405162461bcd60e51b815260206004820152601960248201527834b73b30b634b21030b1ba34bb32903932b232b6b83a34b7b760391b604482015260640161043a565b60008281526004602052604090208054611587906122dd565b80601f01602080910402602001604051908101604052809291908181526020018280546115b3906122dd565b80156116005780601f106115d557610100808354040283529160200191611600565b820191906000526020600020905b8154815290600101906020018083116115e357829003601f168201915b50505050509050919050565b60008181526005602052604081206003015460ff1661162d57506000919050565b506000908152600560205260409020546001600160a01b031690565b6000546001600160a01b031633148061167157503360009081526002602052604090205460ff165b61168d5760405162461bcd60e51b815260040161043a9061228e565b80518251146116c95760405162461bcd60e51b81526020600482015260086024820152670dad2e6dac2e8c6d60c31b604482015260640161043a565b60005b8151811015610d625760008382815181106116e9576116e9612278565b6020026020010151905082828151811061170557611705612278565b6020026020010151600460008381526020019081526020016000209080519060200190611733929190611c18565b50506001016116cc565b60009081526006602052604090206004015460ff1690565b600080546001600160a01b031633148061177e57503360009081526002602052604090205460ff165b61179a5760405162461bcd60e51b815260040161043a9061228e565b506001600160a01b031660009081526007602052604090205490565b60009081526005602052604090206003015460ff16151560011490565b611809604051806080016040528060006001600160a01b0316815260200160608152602001606081526020016000151581525090565b60008281526005602090815260409182902082516080810190935280546001600160a01b031683526001810180549192840191611845906122dd565b80601f0160208091040260200160405190810160405280929190818152602001828054611871906122dd565b80156118be5780601f10611893576101008083540402835291602001916118be565b820191906000526020600020905b8154815290600101906020018083116118a157829003601f168201915b505050505081526020016002820180546118d7906122dd565b80601f0160208091040260200160405190810160405280929190818152602001828054611903906122dd565b80156119505780601f1061192557610100808354040283529160200191611950565b820191906000526020600020905b81548152906001019060200180831161193357829003601f168201915b50505091835250506003919091015460ff16151560209091015292915050565b60003361197c57600080fd5b503360009081526007602052604090205490565b600080546001600160a01b03838116911614806119c557506001600160a01b03821660009081526002602052604090205460ff165b92915050565b6000546001600160a01b03163314806119f357503360009081526002602052604090205460ff165b611a0f5760405162461bcd60e51b815260040161043a9061228e565b6001600160a01b03919091166000908152600860205260409020805460ff1916911515919091179055565b6000546001600160a01b03163314611a645760405162461bcd60e51b815260040161043a90612252565b600080546001600160a01b03908116825260026020526040808320805460ff1990811690915583546001600160a01b03191692851692831784558284528184208054909116600117905551909133917f93091b3f3cd424efabc74e181f3799f3476ed758412561ed3b29515c51f567529190a350565b60008181526004602052604081208054611af3906122dd565b15159392505050565b6000546001600160a01b03163314611b265760405162461bcd60e51b815260040161043a90612252565b6000546001600160a01b0383811691161415611b7d5760405162461bcd60e51b815260206004820152601660248201527531b0b73737ba1036b7b234b33c903232b83637bcb2b960511b604482015260640161043a565b6001600160a01b038216600081815260026020908152604091829020805460ff1916851515908117909155915191825233917ff38de818d000d07d091732dd783c6855722d7bc1934d92b7635133289d341695910160405180910390a35050565b508054611bea906122dd565b6000825580601f10611bfa575050565b601f0160209004906000526020600020908101906115029190611c9c565b828054611c24906122dd565b90600052602060002090601f016020900481019282611c465760008555611c8c565b82601f10611c5f57805160ff1916838001178555611c8c565b82800160010185558215611c8c579182015b82811115611c8c578251825591602001919060010190611c71565b50611c98929150611c9c565b5090565b5b80821115611c985760008155600101611c9d565b634e487b7160e01b600052604160045260246000fd5b604051601f8201601f191681016001600160401b0381118282101715611cef57611cef611cb1565b604052919050565b60006001600160401b03821115611d1057611d10611cb1565b5060051b60200190565b6001600160a01b038116811461150257600080fd5b60006020808385031215611d4257600080fd5b82356001600160401b03811115611d5857600080fd5b8301601f81018513611d6957600080fd5b8035611d7c611d7782611cf7565b611cc7565b81815260059190911b82018301908381019087831115611d9b57600080fd5b928401925b82841015611dc2578335611db381611d1a565b82529284019290840190611da0565b979650505050505050565b600080600080600060808688031215611de557600080fd5b8535611df081611d1a565b94506020860135611e0081611d1a565b93506040860135925060608601356001600160401b0380821115611e2357600080fd5b818801915088601f830112611e3757600080fd5b813581811115611e4657600080fd5b896020828501011115611e5857600080fd5b9699959850939650602001949392505050565b600060208284031215611e7d57600080fd5b5035919050565b6000815180845260005b81811015611eaa57602081850181015186830182015201611e8e565b81811115611ebc576000602083870101525b50601f01601f19169290920160200192915050565b602081526000611ee46020830184611e84565b9392505050565b600082601f830112611efc57600080fd5b81356001600160401b03811115611f1557611f15611cb1565b611f28601f8201601f1916602001611cc7565b818152846020838601011115611f3d57600080fd5b816020850160208301376000918101602001919091529392505050565b60008060408385031215611f6d57600080fd5b8235915060208301356001600160401b03811115611f8a57600080fd5b611f9685828601611eeb565b9150509250929050565b6020808252825182820181905260009190848201906040850190845b81811015611fda578351151583529284019291840191600101611fbc565b50909695505050505050565b600080600060608486031215611ffb57600080fd5b8335925060208401356001600160401b038082111561201957600080fd5b61202587838801611eeb565b9350604086013591508082111561203b57600080fd5b5061204886828701611eeb565b9150509250925092565b600082601f83011261206357600080fd5b81356020612073611d7783611cf7565b82815260059290921b8401810191818101908684111561209257600080fd5b8286015b848110156120d15780356001600160401b038111156120b55760008081fd5b6120c38986838b0101611eeb565b845250918301918301612096565b509695505050505050565b600080604083850312156120ef57600080fd5b82356001600160401b038082111561210657600080fd5b818501915085601f83011261211a57600080fd5b8135602061212a611d7783611cf7565b82815260059290921b8401810191818101908984111561214957600080fd5b948201945b838610156121675785358252948201949082019061214e565b9650508601359250508082111561217d57600080fd5b50611f9685828601612052565b60006020828403121561219c57600080fd5b8135611ee481611d1a565b602080825282516001600160a01b031682820152820151608060408301526000906121d560a0840182611e84565b90506040840151601f198483030160608501526121f28282611e84565b9150506060840151151560808401528091505092915050565b801515811461150257600080fd5b6000806040838503121561222c57600080fd5b823561223781611d1a565b915060208301356122478161220b565b809150509250929050565b6020808252600c908201526b3737ba103232b83637bcb2b960a11b604082015260600190565b634e487b7160e01b600052603260045260246000fd5b6020808252600c908201526b1b9bdd08185c1c1c9bdd995960a21b604082015260600190565b6020808252600f908201526e1a5b9d985b1a59081c995c5d595cdd608a1b604082015260600190565b600181811c908216806122f157607f821691505b6020821081141561231257634e487b7160e01b600052602260045260246000fd5b50919050565b6020808252601b908201527a1a5b9d985b1a59081c9959195b5c1d1a5bdb881d1bdad95b881a59602a1b604082015260600190565b634e487b7160e01b600052601160045260246000fd5b6000828210156123755761237561234d565b500390565b9182526001600160a01b0316602082015260400190565b600082198211156123a4576123a461234d565b500190565b6020808252601f908201527f746f6b656e2068617320616c7265616479206265656e2072656465656d656400604082015260600190565b8054600090600181811c90808316806123fa57607f831692505b602080841082141561241c57634e487b7160e01b600052602260045260246000fd5b838852818015612433576001811461244757612475565b60ff19861689830152604089019650612475565b876000528160002060005b8681101561246d5781548b8201850152908501908301612452565b8a0183019750505b50505050505092915050565b6040815260006124946040830185611e84565b82810360208401526124a681856123e0565b95945050505050565b6000602082840312156124c157600080fd5b8151611ee48161220b565b602081526000611ee460208301846123e0565b6000602082840312156124f157600080fd5b8151611ee481611d1a56fea264697066735822122071281682b9e9db15ca8fc58e227a0c15ad660d8355857a1fb44b51fd32a9c00f64736f6c634300080c0033",
  "libraries": {
    "InfinityMintUtil": "0x3411DEa54B2FB5aB203616bB614D61794432d7B1"
  },
  "devdoc": {
    "kind": "dev",
    "methods": {},
    "version": 1
  },
  "userdoc": {
    "kind": "user",
    "methods": {
      "approveRedeem(uint256,bytes)": {
        "notice": "Approves a request to redeem a token"
      },
      "onERC721Received(address,address,uint256,bytes)": {
        "notice": "Allows this redemption contract to receive ERC721 from approved addresses only"
      },
      "rejectRedeem(uint256)": {
        "notice": "Rejects a request to redeem a token"
      },
      "requestToken(uint256,bytes,bytes)": {
        "notice": "Requests a token to be transfered to the sender"
      }
    },
    "version": 1
  },
  "storageLayout": {
    "storage": [
      {
        "astId": 458,
        "contract": "contracts/__mods/Redemption.sol:Mod_Redemption",
        "label": "deployer",
        "offset": 0,
        "slot": "0",
        "type": "t_address"
      },
      {
        "astId": 461,
        "contract": "contracts/__mods/Redemption.sol:Mod_Redemption",
        "label": "executionCount",
        "offset": 0,
        "slot": "1",
        "type": "t_uint256"
      },
      {
        "astId": 465,
        "contract": "contracts/__mods/Redemption.sol:Mod_Redemption",
        "label": "approved",
        "offset": 0,
        "slot": "2",
        "type": "t_mapping(t_address,t_bool)"
      },
      {
        "astId": 10160,
        "contract": "contracts/__mods/Redemption.sol:Mod_Redemption",
        "label": "erc721",
        "offset": 0,
        "slot": "3",
        "type": "t_contract(IERC721)1479"
      },
      {
        "astId": 10164,
        "contract": "contracts/__mods/Redemption.sol:Mod_Redemption",
        "label": "activeRedemptions",
        "offset": 0,
        "slot": "4",
        "type": "t_mapping(t_uint256,t_bytes_storage)"
      },
      {
        "astId": 10169,
        "contract": "contracts/__mods/Redemption.sol:Mod_Redemption",
        "label": "requests",
        "offset": 0,
        "slot": "5",
        "type": "t_mapping(t_uint256,t_struct(Request)10191_storage)"
      },
      {
        "astId": 10174,
        "contract": "contracts/__mods/Redemption.sol:Mod_Redemption",
        "label": "successfulRedemptions",
        "offset": 0,
        "slot": "6",
        "type": "t_mapping(t_uint256,t_struct(SuccessfulRedemption)10202_storage)"
      },
      {
        "astId": 10178,
        "contract": "contracts/__mods/Redemption.sol:Mod_Redemption",
        "label": "requestCount",
        "offset": 0,
        "slot": "7",
        "type": "t_mapping(t_address,t_uint256)"
      },
      {
        "astId": 10182,
        "contract": "contracts/__mods/Redemption.sol:Mod_Redemption",
        "label": "blockedWallets",
        "offset": 0,
        "slot": "8",
        "type": "t_mapping(t_address,t_bool)"
      }
    ],
    "types": {
      "t_address": {
        "encoding": "inplace",
        "label": "address",
        "numberOfBytes": "20"
      },
      "t_bool": {
        "encoding": "inplace",
        "label": "bool",
        "numberOfBytes": "1"
      },
      "t_bytes_storage": {
        "encoding": "bytes",
        "label": "bytes",
        "numberOfBytes": "32"
      },
      "t_contract(IERC721)1479": {
        "encoding": "inplace",
        "label": "contract IERC721",
        "numberOfBytes": "20"
      },
      "t_mapping(t_address,t_bool)": {
        "encoding": "mapping",
        "key": "t_address",
        "label": "mapping(address => bool)",
        "numberOfBytes": "32",
        "value": "t_bool"
      },
      "t_mapping(t_address,t_uint256)": {
        "encoding": "mapping",
        "key": "t_address",
        "label": "mapping(address => uint256)",
        "numberOfBytes": "32",
        "value": "t_uint256"
      },
      "t_mapping(t_uint256,t_bytes_storage)": {
        "encoding": "mapping",
        "key": "t_uint256",
        "label": "mapping(uint256 => bytes)",
        "numberOfBytes": "32",
        "value": "t_bytes_storage"
      },
      "t_mapping(t_uint256,t_struct(Request)10191_storage)": {
        "encoding": "mapping",
        "key": "t_uint256",
        "label": "mapping(uint256 => struct Mod_Redemption.Request)",
        "numberOfBytes": "32",
        "value": "t_struct(Request)10191_storage"
      },
      "t_mapping(t_uint256,t_struct(SuccessfulRedemption)10202_storage)": {
        "encoding": "mapping",
        "key": "t_uint256",
        "label": "mapping(uint256 => struct Mod_Redemption.SuccessfulRedemption)",
        "numberOfBytes": "32",
        "value": "t_struct(SuccessfulRedemption)10202_storage"
      },
      "t_struct(Request)10191_storage": {
        "encoding": "inplace",
        "label": "struct Mod_Redemption.Request",
        "members": [
          {
            "astId": 10184,
            "contract": "contracts/__mods/Redemption.sol:Mod_Redemption",
            "label": "sender",
            "offset": 0,
            "slot": "0",
            "type": "t_address"
          },
          {
            "astId": 10186,
            "contract": "contracts/__mods/Redemption.sol:Mod_Redemption",
            "label": "redemption",
            "offset": 0,
            "slot": "1",
            "type": "t_bytes_storage"
          },
          {
            "astId": 10188,
            "contract": "contracts/__mods/Redemption.sol:Mod_Redemption",
            "label": "key",
            "offset": 0,
            "slot": "2",
            "type": "t_bytes_storage"
          },
          {
            "astId": 10190,
            "contract": "contracts/__mods/Redemption.sol:Mod_Redemption",
            "label": "valid",
            "offset": 0,
            "slot": "3",
            "type": "t_bool"
          }
        ],
        "numberOfBytes": "128"
      },
      "t_struct(SuccessfulRedemption)10202_storage": {
        "encoding": "inplace",
        "label": "struct Mod_Redemption.SuccessfulRedemption",
        "members": [
          {
            "astId": 10193,
            "contract": "contracts/__mods/Redemption.sol:Mod_Redemption",
            "label": "receiver",
            "offset": 0,
            "slot": "0",
            "type": "t_address"
          },
          {
            "astId": 10195,
            "contract": "contracts/__mods/Redemption.sol:Mod_Redemption",
            "label": "admin",
            "offset": 0,
            "slot": "1",
            "type": "t_address"
          },
          {
            "astId": 10197,
            "contract": "contracts/__mods/Redemption.sol:Mod_Redemption",
            "label": "time",
            "offset": 0,
            "slot": "2",
            "type": "t_uint256"
          },
          {
            "astId": 10199,
            "contract": "contracts/__mods/Redemption.sol:Mod_Redemption",
            "label": "tokenId",
            "offset": 0,
            "slot": "3",
            "type": "t_uint256"
          },
          {
            "astId": 10201,
            "contract": "contracts/__mods/Redemption.sol:Mod_Redemption",
            "label": "valid",
            "offset": 0,
            "slot": "4",
            "type": "t_bool"
          }
        ],
        "numberOfBytes": "160"
      },
      "t_uint256": {
        "encoding": "inplace",
        "label": "uint256",
        "numberOfBytes": "32"
      }
    }
  }
}