{
  "_format": "hh-sol-artifact-1",
  "contractName": "Mod_MultiMinter",
  "sourceName": "contracts/__mods/MultiMinter.sol",
  "abi": [
    {
      "inputs": [
        {
          "internalType": "string",
          "name": "tokenName",
          "type": "string"
        },
        {
          "internalType": "string",
          "name": "tokenSymbol",
          "type": "string"
        },
        {
          "internalType": "address",
          "name": "erc721Destination",
          "type": "address"
        },
        {
          "internalType": "uint256",
          "name": "_tokenPrice",
          "type": "uint256"
        }
      ],
      "stateMutability": "nonpayable",
      "type": "constructor"
    },
    {
      "anonymous": false,
      "inputs": [
        {
          "indexed": true,
          "internalType": "address",
          "name": "owner",
          "type": "address"
        },
        {
          "indexed": true,
          "internalType": "address",
          "name": "approved",
          "type": "address"
        },
        {
          "indexed": true,
          "internalType": "uint256",
          "name": "tokenId",
          "type": "uint256"
        }
      ],
      "name": "Approval",
      "type": "event"
    },
    {
      "anonymous": false,
      "inputs": [
        {
          "indexed": true,
          "internalType": "address",
          "name": "owner",
          "type": "address"
        },
        {
          "indexed": true,
          "internalType": "address",
          "name": "operator",
          "type": "address"
        },
        {
          "indexed": false,
          "internalType": "bool",
          "name": "approved",
          "type": "bool"
        }
      ],
      "name": "ApprovalForAll",
      "type": "event"
    },
    {
      "anonymous": false,
      "inputs": [
        {
          "indexed": true,
          "internalType": "address",
          "name": "sender",
          "type": "address"
        },
        {
          "indexed": false,
          "internalType": "uint256",
          "name": "tokenId",
          "type": "uint256"
        },
        {
          "indexed": false,
          "internalType": "string",
          "name": "firstMintedURI",
          "type": "string"
        }
      ],
      "name": "Mint",
      "type": "event"
    },
    {
      "anonymous": false,
      "inputs": [
        {
          "indexed": true,
          "internalType": "address",
          "name": "sender",
          "type": "address"
        },
        {
          "indexed": true,
          "internalType": "address",
          "name": "changee",
          "type": "address"
        },
        {
          "indexed": false,
          "internalType": "bool",
          "name": "value",
          "type": "bool"
        }
      ],
      "name": "PermissionChange",
      "type": "event"
    },
    {
      "anonymous": false,
      "inputs": [
        {
          "indexed": true,
          "internalType": "address",
          "name": "from",
          "type": "address"
        },
        {
          "indexed": true,
          "internalType": "address",
          "name": "to",
          "type": "address"
        },
        {
          "indexed": true,
          "internalType": "uint256",
          "name": "tokenId",
          "type": "uint256"
        }
      ],
      "name": "Transfer",
      "type": "event"
    },
    {
      "anonymous": false,
      "inputs": [
        {
          "indexed": true,
          "internalType": "address",
          "name": "from",
          "type": "address"
        },
        {
          "indexed": true,
          "internalType": "address",
          "name": "to",
          "type": "address"
        }
      ],
      "name": "TransferedOwnership",
      "type": "event"
    },
    {
      "inputs": [
        {
          "internalType": "address",
          "name": "_to",
          "type": "address"
        },
        {
          "internalType": "uint256",
          "name": "_tokenId",
          "type": "uint256"
        }
      ],
      "name": "approve",
      "outputs": [],
      "stateMutability": "nonpayable",
      "type": "function"
    },
    {
      "inputs": [
        {
          "internalType": "address",
          "name": "",
          "type": "address"
        }
      ],
      "name": "approved",
      "outputs": [
        {
          "internalType": "bool",
          "name": "",
          "type": "bool"
        }
      ],
      "stateMutability": "view",
      "type": "function"
    },
    {
      "inputs": [
        {
          "internalType": "address",
          "name": "_owner",
          "type": "address"
        }
      ],
      "name": "balanceOf",
      "outputs": [
        {
          "internalType": "uint256",
          "name": "",
          "type": "uint256"
        }
      ],
      "stateMutability": "view",
      "type": "function"
    },
    {
      "inputs": [
        {
          "internalType": "uint256",
          "name": "",
          "type": "uint256"
        }
      ],
      "name": "currentTokenUri",
      "outputs": [
        {
          "internalType": "string",
          "name": "",
          "type": "string"
        }
      ],
      "stateMutability": "view",
      "type": "function"
    },
    {
      "inputs": [],
      "name": "currentTokenUriIndex",
      "outputs": [
        {
          "internalType": "uint256",
          "name": "",
          "type": "uint256"
        }
      ],
      "stateMutability": "view",
      "type": "function"
    },
    {
      "inputs": [],
      "name": "deployer",
      "outputs": [
        {
          "internalType": "address",
          "name": "",
          "type": "address"
        }
      ],
      "stateMutability": "view",
      "type": "function"
    },
    {
      "inputs": [
        {
          "internalType": "uint256",
          "name": "_tokenId",
          "type": "uint256"
        }
      ],
      "name": "exists",
      "outputs": [
        {
          "internalType": "bool",
          "name": "",
          "type": "bool"
        }
      ],
      "stateMutability": "view",
      "type": "function"
    },
    {
      "inputs": [
        {
          "internalType": "uint256",
          "name": "_tokenId",
          "type": "uint256"
        }
      ],
      "name": "getApproved",
      "outputs": [
        {
          "internalType": "address",
          "name": "",
          "type": "address"
        }
      ],
      "stateMutability": "view",
      "type": "function"
    },
    {
      "inputs": [],
      "name": "getCurrentTokenURI",
      "outputs": [
        {
          "internalType": "string",
          "name": "",
          "type": "string"
        }
      ],
      "stateMutability": "view",
      "type": "function"
    },
    {
      "inputs": [],
      "name": "getSelectedTokenURI",
      "outputs": [
        {
          "internalType": "uint256",
          "name": "",
          "type": "uint256"
        }
      ],
      "stateMutability": "view",
      "type": "function"
    },
    {
      "inputs": [
        {
          "internalType": "address",
          "name": "_owner",
          "type": "address"
        },
        {
          "internalType": "address",
          "name": "_operator",
          "type": "address"
        }
      ],
      "name": "isApprovedForAll",
      "outputs": [
        {
          "internalType": "bool",
          "name": "",
          "type": "bool"
        }
      ],
      "stateMutability": "view",
      "type": "function"
    },
    {
      "inputs": [
        {
          "internalType": "address",
          "name": "addr",
          "type": "address"
        },
        {
          "internalType": "uint256",
          "name": "tokenId",
          "type": "uint256"
        }
      ],
      "name": "isApprovedOrOwner",
      "outputs": [
        {
          "internalType": "bool",
          "name": "",
          "type": "bool"
        }
      ],
      "stateMutability": "view",
      "type": "function"
    },
    {
      "inputs": [
        {
          "internalType": "address",
          "name": "addr",
          "type": "address"
        }
      ],
      "name": "isAuthenticated",
      "outputs": [
        {
          "internalType": "bool",
          "name": "",
          "type": "bool"
        }
      ],
      "stateMutability": "view",
      "type": "function"
    },
    {
      "inputs": [],
      "name": "mint",
      "outputs": [],
      "stateMutability": "payable",
      "type": "function"
    },
    {
      "inputs": [
        {
          "internalType": "address[]",
          "name": "addrs",
          "type": "address[]"
        }
      ],
      "name": "multiApprove",
      "outputs": [],
      "stateMutability": "nonpayable",
      "type": "function"
    },
    {
      "inputs": [],
      "name": "name",
      "outputs": [
        {
          "internalType": "string",
          "name": "",
          "type": "string"
        }
      ],
      "stateMutability": "view",
      "type": "function"
    },
    {
      "inputs": [
        {
          "internalType": "uint256",
          "name": "_tokenId",
          "type": "uint256"
        }
      ],
      "name": "ownerOf",
      "outputs": [
        {
          "internalType": "address",
          "name": "",
          "type": "address"
        }
      ],
      "stateMutability": "view",
      "type": "function"
    },
    {
      "inputs": [
        {
          "internalType": "address",
          "name": "_from",
          "type": "address"
        },
        {
          "internalType": "address",
          "name": "_to",
          "type": "address"
        },
        {
          "internalType": "uint256",
          "name": "_tokenId",
          "type": "uint256"
        }
      ],
      "name": "safeTransferFrom",
      "outputs": [],
      "stateMutability": "nonpayable",
      "type": "function"
    },
    {
      "inputs": [
        {
          "internalType": "address",
          "name": "_from",
          "type": "address"
        },
        {
          "internalType": "address",
          "name": "_to",
          "type": "address"
        },
        {
          "internalType": "uint256",
          "name": "_tokenId",
          "type": "uint256"
        },
        {
          "internalType": "bytes",
          "name": "_data",
          "type": "bytes"
        }
      ],
      "name": "safeTransferFrom",
      "outputs": [],
      "stateMutability": "nonpayable",
      "type": "function"
    },
    {
      "inputs": [
        {
          "internalType": "address",
          "name": "_operator",
          "type": "address"
        },
        {
          "internalType": "bool",
          "name": "_approved",
          "type": "bool"
        }
      ],
      "name": "setApprovalForAll",
      "outputs": [],
      "stateMutability": "nonpayable",
      "type": "function"
    },
    {
      "inputs": [
        {
          "internalType": "uint256",
          "name": "tokenUriIndex",
          "type": "uint256"
        }
      ],
      "name": "setCurrentTokenURI",
      "outputs": [],
      "stateMutability": "nonpayable",
      "type": "function"
    },
    {
      "inputs": [
        {
          "internalType": "uint256",
          "name": "_tokenPrice",
          "type": "uint256"
        }
      ],
      "name": "setPrice",
      "outputs": [],
      "stateMutability": "nonpayable",
      "type": "function"
    },
    {
      "inputs": [
        {
          "internalType": "address",
          "name": "addr",
          "type": "address"
        },
        {
          "internalType": "bool",
          "name": "value",
          "type": "bool"
        }
      ],
      "name": "setPrivilages",
      "outputs": [],
      "stateMutability": "nonpayable",
      "type": "function"
    },
    {
      "inputs": [
        {
          "internalType": "uint256",
          "name": "tokenUriIndex",
          "type": "uint256"
        },
        {
          "internalType": "string",
          "name": "newTokenURI",
          "type": "string"
        }
      ],
      "name": "setTokenURI",
      "outputs": [],
      "stateMutability": "nonpayable",
      "type": "function"
    },
    {
      "inputs": [
        {
          "internalType": "bytes4",
          "name": "interfaceId",
          "type": "bytes4"
        }
      ],
      "name": "supportsInterface",
      "outputs": [
        {
          "internalType": "bool",
          "name": "",
          "type": "bool"
        }
      ],
      "stateMutability": "view",
      "type": "function"
    },
    {
      "inputs": [],
      "name": "symbol",
      "outputs": [
        {
          "internalType": "string",
          "name": "",
          "type": "string"
        }
      ],
      "stateMutability": "view",
      "type": "function"
    },
    {
      "inputs": [],
      "name": "tokenId",
      "outputs": [
        {
          "internalType": "uint256",
          "name": "",
          "type": "uint256"
        }
      ],
      "stateMutability": "view",
      "type": "function"
    },
    {
      "inputs": [],
      "name": "tokenPrice",
      "outputs": [
        {
          "internalType": "uint256",
          "name": "",
          "type": "uint256"
        }
      ],
      "stateMutability": "view",
      "type": "function"
    },
    {
      "inputs": [
        {
          "internalType": "uint256",
          "name": "_tokenId",
          "type": "uint256"
        }
      ],
      "name": "tokenURI",
      "outputs": [
        {
          "internalType": "string",
          "name": "",
          "type": "string"
        }
      ],
      "stateMutability": "view",
      "type": "function"
    },
    {
      "inputs": [],
      "name": "totalMints",
      "outputs": [
        {
          "internalType": "uint256",
          "name": "",
          "type": "uint256"
        }
      ],
      "stateMutability": "view",
      "type": "function"
    },
    {
      "inputs": [
        {
          "internalType": "address",
          "name": "_from",
          "type": "address"
        },
        {
          "internalType": "address",
          "name": "_to",
          "type": "address"
        },
        {
          "internalType": "uint256",
          "name": "_tokenId",
          "type": "uint256"
        }
      ],
      "name": "transferFrom",
      "outputs": [],
      "stateMutability": "nonpayable",
      "type": "function"
    },
    {
      "inputs": [
        {
          "internalType": "address",
          "name": "addr",
          "type": "address"
        }
      ],
      "name": "transferOwnership",
      "outputs": [],
      "stateMutability": "nonpayable",
      "type": "function"
    }
  ],
  "bytecode": "0x60806040523480156200001157600080fd5b5060405162001f4338038062001f43833981016040819052620000349162000236565b8351849084906200004d906005906020850190620000c3565b50805162000063906006906020840190620000c3565b505060078054336001600160a01b031991821681179092556000918252600960205260408220805460ff19166001179055600891909155600d9290925550600e80549091166001600160a01b039290921691909117905550620003069050565b828054620000d190620002c9565b90600052602060002090601f016020900481019282620000f5576000855562000140565b82601f106200011057805160ff191683800117855562000140565b8280016001018555821562000140579182015b828111156200014057825182559160200191906001019062000123565b506200014e92915062000152565b5090565b5b808211156200014e576000815560010162000153565b634e487b7160e01b600052604160045260246000fd5b600082601f8301126200019157600080fd5b81516001600160401b0380821115620001ae57620001ae62000169565b604051601f8301601f19908116603f01168101908282118183101715620001d957620001d962000169565b81604052838152602092508683858801011115620001f657600080fd5b600091505b838210156200021a5785820183015181830184015290820190620001fb565b838211156200022c5760008385830101525b9695505050505050565b600080600080608085870312156200024d57600080fd5b84516001600160401b03808211156200026557600080fd5b62000273888389016200017f565b955060208701519150808211156200028a57600080fd5b5062000299878288016200017f565b604087015190945090506001600160a01b0381168114620002b957600080fd5b6060959095015193969295505050565b600181811c90821680620002de57607f821691505b602082108114156200030057634e487b7160e01b600052602260045260246000fd5b50919050565b611c2d80620003166000396000f3fe6080604052600436106101735760003560e01c806301ffc9a71461017857806306fdde03146101ad578063081812fc146101cf578063095ea7b31461020757806310a8c7a9146102295780631249c58b14610249578063162094c41461025157806317d70f7c146102715780631f21bfbf1461029557806323b872dd146102aa5780633bc4b010146102ca57806342842e0e146102e0578063430c2081146103005780634f558e79146103205780636352211e1461034057806370a08231146103605780637ff9b5961461039657806391b7f5ed146103ac57806395d89b41146103cc578063a22cb465146103e1578063b88d4fde14610401578063bf785b7e14610421578063c87b56dd14610441578063d15d415014610461578063d5f3948814610481578063d8b964e6146104a1578063e985e9c5146104d1578063f2fde38b146104f1578063f497a56914610295578063f7b2100414610511578063fe684c0e14610531578063ff32dee914610551575b600080fd5b34801561018457600080fd5b50610198610193366004611628565b610566565b60405190151581526020015b60405180910390f35b3480156101b957600080fd5b506101c26105b8565b6040516101a49190611699565b3480156101db57600080fd5b506101ef6101ea3660046116ac565b61064a565b6040516001600160a01b0390911681526020016101a4565b34801561021357600080fd5b506102276102223660046116e1565b610665565b005b34801561023557600080fd5b50610227610244366004611751565b6107ba565b610227610851565b34801561025d57600080fd5b5061022761026c366004611854565b610a4d565b34801561027d57600080fd5b50610287600c5481565b6040519081526020016101a4565b3480156102a157600080fd5b50600c54610287565b3480156102b657600080fd5b506102276102c53660046118ae565b610af8565b3480156102d657600080fd5b50610287600b5481565b3480156102ec57600080fd5b506102276102fb3660046118ae565b610c68565b34801561030c57600080fd5b5061019861031b3660046116e1565b610c83565b34801561032c57600080fd5b5061019861033b3660046116ac565b610ce2565b34801561034c57600080fd5b506101ef61035b3660046116ac565b610cff565b34801561036c57600080fd5b5061028761037b3660046118ea565b6001600160a01b031660009081526004602052604090205490565b3480156103a257600080fd5b50610287600d5481565b3480156103b857600080fd5b506102276103c73660046116ac565b610d64565b3480156103d857600080fd5b506101c2610dad565b3480156103ed57600080fd5b506102276103fc366004611905565b610dbc565b34801561040d57600080fd5b5061022761041c366004611941565b610e29565b34801561042d57600080fd5b5061022761043c3660046116ac565b610e3b565b34801561044d57600080fd5b506101c261045c3660046116ac565b610ee4565b34801561046d57600080fd5b5061019861047c3660046118ea565b610f86565b34801561048d57600080fd5b506007546101ef906001600160a01b031681565b3480156104ad57600080fd5b506101986104bc3660046118ea565b60096020526000908152604090205460ff1681565b3480156104dd57600080fd5b506101986104ec3660046119bc565b610fbf565b3480156104fd57600080fd5b5061022761050c3660046118ea565b610fed565b34801561051d57600080fd5b506101c261052c3660046116ac565b611093565b34801561053d57600080fd5b5061022761054c366004611905565b61112d565b34801561055d57600080fd5b506101c2611208565b60006001600160e01b031982166380ac58cd60e01b148061059757506001600160e01b03198216635b5e139f60e01b145b806105b257506301ffc9a760e01b6001600160e01b03198316145b92915050565b6060600580546105c7906119ef565b80601f01602080910402602001604051908101604052809291908181526020018280546105f3906119ef565b80156106405780601f1061061557610100808354040283529160200191610640565b820191906000526020600020905b81548152906001019060200180831161062357829003601f168201915b5050505050905090565b6000908152600260205260409020546001600160a01b031690565b600061067082610cff565b9050806001600160a01b0316836001600160a01b031614156106d05760405162461bcd60e51b815260206004820152601460248201527331b0b73737ba1030b8383937bb329037bbb732b960611b60448201526064015b60405180910390fd5b336001600160a01b03821614806106ec57506106ec8133610fbf565b61075e5760405162461bcd60e51b815260206004820152603d60248201527f4552433732313a20617070726f76652063616c6c6572206973206e6f7420746f60448201527f6b656e206f776e6572206f7220617070726f76656420666f7220616c6c00000060648201526084016106c7565b60008281526002602052604080822080546001600160a01b0319166001600160a01b0387811691821790925591518593918516917f8c5be1e5ebec7d5bd14f71427d1e84f3dd0314c0f7b2291e5b200ac8c7c3b92591a4505050565b6007546001600160a01b031633146107e45760405162461bcd60e51b81526004016106c790611a2a565b80516107ef57600080fd5b60005b815181101561084d5760016009600084848151811061081357610813611a50565b6020908102919091018101516001600160a01b03168252810191909152604001600020805460ff19169115159190911790556001016107f2565b5050565b600d5434148061087057503360009081526009602052604090205460ff165b8061088e57506007546001600160a01b0316336001600160a01b0316145b6108c65760405162461bcd60e51b815260206004820152600960248201526862616420707269636560b81b60448201526064016106c7565b600b546000908152600a6020526040812080546108e2906119ef565b90501161092c5760405162461bcd60e51b81526020600482015260186024820152776f776e657220686173206e6f74207365742075702075726960401b60448201526064016106c7565b600e546001600160a01b0316636bb54df2346040516001600160e01b031960e084901b168152600060048201526024016000604051808303818588803b15801561097557600080fd5b505af1158015610989573d6000803e3d6000fd5b50505050506109b06109983390565b600c5460405180602001604052806000815250611228565b600b546000908152600a60209081526040808320600c548452600190925290912081549091906109df906119ef565b6109ea9291906114fb565b50600c805433917f85a66b9141978db9980f7e0ce3b468cebf4f7999f32b23091c5c03e798b1ba7a91906000610a1f83611a7c565b90915550600b546000908152600a6020526040908190209051610a43929190611a97565b60405180910390a2565b6007546001600160a01b0316331480610a7557503360009081526009602052604090205460ff165b610a915760405162461bcd60e51b81526004016106c790611b48565b6000815111610ad45760405162461bcd60e51b815260206004820152600f60248201526e656d70747920746f6b656e2055524960881b60448201526064016106c7565b6000828152600a602090815260409091208251610af392840190611586565b505050565b610b023382610c83565b610b465760405162461bcd60e51b81526020600482015260156024820152743737ba1030b8383937bb32b21037b91037bbb732b960591b60448201526064016106c7565b6001600160a01b038316610b965760405162461bcd60e51b815260206004820152601760248201527673656e64696e6720746f206e756c6c206164647265737360481b60448201526064016106c7565b600081815260026020908152604080832080546001600160a01b03191690556001600160a01b038616835260049091528120805460019290610bd9908490611b6e565b90915550506001600160a01b0382166000908152600460205260408120805460019290610c07908490611b85565b909155505060008181526020819052604080822080546001600160a01b0319166001600160a01b0386811691821790925591518493918716917fddf252ad1be2c89b69c2b068fc378daa952ba7f163c4a11628f55a4df523b3ef91a4505050565b610af383838360405180602001604052806000815250611349565b600080610c8f83610cff565b9050806001600160a01b0316846001600160a01b03161480610cb65750610cb68185610fbf565b80610cda5750836001600160a01b0316610ccf8461064a565b6001600160a01b0316145b949350505050565b6000908152602081905260409020546001600160a01b0316151590565b6000610d0a82610ce2565b610d485760405162461bcd60e51b815260206004820152600f60248201526e1a5b9d985b1a59081d1bdad95b9259608a1b60448201526064016106c7565b506000908152602081905260409020546001600160a01b031690565b6007546001600160a01b0316331480610d8c57503360009081526009602052604090205460ff165b610da85760405162461bcd60e51b81526004016106c790611b48565b600d55565b6060600680546105c7906119ef565b3360008181526003602090815260408083206001600160a01b03871680855290835292819020805460ff191686151590811790915590519081529192917f17307eab39ab6107e8899845ad3d59bd9653f200f220920489ca2b5937696c3191015b60405180910390a35050565b610e3584848484611349565b50505050565b6007546001600160a01b0316331480610e6357503360009081526009602052604090205460ff165b610e7f5760405162461bcd60e51b81526004016106c790611b48565b6000818152600a602052604081208054610e98906119ef565b905011610edf5760405162461bcd60e51b81526020600482015260156024820152746e6f20746f6b656e2075726920736574206865726560581b60448201526064016106c7565b600b55565b6000818152600160205260409020805460609190610f01906119ef565b80601f0160208091040260200160405190810160405280929190818152602001828054610f2d906119ef565b8015610f7a5780601f10610f4f57610100808354040283529160200191610f7a565b820191906000526020600020905b815481529060010190602001808311610f5d57829003601f168201915b50505050509050919050565b6007546000906001600160a01b03838116911614806105b25750506001600160a01b031660009081526009602052604090205460ff1690565b6001600160a01b03918216600090815260036020908152604080832093909416825291909152205460ff1690565b6007546001600160a01b031633146110175760405162461bcd60e51b81526004016106c790611a2a565b600780546001600160a01b03908116600090815260096020526040808220805460ff1990811690915584546001600160a01b03191693861693841790945582825280822080549094166001179093559151909133917f93091b3f3cd424efabc74e181f3799f3476ed758412561ed3b29515c51f567529190a350565b600a60205260009081526040902080546110ac906119ef565b80601f01602080910402602001604051908101604052809291908181526020018280546110d8906119ef565b80156111255780601f106110fa57610100808354040283529160200191611125565b820191906000526020600020905b81548152906001019060200180831161110857829003601f168201915b505050505081565b6007546001600160a01b031633146111575760405162461bcd60e51b81526004016106c790611a2a565b6007546001600160a01b03838116911614156111ae5760405162461bcd60e51b815260206004820152601660248201527531b0b73737ba1036b7b234b33c903232b83637bcb2b960511b60448201526064016106c7565b6001600160a01b038216600081815260096020908152604091829020805460ff1916851515908117909155915191825233917ff38de818d000d07d091732dd783c6855722d7bc1934d92b7635133289d3416959101610e1d565b600b546000908152600a602052604090208054606091906105c7906119ef565b6001600160a01b0383166112695760405162461bcd60e51b81526020600482015260086024820152670c1e0c081b5a5b9d60c21b60448201526064016106c7565b61127282610ce2565b156112b05760405162461bcd60e51b815260206004820152600e60248201526d185b1c9958591e481b5a5b9d195960921b60448201526064016106c7565b6001600160a01b03831660009081526004602052604081208054600192906112d9908490611b85565b909155505060008281526020819052604080822080546001600160a01b0319166001600160a01b03871690811790915590518492907fddf252ad1be2c89b69c2b068fc378daa952ba7f163c4a11628f55a4df523b3ef908290a461134033308585856113b9565b610af357600080fd5b611354848484610af8565b61136133858585856113b9565b610e355760405162461bcd60e51b815260206004820152602360248201527f45524337323120526563656976657220436f6e6669726d6174696f6e2049732060448201526210985960ea1b60648201526084016106c7565b6000833b6113c9575060016114f2565b604051630a85bd0160e11b81526001600160a01b0385169063150b7a02906113fb908990899088908890600401611b9d565b6020604051808303816000875af1925050508015611436575060408051601f3d908101601f1916820190925261143391810190611bda565b60015b6114dc573d808015611464576040519150601f19603f3d011682016040523d82523d6000602084013e611469565b606091505b5080516114d45760405162461bcd60e51b815260206004820152603360248201527f5468697320636f6e747261637420646f6573206e6f7420696d706c656d656e746044820152721030b71024a2a9219b9918a932b1b2b4bb32b960691b60648201526084016106c7565b805181602001fd5b6001600160e01b031916630a85bd0160e11b1490505b95945050505050565b828054611507906119ef565b90600052602060002090601f0160209004810192826115295760008555611576565b82601f1061153a5780548555611576565b8280016001018555821561157657600052602060002091601f016020900482015b8281111561157657825482559160010191906001019061155b565b506115829291506115fa565b5090565b828054611592906119ef565b90600052602060002090601f0160209004810192826115b45760008555611576565b82601f106115cd57805160ff1916838001178555611576565b82800160010185558215611576579182015b828111156115765782518255916020019190600101906115df565b5b8082111561158257600081556001016115fb565b6001600160e01b03198116811461162557600080fd5b50565b60006020828403121561163a57600080fd5b81356116458161160f565b9392505050565b6000815180845260005b8181101561167257602081850181015186830182015201611656565b81811115611684576000602083870101525b50601f01601f19169290920160200192915050565b602081526000611645602083018461164c565b6000602082840312156116be57600080fd5b5035919050565b80356001600160a01b03811681146116dc57600080fd5b919050565b600080604083850312156116f457600080fd5b6116fd836116c5565b946020939093013593505050565b634e487b7160e01b600052604160045260246000fd5b604051601f8201601f191681016001600160401b03811182821017156117495761174961170b565b604052919050565b6000602080838503121561176457600080fd5b82356001600160401b038082111561177b57600080fd5b818501915085601f83011261178f57600080fd5b8135818111156117a1576117a161170b565b8060051b91506117b2848301611721565b81815291830184019184810190888411156117cc57600080fd5b938501935b838510156117f1576117e2856116c5565b825293850193908501906117d1565b98975050505050505050565b60006001600160401b038311156118165761181661170b565b611829601f8401601f1916602001611721565b905082815283838301111561183d57600080fd5b828260208301376000602084830101529392505050565b6000806040838503121561186757600080fd5b8235915060208301356001600160401b0381111561188457600080fd5b8301601f8101851361189557600080fd5b6118a4858235602084016117fd565b9150509250929050565b6000806000606084860312156118c357600080fd5b6118cc846116c5565b92506118da602085016116c5565b9150604084013590509250925092565b6000602082840312156118fc57600080fd5b611645826116c5565b6000806040838503121561191857600080fd5b611921836116c5565b91506020830135801515811461193657600080fd5b809150509250929050565b6000806000806080858703121561195757600080fd5b611960856116c5565b935061196e602086016116c5565b92506040850135915060608501356001600160401b0381111561199057600080fd5b8501601f810187136119a157600080fd5b6119b0878235602084016117fd565b91505092959194509250565b600080604083850312156119cf57600080fd5b6119d8836116c5565b91506119e6602084016116c5565b90509250929050565b600181811c90821680611a0357607f821691505b60208210811415611a2457634e487b7160e01b600052602260045260246000fd5b50919050565b6020808252600c908201526b3737ba103232b83637bcb2b960a11b604082015260600190565b634e487b7160e01b600052603260045260246000fd5b634e487b7160e01b600052601160045260246000fd5b6000600019821415611a9057611a90611a66565b5060010190565b828152600060206040818401526000845481600182811c915080831680611abf57607f831692505b858310811415611add57634e487b7160e01b85526022600452602485fd5b6040880183905260608801818015611afc5760018114611b0d57611b38565b60ff19861682528782019650611b38565b60008b81526020902060005b86811015611b3257815484820152908501908901611b19565b83019750505b50949a9950505050505050505050565b6020808252600c908201526b1b9bdd08185c1c1c9bdd995960a21b604082015260600190565b600082821015611b8057611b80611a66565b500390565b60008219821115611b9857611b98611a66565b500190565b6001600160a01b0385811682528416602082015260408101839052608060608201819052600090611bd09083018461164c565b9695505050505050565b600060208284031215611bec57600080fd5b81516116458161160f56fea26469706673582212201131d2c7b5651253be7f7435b77d07af32d75af7de343e93cdb0f1b94bc0508864736f6c634300080c0033",
  "linkReferences": {},
  "deployedLinkReferences": {}
}