{
  "address": "0xee515B8ffC664aE34dC92693FE6e8abB8A0A98F2",
  "abi": [
    {
      "inputs": [
        {
          "internalType": "uint32",
          "name": "tokenId",
          "type": "uint32"
        },
        {
          "internalType": "address",
          "name": "erc721Destination",
          "type": "address"
        },
        {
          "internalType": "address",
          "name": "multiMinterOracleDestination",
          "type": "address"
        }
      ],
      "stateMutability": "nonpayable",
      "type": "constructor"
    },
    {
      "anonymous": false,
      "inputs": [
        {
          "indexed": true,
          "internalType": "address",
          "name": "sender",
          "type": "address"
        },
        {
          "indexed": false,
          "internalType": "uint256",
          "name": "amount",
          "type": "uint256"
        },
        {
          "indexed": false,
          "internalType": "uint256",
          "name": "newTotal",
          "type": "uint256"
        }
      ],
      "name": "Deposit",
      "type": "event"
    },
    {
      "anonymous": false,
      "inputs": [
        {
          "indexed": true,
          "internalType": "address",
          "name": "sender",
          "type": "address"
        },
        {
          "indexed": true,
          "internalType": "address",
          "name": "changee",
          "type": "address"
        },
        {
          "indexed": false,
          "internalType": "bool",
          "name": "value",
          "type": "bool"
        }
      ],
      "name": "PermissionChange",
      "type": "event"
    },
    {
      "anonymous": false,
      "inputs": [
        {
          "indexed": true,
          "internalType": "address",
          "name": "from",
          "type": "address"
        },
        {
          "indexed": true,
          "internalType": "address",
          "name": "to",
          "type": "address"
        }
      ],
      "name": "TransferedOwnership",
      "type": "event"
    },
    {
      "anonymous": false,
      "inputs": [
        {
          "indexed": true,
          "internalType": "address",
          "name": "sender",
          "type": "address"
        },
        {
          "indexed": false,
          "internalType": "uint256",
          "name": "amount",
          "type": "uint256"
        },
        {
          "indexed": false,
          "internalType": "uint256",
          "name": "newTotal",
          "type": "uint256"
        }
      ],
      "name": "Withdraw",
      "type": "event"
    },
    {
      "inputs": [
        {
          "internalType": "address",
          "name": "",
          "type": "address"
        }
      ],
      "name": "approved",
      "outputs": [
        {
          "internalType": "bool",
          "name": "",
          "type": "bool"
        }
      ],
      "stateMutability": "view",
      "type": "function"
    },
    {
      "inputs": [],
      "name": "currentTokenId",
      "outputs": [
        {
          "internalType": "uint32",
          "name": "",
          "type": "uint32"
        }
      ],
      "stateMutability": "view",
      "type": "function"
    },
    {
      "inputs": [],
      "name": "deployer",
      "outputs": [
        {
          "internalType": "address",
          "name": "",
          "type": "address"
        }
      ],
      "stateMutability": "view",
      "type": "function"
    },
    {
      "inputs": [],
      "name": "deposit",
      "outputs": [],
      "stateMutability": "payable",
      "type": "function"
    },
    {
      "inputs": [],
      "name": "erc721",
      "outputs": [
        {
          "internalType": "address",
          "name": "",
          "type": "address"
        }
      ],
      "stateMutability": "view",
      "type": "function"
    },
    {
      "inputs": [],
      "name": "getBalance",
      "outputs": [
        {
          "internalType": "uint256",
          "name": "",
          "type": "uint256"
        }
      ],
      "stateMutability": "view",
      "type": "function"
    },
    {
      "inputs": [],
      "name": "getIntegrity",
      "outputs": [
        {
          "internalType": "address",
          "name": "",
          "type": "address"
        },
        {
          "internalType": "address",
          "name": "",
          "type": "address"
        },
        {
          "internalType": "uint256",
          "name": "",
          "type": "uint256"
        },
        {
          "internalType": "bytes",
          "name": "",
          "type": "bytes"
        },
        {
          "internalType": "bytes4",
          "name": "",
          "type": "bytes4"
        }
      ],
      "stateMutability": "view",
      "type": "function"
    },
    {
      "inputs": [
        {
          "internalType": "address",
          "name": "addr",
          "type": "address"
        }
      ],
      "name": "isAuthenticated",
      "outputs": [
        {
          "internalType": "bool",
          "name": "",
          "type": "bool"
        }
      ],
      "stateMutability": "view",
      "type": "function"
    },
    {
      "inputs": [
        {
          "internalType": "address[]",
          "name": "addrs",
          "type": "address[]"
        }
      ],
      "name": "multiApprove",
      "outputs": [],
      "stateMutability": "nonpayable",
      "type": "function"
    },
    {
      "inputs": [],
      "name": "multiMinterOracle",
      "outputs": [
        {
          "internalType": "contract Mod_MultiMinterOracle",
          "name": "",
          "type": "address"
        }
      ],
      "stateMutability": "view",
      "type": "function"
    },
    {
      "inputs": [
        {
          "internalType": "address[]",
          "name": "addrs",
          "type": "address[]"
        }
      ],
      "name": "multiRevoke",
      "outputs": [],
      "stateMutability": "nonpayable",
      "type": "function"
    },
    {
      "inputs": [
        {
          "internalType": "address",
          "name": "",
          "type": "address"
        },
        {
          "internalType": "address",
          "name": "",
          "type": "address"
        },
        {
          "internalType": "uint256",
          "name": "",
          "type": "uint256"
        },
        {
          "internalType": "bytes",
          "name": "",
          "type": "bytes"
        }
      ],
      "name": "onERC721Received",
      "outputs": [
        {
          "internalType": "bytes4",
          "name": "",
          "type": "bytes4"
        }
      ],
      "stateMutability": "view",
      "type": "function"
    },
    {
      "inputs": [
        {
          "internalType": "address",
          "name": "addr",
          "type": "address"
        },
        {
          "internalType": "bool",
          "name": "value",
          "type": "bool"
        }
      ],
      "name": "setPrivilages",
      "outputs": [],
      "stateMutability": "nonpayable",
      "type": "function"
    },
    {
      "inputs": [
        {
          "internalType": "address",
          "name": "erc721Destination",
          "type": "address"
        },
        {
          "internalType": "address",
          "name": "to",
          "type": "address"
        },
        {
          "internalType": "uint256",
          "name": "tokenId",
          "type": "uint256"
        }
      ],
      "name": "transfer",
      "outputs": [],
      "stateMutability": "nonpayable",
      "type": "function"
    },
    {
      "inputs": [
        {
          "internalType": "address",
          "name": "addr",
          "type": "address"
        }
      ],
      "name": "transferOwnership",
      "outputs": [],
      "stateMutability": "nonpayable",
      "type": "function"
    },
    {
      "inputs": [],
      "name": "transferOwnershipToTokenOwner",
      "outputs": [],
      "stateMutability": "nonpayable",
      "type": "function"
    },
    {
      "inputs": [],
      "name": "walletType",
      "outputs": [
        {
          "internalType": "bytes",
          "name": "",
          "type": "bytes"
        }
      ],
      "stateMutability": "view",
      "type": "function"
    },
    {
      "inputs": [],
      "name": "withdraw",
      "outputs": [],
      "stateMutability": "nonpayable",
      "type": "function"
    }
  ],
  "transactionHash": "0xf6b94a488d27b528516e712ff8c88c5d304c55238ca5f6200e300eb51678ab5c",
  "args": [
    0,
    "0xBC8462CACd98d63252eC82ff666800DceB8C9815",
    "0x860E243d2E5D100ac6F21a336599cd2bA728BB34"
  ],
  "numDeployments": 1,
  "solcInputHash": "c554005d846e5256cfd947c8d0a331d2",
  "bytecode": "0x60c0604052600d60808190526c36bab63a34a932b1b2b4bb32b960991b60a0908152620000309160039190620000dc565b503480156200003e57600080fd5b50604051620013993803806200139983398101604081905262000061916200019f565b60008054336001600160a01b0319918216811783558252600260205260408220805460ff19166001908117909155829055600480546001600160c01b031916600160a01b63ffffffff97909716969096028216959095176001600160a01b039485161790945560055560068054909316911617905562000230565b828054620000ea90620001f3565b90600052602060002090601f0160209004810192826200010e576000855562000159565b82601f106200012957805160ff191683800117855562000159565b8280016001018555821562000159579182015b82811115620001595782518255916020019190600101906200013c565b50620001679291506200016b565b5090565b5b808211156200016757600081556001016200016c565b80516001600160a01b03811681146200019a57600080fd5b919050565b600080600060608486031215620001b557600080fd5b835163ffffffff81168114620001ca57600080fd5b9250620001da6020850162000182565b9150620001ea6040850162000182565b90509250925092565b600181811c908216806200020857607f821691505b602082108114156200022a57634e487b7160e01b600052602260045260246000fd5b50919050565b61115980620002406000396000f3fe6080604052600436106100d85760003560e01c80629a9b7b146100dd57806310a8c7a91461011b57806312065fe01461013d578063150b7a021461015b57806331ed86d2146101945780633ccfd60b146101b45780635b648b0a146101c957806388782c9c146101eb5780639c2459f414610200578063bca6ce641461022d578063beabacc81461024d578063d0e30db01461026d578063d15d415014610275578063d49a2a7c146102a5578063d5f39488146102cb578063d8b964e6146102eb578063f2fde38b1461031b578063fe684c0e1461033b575b600080fd5b3480156100e957600080fd5b5060045461010190600160a01b900463ffffffff1681565b60405163ffffffff90911681526020015b60405180910390f35b34801561012757600080fd5b5061013b610136366004610d09565b61035b565b005b34801561014957600080fd5b50600554604051908152602001610112565b34801561016757600080fd5b5061017b610176366004610dcd565b6103fb565b6040516001600160e01b03199091168152602001610112565b3480156101a057600080fd5b5061013b6101af366004610d09565b6104e3565b3480156101c057600080fd5b5061013b610576565b3480156101d557600080fd5b506101de610682565b6040516101129190610ec7565b3480156101f757600080fd5b5061013b610710565b34801561020c57600080fd5b50600654610220906001600160a01b031681565b6040516101129190610ee1565b34801561023957600080fd5b50600454610220906001600160a01b031681565b34801561025957600080fd5b5061013b610268366004610ef5565b610896565b61013b6109d6565b34801561028157600080fd5b50610295610290366004610f36565b610a3d565b6040519015158152602001610112565b3480156102b157600080fd5b506102ba610a78565b604051610112959493929190610f53565b3480156102d757600080fd5b50600054610220906001600160a01b031681565b3480156102f757600080fd5b50610295610306366004610f36565b60026020526000908152604090205460ff1681565b34801561032757600080fd5b5061013b610336366004610f36565b610b4c565b34801561034757600080fd5b5061013b610356366004610faf565b610bec565b6000546001600160a01b0316331461038e5760405162461bcd60e51b815260040161038590610fe8565b60405180910390fd5b805161039957600080fd5b60005b81518110156103f7576001600260008484815181106103bd576103bd61100e565b6020908102919091018101516001600160a01b03168252810191909152604001600020805460ff191691151591909117905560010161039c565b5050565b600654604051632d3fd24760e21b81526000916001600160a01b03169063b4ff491c9061042c903390600401610ee1565b602060405180830381865afa158015610449573d6000803e3d6000fd5b505050506040513d601f19601f8201168201806040525081019061046d9190611024565b6104d15760405162461bcd60e51b815260206004820152602f60248201527f746869732077616c6c65742063616e206f6e6c7920726563656976652066726f60448201526e3690309036bab63a34a6b4b73a32b960891b6064820152608401610385565b50630a85bd0160e11b95945050505050565b6000546001600160a01b0316331461050d5760405162461bcd60e51b815260040161038590610fe8565b805161051857600080fd5b60005b81518110156103f75760006002600084848151811061053c5761053c61100e565b6020908102919091018101516001600160a01b03168252810191909152604001600020805460ff191691151591909117905560010161051b565b60018060008282546105889190611041565b90915550506001546000546001600160a01b03163314806105b857503360009081526002602052604090205460ff165b6105d45760405162461bcd60e51b815260040161038590611067565b60058054600091829055815460405191926001600160a01b039091169183156108fc0291849190818181858888f19350505050158015610618573d6000803e3d6000fd5b5060055460405133917ff279e6a1f5e320cca91135676d9cb6e44ca8a08c0b88342bcdb1144f6511b5689161065591478252602082015260400190565b60405180910390a250600154811461067f5760405162461bcd60e51b81526004016103859061108d565b50565b6003805461068f906110af565b80601f01602080910402602001604051908101604052809291908181526020018280546106bb906110af565b80156107085780601f106106dd57610100808354040283529160200191610708565b820191906000526020600020905b8154815290600101906020018083116106eb57829003601f168201915b505050505081565b60018060008282546107229190611041565b9091555050600154600480546040516331a9108f60e11b8152600160a01b820463ffffffff16928101929092526000916001600160a01b0390911690636352211e90602401602060405180830381865afa158015610784573d6000803e3d6000fd5b505050506040513d601f19601f820116820180604052508101906107a891906110ea565b6000549091506001600160a01b03808316911614156108145760405162461bcd60e51b815260206004820152602260248201527f6f776e6572206f662074686520746f6b656e20697320746865206465706c6f7960448201526132b960f11b6064820152608401610385565b336001600160a01b0382161461086b5760405162461bcd60e51b815260206004820152601c60248201527b39b2b73232b91036bab9ba103132903a3432903732bb9037bbb732b960211b6044820152606401610385565b61087481610b4c565b50600154811461067f5760405162461bcd60e51b81526004016103859061108d565b6000546001600160a01b03163314806108be57503360009081526002602052604090205460ff165b6108da5760405162461bcd60e51b815260040161038590611067565b6040513060248201526001600160a01b038381166044830152606482018390526000918291861690829060840160408051601f198184030181529181526020820180516001600160e01b03166317d5759960e31b1790525161093c9190611107565b60006040518083038185875af1925050503d8060008114610979576040519150601f19603f3d011682016040523d82523d6000602084013e61097e565b606091505b5091509150816109cf5780516109c65760405162461bcd60e51b815260206004820152600d60248201526c18d85b1b081c995d995c9d1959609a1b6044820152606401610385565b80518082602001fd5b5050505050565b60018060008282546109e89190611041565b909155505060015434806005546109ff9190611041565b600581905560405133917f90890809c654f11d6e72a28fa60149770a0d11ec6c92319d6ceb2bb0a4ea1a159161065591858252602082015260400190565b600080546001600160a01b0383811691161480610a7257506001600160a01b03821660009081526002602052604090205460ff165b92915050565b600080546004546003805484938493606093859330936001600160a01b031692600160a01b900463ffffffff1691906335268a9f60e21b908290610abb906110af565b80601f0160208091040260200160405190810160405280929190818152602001828054610ae7906110af565b8015610b345780601f10610b0957610100808354040283529160200191610b34565b820191906000526020600020905b815481529060010190602001808311610b1757829003601f168201915b50505050509150945094509450945094509091929394565b6000546001600160a01b03163314610b765760405162461bcd60e51b815260040161038590610fe8565b600080546001600160a01b03908116825260026020526040808320805460ff1990811690915583546001600160a01b03191692851692831784558284528184208054909116600117905551909133917f93091b3f3cd424efabc74e181f3799f3476ed758412561ed3b29515c51f567529190a350565b6000546001600160a01b03163314610c165760405162461bcd60e51b815260040161038590610fe8565b6000546001600160a01b0383811691161415610c6d5760405162461bcd60e51b815260206004820152601660248201527531b0b73737ba1036b7b234b33c903232b83637bcb2b960511b6044820152606401610385565b6001600160a01b038216600081815260026020908152604091829020805460ff1916851515908117909155915191825233917ff38de818d000d07d091732dd783c6855722d7bc1934d92b7635133289d341695910160405180910390a35050565b634e487b7160e01b600052604160045260246000fd5b6001600160a01b038116811461067f57600080fd5b8035610d0481610ce4565b919050565b60006020808385031215610d1c57600080fd5b82356001600160401b0380821115610d3357600080fd5b818501915085601f830112610d4757600080fd5b813581811115610d5957610d59610cce565b8060051b604051601f19603f83011681018181108582111715610d7e57610d7e610cce565b604052918252848201925083810185019188831115610d9c57600080fd5b938501935b82851015610dc157610db285610cf9565b84529385019392850192610da1565b98975050505050505050565b600080600080600060808688031215610de557600080fd5b8535610df081610ce4565b94506020860135610e0081610ce4565b93506040860135925060608601356001600160401b0380821115610e2357600080fd5b818801915088601f830112610e3757600080fd5b813581811115610e4657600080fd5b896020828501011115610e5857600080fd5b9699959850939650602001949392505050565b60005b83811015610e86578181015183820152602001610e6e565b83811115610e95576000848401525b50505050565b60008151808452610eb3816020860160208601610e6b565b601f01601f19169290920160200192915050565b602081526000610eda6020830184610e9b565b9392505050565b6001600160a01b0391909116815260200190565b600080600060608486031215610f0a57600080fd5b8335610f1581610ce4565b92506020840135610f2581610ce4565b929592945050506040919091013590565b600060208284031215610f4857600080fd5b8135610eda81610ce4565b6001600160a01b038681168252851660208201526040810184905260a060608201819052600090610f8690830185610e9b565b905063ffffffff60e01b831660808301529695505050505050565b801515811461067f57600080fd5b60008060408385031215610fc257600080fd5b8235610fcd81610ce4565b91506020830135610fdd81610fa1565b809150509250929050565b6020808252600c908201526b3737ba103232b83637bcb2b960a11b604082015260600190565b634e487b7160e01b600052603260045260246000fd5b60006020828403121561103657600080fd5b8151610eda81610fa1565b6000821982111561106257634e487b7160e01b600052601160045260246000fd5b500190565b6020808252600c908201526b1b9bdd08185c1c1c9bdd995960a21b604082015260600190565b60208082526008908201526772652d656e74727960c01b604082015260600190565b600181811c908216806110c357607f821691505b602082108114156110e457634e487b7160e01b600052602260045260246000fd5b50919050565b6000602082840312156110fc57600080fd5b8151610eda81610ce4565b60008251611119818460208701610e6b565b919091019291505056fea2646970667358221220f0041708dd272535da324f14580450479ecfdc3862fc87c486c7fab4966f9cc464736f6c634300080c0033",
  "devdoc": {
    "kind": "dev",
    "methods": {
      "constructor": {
        "details": "makes the owner field the owner of the contract not the deployer.",
        "params": {
          "erc721Destination": "the main ERC721 contract",
          "tokenId": "the tokenId from the main ERC721 contract"
        }
      }
    },
    "version": 1
  },
  "userdoc": {
    "events": {
      "Deposit(address,uint256,uint256)": {
        "notice": "Fired when a deposit is made"
      },
      "Withdraw(address,uint256,uint256)": {
        "notice": "Fired with a withdraw is made"
      }
    },
    "kind": "user",
    "methods": {
      "constructor": {
        "notice": "Creates new wallet contract, tokenId refers to the ERC721 contract this wallet was spawned from."
      },
      "currentTokenId()": {
        "notice": "the main ERC721 contract this wallet is attached too"
      },
      "deposit()": {
        "notice": "Allows anyone to deposit ERC20 into this wallet."
      },
      "erc721()": {
        "notice": "the location of the main ERC721 contract this wallet was spawned from;"
      },
      "getBalance()": {
        "notice": "Returns the balance of the wallet"
      },
      "getIntegrity()": {
        "notice": "used by InfinityMintLinker to verify this contract is the one it says"
      },
      "multiMinterOracle()": {
        "notice": "the interface for the MultiMinterOracle"
      },
      "onERC721Received(address,address,uint256,bytes)": {
        "notice": "Opts in this contract to receipt ERC721 only if that ERC721 is a multiMinter"
      },
      "transferOwnershipToTokenOwner()": {
        "notice": "This can be called by the new token owner at any time and it will match the current owner of the contract to the tokenId, in all cases the wallet will still be attached to the owner of the tokenId and when its not it will simply move over permissions of the contract to the new owner"
      },
      "walletType()": {
        "notice": "the version type of wallet this is"
      },
      "withdraw()": {
        "notice": "Allows you to withdraw"
      }
    },
    "version": 1
  },
  "storageLayout": {
    "storage": [
      {
        "astId": 458,
        "contract": "contracts/__mods/MultiReceiver.sol:Mod_MultiReceiver",
        "label": "deployer",
        "offset": 0,
        "slot": "0",
        "type": "t_address"
      },
      {
        "astId": 461,
        "contract": "contracts/__mods/MultiReceiver.sol:Mod_MultiReceiver",
        "label": "executionCount",
        "offset": 0,
        "slot": "1",
        "type": "t_uint256"
      },
      {
        "astId": 465,
        "contract": "contracts/__mods/MultiReceiver.sol:Mod_MultiReceiver",
        "label": "approved",
        "offset": 0,
        "slot": "2",
        "type": "t_mapping(t_address,t_bool)"
      },
      {
        "astId": 9863,
        "contract": "contracts/__mods/MultiReceiver.sol:Mod_MultiReceiver",
        "label": "walletType",
        "offset": 0,
        "slot": "3",
        "type": "t_bytes_storage"
      },
      {
        "astId": 9866,
        "contract": "contracts/__mods/MultiReceiver.sol:Mod_MultiReceiver",
        "label": "erc721",
        "offset": 0,
        "slot": "4",
        "type": "t_address"
      },
      {
        "astId": 9869,
        "contract": "contracts/__mods/MultiReceiver.sol:Mod_MultiReceiver",
        "label": "currentTokenId",
        "offset": 20,
        "slot": "4",
        "type": "t_uint32"
      },
      {
        "astId": 9872,
        "contract": "contracts/__mods/MultiReceiver.sol:Mod_MultiReceiver",
        "label": "walletValue",
        "offset": 0,
        "slot": "5",
        "type": "t_uint256"
      },
      {
        "astId": 9876,
        "contract": "contracts/__mods/MultiReceiver.sol:Mod_MultiReceiver",
        "label": "multiMinterOracle",
        "offset": 0,
        "slot": "6",
        "type": "t_contract(Mod_MultiMinterOracle)9844"
      }
    ],
    "types": {
      "t_address": {
        "encoding": "inplace",
        "label": "address",
        "numberOfBytes": "20"
      },
      "t_bool": {
        "encoding": "inplace",
        "label": "bool",
        "numberOfBytes": "1"
      },
      "t_bytes_storage": {
        "encoding": "bytes",
        "label": "bytes",
        "numberOfBytes": "32"
      },
      "t_contract(Mod_MultiMinterOracle)9844": {
        "encoding": "inplace",
        "label": "contract Mod_MultiMinterOracle",
        "numberOfBytes": "20"
      },
      "t_mapping(t_address,t_bool)": {
        "encoding": "mapping",
        "key": "t_address",
        "label": "mapping(address => bool)",
        "numberOfBytes": "32",
        "value": "t_bool"
      },
      "t_uint256": {
        "encoding": "inplace",
        "label": "uint256",
        "numberOfBytes": "32"
      },
      "t_uint32": {
        "encoding": "inplace",
        "label": "uint32",
        "numberOfBytes": "4"
      }
    }
  }
}