{
  "address": "0x02e7954cAAAE15b80d9237abc9780081b4B3Eb28",
  "abi": [
    {
      "inputs": [
        {
          "internalType": "address",
          "name": "_storageDestination",
          "type": "address"
        },
        {
          "internalType": "address",
          "name": "erc721Destination",
          "type": "address"
        }
      ],
      "stateMutability": "nonpayable",
      "type": "constructor"
    },
    {
      "anonymous": false,
      "inputs": [
        {
          "indexed": true,
          "internalType": "address",
          "name": "sender",
          "type": "address"
        },
        {
          "indexed": true,
          "internalType": "address",
          "name": "changee",
          "type": "address"
        },
        {
          "indexed": false,
          "internalType": "bool",
          "name": "value",
          "type": "bool"
        }
      ],
      "name": "PermissionChange",
      "type": "event"
    },
    {
      "anonymous": false,
      "inputs": [
        {
          "indexed": true,
          "internalType": "address",
          "name": "from",
          "type": "address"
        },
        {
          "indexed": true,
          "internalType": "address",
          "name": "to",
          "type": "address"
        }
      ],
      "name": "TransferedOwnership",
      "type": "event"
    },
    {
      "inputs": [
        {
          "internalType": "uint256",
          "name": "index",
          "type": "uint256"
        },
        {
          "internalType": "string",
          "name": "key",
          "type": "string"
        },
        {
          "internalType": "bytes",
          "name": "versionType",
          "type": "bytes"
        },
        {
          "internalType": "bool",
          "name": "isErc721",
          "type": "bool"
        },
        {
          "internalType": "bool",
          "name": "verifyIntegrity",
          "type": "bool"
        },
        {
          "internalType": "bool",
          "name": "forcedOnly",
          "type": "bool"
        },
        {
          "internalType": "bool",
          "name": "permanent",
          "type": "bool"
        }
      ],
      "name": "addSupport",
      "outputs": [],
      "stateMutability": "nonpayable",
      "type": "function"
    },
    {
      "inputs": [
        {
          "internalType": "address",
          "name": "",
          "type": "address"
        }
      ],
      "name": "approved",
      "outputs": [
        {
          "internalType": "bool",
          "name": "",
          "type": "bool"
        }
      ],
      "stateMutability": "view",
      "type": "function"
    },
    {
      "inputs": [
        {
          "internalType": "string",
          "name": "keyToChange",
          "type": "string"
        },
        {
          "internalType": "string",
          "name": "key",
          "type": "string"
        }
      ],
      "name": "changeLinkKey",
      "outputs": [],
      "stateMutability": "nonpayable",
      "type": "function"
    },
    {
      "inputs": [],
      "name": "clearLinks",
      "outputs": [],
      "stateMutability": "nonpayable",
      "type": "function"
    },
    {
      "inputs": [],
      "name": "deployer",
      "outputs": [
        {
          "internalType": "address",
          "name": "",
          "type": "address"
        }
      ],
      "stateMutability": "view",
      "type": "function"
    },
    {
      "inputs": [],
      "name": "erc721Location",
      "outputs": [
        {
          "internalType": "address",
          "name": "",
          "type": "address"
        }
      ],
      "stateMutability": "view",
      "type": "function"
    },
    {
      "inputs": [
        {
          "internalType": "uint256",
          "name": "tokenId",
          "type": "uint256"
        },
        {
          "internalType": "string",
          "name": "key",
          "type": "string"
        },
        {
          "internalType": "address",
          "name": "destination",
          "type": "address"
        }
      ],
      "name": "forceLink",
      "outputs": [],
      "stateMutability": "nonpayable",
      "type": "function"
    },
    {
      "inputs": [
        {
          "internalType": "uint256",
          "name": "index",
          "type": "uint256"
        }
      ],
      "name": "getLink",
      "outputs": [
        {
          "components": [
            {
              "internalType": "uint256",
              "name": "index",
              "type": "uint256"
            },
            {
              "internalType": "bytes",
              "name": "versionType",
              "type": "bytes"
            },
            {
              "internalType": "bytes4",
              "name": "interfaceId",
              "type": "bytes4"
            },
            {
              "internalType": "string",
              "name": "key",
              "type": "string"
            },
            {
              "internalType": "bool",
              "name": "erc721",
              "type": "bool"
            },
            {
              "internalType": "bool",
              "name": "verifyIntegrity",
              "type": "bool"
            },
            {
              "internalType": "bool",
              "name": "forcedOnly",
              "type": "bool"
            },
            {
              "internalType": "bool",
              "name": "permanent",
              "type": "bool"
            },
            {
              "internalType": "bool",
              "name": "active",
              "type": "bool"
            }
          ],
          "internalType": "struct InfinityMintLinker.Link",
          "name": "",
          "type": "tuple"
        }
      ],
      "stateMutability": "view",
      "type": "function"
    },
    {
      "inputs": [
        {
          "internalType": "string",
          "name": "key",
          "type": "string"
        }
      ],
      "name": "getLinkByKey",
      "outputs": [
        {
          "components": [
            {
              "internalType": "uint256",
              "name": "index",
              "type": "uint256"
            },
            {
              "internalType": "bytes",
              "name": "versionType",
              "type": "bytes"
            },
            {
              "internalType": "bytes4",
              "name": "interfaceId",
              "type": "bytes4"
            },
            {
              "internalType": "string",
              "name": "key",
              "type": "string"
            },
            {
              "internalType": "bool",
              "name": "erc721",
              "type": "bool"
            },
            {
              "internalType": "bool",
              "name": "verifyIntegrity",
              "type": "bool"
            },
            {
              "internalType": "bool",
              "name": "forcedOnly",
              "type": "bool"
            },
            {
              "internalType": "bool",
              "name": "permanent",
              "type": "bool"
            },
            {
              "internalType": "bool",
              "name": "active",
              "type": "bool"
            }
          ],
          "internalType": "struct InfinityMintLinker.Link",
          "name": "",
          "type": "tuple"
        }
      ],
      "stateMutability": "view",
      "type": "function"
    },
    {
      "inputs": [
        {
          "internalType": "address",
          "name": "addr",
          "type": "address"
        }
      ],
      "name": "isAuthenticated",
      "outputs": [
        {
          "internalType": "bool",
          "name": "",
          "type": "bool"
        }
      ],
      "stateMutability": "view",
      "type": "function"
    },
    {
      "inputs": [
        {
          "internalType": "address[]",
          "name": "addrs",
          "type": "address[]"
        }
      ],
      "name": "multiApprove",
      "outputs": [],
      "stateMutability": "nonpayable",
      "type": "function"
    },
    {
      "inputs": [
        {
          "internalType": "address[]",
          "name": "addrs",
          "type": "address[]"
        }
      ],
      "name": "multiRevoke",
      "outputs": [],
      "stateMutability": "nonpayable",
      "type": "function"
    },
    {
      "inputs": [
        {
          "internalType": "uint256",
          "name": "tokenId",
          "type": "uint256"
        },
        {
          "internalType": "string",
          "name": "key",
          "type": "string"
        },
        {
          "internalType": "address",
          "name": "destination",
          "type": "address"
        }
      ],
      "name": "setLink",
      "outputs": [],
      "stateMutability": "nonpayable",
      "type": "function"
    },
    {
      "inputs": [
        {
          "internalType": "address",
          "name": "addr",
          "type": "address"
        },
        {
          "internalType": "bool",
          "name": "value",
          "type": "bool"
        }
      ],
      "name": "setPrivilages",
      "outputs": [],
      "stateMutability": "nonpayable",
      "type": "function"
    },
    {
      "inputs": [
        {
          "internalType": "uint256",
          "name": "index",
          "type": "uint256"
        }
      ],
      "name": "toggleSupport",
      "outputs": [],
      "stateMutability": "nonpayable",
      "type": "function"
    },
    {
      "inputs": [
        {
          "internalType": "address",
          "name": "addr",
          "type": "address"
        }
      ],
      "name": "transferOwnership",
      "outputs": [],
      "stateMutability": "nonpayable",
      "type": "function"
    },
    {
      "inputs": [
        {
          "internalType": "uint256",
          "name": "tokenId",
          "type": "uint256"
        },
        {
          "internalType": "string",
          "name": "key",
          "type": "string"
        }
      ],
      "name": "unlink",
      "outputs": [],
      "stateMutability": "nonpayable",
      "type": "function"
    }
  ],
  "transactionHash": "0x7f8971eed38c900b05105d0423071c76b97bd049dead780eedf190ccac2bcb6f",
  "args": [
    "0xA32D3A516007b0Cf7590B8169Dc9c30E3ab48cBb",
    "0x34dc015eC06596218C951B2CB3CE7D3Cf0cA9DA1"
  ],
  "numDeployments": 1,
  "solcInputHash": "d376dbecb72767ee793a0467b60033fb",
  "bytecode": "0x608060405260006006553480156200001657600080fd5b5060405162002e9738038062002e978339810160408190526200003991620000b0565b60008054336001600160a01b0319918216811783558252600260205260408220805460ff19166001908117909155919091556004805482166001600160a01b039485161790556003805490911691909216179055620000e8565b80516001600160a01b0381168114620000ab57600080fd5b919050565b60008060408385031215620000c457600080fd5b620000cf8362000093565b9150620000df6020840162000093565b90509250929050565b612d9f80620000f86000396000f3fe608060405234801561001057600080fd5b50600436106100db5760003560e01c806310a8c7a9146100e057806313e7f9e7146100f557806314e62d8b1461011e57806314ea079d146101315780632a8624ed146101445780632f9fe8cf1461016f57806331ed86d214610182578063393b6df31461019557806375ca64fe146101a85780639e952267146101b0578063bbdc2e65146101c3578063d15d4150146101d6578063d25146b0146101f9578063d5f394881461020c578063d8b964e61461021f578063f2fde38b14610242578063fe684c0e14610255575b600080fd5b6100f36100ee366004612162565b610268565b005b610108610103366004612248565b610308565b60405161011591906122e1565b60405180910390f35b6100f361012c36600461243b565b610323565b6100f361013f366004612501565b61057a565b600354610157906001600160a01b031681565b6040516001600160a01b039091168152602001610115565b6100f361017d36600461251a565b610637565b6100f3610190366004612162565b610830565b6101086101a3366004612501565b6108c3565b6100f3610ae7565b6100f36101be366004612585565b610b6c565b6100f36101d13660046125d0565b610f66565b6101e96101e436600461262e565b610f9e565b6040519015158152602001610115565b6100f36102073660046125d0565b610fd5565b600054610157906001600160a01b031681565b6101e961022d36600461262e565b60026020526000908152604090205460ff1681565b6100f361025036600461262e565b61134b565b6100f3610263366004612652565b6113eb565b6000546001600160a01b0316331461029b5760405162461bcd60e51b81526004016102929061268b565b60405180910390fd5b80516102a657600080fd5b60005b8151811015610304576001600260008484815181106102ca576102ca6126b1565b6020908102919091018101516001600160a01b03168252810191909152604001600020805460ff19169115159190911790556001016102a9565b5050565b610310611fd1565b61031a83836114cd565b90505b92915050565b6000546001600160a01b031633148061034b57503360009081526002602052604090205460ff165b6103675760405162461bcd60e51b8152600401610292906126c7565b602087106103c35760405162461bcd60e51b815260206004820152602360248201527f63616e206f6e6c7920686176652061206d6178696d756d20696e646578206f6660448201526210199960e91b6064820152608401610292565b600087815260056020526040902060040154600160201b900460ff1615156001141561042c5760405162461bcd60e51b81526020600482015260186024820152771b1a5b9ac8185b1c9958591e48195cdd18589b1a5cda195960421b6044820152606401610292565b604080516101208101825288815260208082018881526335268a9f60e21b83850152606083018a9052871515608084015286151560a084015285151560c084015284151560e08401526001610100840181905260008c815260058452949094208351815590518051939491936104aa9392850192919091019061201f565b50604082015160028201805463ffffffff191660e09290921c919091179055606082015180516104e491600384019160209091019061201f565b506080820151600491909101805460a084015160c085015160e08601516101009687015161ffff1990941695151561ff001916959095179115159095021763ffff00001916620100009415159490940263ff0000001916939093176301000000921515929092029190911760ff60201b1916600160201b9215159290920291909117905550506006805460010190555050505050565b6000546001600160a01b03163314806105a257503360009081526002602052604090205460ff165b6105be5760405162461bcd60e51b8152600401610292906126c7565b600081815260056020526040902060030180546105da906126ed565b151590506106195760405162461bcd60e51b815260206004820152600c60248201526b696e76616c6964206c696e6b60a01b6044820152606401610292565b6000908152600560205260409020600401805460ff60201b19169055565b6000546001600160a01b031633148061065f57503360009081526002602052604090205460ff165b61067b5760405162461bcd60e51b8152600401610292906126c7565b600061068785856114cd565b90506106938383611817565b156107015760405162461bcd60e51b815260206004820152603860248201527f63616e6e6f74206368616e6765206b657920746f2074686174206b65792061736044820152772074686174206b657920616c72656164792065786973747360401b6064820152608401610292565b82828080601f016020809104026020016040519081016040528093929190818152602001838380828437600092018290525060608601949094525050825182525060056020908152604090912082518155818301518051849361076b92600185019291019061201f565b50604082015160028201805463ffffffff191660e09290921c919091179055606082015180516107a591600384019160209091019061201f565b506080820151600491909101805460a084015160c085015160e08601516101009687015161ffff1990941695151561ff001916959095179115159095021763ffff00001916620100009415159490940263ff0000001916939093176301000000921515929092029190911760ff60201b1916600160201b921515929092029190911790555050505050565b6000546001600160a01b0316331461085a5760405162461bcd60e51b81526004016102929061268b565b805161086557600080fd5b60005b815181101561030457600060026000848481518110610889576108896126b1565b6020908102919091018101516001600160a01b03168252810191909152604001600020805460ff1916911515919091179055600101610868565b6108cb611fd1565b600082815260056020526040902060030180546108e7906126ed565b151590506109295760405162461bcd60e51b815260206004820152600f60248201526e1b1a5b9ac81a5cc81a5b9d985b1a59608a1b6044820152606401610292565b600560008381526020019081526020016000206040518061012001604052908160008201548152602001600182018054610962906126ed565b80601f016020809104026020016040519081016040528092919081815260200182805461098e906126ed565b80156109db5780601f106109b0576101008083540402835291602001916109db565b820191906000526020600020905b8154815290600101906020018083116109be57829003601f168201915b5050509183525050600282015460e01b6001600160e01b0319166020820152600382018054604090920191610a0f906126ed565b80601f0160208091040260200160405190810160405280929190818152602001828054610a3b906126ed565b8015610a885780601f10610a5d57610100808354040283529160200191610a88565b820191906000526020600020905b815481529060010190602001808311610a6b57829003601f168201915b50505091835250506004919091015460ff80821615156020840152610100820481161515604084015262010000820481161515606084015263010000008204811615156080840152600160201b90910416151560a09091015292915050565b6000546001600160a01b03163314610b115760405162461bcd60e51b81526004016102929061268b565b60005b600654811015610b6457600081815260056020526040902060040154600160201b900460ff1615610b5c576000818152600560205260409020600401805460ff60201b191690555b600101610b14565b506000600655565b610b763384611963565b610b925760405162461bcd60e51b815260040161029290612728565b6000610b9e83836114cd565b60048054604051636c51371d60e11b815263ffffffff8816928101929092529192506000916001600160a01b03169063d8a26e3a90602401600060405180830381865afa158015610bf3573d6000803e3d6000fd5b505050506040513d6000823e601f3d908101601f19168201604052610c1b919081019061291f565b90508160e001511515600115151415610c735760405162461bcd60e51b815260206004820152601a6024820152791b1a5b9ac818d85b881b995d995c881899481d5b9b1a5b9ad95960321b6044820152606401610292565b60c0820151151560011415610ce45760405162461bcd60e51b815260206004820152603160248201527f6c696e6b206d757374206265206d616e61676564207468726f75676820616e20604482015270195e1d195c9b985b0818dbdb9d1c9858dd607a1b6064820152608401610292565b8151151580610d7e5750600480546040805163db8b7da360e01b81529283018890526024830152600f60448301526e063616e556e6c696e6b496e6465783608c1b60648301526001600160a01b03169063db8b7da390608401602060405180830381865afa158015610d5a573d6000803e3d6000fd5b505050506040513d601f19601f82011682018060405250810190610d7e9190612a64565b610dda5760405162461bcd60e51b815260206004820152602760248201527f696e64657820302063616e6e6f7420626520756e6c696e6b656420617420746860448201526669732074696d6560c81b6064820152608401610292565b81516001141580610e765750600480546040805163db8b7da360e01b81529283018890526024830152600f60448301526e63616e556e6c696e6b496e6465783160881b60648301526001600160a01b03169063db8b7da390608401602060405180830381865afa158015610e52573d6000803e3d6000fd5b505050506040513d601f19601f82011682018060405250810190610e769190612a64565b610ed25760405162461bcd60e51b815260206004820152602760248201527f696e64657820312063616e6e6f7420626520756e6c696e6b656420617420746860448201526669732074696d6560c81b6064820152608401610292565b6000816101000151836000015181518110610eef57610eef6126b1565b6001600160a01b0392831660209182029290920101526004805460405163c28cf06160e01b815292169163c28cf06191610f2d918991869101612b50565b600060405180830381600087803b158015610f4757600080fd5b505af1158015610f5b573d6000803e3d6000fd5b505050505050505050565b610f703385611963565b610f8c5760405162461bcd60e51b815260040161029290612728565b610f9884848484611a89565b50505050565b600080546001600160a01b038381169116148061031d5750506001600160a01b031660009081526002602052604090205460ff1690565b6000546001600160a01b0316331480610ffd57503360009081526002602052604090205460ff165b6110195760405162461bcd60e51b8152600401610292906126c7565b600061102584846114cd565b60048054604051636c51371d60e11b815263ffffffff8916928101929092529192506000916001600160a01b03169063d8a26e3a90602401600060405180830381865afa15801561107a573d6000803e3d6000fd5b505050506040513d6000823e601f3d908101601f191682016040526110a2919081019061291f565b905080610100015151600014156111445781516110c0906001612c69565b6001600160401b038111156110d7576110d76120b8565b604051908082528060200260200182016040528015611100578160200160208202803683370190505b5061010082018190528251815185929190811061111f5761111f6126b1565b60200260200101906001600160a01b031690816001600160a01b0316815250506112e0565b610100810151518251106112a3578151600090611162906001612c69565b6001600160401b03811115611179576111796120b8565b6040519080825280602002602001820160405280156111a2578160200160208202803683370190505b50905060005b81518110156112975783518114156111f257848282815181106111cd576111cd6126b1565b60200260200101906001600160a01b031690816001600160a01b03168152505061128f565b8261010001515181108015611238575060006001600160a01b03168361010001518281518110611224576112246126b1565b60200260200101516001600160a01b031614155b1561128f578261010001518181518110611254576112546126b1565b602002602001015182828151811061126e5761126e6126b1565b60200260200101906001600160a01b031690816001600160a01b0316815250505b6001016111a8565b506101008201526112e0565b828161010001518360000151815181106112bf576112bf6126b1565b60200260200101906001600160a01b031690816001600160a01b0316815250505b6004805460405163c28cf06160e01b81526001600160a01b039091169163c28cf06191611311918a91869101612b50565b600060405180830381600087803b15801561132b57600080fd5b505af115801561133f573d6000803e3d6000fd5b50505050505050505050565b6000546001600160a01b031633146113755760405162461bcd60e51b81526004016102929061268b565b600080546001600160a01b03908116825260026020526040808320805460ff1990811690915583546001600160a01b03191692851692831784558284528184208054909116600117905551909133917f93091b3f3cd424efabc74e181f3799f3476ed758412561ed3b29515c51f567529190a350565b6000546001600160a01b031633146114155760405162461bcd60e51b81526004016102929061268b565b6000546001600160a01b038381169116141561146c5760405162461bcd60e51b815260206004820152601660248201527531b0b73737ba1036b7b234b33c903232b83637bcb2b960511b6044820152606401610292565b6001600160a01b038216600081815260026020908152604091829020805460ff1916851515908117909155915191825233917ff38de818d000d07d091732dd783c6855722d7bc1934d92b7635133289d341695910160405180910390a35050565b6114d5611fd1565b816114f25760405162461bcd60e51b815260040161029290612c81565b6114fa611fd1565b6000805b6006548110156117d357600081815260056020526040902060030180546115e39190611529906126ed565b80601f0160208091040260200160405190810160405280929190818152602001828054611555906126ed565b80156115a25780601f10611577576101008083540402835291602001916115a2565b820191906000526020600020905b81548152906001019060200180831161158557829003601f168201915b505050505087878080601f016020809104026020016040519081016040528093929190818152602001838380828437600092019190915250611f2f92505050565b80156116075750600081815260056020526040902060040154600160201b900460ff165b156117cb5760019150600560008281526020019081526020016000206040518061012001604052908160008201548152602001600182018054611649906126ed565b80601f0160208091040260200160405190810160405280929190818152602001828054611675906126ed565b80156116c25780601f10611697576101008083540402835291602001916116c2565b820191906000526020600020905b8154815290600101906020018083116116a557829003601f168201915b5050509183525050600282015460e01b6001600160e01b03191660208201526003820180546040909201916116f6906126ed565b80601f0160208091040260200160405190810160405280929190818152602001828054611722906126ed565b801561176f5780601f106117445761010080835404028352916020019161176f565b820191906000526020600020905b81548152906001019060200180831161175257829003601f168201915b50505091835250506004919091015460ff80821615156020840152610100820481161515604084015262010000820481161515606084015263010000008204811615156080840152600160201b90910416151560a09091015292505b6001016114fe565b508061180f5760405162461bcd60e51b815260206004820152600b60248201526a1ad95e481a5b9d985b1a5960aa1b6044820152606401610292565b509392505050565b6000816118365760405162461bcd60e51b815260040161029290612c81565b60005b600654811015611959576000818152600560205260409020600301805461191e9190611864906126ed565b80601f0160208091040260200160405190810160405280929190818152602001828054611890906126ed565b80156118dd5780601f106118b2576101008083540402835291602001916118dd565b820191906000526020600020905b8154815290600101906020018083116118c057829003601f168201915b505050505085858080601f016020809104026020016040519081016040528093929190818152602001838380828437600092019190915250611f2f92505050565b80156119425750600081815260056020526040902060040154600160201b900460ff165b1561195157600191505061031d565b600101611839565b5060009392505050565b6003546040516001600160a01b03848116602483015260448201849052600092839283929091169060640160408051601f198184030181529181526020820180516001600160e01b031663430c208160e01b179052516119c39190612ca4565b600060405180830381855afa9150503d80600081146119fe576040519150601f19603f3d011682016040523d82523d6000602084013e611a03565b606091505b509150915081611a64578051611a5b5760405162461bcd60e51b815260206004820152601d60248201527f697320617070726f766564206f72206f776e65722072657665727465640000006044820152606401610292565b80518082602001fd5b600081806020019051810190611a7a9190612a64565b15156001149695505050505050565b6000611a9584846114cd565b60048054604051636c51371d60e11b815263ffffffff8916928101929092529192506000916001600160a01b03169063d8a26e3a90602401600060405180830381865afa158015611aea573d6000803e3d6000fd5b505050506040513d6000823e601f3d908101601f19168201604052611b12919081019061291f565b90508160c001511515600115151415611b675760405162461bcd60e51b815260206004820152601760248201527631b0b73737ba1031329039b2ba10313c903634b735b2b960491b6044820152606401610292565b6101008101515115611bfa57610100810151518251101580611bb457506101008101518251815160009291908110611ba157611ba16126b1565b60200260200101516001600160a01b0316145b611bfa5760405162461bcd60e51b815260206004820152601760248201527619195cdd1a5b985d1a5bdb88185b1c9958591e481cd95d604a1b6044820152606401610292565b8160a0015115611df6576000806000806000876001600160a01b031663d49a2a7c6040518163ffffffff1660e01b81526004016000604051808303816000875af1158015611c4c573d6000803e3d6000fd5b505050506040513d6000823e601f3d908101601f19168201604052611c749190810190612cc0565b94509450945094509450611c853390565b6001600160a01b0316846001600160a01b031614611cd25760405162461bcd60e51b815260206004820152600a60248201526906d69736d6174636820360b41b6044820152606401610292565b876001600160a01b0316856001600160a01b031614611d205760405162461bcd60e51b815260206004820152600a6024820152696d69736d61746368203160b01b6044820152606401610292565b828b14611d5c5760405162461bcd60e51b815260206004820152600a60248201526936b4b9b6b0ba31b4101960b11b6044820152606401610292565b611d6a828860200151611f2f565b611da35760405162461bcd60e51b815260206004820152600a6024820152696d69736d61746368203360b01b6044820152606401610292565b60408701516001600160e01b0319828116911614611df05760405162461bcd60e51b815260206004820152600a6024820152691b5a5cdb585d18da080d60b21b6044820152606401610292565b50505050505b61010081015151611e0e5781516110c0906001612c69565b610100810151518251611e22906001612c69565b106112a3578151600090611e37906001612c69565b6001600160401b03811115611e4e57611e4e6120b8565b604051908082528060200260200182016040528015611e77578160200160208202803683370190505b50905060005b8151811015611297578351811415611ec75784828281518110611ea257611ea26126b1565b60200260200101906001600160a01b031690816001600160a01b031681525050611f27565b82610100015151811015611f27578261010001518181518110611eec57611eec6126b1565b6020026020010151828281518110611f0657611f066126b1565b60200260200101906001600160a01b031690816001600160a01b0316815250505b600101611e7d565b8151815160009184918491908114611f4d576000935050505061031d565b60005b81811015611fc457828181518110611f6a57611f6a6126b1565b602001015160f81c60f81b6001600160f81b031916848281518110611f9157611f916126b1565b01602001516001600160f81b03191614611fb257600094505050505061031d565b80611fbc81612d4e565b915050611f50565b5060019695505050505050565b60408051610120810182526000808252606060208301819052928201819052828201929092526080810182905260a0810182905260c0810182905260e0810182905261010081019190915290565b82805461202b906126ed565b90600052602060002090601f01602090048101928261204d5760008555612093565b82601f1061206657805160ff1916838001178555612093565b82800160010185558215612093579182015b82811115612093578251825591602001919060010190612078565b5061209f9291506120a3565b5090565b5b8082111561209f57600081556001016120a4565b634e487b7160e01b600052604160045260246000fd5b60405161012081016001600160401b03811182821017156120f1576120f16120b8565b60405290565b604051601f8201601f191681016001600160401b038111828210171561211f5761211f6120b8565b604052919050565b60006001600160401b03821115612140576121406120b8565b5060051b60200190565b6001600160a01b038116811461215f57600080fd5b50565b6000602080838503121561217557600080fd5b82356001600160401b0381111561218b57600080fd5b8301601f8101851361219c57600080fd5b80356121af6121aa82612127565b6120f7565b81815260059190911b820183019083810190878311156121ce57600080fd5b928401925b828410156121f55783356121e68161214a565b825292840192908401906121d3565b979650505050505050565b60008083601f84011261221257600080fd5b5081356001600160401b0381111561222957600080fd5b60208301915083602082850101111561224157600080fd5b9250929050565b6000806020838503121561225b57600080fd5b82356001600160401b0381111561227157600080fd5b61227d85828601612200565b90969095509350505050565b60005b838110156122a457818101518382015260200161228c565b83811115610f985750506000910152565b600081518084526122cd816020860160208601612289565b601f01601f19169290920160200192915050565b60208152815160208201526000602083015161012080604085015261230a6101408501836122b5565b9150604085015161232760608601826001600160e01b0319169052565b506060850151848303601f1901608086015261234383826122b5565b925050608085015161235960a086018215159052565b5060a085015180151560c08601525060c085015180151560e08601525060e085015161010061238b8187018315159052565b90950151151593019290925250919050565b60006001600160401b038211156123b6576123b66120b8565b50601f01601f191660200190565b60006123d26121aa8461239d565b90508281528383830111156123e657600080fd5b828260208301376000602084830101529392505050565b600082601f83011261240e57600080fd5b61031a838335602085016123c4565b801515811461215f57600080fd5b80356124368161241d565b919050565b600080600080600080600060e0888a03121561245657600080fd5b8735965060208801356001600160401b038082111561247457600080fd5b818a0191508a601f83011261248857600080fd5b6124978b8335602085016123c4565b975060408a01359150808211156124ad57600080fd5b506124ba8a828b016123fd565b9550506124c96060890161242b565b93506124d76080890161242b565b92506124e560a0890161242b565b91506124f360c0890161242b565b905092959891949750929550565b60006020828403121561251357600080fd5b5035919050565b6000806000806040858703121561253057600080fd5b84356001600160401b038082111561254757600080fd5b61255388838901612200565b9096509450602087013591508082111561256c57600080fd5b5061257987828801612200565b95989497509550505050565b60008060006040848603121561259a57600080fd5b8335925060208401356001600160401b038111156125b757600080fd5b6125c386828701612200565b9497909650939450505050565b600080600080606085870312156125e657600080fd5b8435935060208501356001600160401b0381111561260357600080fd5b61260f87828801612200565b90945092505060408501356126238161214a565b939692955090935050565b60006020828403121561264057600080fd5b813561264b8161214a565b9392505050565b6000806040838503121561266557600080fd5b82356126708161214a565b915060208301356126808161241d565b809150509250929050565b6020808252600c908201526b3737ba103232b83637bcb2b960a11b604082015260600190565b634e487b7160e01b600052603260045260246000fd5b6020808252600c908201526b1b9bdd08185c1c1c9bdd995960a21b604082015260600190565b600181811c9082168061270157607f821691505b6020821081141561272257634e487b7160e01b600052602260045260246000fd5b50919050565b6020808252600990820152683737ba1037bbb732b960b91b604082015260600190565b805163ffffffff8116811461243657600080fd5b80516124368161214a565b600082601f83011261277b57600080fd5b8151602061278b6121aa83612127565b82815260059290921b840181019181810190868411156127aa57600080fd5b8286015b848110156127cc576127bf8161274b565b83529183019183016127ae565b509695505050505050565b60006127e56121aa8461239d565b90508281528383830111156127f957600080fd5b61264b836020830184612289565b600082601f83011261281857600080fd5b61031a838351602085016127d7565b600082601f83011261283857600080fd5b815160206128486121aa83612127565b82815260059290921b8401810191818101908684111561286757600080fd5b8286015b848110156127cc5780516001600160401b0381111561288a5760008081fd5b8701603f8101891361289c5760008081fd5b6128ad8986830151604084016127d7565b84525091830191830161286b565b600082601f8301126128cc57600080fd5b815160206128dc6121aa83612127565b82815260059290921b840181019181810190868411156128fb57600080fd5b8286015b848110156127cc5780516129128161214a565b83529183019183016128ff565b60006020828403121561293157600080fd5b81516001600160401b038082111561294857600080fd5b90830190610120828603121561295d57600080fd5b6129656120ce565b61296e8361274b565b815261297c6020840161274b565b602082015261298d6040840161274b565b604082015261299e6060840161275f565b60608201526080830151828111156129b557600080fd5b6129c18782860161276a565b60808301525060a0830151828111156129d957600080fd5b6129e587828601612807565b60a08301525060c0830151828111156129fd57600080fd5b612a098782860161276a565b60c08301525060e083015182811115612a2157600080fd5b612a2d87828601612827565b60e0830152506101008084015183811115612a4757600080fd5b612a53888287016128bb565b918301919091525095945050505050565b600060208284031215612a7657600080fd5b815161264b8161241d565b600081518084526020808501945080840160005b83811015612ab757815163ffffffff1687529582019590820190600101612a95565b509495945050505050565b600081518084526020808501808196508360051b8101915082860160005b85811015612b0a578284038952612af88483516122b5565b98850198935090840190600101612ae0565b5091979650505050505050565b600081518084526020808501945080840160005b83811015612ab75781516001600160a01b031687529582019590820190600101612b2b565b63ffffffff8316815260406020820152612b7360408201835163ffffffff169052565b60006020830151612b8c606084018263ffffffff169052565b50604083015163ffffffff811660808401525060608301516001600160a01b03811660a08401525060808301516101208060c0850152612bd0610160850183612a81565b915060a0850151603f19808685030160e0870152612bee84836122b5565b935060c08701519150610100818786030181880152612c0d8584612a81565b945060e08801519250818786030184880152612c298584612ac2565b94508088015193505080868503016101408701525050612c498282612b17565b9695505050505050565b634e487b7160e01b600052601160045260246000fd5b60008219821115612c7c57612c7c612c53565b500190565b602080825260099082015268626c616e6b206b657960b81b604082015260600190565b60008251612cb6818460208701612289565b9190910192915050565b600080600080600060a08688031215612cd857600080fd5b8551612ce38161214a565b6020870151909550612cf48161214a565b6040870151606088015191955093506001600160401b03811115612d1757600080fd5b612d2388828901612807565b925050608086015163ffffffff60e01b81168114612d4057600080fd5b809150509295509295909350565b6000600019821415612d6257612d62612c53565b506001019056fea26469706673582212207e6bdd21331d02ade63324e1f514cf406bb86f26a8497418bcabb8c52067426d64736f6c634300080c0033",
  "libraries": {
    "InfinityMintUtil": "0xe2A4755A9b489Fe957FCa6d8DD3Edb170a31921d"
  },
  "devdoc": {
    "author": "Llydia Cross",
    "details": "Allows content owners to add pre-validated links the user can add to their destinations field, contract creator sets links through build tools",
    "kind": "dev",
    "methods": {},
    "title": "InfinityMint Linker",
    "version": 1
  },
  "userdoc": {
    "kind": "user",
    "methods": {
      "clearLinks()": {
        "notice": "used by build tools to redeploy"
      },
      "erc721Location()": {
        "notice": "the location of the main ERC721 contract"
      },
      "forceLink(uint256,string,address)": {
        "notice": "Can be called by other contracts who are approved"
      },
      "setLink(uint256,string,address)": {
        "notice": "has to be called by token owner"
      },
      "toggleSupport(uint256)": {
        "notice": "disables this link from being used in the future"
      }
    },
    "notice": "Serves as a utility contract which manages the destinations field of an InfinityMint token",
    "version": 1
  },
  "storageLayout": {
    "storage": [
      {
        "astId": 458,
        "contract": "contracts/InfinityMintLinker.sol:InfinityMintLinker",
        "label": "deployer",
        "offset": 0,
        "slot": "0",
        "type": "t_address"
      },
      {
        "astId": 461,
        "contract": "contracts/InfinityMintLinker.sol:InfinityMintLinker",
        "label": "executionCount",
        "offset": 0,
        "slot": "1",
        "type": "t_uint256"
      },
      {
        "astId": 465,
        "contract": "contracts/InfinityMintLinker.sol:InfinityMintLinker",
        "label": "approved",
        "offset": 0,
        "slot": "2",
        "type": "t_mapping(t_address,t_bool)"
      },
      {
        "astId": 4559,
        "contract": "contracts/InfinityMintLinker.sol:InfinityMintLinker",
        "label": "erc721Location",
        "offset": 0,
        "slot": "3",
        "type": "t_address"
      },
      {
        "astId": 4563,
        "contract": "contracts/InfinityMintLinker.sol:InfinityMintLinker",
        "label": "storageController",
        "offset": 0,
        "slot": "4",
        "type": "t_contract(InfinityMintStorage)6684"
      },
      {
        "astId": 4569,
        "contract": "contracts/InfinityMintLinker.sol:InfinityMintLinker",
        "label": "links",
        "offset": 0,
        "slot": "5",
        "type": "t_mapping(t_uint256,t_struct(Link)4592_storage)"
      },
      {
        "astId": 4573,
        "contract": "contracts/InfinityMintLinker.sol:InfinityMintLinker",
        "label": "linkCount",
        "offset": 0,
        "slot": "6",
        "type": "t_uint256"
      }
    ],
    "types": {
      "t_address": {
        "encoding": "inplace",
        "label": "address",
        "numberOfBytes": "20"
      },
      "t_bool": {
        "encoding": "inplace",
        "label": "bool",
        "numberOfBytes": "1"
      },
      "t_bytes4": {
        "encoding": "inplace",
        "label": "bytes4",
        "numberOfBytes": "4"
      },
      "t_bytes_storage": {
        "encoding": "bytes",
        "label": "bytes",
        "numberOfBytes": "32"
      },
      "t_contract(InfinityMintStorage)6684": {
        "encoding": "inplace",
        "label": "contract InfinityMintStorage",
        "numberOfBytes": "20"
      },
      "t_mapping(t_address,t_bool)": {
        "encoding": "mapping",
        "key": "t_address",
        "label": "mapping(address => bool)",
        "numberOfBytes": "32",
        "value": "t_bool"
      },
      "t_mapping(t_uint256,t_struct(Link)4592_storage)": {
        "encoding": "mapping",
        "key": "t_uint256",
        "label": "mapping(uint256 => struct InfinityMintLinker.Link)",
        "numberOfBytes": "32",
        "value": "t_struct(Link)4592_storage"
      },
      "t_string_storage": {
        "encoding": "bytes",
        "label": "string",
        "numberOfBytes": "32"
      },
      "t_struct(Link)4592_storage": {
        "encoding": "inplace",
        "label": "struct InfinityMintLinker.Link",
        "members": [
          {
            "astId": 4575,
            "contract": "contracts/InfinityMintLinker.sol:InfinityMintLinker",
            "label": "index",
            "offset": 0,
            "slot": "0",
            "type": "t_uint256"
          },
          {
            "astId": 4577,
            "contract": "contracts/InfinityMintLinker.sol:InfinityMintLinker",
            "label": "versionType",
            "offset": 0,
            "slot": "1",
            "type": "t_bytes_storage"
          },
          {
            "astId": 4579,
            "contract": "contracts/InfinityMintLinker.sol:InfinityMintLinker",
            "label": "interfaceId",
            "offset": 0,
            "slot": "2",
            "type": "t_bytes4"
          },
          {
            "astId": 4581,
            "contract": "contracts/InfinityMintLinker.sol:InfinityMintLinker",
            "label": "key",
            "offset": 0,
            "slot": "3",
            "type": "t_string_storage"
          },
          {
            "astId": 4583,
            "contract": "contracts/InfinityMintLinker.sol:InfinityMintLinker",
            "label": "erc721",
            "offset": 0,
            "slot": "4",
            "type": "t_bool"
          },
          {
            "astId": 4585,
            "contract": "contracts/InfinityMintLinker.sol:InfinityMintLinker",
            "label": "verifyIntegrity",
            "offset": 1,
            "slot": "4",
            "type": "t_bool"
          },
          {
            "astId": 4587,
            "contract": "contracts/InfinityMintLinker.sol:InfinityMintLinker",
            "label": "forcedOnly",
            "offset": 2,
            "slot": "4",
            "type": "t_bool"
          },
          {
            "astId": 4589,
            "contract": "contracts/InfinityMintLinker.sol:InfinityMintLinker",
            "label": "permanent",
            "offset": 3,
            "slot": "4",
            "type": "t_bool"
          },
          {
            "astId": 4591,
            "contract": "contracts/InfinityMintLinker.sol:InfinityMintLinker",
            "label": "active",
            "offset": 4,
            "slot": "4",
            "type": "t_bool"
          }
        ],
        "numberOfBytes": "160"
      },
      "t_uint256": {
        "encoding": "inplace",
        "label": "uint256",
        "numberOfBytes": "32"
      }
    }
  }
}