{
  "address": "0x34dc015eC06596218C951B2CB3CE7D3Cf0cA9DA1",
  "abi": [
    {
      "inputs": [
        {
          "internalType": "string",
          "name": "tokenName",
          "type": "string"
        },
        {
          "internalType": "string",
          "name": "tokenSymbol",
          "type": "string"
        },
        {
          "internalType": "address",
          "name": "storageContract",
          "type": "address"
        },
        {
          "internalType": "address",
          "name": "valuesContract",
          "type": "address"
        },
        {
          "internalType": "address",
          "name": "minterContract",
          "type": "address"
        },
        {
          "internalType": "address",
          "name": "royaltyContract",
          "type": "address"
        }
      ],
      "stateMutability": "nonpayable",
      "type": "constructor"
    },
    {
      "anonymous": false,
      "inputs": [
        {
          "indexed": true,
          "internalType": "address",
          "name": "owner",
          "type": "address"
        },
        {
          "indexed": true,
          "internalType": "address",
          "name": "approved",
          "type": "address"
        },
        {
          "indexed": true,
          "internalType": "uint256",
          "name": "tokenId",
          "type": "uint256"
        }
      ],
      "name": "Approval",
      "type": "event"
    },
    {
      "anonymous": false,
      "inputs": [
        {
          "indexed": true,
          "internalType": "address",
          "name": "owner",
          "type": "address"
        },
        {
          "indexed": true,
          "internalType": "address",
          "name": "operator",
          "type": "address"
        },
        {
          "indexed": false,
          "internalType": "bool",
          "name": "approved",
          "type": "bool"
        }
      ],
      "name": "ApprovalForAll",
      "type": "event"
    },
    {
      "anonymous": false,
      "inputs": [
        {
          "indexed": true,
          "internalType": "address",
          "name": "sender",
          "type": "address"
        },
        {
          "indexed": true,
          "internalType": "address",
          "name": "changee",
          "type": "address"
        },
        {
          "indexed": false,
          "internalType": "bool",
          "name": "value",
          "type": "bool"
        }
      ],
      "name": "PermissionChange",
      "type": "event"
    },
    {
      "anonymous": false,
      "inputs": [
        {
          "indexed": false,
          "internalType": "uint32",
          "name": "tokenId",
          "type": "uint32"
        },
        {
          "indexed": false,
          "internalType": "bytes",
          "name": "encodedData",
          "type": "bytes"
        },
        {
          "indexed": true,
          "internalType": "address",
          "name": "sender",
          "type": "address"
        }
      ],
      "name": "TokenMinted",
      "type": "event"
    },
    {
      "anonymous": false,
      "inputs": [
        {
          "indexed": true,
          "internalType": "address",
          "name": "sender",
          "type": "address"
        },
        {
          "indexed": false,
          "internalType": "uint256",
          "name": "previewCount",
          "type": "uint256"
        }
      ],
      "name": "TokenPreviewComplete",
      "type": "event"
    },
    {
      "anonymous": false,
      "inputs": [
        {
          "indexed": false,
          "internalType": "uint32",
          "name": "tokenId",
          "type": "uint32"
        },
        {
          "indexed": false,
          "internalType": "bytes",
          "name": "encodedData",
          "type": "bytes"
        },
        {
          "indexed": true,
          "internalType": "address",
          "name": "sender",
          "type": "address"
        }
      ],
      "name": "TokenPreviewMinted",
      "type": "event"
    },
    {
      "anonymous": false,
      "inputs": [
        {
          "indexed": true,
          "internalType": "address",
          "name": "from",
          "type": "address"
        },
        {
          "indexed": true,
          "internalType": "address",
          "name": "to",
          "type": "address"
        },
        {
          "indexed": true,
          "internalType": "uint256",
          "name": "tokenId",
          "type": "uint256"
        }
      ],
      "name": "Transfer",
      "type": "event"
    },
    {
      "anonymous": false,
      "inputs": [
        {
          "indexed": true,
          "internalType": "address",
          "name": "from",
          "type": "address"
        },
        {
          "indexed": true,
          "internalType": "address",
          "name": "to",
          "type": "address"
        }
      ],
      "name": "TransferedOwnership",
      "type": "event"
    },
    {
      "inputs": [
        {
          "internalType": "address",
          "name": "_to",
          "type": "address"
        },
        {
          "internalType": "uint256",
          "name": "_tokenId",
          "type": "uint256"
        }
      ],
      "name": "approve",
      "outputs": [],
      "stateMutability": "nonpayable",
      "type": "function"
    },
    {
      "inputs": [
        {
          "internalType": "address",
          "name": "",
          "type": "address"
        }
      ],
      "name": "approved",
      "outputs": [
        {
          "internalType": "bool",
          "name": "",
          "type": "bool"
        }
      ],
      "stateMutability": "view",
      "type": "function"
    },
    {
      "inputs": [
        {
          "internalType": "address",
          "name": "_owner",
          "type": "address"
        }
      ],
      "name": "balanceOf",
      "outputs": [
        {
          "internalType": "uint256",
          "name": "",
          "type": "uint256"
        }
      ],
      "stateMutability": "view",
      "type": "function"
    },
    {
      "inputs": [],
      "name": "currentTokenId",
      "outputs": [
        {
          "internalType": "uint32",
          "name": "",
          "type": "uint32"
        }
      ],
      "stateMutability": "view",
      "type": "function"
    },
    {
      "inputs": [],
      "name": "deployer",
      "outputs": [
        {
          "internalType": "address",
          "name": "",
          "type": "address"
        }
      ],
      "stateMutability": "view",
      "type": "function"
    },
    {
      "inputs": [
        {
          "internalType": "uint32",
          "name": "tokenId",
          "type": "uint32"
        }
      ],
      "name": "depositStickerRoyalty",
      "outputs": [],
      "stateMutability": "payable",
      "type": "function"
    },
    {
      "inputs": [
        {
          "internalType": "uint32",
          "name": "royaltyType",
          "type": "uint32"
        }
      ],
      "name": "depositSystemRoyalty",
      "outputs": [],
      "stateMutability": "payable",
      "type": "function"
    },
    {
      "inputs": [
        {
          "internalType": "uint256",
          "name": "_tokenId",
          "type": "uint256"
        }
      ],
      "name": "exists",
      "outputs": [
        {
          "internalType": "bool",
          "name": "",
          "type": "bool"
        }
      ],
      "stateMutability": "view",
      "type": "function"
    },
    {
      "inputs": [
        {
          "internalType": "uint256",
          "name": "_tokenId",
          "type": "uint256"
        }
      ],
      "name": "getApproved",
      "outputs": [
        {
          "internalType": "address",
          "name": "",
          "type": "address"
        }
      ],
      "stateMutability": "view",
      "type": "function"
    },
    {
      "inputs": [
        {
          "internalType": "uint32",
          "name": "tokenId",
          "type": "uint32"
        }
      ],
      "name": "getPathId",
      "outputs": [
        {
          "internalType": "uint256",
          "name": "",
          "type": "uint256"
        }
      ],
      "stateMutability": "view",
      "type": "function"
    },
    {
      "inputs": [],
      "name": "getPreview",
      "outputs": [],
      "stateMutability": "nonpayable",
      "type": "function"
    },
    {
      "inputs": [
        {
          "internalType": "address",
          "name": "receiver",
          "type": "address"
        },
        {
          "internalType": "uint32",
          "name": "pathId",
          "type": "uint32"
        },
        {
          "internalType": "uint32",
          "name": "pathSize",
          "type": "uint32"
        },
        {
          "internalType": "uint32[]",
          "name": "colours",
          "type": "uint32[]"
        },
        {
          "internalType": "bytes",
          "name": "mintData",
          "type": "bytes"
        },
        {
          "internalType": "uint32[]",
          "name": "assets",
          "type": "uint32[]"
        },
        {
          "internalType": "string[]",
          "name": "names",
          "type": "string[]"
        }
      ],
      "name": "implicitMint",
      "outputs": [],
      "stateMutability": "nonpayable",
      "type": "function"
    },
    {
      "inputs": [
        {
          "internalType": "address",
          "name": "_owner",
          "type": "address"
        },
        {
          "internalType": "address",
          "name": "_operator",
          "type": "address"
        }
      ],
      "name": "isApprovedForAll",
      "outputs": [
        {
          "internalType": "bool",
          "name": "",
          "type": "bool"
        }
      ],
      "stateMutability": "view",
      "type": "function"
    },
    {
      "inputs": [
        {
          "internalType": "address",
          "name": "addr",
          "type": "address"
        },
        {
          "internalType": "uint256",
          "name": "tokenId",
          "type": "uint256"
        }
      ],
      "name": "isApprovedOrOwner",
      "outputs": [
        {
          "internalType": "bool",
          "name": "",
          "type": "bool"
        }
      ],
      "stateMutability": "view",
      "type": "function"
    },
    {
      "inputs": [
        {
          "internalType": "address",
          "name": "addr",
          "type": "address"
        }
      ],
      "name": "isAuthenticated",
      "outputs": [
        {
          "internalType": "bool",
          "name": "",
          "type": "bool"
        }
      ],
      "stateMutability": "view",
      "type": "function"
    },
    {
      "inputs": [],
      "name": "mint",
      "outputs": [],
      "stateMutability": "payable",
      "type": "function"
    },
    {
      "inputs": [
        {
          "internalType": "bytes",
          "name": "data",
          "type": "bytes"
        }
      ],
      "name": "mintArguments",
      "outputs": [],
      "stateMutability": "payable",
      "type": "function"
    },
    {
      "inputs": [
        {
          "internalType": "uint32",
          "name": "index",
          "type": "uint32"
        }
      ],
      "name": "mintPreview",
      "outputs": [],
      "stateMutability": "payable",
      "type": "function"
    },
    {
      "inputs": [],
      "name": "minterController",
      "outputs": [
        {
          "internalType": "contract Minter",
          "name": "",
          "type": "address"
        }
      ],
      "stateMutability": "view",
      "type": "function"
    },
    {
      "inputs": [],
      "name": "mintsEnabled",
      "outputs": [
        {
          "internalType": "bool",
          "name": "",
          "type": "bool"
        }
      ],
      "stateMutability": "view",
      "type": "function"
    },
    {
      "inputs": [
        {
          "internalType": "address[]",
          "name": "addrs",
          "type": "address[]"
        }
      ],
      "name": "multiApprove",
      "outputs": [],
      "stateMutability": "nonpayable",
      "type": "function"
    },
    {
      "inputs": [
        {
          "internalType": "address[]",
          "name": "addrs",
          "type": "address[]"
        }
      ],
      "name": "multiRevoke",
      "outputs": [],
      "stateMutability": "nonpayable",
      "type": "function"
    },
    {
      "inputs": [],
      "name": "name",
      "outputs": [
        {
          "internalType": "string",
          "name": "",
          "type": "string"
        }
      ],
      "stateMutability": "view",
      "type": "function"
    },
    {
      "inputs": [
        {
          "internalType": "uint256",
          "name": "_tokenId",
          "type": "uint256"
        }
      ],
      "name": "ownerOf",
      "outputs": [
        {
          "internalType": "address",
          "name": "",
          "type": "address"
        }
      ],
      "stateMutability": "view",
      "type": "function"
    },
    {
      "inputs": [],
      "name": "royaltyController",
      "outputs": [
        {
          "internalType": "contract Royalty",
          "name": "",
          "type": "address"
        }
      ],
      "stateMutability": "view",
      "type": "function"
    },
    {
      "inputs": [
        {
          "internalType": "address",
          "name": "_from",
          "type": "address"
        },
        {
          "internalType": "address",
          "name": "_to",
          "type": "address"
        },
        {
          "internalType": "uint256",
          "name": "_tokenId",
          "type": "uint256"
        }
      ],
      "name": "safeTransferFrom",
      "outputs": [],
      "stateMutability": "nonpayable",
      "type": "function"
    },
    {
      "inputs": [
        {
          "internalType": "address",
          "name": "_from",
          "type": "address"
        },
        {
          "internalType": "address",
          "name": "_to",
          "type": "address"
        },
        {
          "internalType": "uint256",
          "name": "_tokenId",
          "type": "uint256"
        },
        {
          "internalType": "bytes",
          "name": "_data",
          "type": "bytes"
        }
      ],
      "name": "safeTransferFrom",
      "outputs": [],
      "stateMutability": "nonpayable",
      "type": "function"
    },
    {
      "inputs": [
        {
          "internalType": "address",
          "name": "_operator",
          "type": "address"
        },
        {
          "internalType": "bool",
          "name": "_approved",
          "type": "bool"
        }
      ],
      "name": "setApprovalForAll",
      "outputs": [],
      "stateMutability": "nonpayable",
      "type": "function"
    },
    {
      "inputs": [
        {
          "internalType": "address",
          "name": "storageContract",
          "type": "address"
        },
        {
          "internalType": "address",
          "name": "valuesContract",
          "type": "address"
        },
        {
          "internalType": "address",
          "name": "minterContract",
          "type": "address"
        },
        {
          "internalType": "address",
          "name": "royaltyContract",
          "type": "address"
        }
      ],
      "name": "setControllers",
      "outputs": [],
      "stateMutability": "nonpayable",
      "type": "function"
    },
    {
      "inputs": [
        {
          "internalType": "bool",
          "name": "value",
          "type": "bool"
        }
      ],
      "name": "setMintsEnabled",
      "outputs": [],
      "stateMutability": "nonpayable",
      "type": "function"
    },
    {
      "inputs": [
        {
          "internalType": "address",
          "name": "addr",
          "type": "address"
        },
        {
          "internalType": "bool",
          "name": "value",
          "type": "bool"
        }
      ],
      "name": "setPrivilages",
      "outputs": [],
      "stateMutability": "nonpayable",
      "type": "function"
    },
    {
      "inputs": [
        {
          "internalType": "uint32",
          "name": "tokenId",
          "type": "uint32"
        },
        {
          "internalType": "string",
          "name": "json",
          "type": "string"
        }
      ],
      "name": "setTokenURI",
      "outputs": [],
      "stateMutability": "nonpayable",
      "type": "function"
    },
    {
      "inputs": [],
      "name": "storageController",
      "outputs": [
        {
          "internalType": "contract InfinityMintStorage",
          "name": "",
          "type": "address"
        }
      ],
      "stateMutability": "view",
      "type": "function"
    },
    {
      "inputs": [
        {
          "internalType": "bytes4",
          "name": "interfaceId",
          "type": "bytes4"
        }
      ],
      "name": "supportsInterface",
      "outputs": [
        {
          "internalType": "bool",
          "name": "",
          "type": "bool"
        }
      ],
      "stateMutability": "view",
      "type": "function"
    },
    {
      "inputs": [],
      "name": "symbol",
      "outputs": [
        {
          "internalType": "string",
          "name": "",
          "type": "string"
        }
      ],
      "stateMutability": "view",
      "type": "function"
    },
    {
      "inputs": [],
      "name": "tokenPrice",
      "outputs": [
        {
          "internalType": "uint256",
          "name": "",
          "type": "uint256"
        }
      ],
      "stateMutability": "view",
      "type": "function"
    },
    {
      "inputs": [
        {
          "internalType": "uint256",
          "name": "tokenId",
          "type": "uint256"
        }
      ],
      "name": "tokenURI",
      "outputs": [
        {
          "internalType": "string",
          "name": "result",
          "type": "string"
        }
      ],
      "stateMutability": "view",
      "type": "function"
    },
    {
      "inputs": [],
      "name": "totalSupply",
      "outputs": [
        {
          "internalType": "uint256",
          "name": "",
          "type": "uint256"
        }
      ],
      "stateMutability": "view",
      "type": "function"
    },
    {
      "inputs": [
        {
          "internalType": "uint256[]",
          "name": "tokenIds",
          "type": "uint256[]"
        },
        {
          "internalType": "address",
          "name": "destination",
          "type": "address"
        }
      ],
      "name": "transferBatch",
      "outputs": [],
      "stateMutability": "nonpayable",
      "type": "function"
    },
    {
      "inputs": [
        {
          "internalType": "address",
          "name": "_from",
          "type": "address"
        },
        {
          "internalType": "address",
          "name": "_to",
          "type": "address"
        },
        {
          "internalType": "uint256",
          "name": "_tokenId",
          "type": "uint256"
        }
      ],
      "name": "transferFrom",
      "outputs": [],
      "stateMutability": "nonpayable",
      "type": "function"
    },
    {
      "inputs": [
        {
          "internalType": "address",
          "name": "addr",
          "type": "address"
        }
      ],
      "name": "transferOwnership",
      "outputs": [],
      "stateMutability": "nonpayable",
      "type": "function"
    },
    {
      "inputs": [],
      "name": "valuesController",
      "outputs": [
        {
          "internalType": "contract InfinityMintValues",
          "name": "",
          "type": "address"
        }
      ],
      "stateMutability": "view",
      "type": "function"
    },
    {
      "inputs": [],
      "name": "withdraw",
      "outputs": [],
      "stateMutability": "nonpayable",
      "type": "function"
    }
  ],
  "transactionHash": "0x2f4572e96d72b1ee8bc2780fe351b644dfbdc0c175601beae682239f7c63c11a",
  "args": [
    "📦",
    "📦",
    "0xA32D3A516007b0Cf7590B8169Dc9c30E3ab48cBb",
    "0x95e8b3c812d51B7DE04af75ACC4852b17EdEB382",
    "0x0cBf0ce4f4F6e0e2a8Cd6c6E58AB74e7D770937d",
    "0xCfA38A7ce05e14a3FDF69bd4670210f02DdEc89B"
  ],
  "numDeployments": 1,
  "solcInputHash": "d376dbecb72767ee793a0467b60033fb",
  "bytecode": "0x60806040523480156200001157600080fd5b506040516200517038038062005170833981016040819052620000349162000276565b8551869086906200004d906005906020850190620000e6565b50805162000063906006906020840190620000e6565b505060078054336001600160a01b031991821681179092556000918252600960205260408220805460ff19166001179055600891909155600a805482166001600160a01b03978816179055600c805482169587169590951790945550600d80548416918516919091179055600b8054909216921691909117905550620003669050565b828054620000f49062000329565b90600052602060002090601f01602090048101928262000118576000855562000163565b82601f106200013357805160ff191683800117855562000163565b8280016001018555821562000163579182015b828111156200016357825182559160200191906001019062000146565b506200017192915062000175565b5090565b5b8082111562000171576000815560010162000176565b634e487b7160e01b600052604160045260246000fd5b600082601f830112620001b457600080fd5b81516001600160401b0380821115620001d157620001d16200018c565b604051601f8301601f19908116603f01168101908282118183101715620001fc57620001fc6200018c565b816040528381526020925086838588010111156200021957600080fd5b600091505b838210156200023d57858201830151818301840152908201906200021e565b838211156200024f5760008385830101525b9695505050505050565b80516001600160a01b03811681146200027157600080fd5b919050565b60008060008060008060c087890312156200029057600080fd5b86516001600160401b0380821115620002a857600080fd5b620002b68a838b01620001a2565b97506020890151915080821115620002cd57600080fd5b50620002dc89828a01620001a2565b955050620002ed6040880162000259565b9350620002fd6060880162000259565b92506200030d6080880162000259565b91506200031d60a0880162000259565b90509295509295509295565b600181811c908216806200033e57607f821691505b602082108114156200036057634e487b7160e01b600052602260045260246000fd5b50919050565b614dfa80620003766000396000f3fe6080604052600436106101fb5760003560e01c8063430c208111610114578063430c2081146104895780634f558e79146104a95780636352211e146104c95780636bb54df2146104e957806370a08231146104fc5780637817d7c0146105325780637ff9b596146105535780638cc07eb1146105685780638d6900a41461058857806395d89b41146105a8578063a22cb465146105bd578063a2d6b3c5146105dd578063b88d4fde146105fd578063c87b56dd1461061d578063c97caf1f1461063d578063d15d41501461065d578063d5f394881461067d578063d8b964e61461069d578063e985e9c5146106cd578063ec2b46c3146106ed578063f2fde38b1461070d578063fe684c0e1461072d57600080fd5b80629a9b7b1461020057806301ffc9a71461023a5780630202def11461026a57806304d5c3911461028c57806306fdde031461029f578063081812fc146102c1578063095ea7b3146102ee5780630c380cf01461030e578063105c48131461032e57806310a8c7a91461034e5780631249c58b1461036e57806318160ddd146103765780631dc9e28a146103995780631ff87064146103ac57806323b872dd146103cc5780632bc9a6df146103ec5780632edc48571461040c57806331ed86d21461042157806339e27d82146104415780633ccfd60b1461045457806342842e0e14610469575b600080fd5b34801561020c57600080fd5b50600d5461022490600160a01b900463ffffffff1681565b6040516102319190613bd0565b60405180910390f35b34801561024657600080fd5b5061025a610255366004613bf7565b61074d565b6040519015158152602001610231565b34801561027657600080fd5b5061028a610285366004613cd2565b61079f565b005b61028a61029a366004613d96565b61083c565b3480156102ab57600080fd5b506102b4610b9a565b6040516102319190613e0b565b3480156102cd57600080fd5b506102e16102dc366004613e1e565b610c2c565b6040516102319190613e37565b3480156102fa57600080fd5b5061028a610309366004613e4b565b610c47565b34801561031a57600080fd5b50600c546102e1906001600160a01b031681565b34801561033a57600080fd5b50600d546102e1906001600160a01b031681565b34801561035a57600080fd5b5061028a610369366004613e77565b610d97565b61028a610e2a565b34801561038257600080fd5b5061038b610f4c565b604051908152602001610231565b61028a6103a7366004613f88565b610fc1565b3480156103b857600080fd5b5061028a6103c7366004613fbc565b611118565b3480156103d857600080fd5b5061028a6103e736600461400b565b6111ad565b3480156103f857600080fd5b5061028a61040736600461404c565b611328565b34801561041857600080fd5b5061028a6113bb565b34801561042d57600080fd5b5061028a61043c366004613e77565b6117b3565b61028a61044f366004613d96565b611846565b34801561046057600080fd5b5061028a611978565b34801561047557600080fd5b5061028a61048436600461400b565b611c3a565b34801561049557600080fd5b5061025a6104a4366004613e4b565b611c55565b3480156104b557600080fd5b5061025a6104c4366004613e1e565b611cb4565b3480156104d557600080fd5b506102e16104e4366004613e1e565b611cd1565b61028a6104f7366004613d96565b611d36565b34801561050857600080fd5b5061038b6105173660046140a8565b6001600160a01b031660009081526004602052604090205490565b34801561053e57600080fd5b50600d5461025a90600160c01b900460ff1681565b34801561055f57600080fd5b5061038b611efa565b34801561057457600080fd5b5061038b610583366004613d96565b611f44565b34801561059457600080fd5b5061028a6105a33660046140d3565b611fc7565b3480156105b457600080fd5b506102b4612029565b3480156105c957600080fd5b5061028a6105d83660046140f0565b612038565b3480156105e957600080fd5b50600b546102e1906001600160a01b031681565b34801561060957600080fd5b5061028a610618366004614129565b6120a5565b34801561062957600080fd5b506102b4610638366004613e1e565b6120b7565b34801561064957600080fd5b5061028a610658366004614282565b6126e4565b34801561066957600080fd5b5061025a6106783660046140a8565b612a6f565b34801561068957600080fd5b506007546102e1906001600160a01b031681565b3480156106a957600080fd5b5061025a6106b83660046140a8565b60096020526000908152604090205460ff1681565b3480156106d957600080fd5b5061025a6106e8366004614360565b612aa8565b3480156106f957600080fd5b50600a546102e1906001600160a01b031681565b34801561071957600080fd5b5061028a6107283660046140a8565b612ad6565b34801561073957600080fd5b5061028a6107483660046140f0565b612b7c565b60006001600160e01b031982166380ac58cd60e01b148061077e57506001600160e01b03198216635b5e139f60e01b145b8061079957506301ffc9a760e01b6001600160e01b03198316145b92915050565b60208251106107ff5760405162461bcd60e51b815260206004820152602160248201527f706c656173652073706c697420757020696e746f206368756e6b73206f6620336044820152601960f91b60648201526084015b60405180910390fd5b60005b82518110156108375761082f33838584815181106108225761082261438e565b6020026020010151611c3a565b600101610802565b505050565b60016008600082825461084f91906143ba565b9091555050600854600a54604051636c51371d60e11b81526000916001600160a01b03169063d8a26e3a90610888908690600401613bd0565b600060405180830381865afa1580156108a5573d6000803e3d6000fd5b505050506040513d6000823e601f3d908101601f191682016040526108cd9190810190614574565b600a54604051631f7c4d3760e01b815263ffffffff86166004820152600160248201529192506001600160a01b031690631f7c4d3790604401602060405180830381865afa158015610923573d6000803e3d6000fd5b505050506040513d601f19601f8201168201806040525081019061094791906146b9565b61098e5760405162461bcd60e51b81526020600482015260186024820152771cdd1a58dad95c8818dbdb9d1c9858dd081b9bdd081cd95d60421b60448201526064016107f6565b8061010001516001815181106109a6576109a661438e565b60200260200101516001600160a01b03166109be3390565b6001600160a01b031614610a375760405162461bcd60e51b815260206004820152603a60248201527f53656e646572206d7573742062652074686520737469636b657220636f6e747260448201527930b1ba1030ba3a30b1b432b2103a37903a3434b9903a37b5b2b760311b60648201526084016107f6565b341580610a445750606434115b15610b1e57600d5460408051635b6bf64160e01b815290516001600160a01b03909216916304caf36a9134918491635b6bf6419160048083019260209291908290030181865afa158015610a9c573d6000803e3d6000fd5b505050506040513d601f19601f82011682018060405250810190610ac091906146d6565b6040516001600160e01b031960e085901b168152600481019290925260ff166024820152604401600060405180830381600087803b158015610b0157600080fd5b505af1158015610b15573d6000803e3d6000fd5b50505050610b74565b60405162461bcd60e51b815260206004820152602560248201527f76616c756520676976656e206d757374206265206f766572203130302c206f72604482015264207a65726f60d81b60648201526084016107f6565b506008548114610b965760405162461bcd60e51b81526004016107f6906146f9565b5050565b606060058054610ba99061471b565b80601f0160208091040260200160405190810160405280929190818152602001828054610bd59061471b565b8015610c225780601f10610bf757610100808354040283529160200191610c22565b820191906000526020600020905b815481529060010190602001808311610c0557829003601f168201915b5050505050905090565b6000908152600260205260409020546001600160a01b031690565b6000610c5282611cd1565b9050806001600160a01b0316836001600160a01b03161415610cad5760405162461bcd60e51b815260206004820152601460248201527331b0b73737ba1030b8383937bb329037bbb732b960611b60448201526064016107f6565b336001600160a01b0382161480610cc95750610cc98133612aa8565b610d3b5760405162461bcd60e51b815260206004820152603d60248201527f4552433732313a20617070726f76652063616c6c6572206973206e6f7420746f60448201527f6b656e206f776e6572206f7220617070726f76656420666f7220616c6c00000060648201526084016107f6565b60008281526002602052604080822080546001600160a01b0319166001600160a01b0387811691821790925591518593918516917f8c5be1e5ebec7d5bd14f71427d1e84f3dd0314c0f7b2291e5b200ac8c7c3b92591a4505050565b6007546001600160a01b03163314610dc15760405162461bcd60e51b81526004016107f690614756565b8051610dcc57600080fd5b60005b8151811015610b9657600160096000848481518110610df057610df061438e565b6020908102919091018101516001600160a01b03168252810191909152604001600020805460ff1916911515919091179055600101610dcf565b600160086000828254610e3d91906143ba565b9091555050600854600c546040516206259160e71b81526001600160a01b0390911690630312c88090610e729060040161477c565b602060405180830381865afa158015610e8f573d6000803e3d6000fd5b505050506040513d601f19601f82011682018060405250810190610eb391906146b9565b15610f105760405162461bcd60e51b815260206004820152602760248201527f6d757374206d696e74207769746820627974654d696e7420696e7374656164206044820152661bd9881b5a5b9d60ca1b60648201526084016107f6565b610f2860405180602001604052806000815250612c57565b6008548114610f495760405162461bcd60e51b81526004016107f6906146f9565b50565b600c5460405163e7b6dac960e01b81526000916001600160a01b03169063e7b6dac990610f7b9060040161479e565b602060405180830381865afa158015610f98573d6000803e3d6000fd5b505050506040513d601f19601f82011682018060405250810190610fbc91906147c1565b905090565b600160086000828254610fd491906143ba565b9091555050600854600c546040516206259160e71b81526001600160a01b0390911690630312c880906110099060040161477c565b602060405180830381865afa158015611026573d6000803e3d6000fd5b505050506040513d601f19601f8201168201806040525081019061104a91906146b9565b6110a65760405162461bcd60e51b815260206004820152602760248201527f6d757374206d696e742077697468206d696e7420696e7374656164206f6620626044820152661e5d19535a5b9d60ca1b60648201526084016107f6565b81516110ee5760405162461bcd60e51b81526020600482015260176024820152766c656e677468206f66206279746573206973207a65726f60481b60448201526064016107f6565b6110f782612c57565b6008548114610b965760405162461bcd60e51b81526004016107f6906146f9565b611128338363ffffffff16611c55565b6111875760405162461bcd60e51b815260206004820152602a60248201527f6973206e6f74204f776e65722c20617070726f766564206f7220617070726f76604482015269195908199bdc88185b1b60b21b60648201526084016107f6565b63ffffffff82166000908152600160209081526040909120825161083792840190613b37565b6111b73382611c55565b6111fb5760405162461bcd60e51b81526020600482015260156024820152743737ba1030b8383937bb32b21037b91037bbb732b960591b60448201526064016107f6565b6001600160a01b03831661124b5760405162461bcd60e51b815260206004820152601760248201527673656e64696e6720746f206e756c6c206164647265737360481b60448201526064016107f6565b611256838383612d8f565b600081815260026020908152604080832080546001600160a01b03191690556001600160a01b0386168352600490915281208054600192906112999084906147da565b90915550506001600160a01b03821660009081526004602052604081208054600192906112c79084906143ba565b909155505060008181526020819052604080822080546001600160a01b0319166001600160a01b0386811691821790925591518493918716917fddf252ad1be2c89b69c2b068fc378daa952ba7f163c4a11628f55a4df523b3ef91a4505050565b6007546001600160a01b031633148061135057503360009081526009602052604090205460ff165b61136c5760405162461bcd60e51b81526004016107f6906147f1565b600a80546001600160a01b039586166001600160a01b031991821617909155600c805494861694821694909417909355600d8054918516918416919091179055600b8054919093169116179055565b6113c6600080613053565b61143a576040805162461bcd60e51b81526020600482015260248101919091527f6661696c6564206d696e7420636865636b3a206d696e7473206172652064697360448201527f61626c65642c206d696e7473206172652061742061206d617820737570706c7960648201526084016107f6565b600c5460405163e7b6dac960e01b81526000916001600160a01b03169063e7b6dac99061146990600401614817565b602060405180830381865afa158015611486573d6000803e3d6000fd5b505050506040513d601f19601f820116820180604052508101906114aa91906147c1565b116114ef5760405162461bcd60e51b81526020600482015260156024820152741c1c995d9a595ddcc8185c9948191a5cd8589b1959605a1b60448201526064016107f6565b600a546001600160a01b031663e5725968336040518263ffffffff1660e01b815260040161151d9190613e37565b602060405180830381865afa15801561153a573d6000803e3d6000fd5b505050506040513d601f19601f8201168201806040525081019061155e91906147c1565b42116115cd5760405162461bcd60e51b815260206004820152603860248201527f706c65617365206d696e74207072657669657773206f72207761697420756e746044820152770696c207072657669657720636f756e7465722069732075760441b60648201526084016107f6565b600b54600d5460408051631a5dad5160e01b8152600160a01b90920463ffffffff166004830152336024830152516000926001600160a01b031691631a5dad51916044808301926020929190829003018187875af1158015611633573d6000803e3d6000fd5b505050506040513d601f19601f8201168201806040525081019061165791906147c1565b600c5460405163e7b6dac960e01b815260206004820152601660248201527570726576696577436f6f6c646f776e5365636f6e647360501b60448201529192506000916001600160a01b039091169063e7b6dac990606401602060405180830381865afa1580156116cc573d6000803e3d6000fd5b505050506040513d601f19601f820116820180604052508101906116f091906147c1565b9050806116fb5750603c5b600a546001600160a01b031663a22d583a3361171784426143ba565b6040518363ffffffff1660e01b815260040161173492919061483d565b600060405180830381600087803b15801561174e57600080fd5b505af1158015611762573d6000803e3d6000fd5b5050505061176d3390565b6001600160a01b03167f5714c3f2df77e79db463ef18f304b9c2c6b2502ed4d63b7cfdd9950416c92699836040516117a791815260200190565b60405180910390a25050565b6007546001600160a01b031633146117dd5760405162461bcd60e51b81526004016107f690614756565b80516117e857600080fd5b60005b8151811015610b965760006009600084848151811061180c5761180c61438e565b6020908102919091018101516001600160a01b03168252810191909152604001600020805460ff19169115159190911790556001016117eb565b60016008600082825461185991906143ba565b90915550506008543461188f8160096000335b6001600160a01b0316815260208101919091526040016000205460ff1615613053565b6118d65760405162461bcd60e51b81526020600482015260186024820152773330b4b632b21036b4b73a103b32b934b334b1b0ba34b7b760411b60448201526064016107f6565b600b54600d546040805163137655b160e31b815263ffffffff8781166004830152600160a01b909304909216602483015233604483015251610b74926001600160a01b031691639bb2ad88916064808301926000929190829003018183875af1158015611947573d6000803e3d6000fd5b505050506040513d6000823e601f3d908101601f1916820160405261196f9190810190614574565b33600184613194565b60016008600082825461198b91906143ba565b9091555050600854600d546040516354fe9fd760e01b81526000916001600160a01b0316906354fe9fd7906119c4903390600401613e37565b602060405180830381865afa1580156119e1573d6000803e3d6000fd5b505050506040513d601f19601f82011682018060405250810190611a0591906147c1565b905060008111611a505760405162461bcd60e51b81526020600482015260166024820152756e6f2062616c616e636520746f20776974686472617760501b60448201526064016107f6565b6000611a5c82476147da565b1015611aa65760405162461bcd60e51b815260206004820152601960248201527863616e6e6f74206166666f726420746f20776974686472617760381b60448201526064016107f6565b600d546001600160a01b031663e8953af2336040518263ffffffff1660e01b8152600401611ad49190613e37565b6020604051808303816000875af1158015611af3573d6000803e3d6000fd5b505050506040513d601f19601f82011682018060405250810190611b1791906147c1565b905060008111611b7f5760405162461bcd60e51b815260206004820152602d60248201527f76616c75652072657475726e65642066726f6d20726f79616c747920636f6e7460448201526c1c9bdb1b195c881a5cc8189859609a1b60648201526084016107f6565b604051600090339083908381818185875af1925050503d8060008114611bc1576040519150601f19603f3d011682016040523d82523d6000602084013e611bc6565b606091505b5050905080611c175760405162461bcd60e51b815260206004820152601d60248201527f646964206e6f74207472616e73666572207375636365737366756c6c7900000060448201526064016107f6565b50506008548114610f495760405162461bcd60e51b81526004016107f6906146f9565b610837838383604051806020016040528060008152506135d0565b600080611c6183611cd1565b9050806001600160a01b0316846001600160a01b03161480611c885750611c888185612aa8565b80611cac5750836001600160a01b0316611ca184610c2c565b6001600160a01b0316145b949350505050565b6000908152602081905260409020546001600160a01b0316151590565b6000611cdc82611cb4565b611d1a5760405162461bcd60e51b815260206004820152600f60248201526e1a5b9d985b1a59081d1bdad95b9259608a1b60448201526064016107f6565b506000908152602081905260409020546001600160a01b031690565b600160086000828254611d4991906143ba565b90915550506008546007546001600160a01b0316331480611d7957503360009081526009602052604090205460ff165b611d955760405162461bcd60e51b81526004016107f6906147f1565b600d60009054906101000a90046001600160a01b03166001600160a01b0316635b6bf6416040518163ffffffff1660e01b8152600401602060405180830381865afa158015611de8573d6000803e3d6000fd5b505050506040513d601f19601f82011682018060405250810190611e0c91906146d6565b60ff168263ffffffff161415611e705760405162461bcd60e51b8152602060048201526024808201527f63616e2774206465706f73697420737469636b657220726f79616c74696573206044820152636865726560e01b60648201526084016107f6565b600d5460405163026579b560e11b815234600482015263ffffffff841660248201526001600160a01b03909116906304caf36a90604401600060405180830381600087803b158015611ec157600080fd5b505af1158015611ed5573d6000803e3d6000fd5b505050506008548114610b965760405162461bcd60e51b81526004016107f6906146f9565b600d5460408051633ffcdacb60e11b815290516000926001600160a01b031691637ff9b5969160048083019260209291908290030181865afa158015610f98573d6000803e3d6000fd5b600a54604051636c51371d60e11b81526000916001600160a01b03169063d8a26e3a90611f75908590600401613bd0565b600060405180830381865afa158015611f92573d6000803e3d6000fd5b505050506040513d6000823e601f3d908101601f19168201604052611fba9190810190614574565b5163ffffffff1692915050565b6007546001600160a01b0316331480611fef57503360009081526009602052604090205460ff165b61200b5760405162461bcd60e51b81526004016107f6906147f1565b600d8054911515600160c01b0260ff60c01b19909216919091179055565b606060068054610ba99061471b565b3360008181526003602090815260408083206001600160a01b03871680855290835292819020805460ff191686151590811790915590519081529192917f17307eab39ab6107e8899845ad3d59bd9653f200f220920489ca2b5937696c3191015b60405180910390a35050565b6120b1848484846135d0565b50505050565b600d54606090600160a01b900463ffffffff1682106121185760405162461bcd60e51b815260206004820152601f60248201527f746f6b656e55524920666f72206e6f6e2d6578697374656e7420746f6b656e0060448201526064016107f6565b6040518060a0016040528060628152602001614d6360629139600a546040805163712a908d60e01b81523060048201526024810191909152600f60448201526e64656661756c74546f6b656e55524960881b60648201529192506000916001600160a01b039091169063712a908d90608401600060405180830381865afa1580156121a7573d6000803e3d6000fd5b505050506040513d6000823e601f3d908101601f191682016040526121cf9190810190614856565b905080516000146121de578091505b60006121e984611cd1565b6000858152600160205260408120805492935090916122079061471b565b80601f01602080910402602001604051908101604052809291908181526020018280546122339061471b565b80156122805780601f1061225557610100808354040283529160200191612280565b820191906000526020600020905b81548152906001019060200180831161226357829003601f168201915b5050600a5460408051636c17fd7960e01b815263ffffffff8c1660048201526024810191909152600d60448201526c666f726365546f6b656e55524960981b60648201529495506001600160a01b031693636c17fd79935060840191506122e49050565b602060405180830381865afa158015612301573d6000803e3d6000fd5b505050506040513d601f19601f8201168201806040525081019061232591906146b9565b80156123315750805115155b1561233e578093506126dc565b600a54604051633f08e8e360e11b81526001600160a01b0390911690637e11d1c69061236e90859060040161488a565b602060405180830381865afa15801561238b573d6000803e3d6000fd5b505050506040513d601f19601f820116820180604052508101906123af91906146b9565b806124265750600a54604051633f08e8e360e11b81526001600160a01b0390911690637e11d1c6906123e590309060040161488a565b602060405180830381865afa158015612402573d6000803e3d6000fd5b505050506040513d601f19601f8201168201806040525081019061242691906146b9565b156126d157600a54604051633f08e8e360e11b81526000916001600160a01b031690637e11d1c69061245c90869060040161488a565b602060405180830381865afa158015612479573d6000803e3d6000fd5b505050506040513d601f19601f8201168201806040525081019061249d91906146b9565b6124a757306124a9565b825b600a5460405163712a908d60e01b81529192506000916001600160a01b039091169063712a908d9061250a9085906004016001600160a01b03919091168152604060208201819052600490820152631c9bdbdd60e21b606082015260800190565b600060405180830381865afa158015612527573d6000803e3d6000fd5b505050506040513d6000823e601f3d908101601f1916820160405261254f9190810190614856565b600a80546040805163712a908d60e01b81526001600160a01b03878116600483015260248201929092526044810193909352690e4dedee8a6eaccccd2f60b31b6064840152929350600092169063712a908d90608401600060405180830381865afa1580156125c2573d6000803e3d6000fd5b505050506040513d6000823e601f3d908101601f191682016040526125ea9190810190614856565b9050805160001480156126895750600c546040516206259160e71b81526020600482015260136024820152720e4cadadeecca88caccc2ead8e8a6eaccccd2f606b1b60448201526001600160a01b0390911690630312c88090606401602060405180830381865afa158015612663573d6000803e3d6000fd5b505050506040513d601f19601f8201168201806040525081019061268791906146b9565b155b156126ac5750604080518082019091526005815264173539b7b760d91b60208201525b8151156126c9576126c6826126c08a613640565b83613768565b96505b5050506126dc565b8051156126dc578093505b505050919050565b6007546001600160a01b031633148061270c57503360009081526009602052604090205460ff165b6127285760405162461bcd60e51b81526004016107f6906147f1565b600c5460405163e7b6dac960e01b81526001600160a01b039091169063e7b6dac9906127569060040161479e565b602060405180830381865afa158015612773573d6000803e3d6000fd5b505050506040513d601f19601f8201168201806040525081019061279791906147c1565b600d54600160a01b900463ffffffff1614156128115760405162461bcd60e51b815260206004820152603360248201527f6d617820737570706c7920686173206265656e2072656163686564207261697360448201527265206974206265666f7265206d696e74696e6760681b60648201526084016107f6565b600c546040516206259160e71b815260206004820152600f60248201526e696e6372656d656e74616c4d6f646560881b60448201526001600160a01b0390911690630312c88090606401602060405180830381865afa158015612878573d6000803e3d6000fd5b505050506040513d601f19601f8201168201806040525081019061289c91906146b9565b806129295750600c546040516206259160e71b815260206004820152600b60248201526a6d6174636865644d6f646560a81b60448201526001600160a01b0390911690630312c88090606401602060405180830381865afa158015612905573d6000803e3d6000fd5b505050506040513d601f19601f8201168201806040525081019061292991906146b9565b15612a0d57600b60009054906101000a90046001600160a01b03166001600160a01b031663573f86006040518163ffffffff1660e01b8152600401602060405180830381865afa158015612981573d6000803e3d6000fd5b505050506040513d601f19601f820116820180604052508101906129a591906148bf565b6001600160a01b0316638a25ad246129be8860016148dc565b6040518263ffffffff1660e01b81526004016129da9190613bd0565b600060405180830381600087803b1580156129f457600080fd5b505af1158015612a08573d6000803e3d6000fd5b505050505b600d54612a6690612a5d90600160a01b900463ffffffff16888886868a8a8f6000604051908082528060200260200182016040528015612a57578160200160208202803683370190505b50613797565b88600034613194565b50505050505050565b6007546000906001600160a01b03838116911614806107995750506001600160a01b031660009081526009602052604090205460ff1690565b6001600160a01b03918216600090815260036020908152604080832093909416825291909152205460ff1690565b6007546001600160a01b03163314612b005760405162461bcd60e51b81526004016107f690614756565b600780546001600160a01b03908116600090815260096020526040808220805460ff1990811690915584546001600160a01b03191693861693841790945582825280822080549094166001179093559151909133917f93091b3f3cd424efabc74e181f3799f3476ed758412561ed3b29515c51f567529190a350565b6007546001600160a01b03163314612ba65760405162461bcd60e51b81526004016107f690614756565b6007546001600160a01b0383811691161415612bfd5760405162461bcd60e51b815260206004820152601660248201527531b0b73737ba1036b7b234b33c903232b83637bcb2b960511b60448201526064016107f6565b6001600160a01b038216600081815260096020908152604091829020805460ff1916851515908117909155915191825233917ff38de818d000d07d091732dd783c6855722d7bc1934d92b7635133289d3416959101612099565b612c6534600960003361186c565b612cfa5760405162461bcd60e51b815260206004820152605a60248201527f6661696c6564206d696e7420636865636b3a206d696e7473206172652064697360448201527f61626c65642c206d696e7473206172652061742061206d617820737570706c79606482015279040dee440f2deea40c8d2c840dcdee840e0c2f240cadcdeeaced60331b608482015260a4016107f6565b600b54600d54604051631bc8bf9360e01b8152610f49926001600160a01b031691631bc8bf9391612d3f91600160a01b900463ffffffff169033908790600401614904565b6000604051808303816000875af1158015612d5e573d6000803e3d6000fd5b505050506040513d6000823e601f3d908101601f19168201604052612d869190810190614574565b33600034613194565b600a5460408051636c17fd7960e01b815263ffffffff84166004820152602481019190915260066044820152651b1bd8dad95960d21b60648201526001600160a01b0390911690636c17fd7990608401602060405180830381865afa158015612dfc573d6000803e3d6000fd5b505050506040513d601f19601f82011682018060405250810190612e2091906146b9565b151560011415612eaa5760405162461bcd60e51b815260206004820152604960248201527f5468697320746f6b656e206973206c6f636b656420616e64206e65656473207460448201527f6f20626520756e6c6f636b6564206265666f72652069742063616e20626520746064820152681c985b9cd9995c995960ba1b608482015260a4016107f6565b600a546040516320025d2160e21b81526001600160a01b0390911690638009748490612edc9085908590600401614934565b600060405180830381600087803b158015612ef657600080fd5b505af1158015612f0a573d6000803e3d6000fd5b5050600c546040516206259160e71b81526001600160a01b039091169250630312c8809150612f3b90600401614953565b602060405180830381865afa158015612f58573d6000803e3d6000fd5b505050506040513d601f19601f82011682018060405250810190612f7c91906146b9565b61083757600a54604051634fe61faf60e11b81526001600160a01b0390911690639fcc3f5e90612fb29085908590600401614934565b600060405180830381600087803b158015612fcc57600080fd5b505af1158015612fe0573d6000803e3d6000fd5b505050506001600160a01b0383161561083757600a54604051634f2609c760e11b81526001600160a01b0390911690639e4c138e906130259086908590600401614934565b600060405180830381600087803b15801561303f57600080fd5b505af1158015612a66573d6000803e3d6000fd5b600d54600090600160c01b900460ff1661306f57506000610799565b600c5460405163e7b6dac960e01b81526001600160a01b039091169063e7b6dac99061309d9060040161479e565b602060405180830381865afa1580156130ba573d6000803e3d6000fd5b505050506040513d601f19601f820116820180604052508101906130de91906147c1565b600d54600160a01b900463ffffffff16106130fb57506000610799565b81801561317e5750600d60009054906101000a90046001600160a01b03166001600160a01b0316637ff9b5966040518163ffffffff1660e01b8152600401602060405180830381865afa158015613156573d6000803e3d6000fd5b505050506040513d601f19601f8201168201806040525081019061317a91906147c1565b8314155b1561318b57506000610799565b50600192915050565b6131bb83600d60149054906101000a900463ffffffff1663ffffffff168660a0015161385d565b600a54600d5460405163c28cf06160e01b81526001600160a01b039092169163c28cf061916131fd91600160a01b90910463ffffffff16908890600401614a53565b600060405180830381600087803b15801561321757600080fd5b505af115801561322b573d6000803e3d6000fd5b5050600c546040516206259160e71b81526001600160a01b039091169250630312c880915061325c90600401614953565b602060405180830381865afa158015613279573d6000803e3d6000fd5b505050506040513d601f19601f8201168201806040525081019061329d91906146b9565b61331557600a54600d54604051634fe61faf60e11b81526001600160a01b0390921691639fcc3f5e916132e2918791600160a01b900463ffffffff1690600401614934565b600060405180830381600087803b1580156132fc57600080fd5b505af1158015613310573d6000803e3d6000fd5b505050505b600a54600c5460405163e7b6dac960e01b81526001600160a01b0392831692638ff58aa692879291169063e7b6dac99061335190600401614817565b602060405180830381865afa15801561336e573d6000803e3d6000fd5b505050506040513d601f19601f8201168201806040525081019061339291906147c1565b6040518363ffffffff1660e01b81526004016133af92919061483d565b600060405180830381600087803b1580156133c957600080fd5b505af11580156133dd573d6000803e3d6000fd5b5050600d5460408051631d4e010f60e11b815290516001600160a01b0390921693506304caf36a925084918491633a9c021e9160048083019260209291908290030181865afa158015613434573d6000803e3d6000fd5b505050506040513d601f19601f8201168201806040525081019061345891906146d6565b6040516001600160e01b031960e085901b168152600481019290925260ff166024820152604401600060405180830381600087803b15801561349957600080fd5b505af11580156134ad573d6000803e3d6000fd5b50505050811561354357600d80546001600160a01b038516917f8f2c63d2fb7a6762d60b5c413fcf4212bc46912b94c8b65172d780f1a2515a4491600160a01b900463ffffffff1690601461350183614b56565b91906101000a81548163ffffffff021916908363ffffffff1602179055506135288761397e565b604051613536929190614b7a565b60405180910390a26120b1565b600d80546001600160a01b038516917fef35cf177b2baefe03d86d3f735f32215ea0d2fb2f0548bc5f45ea6950e6889491600160a01b900463ffffffff1690601461358d83614b56565b91906101000a81548163ffffffff021916908363ffffffff1602179055506135b48761397e565b6040516135c2929190614b7a565b60405180910390a250505050565b6135db8484846111ad565b6135e833858585856139f5565b6120b15760405162461bcd60e51b815260206004820152602360248201527f45524337323120526563656976657220436f6e6669726d6174696f6e2049732060448201526210985960ea1b60648201526084016107f6565b6060816136645750506040805180820190915260018152600360fc1b602082015290565b8160005b811561368e578061367881614b99565b91506136879050600a83614bb4565b9150613668565b6000816001600160401b038111156136a8576136a8613c1b565b6040519080825280601f01601f1916602001820160405280156136d2576020820181803683370190505b509050815b851561375f576136e86001826147da565b905060006136f7600a88614bb4565b61370290600a614bd6565b61370c90886147da565b613717906030614bf5565b905060008160f81b9050808484815181106137345761373461438e565b60200101906001600160f81b031916908160001a905350613756600a89614bb4565b975050506136d7565b50949350505050565b606083838360405160200161377f93929190614c1a565b60405160208183030381529060405290509392505050565b613801604051806101200160405280600063ffffffff168152602001600063ffffffff168152602001600063ffffffff16815260200160006001600160a01b0316815260200160608152602001606081526020016060815260200160608152602001606081525090565b50604080516101208101825263ffffffff998a168152978916602089015298909716978601979097526001600160a01b039096166060850152608084015260a083019490945260c082015260e081019290925261010082015290565b6001600160a01b03831661389e5760405162461bcd60e51b81526020600482015260086024820152670c1e0c081b5a5b9d60c21b60448201526064016107f6565b6138a782611cb4565b156138e55760405162461bcd60e51b815260206004820152600e60248201526d185b1c9958591e481b5a5b9d195960921b60448201526064016107f6565b6001600160a01b038316600090815260046020526040812080546001929061390e9084906143ba565b909155505060008281526020819052604080822080546001600160a01b0319166001600160a01b03871690811790915590518492907fddf252ad1be2c89b69c2b068fc378daa952ba7f163c4a11628f55a4df523b3ef908290a461397533308585856139f5565b61083757600080fd5b6060816000015182602001518360400151846060015185608001516040516020016139a99190614c5d565b60408051601f198184030181529082905260a088015160c089015160e08a01516101008b01516139df9998979695602001614c70565b6040516020818303038152906040529050919050565b6000833b613a0557506001613b2e565b604051630a85bd0160e11b81526001600160a01b0385169063150b7a0290613a37908990899088908890600401614d12565b6020604051808303816000875af1925050508015613a72575060408051601f3d908101601f19168201909252613a6f91810190614d45565b60015b613b18573d808015613aa0576040519150601f19603f3d011682016040523d82523d6000602084013e613aa5565b606091505b508051613b105760405162461bcd60e51b815260206004820152603360248201527f5468697320636f6e747261637420646f6573206e6f7420696d706c656d656e746044820152721030b71024a2a9219b9918a932b1b2b4bb32b960691b60648201526084016107f6565b805181602001fd5b6001600160e01b031916630a85bd0160e11b1490505b95945050505050565b828054613b439061471b565b90600052602060002090601f016020900481019282613b655760008555613bab565b82601f10613b7e57805160ff1916838001178555613bab565b82800160010185558215613bab579182015b82811115613bab578251825591602001919060010190613b90565b50613bb7929150613bbb565b5090565b5b80821115613bb75760008155600101613bbc565b63ffffffff91909116815260200190565b6001600160e01b031981168114610f4957600080fd5b600060208284031215613c0957600080fd5b8135613c1481613be1565b9392505050565b634e487b7160e01b600052604160045260246000fd5b60405161012081016001600160401b0381118282101715613c5457613c54613c1b565b60405290565b604051601f8201601f191681016001600160401b0381118282101715613c8257613c82613c1b565b604052919050565b60006001600160401b03821115613ca357613ca3613c1b565b5060051b60200190565b6001600160a01b0381168114610f4957600080fd5b8035613ccd81613cad565b919050565b60008060408385031215613ce557600080fd5b82356001600160401b03811115613cfb57600080fd5b8301601f81018513613d0c57600080fd5b80356020613d21613d1c83613c8a565b613c5a565b82815260059290921b83018101918181019088841115613d4057600080fd5b938201935b83851015613d5e57843582529382019390820190613d45565b9550613d6d9050868201613cc2565b93505050509250929050565b63ffffffff81168114610f4957600080fd5b8035613ccd81613d79565b600060208284031215613da857600080fd5b8135613c1481613d79565b60005b83811015613dce578181015183820152602001613db6565b838111156120b15750506000910152565b60008151808452613df7816020860160208601613db3565b601f01601f19169290920160200192915050565b602081526000613c146020830184613ddf565b600060208284031215613e3057600080fd5b5035919050565b6001600160a01b0391909116815260200190565b60008060408385031215613e5e57600080fd5b8235613e6981613cad565b946020939093013593505050565b60006020808385031215613e8a57600080fd5b82356001600160401b03811115613ea057600080fd5b8301601f81018513613eb157600080fd5b8035613ebf613d1c82613c8a565b81815260059190911b82018301908381019087831115613ede57600080fd5b928401925b82841015613f05578335613ef681613cad565b82529284019290840190613ee3565b979650505050505050565b60006001600160401b03821115613f2957613f29613c1b565b50601f01601f191660200190565b600082601f830112613f4857600080fd5b8135613f56613d1c82613f10565b818152846020838601011115613f6b57600080fd5b816020850160208301376000918101602001919091529392505050565b600060208284031215613f9a57600080fd5b81356001600160401b03811115613fb057600080fd5b611cac84828501613f37565b60008060408385031215613fcf57600080fd5b8235613fda81613d79565b915060208301356001600160401b03811115613ff557600080fd5b61400185828601613f37565b9150509250929050565b60008060006060848603121561402057600080fd5b833561402b81613cad565b9250602084013561403b81613cad565b929592945050506040919091013590565b6000806000806080858703121561406257600080fd5b843561406d81613cad565b9350602085013561407d81613cad565b9250604085013561408d81613cad565b9150606085013561409d81613cad565b939692955090935050565b6000602082840312156140ba57600080fd5b8135613c1481613cad565b8015158114610f4957600080fd5b6000602082840312156140e557600080fd5b8135613c14816140c5565b6000806040838503121561410357600080fd5b823561410e81613cad565b9150602083013561411e816140c5565b809150509250929050565b6000806000806080858703121561413f57600080fd5b843561414a81613cad565b9350602085013561415a81613cad565b92506040850135915060608501356001600160401b0381111561417c57600080fd5b61418887828801613f37565b91505092959194509250565b600082601f8301126141a557600080fd5b813560206141b5613d1c83613c8a565b82815260059290921b840181019181810190868411156141d457600080fd5b8286015b848110156141f85780356141eb81613d79565b83529183019183016141d8565b509695505050505050565b600082601f83011261421457600080fd5b81356020614224613d1c83613c8a565b82815260059290921b8401810191818101908684111561424357600080fd5b8286015b848110156141f85780356001600160401b038111156142665760008081fd5b6142748986838b0101613f37565b845250918301918301614247565b600080600080600080600060e0888a03121561429d57600080fd5b6142a688613cc2565b96506142b460208901613d8b565b95506142c260408901613d8b565b945060608801356001600160401b03808211156142de57600080fd5b6142ea8b838c01614194565b955060808a013591508082111561430057600080fd5b61430c8b838c01613f37565b945060a08a013591508082111561432257600080fd5b61432e8b838c01614194565b935060c08a013591508082111561434457600080fd5b506143518a828b01614203565b91505092959891949750929550565b6000806040838503121561437357600080fd5b823561437e81613cad565b9150602083013561411e81613cad565b634e487b7160e01b600052603260045260246000fd5b634e487b7160e01b600052601160045260246000fd5b600082198211156143cd576143cd6143a4565b500190565b8051613ccd81613d79565b8051613ccd81613cad565b600082601f8301126143f957600080fd5b81516020614409613d1c83613c8a565b82815260059290921b8401810191818101908684111561442857600080fd5b8286015b848110156141f857805161443f81613d79565b835291830191830161442c565b600082601f83011261445d57600080fd5b815161446b613d1c82613f10565b81815284602083860101111561448057600080fd5b611cac826020830160208701613db3565b600082601f8301126144a257600080fd5b815160206144b2613d1c83613c8a565b82815260059290921b840181019181810190868411156144d157600080fd5b8286015b848110156141f85780516001600160401b038111156144f45760008081fd5b6145028986838b010161444c565b8452509183019183016144d5565b600082601f83011261452157600080fd5b81516020614531613d1c83613c8a565b82815260059290921b8401810191818101908684111561455057600080fd5b8286015b848110156141f857805161456781613cad565b8352918301918301614554565b60006020828403121561458657600080fd5b81516001600160401b038082111561459d57600080fd5b9083019061012082860312156145b257600080fd5b6145ba613c31565b6145c3836143d2565b81526145d1602084016143d2565b60208201526145e2604084016143d2565b60408201526145f3606084016143dd565b606082015260808301518281111561460a57600080fd5b614616878286016143e8565b60808301525060a08301518281111561462e57600080fd5b61463a8782860161444c565b60a08301525060c08301518281111561465257600080fd5b61465e878286016143e8565b60c08301525060e08301518281111561467657600080fd5b61468287828601614491565b60e083015250610100808401518381111561469c57600080fd5b6146a888828701614510565b918301919091525095945050505050565b6000602082840312156146cb57600080fd5b8151613c14816140c5565b6000602082840312156146e857600080fd5b815160ff81168114613c1457600080fd5b60208082526008908201526772652d656e74727960c01b604082015260600190565b600181811c9082168061472f57607f821691505b6020821081141561475057634e487b7160e01b600052602260045260246000fd5b50919050565b6020808252600c908201526b3737ba103232b83637bcb2b960a11b604082015260600190565b602080825260089082015267189e5d19535a5b9d60c21b604082015260600190565b6020808252600990820152686d6178537570706c7960b81b604082015260600190565b6000602082840312156147d357600080fd5b5051919050565b6000828210156147ec576147ec6143a4565b500390565b6020808252600c908201526b1b9bdd08185c1c1c9bdd995960a21b604082015260600190565b6020808252600c908201526b1c1c995d9a595dd0dbdd5b9d60a21b604082015260600190565b6001600160a01b03929092168252602082015260400190565b60006020828403121561486857600080fd5b81516001600160401b0381111561487e57600080fd5b611cac8482850161444c565b6001600160a01b03919091168152604060208201819052600990820152681d5cda5b99d49bdbdd60ba1b606082015260800190565b6000602082840312156148d157600080fd5b8151613c1481613cad565b600063ffffffff8083168185168083038211156148fb576148fb6143a4565b01949350505050565b63ffffffff841681526001600160a01b0383166020820152606060408201819052600090613b2e90830184613ddf565b6001600160a01b0392909216825263ffffffff16602082015260400190565b60208082526017908201527664697361626c6552656769737465726564546f6b656e7360481b604082015260600190565b600081518084526020808501945080840160005b838110156149ba57815163ffffffff1687529582019590820190600101614998565b509495945050505050565b600081518084526020808501808196508360051b8101915082860160005b85811015614a0d5782840389526149fb848351613ddf565b988501989350908401906001016149e3565b5091979650505050505050565b600081518084526020808501945080840160005b838110156149ba5781516001600160a01b031687529582019590820190600101614a2e565b63ffffffff8316815260406020820152614a7660408201835163ffffffff169052565b60006020830151614a8f606084018263ffffffff169052565b50604083015163ffffffff811660808401525060608301516001600160a01b03811660a08401525060808301516101208060c0850152614ad3610160850183614984565b915060a0850151603f19808685030160e0870152614af18483613ddf565b935060c08701519150610100818786030181880152614b108584614984565b945060e08801519250818786030184880152614b2c85846149c5565b94508088015193505080868503016101408701525050614b4c8282614a1a565b9695505050505050565b600063ffffffff80831681811415614b7057614b706143a4565b6001019392505050565b63ffffffff83168152604060208201526000611cac6040830184613ddf565b6000600019821415614bad57614bad6143a4565b5060010190565b600082614bd157634e487b7160e01b600052601260045260246000fd5b500490565b6000816000190483118215151615614bf057614bf06143a4565b500290565b600060ff821660ff84168060ff03821115614c1257614c126143a4565b019392505050565b60008451614c2c818460208901613db3565b845190830190614c40818360208901613db3565b8451910190614c53818360208801613db3565b0195945050505050565b602081526000613c146020830184614984565b63ffffffff8a811682528981166020830152881660408201526001600160a01b038716606082015261012060808201819052600090614cb183820189613ddf565b905082810360a0840152614cc58188613ddf565b905082810360c0840152614cd98187614984565b905082810360e0840152614ced81866149c5565b9050828103610100840152614d028185614a1a565b9c9b505050505050505050505050565b6001600160a01b0385811682528416602082015260408101839052608060608201819052600090614b4c90830184613ddf565b600060208284031215614d5757600080fd5b8151613c1481613be156fe68747470733a2f2f6261667962656968786d646b6d76766a6b736b746f7765687976777168363262776e7634766a61366c6c626c376b627a7662726765653561696d752e697066732e7733732e6c696e6b2f64656661756c745f7572692e6a736f6ea2646970667358221220a66da2da8d1c103f155ea2a5357d72ad86882185ac14f61caa8992aa4692c08064736f6c634300080c0033",
  "libraries": {
    "InfinityMintUtil": "0xe2A4755A9b489Fe957FCa6d8DD3Edb170a31921d"
  },
  "devdoc": {
    "author": "Llydia Cross",
    "events": {
      "TokenMinted(uint32,bytes,address)": {
        "details": "will be changed to TokenMinted soon"
      },
      "TokenPreviewMinted(uint32,bytes,address)": {
        "details": "will be changed to TokenPreviewMinted soon"
      }
    },
    "kind": "dev",
    "methods": {
      "approve(address,uint256)": {
        "details": "will Throw if tokenId does not exist"
      },
      "depositStickerRoyalty(uint32)": {
        "details": "the amount that is paid into this function is defined by the sticker price set by the token owner. The royalty controller cuts up the deposited tokens even more depending on if there are any splits."
      },
      "getPathId(uint32)": {
        "details": "must be split up into chunks of 32"
      },
      "getPreview()": {
        "details": "This method is the most gas intensive method in InfinityMint, how ever there is a trade off in the fact that that MintPreview is insanely cheap and does not need a lot of gas. I suggest using low previewCount values of about 2 or 3. Anything higher is dependant in your project configuartion and how much you care about gas prices."
      },
      "implicitMint(address,uint32,uint32,uint32[],bytes,uint32[],string[])": {
        "details": "This is the cheapest way to get InfinityMint to mint something as it literally decides no values on chain. This method can also be called by a rollup solution or something or be used as a way to literally mint anything.",
        "params": {
          "assets": "the assets for this token",
          "colours": "the colours of this token",
          "pathId": "the pathid you want to mint",
          "pathSize": "the size of this path (for colour generation)",
          "receiver": "the address to receive the mint"
        }
      },
      "isApprovedOrOwner(address,uint256)": {
        "details": "same as open zepps"
      },
      "mintArguments(bytes)": {
        "details": "must have byteMint enabled in valuesController"
      },
      "mintPreview(uint32)": {
        "details": "This will wipe other previews once called.",
        "params": {
          "index": "the index of the preview to mint"
        }
      },
      "ownerOf(uint256)": {
        "details": "will Throw if the token does not exist"
      },
      "safeTransferFrom(address,address,uint256)": {
        "details": "Emits a {Transfer} event."
      },
      "safeTransferFrom(address,address,uint256,bytes)": {
        "details": "Emits a {Transfer} event."
      },
      "setTokenURI(uint32,string)": {
        "details": "you need to call this from an approved address for the token",
        "params": {
          "json": "an IFPS link or a",
          "tokenId": "the tokenId"
        }
      },
      "supportsInterface(bytes4)": {
        "details": "See {IERC165-supportsInterface}."
      },
      "tokenPrice()": {
        "details": "the royalty controller actually controls the token price so in order to change it you must send tx to that contract."
      },
      "totalSupply()": {
        "details": "Returns the max supply of tokens, not the amount that have been minted. (so the tokenId)"
      },
      "transferBatch(uint256[],address)": {
        "details": "must be split up into chunks of 32"
      },
      "transferFrom(address,address,uint256)": {
        "details": "Emits a {Transfer} event."
      },
      "withdraw()": {
        "details": "The totals that the sender can withdraw is managed by the royalty controller"
      }
    },
    "title": "InfinityMint ERC721 Implementation",
    "version": 1
  },
  "userdoc": {
    "events": {
      "TokenPreviewComplete(address,uint256)": {
        "notice": "Fired when ever a preview has been completed"
      }
    },
    "kind": "user",
    "methods": {
      "approve(address,uint256)": {
        "notice": "Sets an approved adress for this token"
      },
      "balanceOf(address)": {
        "notice": "blanceOf returns the number of tokens an address currently holds."
      },
      "constructor": {
        "notice": "InfinityMint Constructor takes tokenName and tokenSymbol and the various destinations of controller contracts"
      },
      "currentTokenId()": {
        "notice": "numerical increment of the current tokenId"
      },
      "depositStickerRoyalty(uint32)": {
        "notice": "this can only be called by sticker contracts and is used to pay back the contract owner their sticker cut TODO: Turn this into a non static function capable of accepting payments not just from the sticker"
      },
      "depositSystemRoyalty(uint32)": {
        "notice": "Allows approved contracts to deposit royalty types"
      },
      "exists(uint256)": {
        "notice": "Returns true if a token exists."
      },
      "getApproved(uint256)": {
        "notice": "Returns the approved adress for this token."
      },
      "getPathId(uint32)": {
        "notice": "Gets the pathId of a token."
      },
      "getPreview()": {
        "notice": "Returns a selection of preview mints, these are ghost NFTs which can be chosen from. Their generation values are based off of eachover due to the nature of the number system."
      },
      "implicitMint(address,uint32,uint32,uint32[],bytes,uint32[],string[])": {
        "notice": "Allows approved or the deployer to pick exactly what token they would like to mint. Does not check if assets/colours/mintData is valid. Implicitly assets what ever."
      },
      "isApprovedForAll(address,address)": {
        "notice": "Will returns true if the operator is approved by the owner address"
      },
      "isApprovedOrOwner(address,uint256)": {
        "notice": "will returns true if the address is apprroved for all, approved operator or is the owner of a token"
      },
      "mint()": {
        "notice": "Public method to mint a token taking no bytes argument"
      },
      "mintArguments(bytes)": {
        "notice": "Public method to mint a token but taking input data in the form of packed bytes"
      },
      "mintPreview(uint32)": {
        "notice": "Mints a preview. Index is relative to the sender and is the index of the preview in the users preview list"
      },
      "minterController()": {
        "notice": "Interface set to the location of the minter controller which controls how InfinityMint mints, is set in constructor and can be modified through setDestinations"
      },
      "mintsEnabled()": {
        "notice": "will disallow mints if set to true"
      },
      "name()": {
        "notice": "Returns the name of the ERC721  for display on places like Etherscan"
      },
      "ownerOf(uint256)": {
        "notice": "Returns the owner of a current token"
      },
      "royaltyController()": {
        "notice": "Interface set to the location of the royalty controller which controls how  picks random numbers and primes, is set in constructor and can be modified through setDestinations"
      },
      "safeTransferFrom(address,address,uint256)": {
        "notice": "Just like the method above except with no data field we pass to the implemeting contract."
      },
      "safeTransferFrom(address,address,uint256,bytes)": {
        "notice": "Just like transferFrom except we will check if the to address is a contract and is an IERC721Receiver implementer"
      },
      "setApprovalForAll(address,bool)": {
        "notice": "Will approve an operator for the senders tokens"
      },
      "setMintsEnabled(bool)": {
        "notice": "Toggles mints allowing people to either mint or not mint tokens."
      },
      "setTokenURI(uint32,string)": {
        "notice": "sets the token URI"
      },
      "storageController()": {
        "notice": "Interface set to the location of the storage controller, is set in constructor and cannot be modified."
      },
      "supportsInterface(bytes4)": {
        "notice": "this is used by opensea/polyscan to detect our ERC721"
      },
      "symbol()": {
        "notice": "Returns the symbol of the ERC721 for display on places like Polyscan"
      },
      "tokenPrice()": {
        "notice": "Returns the current price of a mint."
      },
      "tokenURI(uint256)": {
        "notice": "returns the tokenURI for a token, will return the"
      },
      "totalSupply()": {
        "notice": "the total supply of tokens"
      },
      "transferBatch(uint256[],address)": {
        "notice": "Allows the ability for multiple tokens to be transfered at once."
      },
      "transferFrom(address,address,uint256)": {
        "notice": "Transfers a token fsrom one address to another. Use safeTransferFrom as that will double check that the address you send this token too is a contract that can actually receive it."
      },
      "valuesController()": {
        "notice": "Interface set to the location of the values controller responsible for managing global variables across the smart contract syste,, is set in constructor and cannot be modified."
      },
      "withdraw()": {
        "notice": "Allows you to withdraw your earnings from the contract."
      }
    },
    "notice": "@dev",
    "version": 1
  },
  "storageLayout": {
    "storage": [
      {
        "astId": 742,
        "contract": "contracts/InfinityMint.sol:InfinityMint",
        "label": "tokens",
        "offset": 0,
        "slot": "0",
        "type": "t_mapping(t_uint256,t_address)"
      },
      {
        "astId": 747,
        "contract": "contracts/InfinityMint.sol:InfinityMint",
        "label": "uri",
        "offset": 0,
        "slot": "1",
        "type": "t_mapping(t_uint256,t_string_storage)"
      },
      {
        "astId": 752,
        "contract": "contracts/InfinityMint.sol:InfinityMint",
        "label": "approvedTokens",
        "offset": 0,
        "slot": "2",
        "type": "t_mapping(t_uint256,t_address)"
      },
      {
        "astId": 759,
        "contract": "contracts/InfinityMint.sol:InfinityMint",
        "label": "operators",
        "offset": 0,
        "slot": "3",
        "type": "t_mapping(t_address,t_mapping(t_address,t_bool))"
      },
      {
        "astId": 764,
        "contract": "contracts/InfinityMint.sol:InfinityMint",
        "label": "balance",
        "offset": 0,
        "slot": "4",
        "type": "t_mapping(t_address,t_uint256)"
      },
      {
        "astId": 767,
        "contract": "contracts/InfinityMint.sol:InfinityMint",
        "label": "_name",
        "offset": 0,
        "slot": "5",
        "type": "t_string_storage"
      },
      {
        "astId": 770,
        "contract": "contracts/InfinityMint.sol:InfinityMint",
        "label": "_symbol",
        "offset": 0,
        "slot": "6",
        "type": "t_string_storage"
      },
      {
        "astId": 458,
        "contract": "contracts/InfinityMint.sol:InfinityMint",
        "label": "deployer",
        "offset": 0,
        "slot": "7",
        "type": "t_address"
      },
      {
        "astId": 461,
        "contract": "contracts/InfinityMint.sol:InfinityMint",
        "label": "executionCount",
        "offset": 0,
        "slot": "8",
        "type": "t_uint256"
      },
      {
        "astId": 465,
        "contract": "contracts/InfinityMint.sol:InfinityMint",
        "label": "approved",
        "offset": 0,
        "slot": "9",
        "type": "t_mapping(t_address,t_bool)"
      },
      {
        "astId": 1538,
        "contract": "contracts/InfinityMint.sol:InfinityMint",
        "label": "storageController",
        "offset": 0,
        "slot": "10",
        "type": "t_contract(InfinityMintStorage)6684"
      },
      {
        "astId": 1542,
        "contract": "contracts/InfinityMint.sol:InfinityMint",
        "label": "minterController",
        "offset": 0,
        "slot": "11",
        "type": "t_contract(Minter)7501"
      },
      {
        "astId": 1546,
        "contract": "contracts/InfinityMint.sol:InfinityMint",
        "label": "valuesController",
        "offset": 0,
        "slot": "12",
        "type": "t_contract(InfinityMintValues)7075"
      },
      {
        "astId": 1550,
        "contract": "contracts/InfinityMint.sol:InfinityMint",
        "label": "royaltyController",
        "offset": 0,
        "slot": "13",
        "type": "t_contract(Royalty)8137"
      },
      {
        "astId": 1578,
        "contract": "contracts/InfinityMint.sol:InfinityMint",
        "label": "currentTokenId",
        "offset": 20,
        "slot": "13",
        "type": "t_uint32"
      },
      {
        "astId": 1581,
        "contract": "contracts/InfinityMint.sol:InfinityMint",
        "label": "mintsEnabled",
        "offset": 24,
        "slot": "13",
        "type": "t_bool"
      }
    ],
    "types": {
      "t_address": {
        "encoding": "inplace",
        "label": "address",
        "numberOfBytes": "20"
      },
      "t_bool": {
        "encoding": "inplace",
        "label": "bool",
        "numberOfBytes": "1"
      },
      "t_contract(InfinityMintStorage)6684": {
        "encoding": "inplace",
        "label": "contract InfinityMintStorage",
        "numberOfBytes": "20"
      },
      "t_contract(InfinityMintValues)7075": {
        "encoding": "inplace",
        "label": "contract InfinityMintValues",
        "numberOfBytes": "20"
      },
      "t_contract(Minter)7501": {
        "encoding": "inplace",
        "label": "contract Minter",
        "numberOfBytes": "20"
      },
      "t_contract(Royalty)8137": {
        "encoding": "inplace",
        "label": "contract Royalty",
        "numberOfBytes": "20"
      },
      "t_mapping(t_address,t_bool)": {
        "encoding": "mapping",
        "key": "t_address",
        "label": "mapping(address => bool)",
        "numberOfBytes": "32",
        "value": "t_bool"
      },
      "t_mapping(t_address,t_mapping(t_address,t_bool))": {
        "encoding": "mapping",
        "key": "t_address",
        "label": "mapping(address => mapping(address => bool))",
        "numberOfBytes": "32",
        "value": "t_mapping(t_address,t_bool)"
      },
      "t_mapping(t_address,t_uint256)": {
        "encoding": "mapping",
        "key": "t_address",
        "label": "mapping(address => uint256)",
        "numberOfBytes": "32",
        "value": "t_uint256"
      },
      "t_mapping(t_uint256,t_address)": {
        "encoding": "mapping",
        "key": "t_uint256",
        "label": "mapping(uint256 => address)",
        "numberOfBytes": "32",
        "value": "t_address"
      },
      "t_mapping(t_uint256,t_string_storage)": {
        "encoding": "mapping",
        "key": "t_uint256",
        "label": "mapping(uint256 => string)",
        "numberOfBytes": "32",
        "value": "t_string_storage"
      },
      "t_string_storage": {
        "encoding": "bytes",
        "label": "string",
        "numberOfBytes": "32"
      },
      "t_uint256": {
        "encoding": "inplace",
        "label": "uint256",
        "numberOfBytes": "32"
      },
      "t_uint32": {
        "encoding": "inplace",
        "label": "uint32",
        "numberOfBytes": "4"
      }
    }
  }
}