{
  "_format": "hh-sol-artifact-1",
  "contractName": "Mod_TokenBet",
  "sourceName": "contracts/__mods/TokenBet.sol",
  "abi": [
    {
      "inputs": [
        {
          "internalType": "address",
          "name": "oracleDestination",
          "type": "address"
        },
        {
          "internalType": "address",
          "name": "erc721Destination",
          "type": "address"
        },
        {
          "internalType": "string",
          "name": "defaultBetURI",
          "type": "string"
        },
        {
          "internalType": "uint256",
          "name": "startingPrice",
          "type": "uint256"
        },
        {
          "internalType": "uint256",
          "name": "startingHousePercentage",
          "type": "uint256"
        },
        {
          "internalType": "address",
          "name": "storageDestination",
          "type": "address"
        }
      ],
      "stateMutability": "nonpayable",
      "type": "constructor"
    },
    {
      "anonymous": false,
      "inputs": [
        {
          "indexed": true,
          "internalType": "address",
          "name": "sender",
          "type": "address"
        },
        {
          "indexed": false,
          "internalType": "uint256",
          "name": "branchId",
          "type": "uint256"
        },
        {
          "indexed": false,
          "internalType": "uint256",
          "name": "branchLength",
          "type": "uint256"
        }
      ],
      "name": "Bet",
      "type": "event"
    },
    {
      "anonymous": false,
      "inputs": [
        {
          "indexed": false,
          "internalType": "uint256",
          "name": "winningBranchId",
          "type": "uint256"
        },
        {
          "indexed": false,
          "internalType": "uint256",
          "name": "totalShare",
          "type": "uint256"
        },
        {
          "indexed": false,
          "internalType": "uint256",
          "name": "branchLength",
          "type": "uint256"
        }
      ],
      "name": "Finish",
      "type": "event"
    },
    {
      "anonymous": false,
      "inputs": [
        {
          "indexed": true,
          "internalType": "address",
          "name": "sender",
          "type": "address"
        },
        {
          "indexed": true,
          "internalType": "address",
          "name": "changee",
          "type": "address"
        },
        {
          "indexed": false,
          "internalType": "bool",
          "name": "value",
          "type": "bool"
        }
      ],
      "name": "PermissionChange",
      "type": "event"
    },
    {
      "anonymous": false,
      "inputs": [
        {
          "indexed": true,
          "internalType": "address",
          "name": "from",
          "type": "address"
        },
        {
          "indexed": true,
          "internalType": "address",
          "name": "to",
          "type": "address"
        }
      ],
      "name": "TransferedOwnership",
      "type": "event"
    },
    {
      "inputs": [
        {
          "internalType": "address",
          "name": "",
          "type": "address"
        }
      ],
      "name": "approved",
      "outputs": [
        {
          "internalType": "bool",
          "name": "",
          "type": "bool"
        }
      ],
      "stateMutability": "view",
      "type": "function"
    },
    {
      "inputs": [],
      "name": "basePrice",
      "outputs": [
        {
          "internalType": "uint256",
          "name": "",
          "type": "uint256"
        }
      ],
      "stateMutability": "view",
      "type": "function"
    },
    {
      "inputs": [],
      "name": "begin",
      "outputs": [],
      "stateMutability": "nonpayable",
      "type": "function"
    },
    {
      "inputs": [],
      "name": "branchCount",
      "outputs": [
        {
          "internalType": "uint256",
          "name": "",
          "type": "uint256"
        }
      ],
      "stateMutability": "view",
      "type": "function"
    },
    {
      "inputs": [
        {
          "internalType": "uint256",
          "name": "",
          "type": "uint256"
        }
      ],
      "name": "branchLength",
      "outputs": [
        {
          "internalType": "uint256",
          "name": "",
          "type": "uint256"
        }
      ],
      "stateMutability": "view",
      "type": "function"
    },
    {
      "inputs": [
        {
          "internalType": "uint256",
          "name": "",
          "type": "uint256"
        }
      ],
      "name": "branches",
      "outputs": [
        {
          "internalType": "bytes",
          "name": "",
          "type": "bytes"
        }
      ],
      "stateMutability": "view",
      "type": "function"
    },
    {
      "inputs": [],
      "name": "close",
      "outputs": [],
      "stateMutability": "nonpayable",
      "type": "function"
    },
    {
      "inputs": [],
      "name": "closing",
      "outputs": [
        {
          "internalType": "bool",
          "name": "",
          "type": "bool"
        }
      ],
      "stateMutability": "view",
      "type": "function"
    },
    {
      "inputs": [],
      "name": "deployer",
      "outputs": [
        {
          "internalType": "address",
          "name": "",
          "type": "address"
        }
      ],
      "stateMutability": "view",
      "type": "function"
    },
    {
      "inputs": [
        {
          "internalType": "uint256",
          "name": "branchId",
          "type": "uint256"
        }
      ],
      "name": "finish",
      "outputs": [],
      "stateMutability": "nonpayable",
      "type": "function"
    },
    {
      "inputs": [
        {
          "internalType": "address",
          "name": "addr",
          "type": "address"
        },
        {
          "internalType": "uint256",
          "name": "branchId",
          "type": "uint256"
        },
        {
          "internalType": "uint256",
          "name": "branchIndex",
          "type": "uint256"
        }
      ],
      "name": "getBet",
      "outputs": [
        {
          "internalType": "bytes",
          "name": "",
          "type": "bytes"
        }
      ],
      "stateMutability": "view",
      "type": "function"
    },
    {
      "inputs": [
        {
          "internalType": "address",
          "name": "addr",
          "type": "address"
        },
        {
          "internalType": "uint256",
          "name": "branchId",
          "type": "uint256"
        }
      ],
      "name": "getBetCount",
      "outputs": [
        {
          "internalType": "uint256",
          "name": "",
          "type": "uint256"
        }
      ],
      "stateMutability": "view",
      "type": "function"
    },
    {
      "inputs": [
        {
          "internalType": "address",
          "name": "addr",
          "type": "address"
        },
        {
          "internalType": "uint256",
          "name": "branchId",
          "type": "uint256"
        },
        {
          "internalType": "uint256[]",
          "name": "branchIndex",
          "type": "uint256[]"
        }
      ],
      "name": "getBets",
      "outputs": [
        {
          "internalType": "bytes[]",
          "name": "result",
          "type": "bytes[]"
        }
      ],
      "stateMutability": "view",
      "type": "function"
    },
    {
      "inputs": [],
      "name": "housePercentage",
      "outputs": [
        {
          "internalType": "uint256",
          "name": "",
          "type": "uint256"
        }
      ],
      "stateMutability": "view",
      "type": "function"
    },
    {
      "inputs": [
        {
          "internalType": "address",
          "name": "addr",
          "type": "address"
        }
      ],
      "name": "isAuthenticated",
      "outputs": [
        {
          "internalType": "bool",
          "name": "",
          "type": "bool"
        }
      ],
      "stateMutability": "view",
      "type": "function"
    },
    {
      "inputs": [
        {
          "internalType": "address[]",
          "name": "addrs",
          "type": "address[]"
        }
      ],
      "name": "multiApprove",
      "outputs": [],
      "stateMutability": "nonpayable",
      "type": "function"
    },
    {
      "inputs": [
        {
          "internalType": "address[]",
          "name": "addrs",
          "type": "address[]"
        }
      ],
      "name": "multiRevoke",
      "outputs": [],
      "stateMutability": "nonpayable",
      "type": "function"
    },
    {
      "inputs": [
        {
          "internalType": "uint256",
          "name": "tokenId",
          "type": "uint256"
        }
      ],
      "name": "placeBet",
      "outputs": [],
      "stateMutability": "payable",
      "type": "function"
    },
    {
      "inputs": [],
      "name": "pot",
      "outputs": [
        {
          "internalType": "uint256",
          "name": "",
          "type": "uint256"
        }
      ],
      "stateMutability": "view",
      "type": "function"
    },
    {
      "inputs": [],
      "name": "registered",
      "outputs": [
        {
          "internalType": "bool",
          "name": "",
          "type": "bool"
        }
      ],
      "stateMutability": "view",
      "type": "function"
    },
    {
      "inputs": [
        {
          "internalType": "uint256",
          "name": "branchId",
          "type": "uint256"
        },
        {
          "internalType": "bytes",
          "name": "branchUri",
          "type": "bytes"
        }
      ],
      "name": "setBranch",
      "outputs": [],
      "stateMutability": "nonpayable",
      "type": "function"
    },
    {
      "inputs": [],
      "name": "setInitialPot",
      "outputs": [],
      "stateMutability": "payable",
      "type": "function"
    },
    {
      "inputs": [
        {
          "internalType": "address",
          "name": "addr",
          "type": "address"
        },
        {
          "internalType": "bool",
          "name": "value",
          "type": "bool"
        }
      ],
      "name": "setPrivilages",
      "outputs": [],
      "stateMutability": "nonpayable",
      "type": "function"
    },
    {
      "inputs": [
        {
          "internalType": "address",
          "name": "addr",
          "type": "address"
        }
      ],
      "name": "transferOwnership",
      "outputs": [],
      "stateMutability": "nonpayable",
      "type": "function"
    },
    {
      "inputs": [],
      "name": "uri",
      "outputs": [
        {
          "internalType": "string",
          "name": "",
          "type": "string"
        }
      ],
      "stateMutability": "view",
      "type": "function"
    },
    {
      "inputs": [
        {
          "internalType": "address",
          "name": "",
          "type": "address"
        }
      ],
      "name": "winnings",
      "outputs": [
        {
          "internalType": "uint256",
          "name": "",
          "type": "uint256"
        }
      ],
      "stateMutability": "view",
      "type": "function"
    },
    {
      "inputs": [],
      "name": "withdraw",
      "outputs": [],
      "stateMutability": "nonpayable",
      "type": "function"
    }
  ],
  "bytecode": "0x60806040523480156200001157600080fd5b50604051620024a2380380620024a28339810160408190526200003491620001db565b600080546001600160a01b03191633908117825581526002602090815260408220805460ff1916600190811790915591909155845187918791879187918791620000849160039186019062000102565b50600980546001600160a01b039687166001600160a01b03199182168117909255600a8054968816968216969096179095556005929092556007556004805460ff1990811690915560009182526002602052604090912080549091166001179055506010805493909216921691909117905550620003419350505050565b828054620001109062000304565b90600052602060002090601f0160209004810192826200013457600085556200017f565b82601f106200014f57805160ff19168380011785556200017f565b828001600101855582156200017f579182015b828111156200017f57825182559160200191906001019062000162565b506200018d92915062000191565b5090565b5b808211156200018d576000815560010162000192565b80516001600160a01b0381168114620001c057600080fd5b919050565b634e487b7160e01b600052604160045260246000fd5b60008060008060008060c08789031215620001f557600080fd5b6200020087620001a8565b9550602062000211818901620001a8565b60408901519096506001600160401b03808211156200022f57600080fd5b818a0191508a601f8301126200024457600080fd5b815181811115620002595762000259620001c5565b604051601f8201601f19908116603f01168101908382118183101715620002845762000284620001c5565b816040528281528d868487010111156200029d57600080fd5b600093505b82841015620002c15784840186015181850187015292850192620002a2565b82841115620002d35760008684830101525b8099505050505050506060870151925060808701519150620002f860a08801620001a8565b90509295509295509295565b600181811c908216806200031957607f821691505b602082108114156200033b57634e487b7160e01b600052602260045260246000fd5b50919050565b61215180620003516000396000f3fe60806040526004361061013c5760003560e01c806310a8c7a91461014157806310fe7c48146101635780631bce6ff3146101765780632de40ce31461018b57806331ed86d2146101ba5780633ccfd60b146101da57806341931a4a146101ef57806343d726d614610213578063450fe3911461022857806349d2e2771461026b5780634ba2363a1461028157806383cc76601461029757806387734d53146102c4578063978de33a146102e4578063a182ac38146102ec578063c7876ea414610319578063d15d41501461032f578063d353a1cb1461034f578063d5f394881461036f578063d8b964e6146103a7578063ea3a1499146103d7578063eac989f814610404578063ee09cefd14610419578063f2fde38b14610446578063f6e6eb7e14610466578063f872b71514610485578063fe684c0e146104a5575b600080fd5b34801561014d57600080fd5b5061016161015c366004611815565b6104c5565b005b6101616101713660046118b3565b610565565b34801561018257600080fd5b50610161610720565b34801561019757600080fd5b506004546101a59060ff1681565b60405190151581526020015b60405180910390f35b3480156101c657600080fd5b506101616101d5366004611815565b6107bb565b3480156101e657600080fd5b5061016161084e565b3480156101fb57600080fd5b5061020560085481565b6040519081526020016101b1565b34801561021f57600080fd5b50610161610919565b34801561023457600080fd5b506102056102433660046118cc565b6001600160a01b03919091166000908152600f60209081526040808320938352929052205490565b34801561027757600080fd5b5061020560075481565b34801561028d57600080fd5b5061020560065481565b3480156102a357600080fd5b506102b76102b23660046118b3565b6109eb565b6040516101b19190611954565b3480156102d057600080fd5b506102b76102df366004611967565b610a85565b610161610b74565b3480156102f857600080fd5b5061030c61030736600461199c565b610c1d565b6040516101b19190611a4a565b34801561032557600080fd5b5061020560055481565b34801561033b57600080fd5b506101a561034a366004611aac565b610ccb565b34801561035b57600080fd5b5061016161036a3660046118b3565b610d06565b34801561037b57600080fd5b5060005461038f906001600160a01b031681565b6040516001600160a01b0390911681526020016101b1565b3480156103b357600080fd5b506101a56103c2366004611aac565b60026020526000908152604090205460ff1681565b3480156103e357600080fd5b506102056103f2366004611aac565b600d6020526000908152604090205481565b34801561041057600080fd5b506102b76111c4565b34801561042557600080fd5b506102056104343660046118b3565b600b6020526000908152604090205481565b34801561045257600080fd5b50610161610461366004611aac565b6111d1565b34801561047257600080fd5b506004546101a590610100900460ff1681565b34801561049157600080fd5b506101616104a0366004611af0565b611271565b3480156104b157600080fd5b506101616104c0366004611b82565b6112d9565b6000546001600160a01b031633146104f85760405162461bcd60e51b81526004016104ef90611bbb565b60405180910390fd5b805161050357600080fd5b60005b81518110156105615760016002600084848151811061052757610527611be1565b6020908102919091018101516001600160a01b03168252810191909152604001600020805460ff1916911515919091179055600101610506565b5050565b600a546001600160a01b031663430c2081336040516001600160e01b031960e084901b1681526001600160a01b03909116600482015260248101849052604401602060405180830381865afa1580156105c2573d6000803e3d6000fd5b505050506040513d601f19601f820116820180604052508101906105e69190611bf7565b6106295760405162461bcd60e51b815260206004820152601460248201527336bab9ba103132903a37b5b2b7103437b63232b960611b60448201526064016104ef565b601054604051636c51371d60e11b815263ffffffff831660048201526000916001600160a01b03169063d8a26e3a90602401600060405180830381865afa158015610678573d6000803e3d6000fd5b505050506040513d6000823e601f3d908101601f191682016040526106a09190810190611ded565b805163ffffffff166000908152600c602052604090208054919250906106c590611f32565b1515905061070f5760405162461bcd60e51b81526020600482015260176024820152760dcde40c4e4c2dcc6d040ccdee440e8d0d2e640e0c2e8d604b1b60448201526064016104ef565b80516105619063ffffffff166113bb565b6000546001600160a01b031633148061074857503360009081526002602052604090205460ff165b6107645760405162461bcd60e51b81526004016104ef90611f6d565b60045460ff16156107ac5760405162461bcd60e51b8152602060048201526012602482015271185b1c9958591e481c9959da5cdd195c995960721b60448201526064016104ef565b6004805460ff19166001179055565b6000546001600160a01b031633146107e55760405162461bcd60e51b81526004016104ef90611bbb565b80516107f057600080fd5b60005b81518110156105615760006002600084848151811061081457610814611be1565b6020908102919091018101516001600160a01b03168252810191909152604001600020805460ff19169115159190911790556001016107f3565b60018060008282546108609190611fa9565b9091555050600154336000908152600d60205260409020546108b25760405162461bcd60e51b815260206004820152600b60248201526a6e6f2077696e6e696e677360a81b60448201526064016104ef565b336000818152600d6020526040808220805490839055905190929183156108fc02918491818181858888f193505050501580156108f3573d6000803e3d6000fd5b505060015481146109165760405162461bcd60e51b81526004016104ef90611fc1565b50565b6000546001600160a01b031633148061094157503360009081526002602052604090205460ff165b61095d5760405162461bcd60e51b81526004016104ef90611f6d565b6009546001600160a01b0316336001600160a01b0316146109905760405162461bcd60e51b81526004016104ef90611fe3565b600454610100900460ff16156109da5760405162461bcd60e51b815260206004820152600f60248201526e616c726561647920636c6f73696e6760881b60448201526064016104ef565b6004805461ff001916610100179055565b600c6020526000908152604090208054610a0490611f32565b80601f0160208091040260200160405190810160405280929190818152602001828054610a3090611f32565b8015610a7d5780601f10610a5257610100808354040283529160200191610a7d565b820191906000526020600020905b815481529060010190602001808311610a6057829003601f168201915b505050505081565b6000828152600e602090815260408083206001600160a01b0387168452600f835281842086855290925282208054606093919085908110610ac857610ac8611be1565b906000526020600020015481526020019081526020016000208054610aec90611f32565b80601f0160208091040260200160405190810160405280929190818152602001828054610b1890611f32565b8015610b655780601f10610b3a57610100808354040283529160200191610b65565b820191906000526020600020905b815481529060010190602001808311610b4857829003601f168201915b505050505090505b9392505050565b6000546001600160a01b0316331480610b9c57503360009081526002602052604090205460ff165b610bb85760405162461bcd60e51b81526004016104ef90611f6d565b60045460ff1615610c175760405162461bcd60e51b8152602060048201526024808201527f63616e6e6f74206368616e676520706f742061667465722072656769737472616044820152633a34b7b760e11b60648201526084016104ef565b34600655565b606081516001600160401b03811115610c3857610c3861176e565b604051908082528060200260200182016040528015610c6b57816020015b6060815260200190600190039081610c565790505b50905060005b8251811015610cc357610c9e8585858481518110610c9157610c91611be1565b6020026020010151610a85565b828281518110610cb057610cb0611be1565b6020908102919091010152600101610c71565b509392505050565b600080546001600160a01b0383811691161480610d0057506001600160a01b03821660009081526002602052604090205460ff165b92915050565b6000546001600160a01b0316331480610d2e57503360009081526002602052604090205460ff165b610d4a5760405162461bcd60e51b81526004016104ef90611f6d565b6001806000828254610d5c9190611fa9565b909155505060015460045460ff16610d865760405162461bcd60e51b81526004016104ef90612025565b6009546001600160a01b0316336001600160a01b031614610db95760405162461bcd60e51b81526004016104ef90611fe3565b6000828152600b602052604090205460065481610e3757600a546006546040516335daa6f960e11b8152600160048201526001600160a01b0390921691636bb54df291906024016000604051808303818588803b158015610e1957600080fd5b505af1158015610e2d573d6000803e3d6000fd5b5050505050611153565b8160011415610f1a576000848152600e6020908152604080832083805290915281208054610e6490611f32565b80601f0160208091040260200160405190810160405280929190818152602001828054610e9090611f32565b8015610edd5780601f10610eb257610100808354040283529160200191610edd565b820191906000526020600020905b815481529060010190602001808311610ec057829003601f168201915b5050505050806020019051810190610ef5919061205a565b50506006546001600160a01b039091166000908152600d602052604090205550611153565b81600654610f289190612091565b90505b80610f5057610f39826120b3565b915081600654610f499190612091565b9050610f2b565b6000848152600b6020526040902054821461106c576000848152600b6020526040812054610f7f9084906120ca565b905060005b81811015611069576000868152600e6020908152604080832083805290915281208054829190610fb390611f32565b80601f0160208091040260200160405190810160405280929190818152602001828054610fdf90611f32565b801561102c5780601f106110015761010080835404028352916020019161102c565b820191906000526020600020905b81548152906001019060200180831161100f57829003601f168201915b5050505050806020019051810190611044919061205a565b506001600160a01b039091166000908152600d60205260409020555050600101610f84565b50505b60005b82811015611151576000858152600e602090815260408083208380529091528120805461109b90611f32565b80601f01602080910402602001604051908101604052809291908181526020018280546110c790611f32565b80156111145780601f106110e957610100808354040283529160200191611114565b820191906000526020600020905b8154815290600101906020018083116110f757829003601f168201915b505050505080602001905181019061112c919061205a565b50506001600160a01b03166000908152600d602052604090208390555060010161106f565b505b6000848152600b60209081526040918290205482518781529182018490528183015290517fbc29e637e43613661373bf1e26946b9fbc95c9b2d2108467662cd55e570c811f9181900360600190a1505060015481146105615760405162461bcd60e51b81526004016104ef90611fc1565b60038054610a0490611f32565b6000546001600160a01b031633146111fb5760405162461bcd60e51b81526004016104ef90611bbb565b600080546001600160a01b03908116825260026020526040808320805460ff1990811690915583546001600160a01b03191692851692831784558284528184208054909116600117905551909133917f93091b3f3cd424efabc74e181f3799f3476ed758412561ed3b29515c51f567529190a350565b6000546001600160a01b031633148061129957503360009081526002602052604090205460ff165b6112b55760405162461bcd60e51b81526004016104ef90611f6d565b6000828152600c6020908152604090912082516112d4928401906116d5565b505050565b6000546001600160a01b031633146113035760405162461bcd60e51b81526004016104ef90611bbb565b6000546001600160a01b038381169116141561135a5760405162461bcd60e51b815260206004820152601660248201527531b0b73737ba1036b7b234b33c903232b83637bcb2b960511b60448201526064016104ef565b6001600160a01b038216600081815260026020908152604091829020805460ff1916851515908117909155915191825233917ff38de818d000d07d091732dd783c6855722d7bc1934d92b7635133289d341695910160405180910390a35050565b60018060008282546113cd9190611fa9565b9091555050600154600454610100900460ff16156114285760405162461bcd60e51b81526020600482015260186024820152776e6f206d6f726520626574732063616e206265206d61646560401b60448201526064016104ef565b60045460ff1661144a5760405162461bcd60e51b81526004016104ef90612025565b60055434146114995760405162461bcd60e51b815260206004820152601b60248201527a7072696365206d757374206d61746368206261736520707269636560281b60448201526064016104ef565b6000828152600c6020526040902080546114b290611f32565b151590506114f35760405162461bcd60e51b815260206004820152600e60248201526d0d2dcecc2d8d2c840c4e4c2dcc6d60931b60448201526064016104ef565b3334604080516001600160a01b0390931660208401528201526060810183905260800160408051601f198184030181529181526000848152600e6020908152828220600b825283832054835281529190208251611555939192909101906116d5565b50336000908152600f602090815260408083208584528252808320600b8352908320548154600181018355918452919092209091015560055460641161164057600060646007546115a69190612091565b6115b090346120e1565b600a546040516335daa6f960e11b8152600160048201529192506001600160a01b031690636bb54df29083906024016000604051808303818588803b1580156115f857600080fd5b505af115801561160c573d6000803e3d6000fd5b5050505050806116193490565b61162391906120ca565b600660008282546116349190611fa9565b90915550611658915050565b34600660008282546116529190611fa9565b90915550505b6000828152600b60205260408120805433927ff41b7910e085d0992d604fd470931728fd77cc8eb504d99e50e51a0a30fcfd1a9286929161169883612100565b909155506040805192835260208301919091520160405180910390a260015481146105615760405162461bcd60e51b81526004016104ef90611fc1565b8280546116e190611f32565b90600052602060002090601f0160209004810192826117035760008555611749565b82601f1061171c57805160ff1916838001178555611749565b82800160010185558215611749579182015b8281111561174957825182559160200191906001019061172e565b50611755929150611759565b5090565b5b80821115611755576000815560010161175a565b634e487b7160e01b600052604160045260246000fd5b60405161012081016001600160401b03811182821017156117a7576117a761176e565b60405290565b604051601f8201601f191681016001600160401b03811182821017156117d5576117d561176e565b604052919050565b60006001600160401b038211156117f6576117f661176e565b5060051b60200190565b6001600160a01b038116811461091657600080fd5b6000602080838503121561182857600080fd5b82356001600160401b0381111561183e57600080fd5b8301601f8101851361184f57600080fd5b803561186261185d826117dd565b6117ad565b81815260059190911b8201830190838101908783111561188157600080fd5b928401925b828410156118a857833561189981611800565b82529284019290840190611886565b979650505050505050565b6000602082840312156118c557600080fd5b5035919050565b600080604083850312156118df57600080fd5b82356118ea81611800565b946020939093013593505050565b60005b838110156119135781810151838201526020016118fb565b83811115611922576000848401525b50505050565b600081518084526119408160208601602086016118f8565b601f01601f19169290920160200192915050565b602081526000610b6d6020830184611928565b60008060006060848603121561197c57600080fd5b833561198781611800565b95602085013595506040909401359392505050565b6000806000606084860312156119b157600080fd5b83356119bc81611800565b9250602084810135925060408501356001600160401b038111156119df57600080fd5b8501601f810187136119f057600080fd5b80356119fe61185d826117dd565b81815260059190911b82018301908381019089831115611a1d57600080fd5b928401925b82841015611a3b57833582529284019290840190611a22565b80955050505050509250925092565b6000602080830181845280855180835260408601915060408160051b870101925083870160005b82811015611a9f57603f19888603018452611a8d858351611928565b94509285019290850190600101611a71565b5092979650505050505050565b600060208284031215611abe57600080fd5b8135610b6d81611800565b60006001600160401b03821115611ae257611ae261176e565b50601f01601f191660200190565b60008060408385031215611b0357600080fd5b8235915060208301356001600160401b03811115611b2057600080fd5b8301601f81018513611b3157600080fd5b8035611b3f61185d82611ac9565b818152866020838501011115611b5457600080fd5b816020840160208301376000602083830101528093505050509250929050565b801515811461091657600080fd5b60008060408385031215611b9557600080fd5b8235611ba081611800565b91506020830135611bb081611b74565b809150509250929050565b6020808252600c908201526b3737ba103232b83637bcb2b960a11b604082015260600190565b634e487b7160e01b600052603260045260246000fd5b600060208284031215611c0957600080fd5b8151610b6d81611b74565b805163ffffffff81168114611c2857600080fd5b919050565b8051611c2881611800565b600082601f830112611c4957600080fd5b81516020611c5961185d836117dd565b82815260059290921b84018101918181019086841115611c7857600080fd5b8286015b84811015611c9a57611c8d81611c14565b8352918301918301611c7c565b509695505050505050565b6000611cb361185d84611ac9565b9050828152838383011115611cc757600080fd5b610b6d8360208301846118f8565b600082601f830112611ce657600080fd5b610b6d83835160208501611ca5565b600082601f830112611d0657600080fd5b81516020611d1661185d836117dd565b82815260059290921b84018101918181019086841115611d3557600080fd5b8286015b84811015611c9a5780516001600160401b03811115611d585760008081fd5b8701603f81018913611d6a5760008081fd5b611d7b898683015160408401611ca5565b845250918301918301611d39565b600082601f830112611d9a57600080fd5b81516020611daa61185d836117dd565b82815260059290921b84018101918181019086841115611dc957600080fd5b8286015b84811015611c9a578051611de081611800565b8352918301918301611dcd565b600060208284031215611dff57600080fd5b81516001600160401b0380821115611e1657600080fd5b908301906101208286031215611e2b57600080fd5b611e33611784565b611e3c83611c14565b8152611e4a60208401611c14565b6020820152611e5b60408401611c14565b6040820152611e6c60608401611c2d565b6060820152608083015182811115611e8357600080fd5b611e8f87828601611c38565b60808301525060a083015182811115611ea757600080fd5b611eb387828601611cd5565b60a08301525060c083015182811115611ecb57600080fd5b611ed787828601611c38565b60c08301525060e083015182811115611eef57600080fd5b611efb87828601611cf5565b60e0830152506101008084015183811115611f1557600080fd5b611f2188828701611d89565b918301919091525095945050505050565b600181811c90821680611f4657607f821691505b60208210811415611f6757634e487b7160e01b600052602260045260246000fd5b50919050565b6020808252600c908201526b1b9bdd08185c1c1c9bdd995960a21b604082015260600190565b634e487b7160e01b600052601160045260246000fd5b60008219821115611fbc57611fbc611f93565b500190565b60208082526008908201526772652d656e74727960c01b604082015260600190565b60208082526022908201527f63616e206f6e6c792062652073656e742066726f6d20686f757365206f7261636040820152616c6560f01b606082015260800190565b6020808252818101527f626574206e6f7420736574207570207769746820686f757365206f7261636c65604082015260600190565b60008060006060848603121561206f57600080fd5b835161207a81611800565b602085015160409095015190969495509392505050565b6000826120ae57634e487b7160e01b600052601260045260246000fd5b500490565b6000816120c2576120c2611f93565b506000190190565b6000828210156120dc576120dc611f93565b500390565b60008160001904831182151516156120fb576120fb611f93565b500290565b600060001982141561211457612114611f93565b506001019056fea26469706673582212208d798f61e2d9aac7c9d31a2bb7aab15c9f2b477cf37102e0083fc305cc9b9b5264736f6c634300080c0033",
  "linkReferences": {},
  "deployedLinkReferences": {}
}