{
  "_format": "hh-sol-artifact-1",
  "contractName": "Mod_Bet",
  "sourceName": "contracts/__mods/Bet.sol",
  "abi": [
    {
      "inputs": [
        {
          "internalType": "address",
          "name": "oracleDestination",
          "type": "address"
        },
        {
          "internalType": "address",
          "name": "erc721Destination",
          "type": "address"
        },
        {
          "internalType": "string",
          "name": "defaultBetURI",
          "type": "string"
        },
        {
          "internalType": "uint256",
          "name": "startingPrice",
          "type": "uint256"
        },
        {
          "internalType": "uint256",
          "name": "startingHousePercentage",
          "type": "uint256"
        }
      ],
      "stateMutability": "nonpayable",
      "type": "constructor"
    },
    {
      "anonymous": false,
      "inputs": [
        {
          "indexed": true,
          "internalType": "address",
          "name": "sender",
          "type": "address"
        },
        {
          "indexed": false,
          "internalType": "uint256",
          "name": "branchId",
          "type": "uint256"
        },
        {
          "indexed": false,
          "internalType": "uint256",
          "name": "branchLength",
          "type": "uint256"
        }
      ],
      "name": "Bet",
      "type": "event"
    },
    {
      "anonymous": false,
      "inputs": [
        {
          "indexed": false,
          "internalType": "uint256",
          "name": "winningBranchId",
          "type": "uint256"
        },
        {
          "indexed": false,
          "internalType": "uint256",
          "name": "totalShare",
          "type": "uint256"
        },
        {
          "indexed": false,
          "internalType": "uint256",
          "name": "branchLength",
          "type": "uint256"
        }
      ],
      "name": "Finish",
      "type": "event"
    },
    {
      "anonymous": false,
      "inputs": [
        {
          "indexed": true,
          "internalType": "address",
          "name": "sender",
          "type": "address"
        },
        {
          "indexed": true,
          "internalType": "address",
          "name": "changee",
          "type": "address"
        },
        {
          "indexed": false,
          "internalType": "bool",
          "name": "value",
          "type": "bool"
        }
      ],
      "name": "PermissionChange",
      "type": "event"
    },
    {
      "anonymous": false,
      "inputs": [
        {
          "indexed": true,
          "internalType": "address",
          "name": "from",
          "type": "address"
        },
        {
          "indexed": true,
          "internalType": "address",
          "name": "to",
          "type": "address"
        }
      ],
      "name": "TransferedOwnership",
      "type": "event"
    },
    {
      "inputs": [
        {
          "internalType": "address",
          "name": "",
          "type": "address"
        }
      ],
      "name": "approved",
      "outputs": [
        {
          "internalType": "bool",
          "name": "",
          "type": "bool"
        }
      ],
      "stateMutability": "view",
      "type": "function"
    },
    {
      "inputs": [],
      "name": "basePrice",
      "outputs": [
        {
          "internalType": "uint256",
          "name": "",
          "type": "uint256"
        }
      ],
      "stateMutability": "view",
      "type": "function"
    },
    {
      "inputs": [],
      "name": "begin",
      "outputs": [],
      "stateMutability": "nonpayable",
      "type": "function"
    },
    {
      "inputs": [],
      "name": "branchCount",
      "outputs": [
        {
          "internalType": "uint256",
          "name": "",
          "type": "uint256"
        }
      ],
      "stateMutability": "view",
      "type": "function"
    },
    {
      "inputs": [
        {
          "internalType": "uint256",
          "name": "",
          "type": "uint256"
        }
      ],
      "name": "branchLength",
      "outputs": [
        {
          "internalType": "uint256",
          "name": "",
          "type": "uint256"
        }
      ],
      "stateMutability": "view",
      "type": "function"
    },
    {
      "inputs": [
        {
          "internalType": "uint256",
          "name": "",
          "type": "uint256"
        }
      ],
      "name": "branches",
      "outputs": [
        {
          "internalType": "bytes",
          "name": "",
          "type": "bytes"
        }
      ],
      "stateMutability": "view",
      "type": "function"
    },
    {
      "inputs": [],
      "name": "close",
      "outputs": [],
      "stateMutability": "nonpayable",
      "type": "function"
    },
    {
      "inputs": [],
      "name": "closing",
      "outputs": [
        {
          "internalType": "bool",
          "name": "",
          "type": "bool"
        }
      ],
      "stateMutability": "view",
      "type": "function"
    },
    {
      "inputs": [],
      "name": "deployer",
      "outputs": [
        {
          "internalType": "address",
          "name": "",
          "type": "address"
        }
      ],
      "stateMutability": "view",
      "type": "function"
    },
    {
      "inputs": [
        {
          "internalType": "uint256",
          "name": "branchId",
          "type": "uint256"
        }
      ],
      "name": "finish",
      "outputs": [],
      "stateMutability": "nonpayable",
      "type": "function"
    },
    {
      "inputs": [
        {
          "internalType": "address",
          "name": "addr",
          "type": "address"
        },
        {
          "internalType": "uint256",
          "name": "branchId",
          "type": "uint256"
        },
        {
          "internalType": "uint256",
          "name": "branchIndex",
          "type": "uint256"
        }
      ],
      "name": "getBet",
      "outputs": [
        {
          "internalType": "bytes",
          "name": "",
          "type": "bytes"
        }
      ],
      "stateMutability": "view",
      "type": "function"
    },
    {
      "inputs": [
        {
          "internalType": "address",
          "name": "addr",
          "type": "address"
        },
        {
          "internalType": "uint256",
          "name": "branchId",
          "type": "uint256"
        }
      ],
      "name": "getBetCount",
      "outputs": [
        {
          "internalType": "uint256",
          "name": "",
          "type": "uint256"
        }
      ],
      "stateMutability": "view",
      "type": "function"
    },
    {
      "inputs": [
        {
          "internalType": "address",
          "name": "addr",
          "type": "address"
        },
        {
          "internalType": "uint256",
          "name": "branchId",
          "type": "uint256"
        },
        {
          "internalType": "uint256[]",
          "name": "branchIndex",
          "type": "uint256[]"
        }
      ],
      "name": "getBets",
      "outputs": [
        {
          "internalType": "bytes[]",
          "name": "result",
          "type": "bytes[]"
        }
      ],
      "stateMutability": "view",
      "type": "function"
    },
    {
      "inputs": [],
      "name": "housePercentage",
      "outputs": [
        {
          "internalType": "uint256",
          "name": "",
          "type": "uint256"
        }
      ],
      "stateMutability": "view",
      "type": "function"
    },
    {
      "inputs": [
        {
          "internalType": "address",
          "name": "addr",
          "type": "address"
        }
      ],
      "name": "isAuthenticated",
      "outputs": [
        {
          "internalType": "bool",
          "name": "",
          "type": "bool"
        }
      ],
      "stateMutability": "view",
      "type": "function"
    },
    {
      "inputs": [
        {
          "internalType": "address[]",
          "name": "addrs",
          "type": "address[]"
        }
      ],
      "name": "multiApprove",
      "outputs": [],
      "stateMutability": "nonpayable",
      "type": "function"
    },
    {
      "inputs": [
        {
          "internalType": "address[]",
          "name": "addrs",
          "type": "address[]"
        }
      ],
      "name": "multiRevoke",
      "outputs": [],
      "stateMutability": "nonpayable",
      "type": "function"
    },
    {
      "inputs": [
        {
          "internalType": "uint256",
          "name": "branchId",
          "type": "uint256"
        }
      ],
      "name": "placeBet",
      "outputs": [],
      "stateMutability": "payable",
      "type": "function"
    },
    {
      "inputs": [],
      "name": "pot",
      "outputs": [
        {
          "internalType": "uint256",
          "name": "",
          "type": "uint256"
        }
      ],
      "stateMutability": "view",
      "type": "function"
    },
    {
      "inputs": [],
      "name": "registered",
      "outputs": [
        {
          "internalType": "bool",
          "name": "",
          "type": "bool"
        }
      ],
      "stateMutability": "view",
      "type": "function"
    },
    {
      "inputs": [
        {
          "internalType": "uint256",
          "name": "branchId",
          "type": "uint256"
        },
        {
          "internalType": "bytes",
          "name": "branchUri",
          "type": "bytes"
        }
      ],
      "name": "setBranch",
      "outputs": [],
      "stateMutability": "nonpayable",
      "type": "function"
    },
    {
      "inputs": [],
      "name": "setInitialPot",
      "outputs": [],
      "stateMutability": "payable",
      "type": "function"
    },
    {
      "inputs": [
        {
          "internalType": "address",
          "name": "addr",
          "type": "address"
        },
        {
          "internalType": "bool",
          "name": "value",
          "type": "bool"
        }
      ],
      "name": "setPrivilages",
      "outputs": [],
      "stateMutability": "nonpayable",
      "type": "function"
    },
    {
      "inputs": [
        {
          "internalType": "address",
          "name": "addr",
          "type": "address"
        }
      ],
      "name": "transferOwnership",
      "outputs": [],
      "stateMutability": "nonpayable",
      "type": "function"
    },
    {
      "inputs": [],
      "name": "uri",
      "outputs": [
        {
          "internalType": "string",
          "name": "",
          "type": "string"
        }
      ],
      "stateMutability": "view",
      "type": "function"
    },
    {
      "inputs": [
        {
          "internalType": "address",
          "name": "",
          "type": "address"
        }
      ],
      "name": "winnings",
      "outputs": [
        {
          "internalType": "uint256",
          "name": "",
          "type": "uint256"
        }
      ],
      "stateMutability": "view",
      "type": "function"
    },
    {
      "inputs": [],
      "name": "withdraw",
      "outputs": [],
      "stateMutability": "nonpayable",
      "type": "function"
    }
  ],
  "bytecode": "0x60806040523480156200001157600080fd5b5060405162001f3138038062001f318339810160408190526200003491620001bc565b600080546001600160a01b03191633908117825581526002602090815260408220805460ff191660019081179091559190915583516200007b9160039190860190620000e3565b50600980546001600160a01b039687166001600160a01b03199182168117909255600a805496909716951694909417909455600555506007919091556004805460ff19908116909155600091825260026020526040909120805490911660011790556200030e565b828054620000f190620002d1565b90600052602060002090601f01602090048101928262000115576000855562000160565b82601f106200013057805160ff191683800117855562000160565b8280016001018555821562000160579182015b828111156200016057825182559160200191906001019062000143565b506200016e92915062000172565b5090565b5b808211156200016e576000815560010162000173565b80516001600160a01b0381168114620001a157600080fd5b919050565b634e487b7160e01b600052604160045260246000fd5b600080600080600060a08688031215620001d557600080fd5b620001e08662000189565b94506020620001f181880162000189565b60408801519095506001600160401b03808211156200020f57600080fd5b818901915089601f8301126200022457600080fd5b815181811115620002395762000239620001a6565b604051601f8201601f19908116603f01168101908382118183101715620002645762000264620001a6565b816040528281528c868487010111156200027d57600080fd5b600093505b82841015620002a1578484018601518185018701529285019262000282565b82841115620002b35760008684830101525b60608c01516080909c01519a9d999c509a9998975050505050505050565b600181811c90821680620002e657607f821691505b602082108114156200030857634e487b7160e01b600052602260045260246000fd5b50919050565b611c13806200031e6000396000f3fe60806040526004361061013c5760003560e01c806310a8c7a91461014157806310fe7c48146101635780631bce6ff3146101765780632de40ce31461018b57806331ed86d2146101ba5780633ccfd60b146101da57806341931a4a146101ef57806343d726d614610213578063450fe3911461022857806349d2e2771461026b5780634ba2363a1461028157806383cc76601461029757806387734d53146102c4578063978de33a146102e4578063a182ac38146102ec578063c7876ea414610319578063d15d41501461032f578063d353a1cb1461034f578063d5f394881461036f578063d8b964e6146103a7578063ea3a1499146103d7578063eac989f814610404578063ee09cefd14610419578063f2fde38b14610446578063f6e6eb7e14610466578063f872b71514610485578063fe684c0e146104a5575b600080fd5b34801561014d57600080fd5b5061016161015c366004611630565b6104c5565b005b6101616101713660046116ce565b610565565b34801561018257600080fd5b5061016161087f565b34801561019757600080fd5b506004546101a59060ff1681565b60405190151581526020015b60405180910390f35b3480156101c657600080fd5b506101616101d5366004611630565b61091a565b3480156101e657600080fd5b506101616109ad565b3480156101fb57600080fd5b5061020560085481565b6040519081526020016101b1565b34801561021f57600080fd5b50610161610a78565b34801561023457600080fd5b506102056102433660046116e7565b6001600160a01b03919091166000908152600f60209081526040808320938352929052205490565b34801561027757600080fd5b5061020560075481565b34801561028d57600080fd5b5061020560065481565b3480156102a357600080fd5b506102b76102b23660046116ce565b610b4a565b6040516101b19190611760565b3480156102d057600080fd5b506102b76102df36600461177a565b610be4565b610161610cd2565b3480156102f857600080fd5b5061030c6103073660046117af565b610d7b565b6040516101b1919061185d565b34801561032557600080fd5b5061020560055481565b34801561033b57600080fd5b506101a561034a3660046118bf565b610e29565b34801561035b57600080fd5b5061016161036a3660046116ce565b610e64565b34801561037b57600080fd5b5060005461038f906001600160a01b031681565b6040516001600160a01b0390911681526020016101b1565b3480156103b357600080fd5b506101a56103c23660046118bf565b60026020526000908152604090205460ff1681565b3480156103e357600080fd5b506102056103f23660046118bf565b600d6020526000908152604090205481565b34801561041057600080fd5b506102b7611322565b34801561042557600080fd5b506102056104343660046116ce565b600b6020526000908152604090205481565b34801561045257600080fd5b506101616104613660046118bf565b61132f565b34801561047257600080fd5b506004546101a590610100900460ff1681565b34801561049157600080fd5b506101616104a03660046118dc565b6113cf565b3480156104b157600080fd5b506101616104c036600461197a565b611437565b6000546001600160a01b031633146104f85760405162461bcd60e51b81526004016104ef906119b8565b60405180910390fd5b805161050357600080fd5b60005b815181101561056157600160026000848481518110610527576105276119de565b6020908102919091018101516001600160a01b03168252810191909152604001600020805460ff1916911515919091179055600101610506565b5050565b60018060008282546105779190611a0a565b9091555050600154600454610100900460ff16156105d25760405162461bcd60e51b81526020600482015260186024820152776e6f206d6f726520626574732063616e206265206d61646560401b60448201526064016104ef565b60045460ff166105f45760405162461bcd60e51b81526004016104ef90611a22565b60055434146106435760405162461bcd60e51b815260206004820152601b60248201527a7072696365206d757374206d61746368206261736520707269636560281b60448201526064016104ef565b6000828152600c60205260409020805461065c90611a57565b1515905061069d5760405162461bcd60e51b815260206004820152600e60248201526d0d2dcecc2d8d2c840c4e4c2dcc6d60931b60448201526064016104ef565b3334604080516001600160a01b0390931660208401528201526060810183905260800160408051601f198184030181529181526000848152600e6020908152828220600b8252838320548352815291902082516106ff93919290910190611519565b50336000908152600f602090815260408083208584528252808320600b835290832054815460018101835591845291909220909101556005546064116107ea57600060646007546107509190611a92565b61075a9034611ab4565b600a546040516335daa6f960e11b8152600160048201529192506001600160a01b031690636bb54df29083906024016000604051808303818588803b1580156107a257600080fd5b505af11580156107b6573d6000803e3d6000fd5b5050505050806107c33490565b6107cd9190611ad3565b600660008282546107de9190611a0a565b90915550610802915050565b34600660008282546107fc9190611a0a565b90915550505b6000828152600b60205260408120805433927ff41b7910e085d0992d604fd470931728fd77cc8eb504d99e50e51a0a30fcfd1a9286929161084283611aea565b909155506040805192835260208301919091520160405180910390a260015481146105615760405162461bcd60e51b81526004016104ef90611b05565b6000546001600160a01b03163314806108a757503360009081526002602052604090205460ff165b6108c35760405162461bcd60e51b81526004016104ef90611b27565b60045460ff161561090b5760405162461bcd60e51b8152602060048201526012602482015271185b1c9958591e481c9959da5cdd195c995960721b60448201526064016104ef565b6004805460ff19166001179055565b6000546001600160a01b031633146109445760405162461bcd60e51b81526004016104ef906119b8565b805161094f57600080fd5b60005b815181101561056157600060026000848481518110610973576109736119de565b6020908102919091018101516001600160a01b03168252810191909152604001600020805460ff1916911515919091179055600101610952565b60018060008282546109bf9190611a0a565b9091555050600154336000908152600d6020526040902054610a115760405162461bcd60e51b815260206004820152600b60248201526a6e6f2077696e6e696e677360a81b60448201526064016104ef565b336000818152600d6020526040808220805490839055905190929183156108fc02918491818181858888f19350505050158015610a52573d6000803e3d6000fd5b50506001548114610a755760405162461bcd60e51b81526004016104ef90611b05565b50565b6000546001600160a01b0316331480610aa057503360009081526002602052604090205460ff165b610abc5760405162461bcd60e51b81526004016104ef90611b27565b6009546001600160a01b0316336001600160a01b031614610aef5760405162461bcd60e51b81526004016104ef90611b4d565b600454610100900460ff1615610b395760405162461bcd60e51b815260206004820152600f60248201526e616c726561647920636c6f73696e6760881b60448201526064016104ef565b6004805461ff001916610100179055565b600c6020526000908152604090208054610b6390611a57565b80601f0160208091040260200160405190810160405280929190818152602001828054610b8f90611a57565b8015610bdc5780601f10610bb157610100808354040283529160200191610bdc565b820191906000526020600020905b815481529060010190602001808311610bbf57829003601f168201915b505050505081565b6000828152600e602090815260408083206001600160a01b0387168452600f835281842086855290925282208054606093919085908110610c2757610c276119de565b906000526020600020015481526020019081526020016000208054610c4b90611a57565b80601f0160208091040260200160405190810160405280929190818152602001828054610c7790611a57565b8015610cc45780601f10610c9957610100808354040283529160200191610cc4565b820191906000526020600020905b815481529060010190602001808311610ca757829003601f168201915b505050505090509392505050565b6000546001600160a01b0316331480610cfa57503360009081526002602052604090205460ff165b610d165760405162461bcd60e51b81526004016104ef90611b27565b60045460ff1615610d755760405162461bcd60e51b8152602060048201526024808201527f63616e6e6f74206368616e676520706f742061667465722072656769737472616044820152633a34b7b760e11b60648201526084016104ef565b34600655565b606081516001600160401b03811115610d9657610d966115b2565b604051908082528060200260200182016040528015610dc957816020015b6060815260200190600190039081610db45790505b50905060005b8251811015610e2157610dfc8585858481518110610def57610def6119de565b6020026020010151610be4565b828281518110610e0e57610e0e6119de565b6020908102919091010152600101610dcf565b509392505050565b600080546001600160a01b0383811691161480610e5e57506001600160a01b03821660009081526002602052604090205460ff165b92915050565b6000546001600160a01b0316331480610e8c57503360009081526002602052604090205460ff165b610ea85760405162461bcd60e51b81526004016104ef90611b27565b6001806000828254610eba9190611a0a565b909155505060015460045460ff16610ee45760405162461bcd60e51b81526004016104ef90611a22565b6009546001600160a01b0316336001600160a01b031614610f175760405162461bcd60e51b81526004016104ef90611b4d565b6000828152600b602052604090205460065481610f9557600a546006546040516335daa6f960e11b8152600160048201526001600160a01b0390921691636bb54df291906024016000604051808303818588803b158015610f7757600080fd5b505af1158015610f8b573d6000803e3d6000fd5b50505050506112b1565b8160011415611078576000848152600e6020908152604080832083805290915281208054610fc290611a57565b80601f0160208091040260200160405190810160405280929190818152602001828054610fee90611a57565b801561103b5780601f106110105761010080835404028352916020019161103b565b820191906000526020600020905b81548152906001019060200180831161101e57829003601f168201915b50505050508060200190518101906110539190611b8f565b50506006546001600160a01b039091166000908152600d6020526040902055506112b1565b816006546110869190611a92565b90505b806110ae5761109782611bc6565b9150816006546110a79190611a92565b9050611089565b6000848152600b602052604090205482146111ca576000848152600b60205260408120546110dd908490611ad3565b905060005b818110156111c7576000868152600e602090815260408083208380529091528120805482919061111190611a57565b80601f016020809104026020016040519081016040528092919081815260200182805461113d90611a57565b801561118a5780601f1061115f5761010080835404028352916020019161118a565b820191906000526020600020905b81548152906001019060200180831161116d57829003601f168201915b50505050508060200190518101906111a29190611b8f565b506001600160a01b039091166000908152600d602052604090205550506001016110e2565b50505b60005b828110156112af576000858152600e60209081526040808320838052909152812080546111f990611a57565b80601f016020809104026020016040519081016040528092919081815260200182805461122590611a57565b80156112725780601f1061124757610100808354040283529160200191611272565b820191906000526020600020905b81548152906001019060200180831161125557829003601f168201915b505050505080602001905181019061128a9190611b8f565b50506001600160a01b03166000908152600d60205260409020839055506001016111cd565b505b6000848152600b60209081526040918290205482518781529182018490528183015290517fbc29e637e43613661373bf1e26946b9fbc95c9b2d2108467662cd55e570c811f9181900360600190a1505060015481146105615760405162461bcd60e51b81526004016104ef90611b05565b60038054610b6390611a57565b6000546001600160a01b031633146113595760405162461bcd60e51b81526004016104ef906119b8565b600080546001600160a01b03908116825260026020526040808320805460ff1990811690915583546001600160a01b03191692851692831784558284528184208054909116600117905551909133917f93091b3f3cd424efabc74e181f3799f3476ed758412561ed3b29515c51f567529190a350565b6000546001600160a01b03163314806113f757503360009081526002602052604090205460ff165b6114135760405162461bcd60e51b81526004016104ef90611b27565b6000828152600c60209081526040909120825161143292840190611519565b505050565b6000546001600160a01b031633146114615760405162461bcd60e51b81526004016104ef906119b8565b6000546001600160a01b03838116911614156114b85760405162461bcd60e51b815260206004820152601660248201527531b0b73737ba1036b7b234b33c903232b83637bcb2b960511b60448201526064016104ef565b6001600160a01b038216600081815260026020908152604091829020805460ff1916851515908117909155915191825233917ff38de818d000d07d091732dd783c6855722d7bc1934d92b7635133289d341695910160405180910390a35050565b82805461152590611a57565b90600052602060002090601f016020900481019282611547576000855561158d565b82601f1061156057805160ff191683800117855561158d565b8280016001018555821561158d579182015b8281111561158d578251825591602001919060010190611572565b5061159992915061159d565b5090565b5b80821115611599576000815560010161159e565b634e487b7160e01b600052604160045260246000fd5b604051601f8201601f191681016001600160401b03811182821017156115f0576115f06115b2565b604052919050565b60006001600160401b03821115611611576116116115b2565b5060051b60200190565b6001600160a01b0381168114610a7557600080fd5b6000602080838503121561164357600080fd5b82356001600160401b0381111561165957600080fd5b8301601f8101851361166a57600080fd5b803561167d611678826115f8565b6115c8565b81815260059190911b8201830190838101908783111561169c57600080fd5b928401925b828410156116c35783356116b48161161b565b825292840192908401906116a1565b979650505050505050565b6000602082840312156116e057600080fd5b5035919050565b600080604083850312156116fa57600080fd5b82356117058161161b565b946020939093013593505050565b6000815180845260005b818110156117395760208185018101518683018201520161171d565b8181111561174b576000602083870101525b50601f01601f19169290920160200192915050565b6020815260006117736020830184611713565b9392505050565b60008060006060848603121561178f57600080fd5b833561179a8161161b565b95602085013595506040909401359392505050565b6000806000606084860312156117c457600080fd5b83356117cf8161161b565b9250602084810135925060408501356001600160401b038111156117f257600080fd5b8501601f8101871361180357600080fd5b8035611811611678826115f8565b81815260059190911b8201830190838101908983111561183057600080fd5b928401925b8284101561184e57833582529284019290840190611835565b80955050505050509250925092565b6000602080830181845280855180835260408601915060408160051b870101925083870160005b828110156118b257603f198886030184526118a0858351611713565b94509285019290850190600101611884565b5092979650505050505050565b6000602082840312156118d157600080fd5b81356117738161161b565b600080604083850312156118ef57600080fd5b823591506020808401356001600160401b038082111561190e57600080fd5b818601915086601f83011261192257600080fd5b813581811115611934576119346115b2565b611946601f8201601f191685016115c8565b9150808252878482850101111561195c57600080fd5b80848401858401376000848284010152508093505050509250929050565b6000806040838503121561198d57600080fd5b82356119988161161b565b9150602083013580151581146119ad57600080fd5b809150509250929050565b6020808252600c908201526b3737ba103232b83637bcb2b960a11b604082015260600190565b634e487b7160e01b600052603260045260246000fd5b634e487b7160e01b600052601160045260246000fd5b60008219821115611a1d57611a1d6119f4565b500190565b6020808252818101527f626574206e6f7420736574207570207769746820686f757365206f7261636c65604082015260600190565b600181811c90821680611a6b57607f821691505b60208210811415611a8c57634e487b7160e01b600052602260045260246000fd5b50919050565b600082611aaf57634e487b7160e01b600052601260045260246000fd5b500490565b6000816000190483118215151615611ace57611ace6119f4565b500290565b600082821015611ae557611ae56119f4565b500390565b6000600019821415611afe57611afe6119f4565b5060010190565b60208082526008908201526772652d656e74727960c01b604082015260600190565b6020808252600c908201526b1b9bdd08185c1c1c9bdd995960a21b604082015260600190565b60208082526022908201527f63616e206f6e6c792062652073656e742066726f6d20686f757365206f7261636040820152616c6560f01b606082015260800190565b600080600060608486031215611ba457600080fd5b8351611baf8161161b565b602085015160409095015190969495509392505050565b600081611bd557611bd56119f4565b50600019019056fea26469706673582212207fc5a5dce26d9f36d11d19bf331638f80c857020a4ceb4619319529a8bad2a0664736f6c634300080c0033",
  "linkReferences": {},
  "deployedLinkReferences": {}
}